:020000040000FA
:1000000001288B0183168501F23086008701880163
:10001000831285018601870188012720861C0E280E
:10002000060E0F39820731343234333441343434DC
:1000300035343634423437343834393443342A345E
:100040003034233444344B20861824280E2883125D
:1000500088155C205C205C2033303C2032303C2012
:1000600028303C200C303C2006303C2001303C2025
:10007000080001303C2008000811A000F039880079
:1000800088155C208811200EF039880088155C20C6
:1000900088115C2008000815A1002108F039043EF1
:1000A000880088155C208811210EF039043E8800F4
:1000B00088155C20881108001430F200FF30F10030
:0A00C000F10B6028F20B5E28080027
:02400E00F23F7F
:00000001FF
