:020000040000FA
:0400000013EF00F00A
:040008000FEF00F006
:080018000FEF00F010008D90C5
:1000200042EF00F01000F26A926AF20E936E946A48
:10003000956A966A896A8A6A8B6A8C6A8D6AAA0E40
:100040008B6EBAEC01F0F086F18AF28E040E006E2F
:10005000BEEC00F0B8EF01F0000EF86E000EF76E87
:10006000720E0124F66E000EF722F8220800F550F9
:10007000016E0102030004050600070809000000E4
:100080000000120081380F0B016E0050000AD8B436
:100090004DEF00F0000A55EF00F0000A01500F0A82
:1000A000D8A4B0EF00F09FEF00F0010AD8B45CEFE5
:1000B00000F0010A6CEF00F0010A01500C0AD8A40C
:1000C000B5EF00F00F0AD8A4B0EF00F0030AD8A4EF
:1000D000BAEF00F09FEF00F0020AD8B473EF00F01F
:1000E000020A95EF00F0020A000EEA6E020EE96EB7
:1000F00001500C0AD8A4B5EF00F0070AD8A4ABEF62
:1001000000F0040AD8A4BAEF00F00C0AD8A4B5EFA6
:1001100001F0040AD8A4B5EF01F0090AD8A4B5EF9C
:1001200001F0A2EF00F09FEF00F0030AD8B49CEFBB
:1001300000F0030A9FEF00F0030A9FEF00F08152E6
:10014000B5EF01F02CEC00F0EF360F0BEF16EF6E71
:10015000B5EF01F01200EF42080EEB32B5EF01F0FF
:10016000002A00C089FFBEEF00F0000600C089FF32
:10017000BEEF00F0002A002ABEEF00F0BAEC01F05A
:10018000000EF86E020EF76E240E0002020EF3242B
:10019000F66E000EF722F822F750F424F76E000EE8
:1001A000F8220800F550826EE6EC01F00B00F550E5
:1001B000FBE1C00E01EC02F00B000B00F550E6EC89
:1001C00001F00B00F550FBE1B5EF01F00050030A20
:1001D000D8B4EEEF00F0030AF4EF00F0030A070EC4
:1001E00001EC02F001EF01F0040AD8B4FBEF00F0DB
:1001F000040A01EF01F0040A090E01EC02F001EF1C
:1002000001F057656C636F6D652020202020202051
:100210002020000020202020202020202053746156
:1002200072743A440000202020202020202020202A
:100230004C6F61643A4100002A3A4261636B2020AE
:1002400020204E6578743A440000496E7320436F55
:100250006E652120202055703A4100002A3A426103
:10026000636B20202020446F776E3A4400004F6675
:10027000667365743A5F2020202020202020000033
:100280002A3A4261636B202020204E6578743A44FC
:100290000000496E74657276616C3A5F2020202000
:1002A000202000002A3A4261636B202020204E6506
:1002B00078743A440000526561647921202020203E
:1002C00020202020202000002A3A4261636B202059
:1002D0002053746172743A4400004465706C6F7905
:1002E000696E67202E2E2E20202000002020202046
:1002F000202020202041626F72743A430000537521
:100300006363657373212053746174733A41000011
:100310002A3A4261636B20202020202020202020C8
:100320000000202020636D20282029204E6578744D
:100330003A4100002A3A4261636B20544469737465
:100340003A202020000053746F72653F2020202047
:10035000205965733A4100002A3A4261636B2020BC
:10036000202020204E6F3A420000F0908D80100037
:10037000B8EF01F00BEC02F00BEC02F00BEC02F02A
:100380008394300E06EC02F0F8EC01F0F8EC01F08A
:100390000BEC02F0F8EC01F0200E06EC02F0F8ECA9
:1003A00001F00BEC02F0280EE6EC01F00BEC02F091
:1003B0000F0EE6EC01F00BEC02F0060EE6EC01F09D
:1003C0000BEC02F0F1EC01F083841200806F06EC7C
:1003D00002F0F8EC01F0803906EC02F0F8EC01F0E4
:1003E00012008394010EE6EC01F00BEC02F0120017
:1003F000838600008396230E816F812FFDEF01F02D
:10040000120000008394E6EC01F08384F00B831269
:100410000F0983161200500E826F230E816F812FF9
:0C0420000FEF02F0822F0DEF02F012002F
:020000040030CA
:0E000000FF021F1EFF8181FF0FC00FE00F40A7
:00000001FF
