:020000040000FA
:0400000013EF00F00A
:040008000FEF00F006
:080018000FEF00F0100081B2AF
:1000200040EF00F01000F26A926AF20E936E946A4A
:10003000956A896A8A6A8B6A8C6AAA0E8B6EA3ECAF
:1000400001F0F086F18AF28E000E006EB9EC00F03D
:10005000A0EF01F0000EF86E000EF76E6E0E012498
:10006000F66E000EF722F8220800F550016E01022C
:100070000300040506000708090000000000120044
:1000800081380F0BE844016E0050000AD8B44CEFE1
:1000900000F0000A54EF00F0000A01500F0AD8A443
:1000A000AFEF00F09EEF00F0010AD8B45BEF00F074
:1000B000010A6BEF00F0010A01500C0AD8A4B2EF5C
:1000C00000F00F0AD8A4AFEF00F0030AD8A4B5EFF0
:1000D00000F09EEF00F0020AD8B472EF00F0020ABE
:1000E00094EF00F0020A000EEA6E020EE96E015073
:1000F0000C0AD8A4B2EF00F0070AD8A4AAEF00F0C7
:10010000040AD8A4B5EF00F00C0AD8A4A0EF01F0BF
:10011000040AD8A4A0EF01F0090AD8A4A0EF01F0C6
:10012000A1EF00F09EEF00F0030AD8B49BEF00F0BF
:10013000030A9EEF00F0030A9EEF00F08152A0EF49
:1001400001F02AEC00F0EF360F0BEF16EF6EA0EF88
:1001500001F01200EF42080EEB32A0EF01F0002A8E
:10016000B9EF00F00006B9EF00F0002A002AB9EF5D
:1001700000F0DAEC01F0000EF86E020EF76E00C02F
:100180000AF0100E0A020A6E000E0A24F66E000E25
:10019000F722F8220800F550CFEC01F00B00F550E3
:1001A000FBE1140EEAEC01F0000EF86E020EF76EA1
:1001B000A20E0024F66E000EF722F8220800F55079
:1001C000CFEC01F00B00F550FBE10050030AD8B46E
:1001D000EDEF00F0030AF3EF00F0030A070EEAEC7C
:1001E00001F000EF01F0040AD8B4FAEF00F0040ABD
:1001F00000EF01F0040A090EEAEC01F000EF01F053
:1002000057656C636F6D6520202020202020200022
:100210002020202020202020204C6F61643A4100C3
:10022000496E7320436F6E652120202055703A413E
:10023000004F66667365743A5F20202020202020DE
:1002400000496E74657276616C3A5F202020202030
:100250000052656164792120202020202020202068
:10026000004465706C6F79696E67202E2E2E2020F9
:100270000053756363657373212053746174733A1B
:100280004100202020636D282029204E6578743A93
:10029000410053746F72653F202020205965733AE6
:1002A00041002020202020202020205374617274DF
:1002B0003A44002A3A4261636B202020204E657840
:1002C000743A44002A3A4261636B202020204E6534
:1002D00078743A44002A3A4261636B202020204E11
:1002E0006578743A44002A3A4261636B20202020EA
:1002F0004E6578743A4400202020202020202020C1
:1003000041626F72743A43002A3A4261636B202063
:100310002020202020202020002A3A4261636B20E8
:1003200054446973743A202020002A3A4261636B76
:100330002020202020204E6F3A420000A0EF01F044
:10034000F090A1EF01F0F5EC01F0F5EC01F0F5EC27
:1003500001F08394300EF0EC01F0E1EC01F0E1ECFF
:1003600001F0F5EC01F0E1EC01F0200EF0EC01F011
:10037000E1EC01F0F5EC01F0280ECFEC01F0F5EC2A
:1003800001F00F0ECFEC01F0F5EC01F0060ECFEC12
:1003900001F0F5EC01F0DAEC01F083841200806FDB
:1003A000F0EC01F0E1EC01F08039F0EC01F0E1EC6F
:1003B00001F012008394010ECFEC01F0F5EC01F096
:1003C0001200838600008396230E816F812FE6EF53
:1003D00001F0120000008394800BCFEC01F08384C5
:1003E000F00B83120F0983161200500E826F230E3A
:1003F000816F812FF9EF01F0822FF7EF01F01200EA
:020000040030CA
:0E000000FF021F1EFF8181FF0FC00FE00F40A7
:00000001FF
