:020000040000FA
:0400000017EF00F006
:040008000DEF00F008
:08001800100081380F0BE844D1
:1000200028EC00F068EC00F08152F0901000F26AC9
:10003000926AF20E936E946A956A896A8A6A8B6AEA
:100040008C6A3CEC00F0F086F18AF28E3AEF00F018
:10005000F926310C320C330C410C340C350C360CB7
:10006000420C370C380C390C430C2A0C300C230C86
:10007000440C12003AEF00F088EC00F088EC00F03D
:1000800088EC00F08394300E83EC00F07AEC00F002
:100090007AEC00F088EC00F07AEC00F0200E83ECB3
:1000A00000F07AEC00F088EC00F0280E68EC00F02C
:1000B00088EC00F00F0E68EC00F088EC00F0060E03
:1000C00068EC00F088EC00F073EC00F08384120020
:1000D000816F83EC00F07AEC00F0813983EC00F062
:1000E0007AEC00F012008394010E68EC00F088ECCA
:1000F00000F01200838600008396230E826F822F09
:100100007FEF00F01200F00B83120F09831612002C
:10011000500E836F230E826F822F8CEF00F0832F9F
:060120008AEF00F012005E
:020000040030CA
:0E000000FF021F1EFF8181FF0FC00FE00F40A7
:00000001FF
