:020000040000FA
:1000000001288B0183168501F23086008701880163
:10001000831285018601870188012820861C0E280D
:10002000060E0F3917204C20861814280E28820738
:100030003134323433344134343435343634423468
:1000400037343834393443342A3430342334443464
:10005000831288155D205D205D2033303D203230D5
:100060003D2028303D200C303D2006303D20013021
:100070003D20080001303D2008000811F300F03950
:10008000880088155D208811730EF0398800881566
:100090005D2088115D2008000815F4007408F0390F
:1000A000043E880088155D208811740EF039043EE6
:1000B000880088155D20881108001430F200FF3098
:0C00C000F100F10B6128F20B5F28080032
:02400E00313F40
:00000001FF
