:020000040000FA
:040008007E2D080041
:100020008A150A1600208A110A124726F012F212C7
:10003000F217C001C1018611701183120313F80178
:10004000F901FA01FB01FC01FD01FE01FF01203075
:1000500084008F25A000243020020319FD283C30A5
:100060002002031D2928840AC9010230BD008F2502
:10007000C907D6208000840ABD0B37282208C80093
:10008000210EC80406304802BD008F25C907D620BE
:100090008000840ABD0B45280230BD008F25D62084
:1000A0008000840ABD0B4E288F25BC003E303C02E8
:1000B000031D812884030008BC008403000EBC04D7
:1000C00049083C02031D8A28831324308400000859
:1000D000CA008403000ECA04CA0803197E284E30E1
:1000E0004A0203187E280611861590304A07073009
:1000F0000318013E8A004A0890271B280030BF00E1
:1001000099280130BF0099280230BF009928033098
:10011000BF0099280430BF0099280530BF009928F6
:100120000630BF0099280730BF0099280830BF006B
:1001300099280A30C8000030CA00831710308400A4
:100140003F08800006157015DE251B2841346C34ED
:100150006C34203459346F34753472342034423462
:10016000613473346534203441347234653420345E
:10017000423465346C346F346E3467342034543414
:080180006F3420345534733450
:10019000F6308100D428EC308100D428D83081009A
:1001A000D4283D308100D4280B110800F700F60058
:1001B0000F30F605473077020318E4284130770204
:1001C000031CE4280930F60776080800B800B900D7
:1001D000F030B905390EF220B9000F303805F220A1
:1001E000B8000800F6000A307602031CFA283730FF
:1001F0007607FC283030760708000530BD00213036
:1002000084008F258000840ABD0B0129BC000D30BD
:100210003C02031D7E2830308C2532308C251B2873
:100220000E30C8000130CA008A110A1600208A1157
:100230000A127015DE2508001230C8000230CA000C
:1002400058267015DE2508000E30C8000430CA009C
:1002500070150230D5008A150A1607208A110A1275
:10026000711C35297624BF00FB247015DE2508009B
:100270000830C8000530CA0083132608BC00250ECC
:10028000BC04BC080319452947296E27482967275C
:10029000DE2508000830C8000630CA002608C20063
:1002A000250EC2042808C300270EC3042908C40071
:1002B0002A0EC404DE2508000A30C8000730CA0030
:1002C0008A110A160C208A110A127015DE25080000
:1002D0000A30C8000830CA00BF267015DE250800A5
:1002E0000830C8000930CA002608C100250EC10424
:1002F000DE2508000830C8000A30CA002608BC0005
:10030000250EBC04F212BC0803198729F216DE255B
:1003100008000830C8000B30CA002608BC00250EB3
:10032000BC04BC08031D9D299529F2178A110A16E1
:100330009A228A110A12F217A429F2178A110A16B0
:100340009A228A110A12F213DE2508000830C8002A
:100350000C30CA002608BC00250EBC047213BC0871
:10036000031DB32972170B30D5008A150A16072012
:100370008A110A12DE250800080008008312031300
:10038000F016061008000830C8001230CA00DE253A
:1003900008000830C8001330CA00DE250800083005
:1003A000C8001B30CA008A110A160C228A110A12D0
:1003B0000430D500A82408000830C8001E30CA0048
:1003C0008A110A160C228A110A120330D5008524DC
:1003D00008000830C8002330CA008A110A16122209
:1003E0008A110A121C30D500852408000830C80084
:1003F0002430CA008A110A1612228A110A121D30EC
:10040000D500A82408000830C8002530CA00DE2521
:100410008A110A169A228A110A1208000830C800A6
:100420002630CA008A110A1667218A110A12DE25AF
:1004300008000830C8002730CA008A110A1698211F
:100440008A110A12DE2508000830C8002830CA00C8
:100450008A110A16C9218A110A12DE25682C083071
:10046000C8002930CA008A110A1661218A110A12AD
:10047000DE2508000830C8002A30CA008313260889
:10048000BE00250EBE048A110A163F228A110A12E6
:10049000DE2508000830C8002B30CA002608BC0042
:1004A000250EBC0400303C020319612A01303C02D5
:1004B0000319752A02303C0203195F2A882A2D2766
:1004C000882A2D277A251A277A255F278719882ACF
:1004D0005727871587115F27D1208719882A0B1D79
:1004E0006D2A0730BF00FB24882A2D277A251A277A
:1004F0005727871587115F271930D5008A150A16E7
:1005000007208A110A12711C882A7624BF00FB2456
:10051000DE2508000A30C8002C30CA00F218982ADC
:100520007219962A0030CA000330A62A0230A62A81
:100530005F27871DA42A5030BD00871DA42ABD0354
:10054000031D9D2A0030A62A0130A62ABC0083176D
:1005500010308400831203133C0880007015DE25E0
:1005600008002D277A251A270830C8002D30CA0028
:10057000DE2508000830C8002E30CA008711572732
:1005800087114E27071ECA2A8A150A169A228A112F
:100590000A12C12A87157625762587115F27DE2561
:1005A00008000830C8002F30CA001A30D500662D68
:1005B0000830C8003030CA001930D500662D083028
:1005C000C8003130CA0007258A110A161A218A117B
:1005D0000A120E2508000830C8003230CA00232550
:1005E0008A110A1685208A110A122F250800083060
:1005F000C8003330CA002608BC00250EBC040030F9
:100600003C02031D052B2D27142B01303C02031D3A
:100610000B2B1A27142B02303C02031D112B07272A
:10062000142B0630BF00FB24DE2508000A30C8006A
:100630003430CA00831710308400CA268312031393
:100640001E08831203178000831203137015DE2522
:1006500008000A30C8003530CA0083171030840003
:100660000727C6262D27831203131E08831203179C
:100670008000831203137015DE2508000A30C800BD
:100680003730CA00831710308400CE26831203133C
:100690001E08831203178000831203137015DE25D2
:1006A00008000830C8003930CA0023258A150A1608
:1006B000EB208A110A12F11C602B70160730BF0064
:1006C0002F2508000830C8003B30CA002508BC00B0
:1006D00001303C020319702B0630BF00FB247A2B3B
:1006E0008A110A1609228A110A12711D7A2B073003
:1006F000BF00FB24DE2508000830C8003C30CA00DB
:10070000F801F901FA01FB01FC01FD01FE01FF0105
:100710008A150A16EB208A110A125F27871D8D2B76
:10072000942B0730BF00FB24DE2508001030C800E2
:100730003D30CA0070150D30D500662D0830C80058
:100740003E30CA0007258A110A169A228A110A1217
:100750000E258A110A1208000830C8003F30CA006E
:1007600023258A110A169A228A110A122F250800B7
:100770000830C8004030CA0007258A110A16272110
:100780008A110A120E2508000830C8004130CA003C
:1007900023258A110A168E208A110A122F25080095
:1007A0000830C8004230CA00D9248A110A1609222A
:1007B0008A110A12DE2508000830C8004330CA003A
:1007C00023258A110A1612208A110A122F250800E1
:1007D0000830C8004430CA0023258A110A162E208A
:1007E0008A110A122F2508000830C8004530CA00B7
:1007F00023258A110A167C208A110A122F25080047
:100800000830C8004630CA0023258A110A165F2026
:100810008A110A122F2508000830C8004730CA0084
:1008200007258A110A16AB208A110A120E258A1191
:100830000A1208000830C8004830CA0007251C30DA
:100840003E06031D2F2C0030F8000430F900FA0199
:10085000FB018A110A164B228A110A12342C8A11C2
:100860000A16D1208A110A120E2508000830C80085
:100870004930CA0007258A110A160D218A110A1269
:100880000E2508000830C8004A30CA0007258A1122
:100890000A16ED208A110A120E2508000830C80039
:1008A0004B30CA002608C000250EC004DE25080013
:1008B0000830C8004C30CA00DE257A252F260800F3
:1008C0000830C8004D30CA00DE257A253B260800D6
:1008D0000030BF000A30C8000030CA008317103053
:1008E00084003F0880007015DE250800F11D7A2C79
:1008F0000930842C711E7E2C1030842C711F822CA8
:100900001130842C0830842C0800D9248A150A164A
:1009100007208A110A12711C912C0730BF00FB249A
:10092000A62CDE2572257B308C257225C9018A15FF
:100930000A16BB218A110A124908E62039088C25BB
:1009400038088C2572257D308C257225DE2508001F
:10095000D9248A150A1607208A110A12711CB42C90
:100960000730BF00FB24D72CDE258F257B3C0319E5
:10097000BD2C0130BF00FB24D72CC9018A150A16F3
:10098000D2218A110A128F25D620BC00BC0E8F25D9
:10099000D6203C0449020319D02C0430BF00701645
:1009A0008F257D3C0319D72C0130BF00FB24DE25A9
:1009B000080083132C08F8002B0EF8042A08F9000D
:1009C000290EF9042808FA00270EFA042608FB006D
:1009D000250EFB043408FC00330EFC043208FD0035
:1009E000310EFD043008FE002F0EFE042E08FF001D
:1009F0002D0EFF0408000A30C8000030CA00701530
:100A00008317103084003F08800006150800D924A1
:100A1000DE2572257B308C25C90108004908E620B7
:100A200039088C2538088C257D308C25212D0A30FD
:100A3000C8000030CA0070158317103084003F08CA
:100A40008000DE2508007012D924DE258F257B3C2E
:100A500003192D2D0130BF007016C90108008F2524
:100A6000D620BC00BC0E8F25D6203C0449020319B9
:100A70003C2D0430BF0070168F257D3C0319432D9B
:100A80000130BF00701603138312701E512D0A30FF
:100A9000C8000030CA0070158317103084003F086A
:100AA0008000DE250800E6203908C9078C253808B3
:100AB000C9078C2508008F25C907D620B900B90EB3
:100AC0008F25C907D620B904390808008A150A16E7
:100AD00007208A110A12711C702D0730BF00FB24F9
:100AE000DE250800C8200B1D732D0800CE200B1D2D
:100AF000772D0800D1200B1D7B2D0800F300030E7D
:100B00008301F5000A08F4008A0174088A00750E52
:100B10008300F30E730E0900F01CA02DC52DF01CF0
:100B2000922DAE2D83120313F01A9E2D06148316F8
:100B3000891B9B2D982D83120610080806100800AB
:100B4000F01AAD2D83128C13880006148316091B2E
:100B5000A72D83128C1FAA2D0610080083120313E1
:100B60008C1AB62D86128C1AB62DB32D1A08C02DEC
:100B70001819BE2D9818BE2D0301C02D1812181675
:100B80008616BA01BA0BC22D0800C7000C1EC62D6E
:100B9000470899008316981CCB2DCF2D8312831202
:100BA000080004304802C500831321308400C901C5
:100BB0000008C907840AC50BD82D0800831320300C
:100BC00084005B308000840A4808E62039088000F1
:100BD000840A38088000840A4A08E6203908800020
:100BE000840A38088000840A701D132E08304802D9
:100BF000C5000310C50C2530C60083171030F70060
:100C00008317770884000008E620831346088400D1
:100C100039088000C60A840A38088000C60A83178B
:100C2000F70AC50B002ED12503304802F60020300C
:100C3000760784004908E62039088000840A3808CD
:100C40008000840A5D3080004808C500831320308E
:100C5000840000088C25840AC50B292E0800831205
:100C600003138616831640309900831218121A084F
:100C70001A081816080083120313861683161530F7
:100C80009900831218121A081A08181608008316F9
:100C9000D0308700A00005148514851504309F000E
:100CA000831280309F002D278030CD00DA26080087
:100CB00086157208CC003927831203171030840080
:100CC0007726840A8326840A8F26840A9826840A33
:100CD000A526031383124C08F20072180727F21896
:100CE0001A2772192D27F2193927861108000313C4
:100CF0008312CA2633301E02031CB32E9A301E0202
:100D00000318B72EBB2E03138312CE266D081E02C6
:100D1000031CB32E6F081E020318B72EBB2E03133D
:100D200083122D27C626A4081E020318B72EBB2E39
:100D3000031383121A27CA2633301E02031CB32E54
:100D40009A301E020318B72EBB2E031383120727F7
:100D5000C6262D276D081E02031CB32E6F081E0227
:100D60000318B72EBB2E83170130800008008317AD
:100D7000803080000800831700308000080083174F
:100D80001030840000308317800008009F121F126B
:100D90009F11D22E9F121F129F15D22E9F121F1627
:100DA0009F15D22E75271F1475271F151F19D62EB4
:100DB0001F1008000313831286101130CB00E626A3
:100DC0004D08CB00E6268614792708000830BB00C2
:100DD000CB0D031CED2E8617EE2E861300000000AF
:100DE00000000000061700000000000000000613CD
:100DF000BB0BE82E08008614061786170800861419
:100E000006178613080086140617861308000708BD
:100E1000D1005115D1145110510887007214F210ED
:100E20007211F2118A110A12D1208A110A120B1DB5
:100E3000172F08000708D1005115D110511451087F
:100E400087007210F2147211F2118A110A12D12065
:100E50008A110A120B1D2A2F08000708D100511110
:100E6000D1145114510887007210F2107215F2114A
:100E700008000708D1005115D114511451088700FA
:100E80007210F2107211F2150800941283162016D7
:100E9000A01220088700831285160800941283167A
:100EA0002016A016200887008312851208009412CD
:100EB0008316A011200887008312051508009412DC
:100EC0008316A0152008870083120511080005125B
:100ED00081010B110B1D6A2F72120800051681018A
:100EE0000B110B1D712F72160800BA01BA0B762F69
:100EF0000800CE200B1D7A2F08000030CF004F08CD
:100F0000CD00DA26CE266E081E0203188C2FCF0FD6
:0A0F10007F2F0030CD00DA26080024
:100F20008207000010291C29682C242938294A2905
:100F30005C29682970297A298929A629682CBC2965
:100F4000BD29682CBE29C329C929682C682C682CA6
:100F5000682C682C682C682CCF29682C682CDC291C
:100F6000682C682C682C682CE929F629032A0E2A9B
:100F7000192A242A2F2A3A2A4A2A8A2AB12ABA2A3C
:100F8000D12AD82ADF2AEB2AF72A162B292B682CFC
:100F90003E2B682C512B682C622B7C2B962B9E2B86
:100FA000AC2BB82BC42BD02BDC2BE82BF42B002C38
:100FB0000C2C1A2C362C422C4E2C582C602C682CC5
:040FC000682C080091
:101200008A110A165521E0005521E1008A150A12BB
:1012100089221C221F233C2283238A110A12C82000
:101220008A150A120B1D1229ED2208000029080058
:1012300008000800ED220800F21A9F290E303E0631
:1012400003199F290F303E0603199F2910303E06CF
:101250000319572911303E060319572912303E064B
:101260000319572913303E0603199F2916303E06ED
:10127000031957291C303E06031D5629FF30E40090
:101280000330E50005244430E4000430E500142474
:101290004124472452245D24FF30E4000330E5005C
:1012A00023244430E4000430E5003224FF34E723F3
:1012B000ED224308E5004408E400DF21BB22FC21C5
:1012C0006308DB006208DA00ED22ED22ED22ED2258
:1012D000ED22BB22FC216308DD006208DC00F12363
:1012E0009F21E723ED224308E5004408E400DF21C5
:1012F0005B08E1005A08E00089221C221F233C22DF
:1013000083238A110A12C8208A150A120B1D862906
:10131000ED22ED22ED22ED22ED225D08E1005C08D8
:10132000E00089221C221F233C2283238A110A12F7
:10133000C8208A150A120B1D9B29F12308000E30C4
:101340003E060319CD290F303E060319CD29103072
:101350003E0603196E2C11303E0603196E2C123016
:101360003E0603196E2C13303E060319CD291630A4
:101370003E0603196E2C1C303E06031DCD29443059
:10138000E4000430E50014244124472452245D2461
:101390004430E4000430E5003224E7230310430D19
:1013A000D800D80A0030D900ED22D90BD429D80BA7
:1013B000D229ED2238234B22F12308000800E5084A
:1013C000031DE529E4080319EC29ED220130E402AC
:1013D0000318DF29E502DF290800BB22FC210800F1
:1013E000D422FC21ED220800BB22FC21ED220800C2
:1013F000ED220800ED220800E201E3018A110A163D
:10140000FF218A150A12871587110E30BB00871538
:1014100087110310871A0314E30CE20CBB0B072A95
:10142000E30CE20CE30CE20C871587118A110A1613
:10143000F8218A150A1208008712871587110E30C5
:10144000BB00E10CE00C03188716031C87128715FC
:101450008711BB0B212A87128715871108006108A5
:10146000EC006008EB00FF30E100E0001C226C089B
:10147000E1006B08E00008000130F7004E2A02305E
:10148000F7004E2A0330F7004E2A0430F7004E2AA8
:101490000530F7004E2A0A30F7004E2A8A110A1248
:1014A000CE208A150A120B1D532AF70B4E2A08006C
:1014B0008712871500008711871287150000871192
:1014C0008712871500008711871287150000871182
:1014D0008712871500008711871287150000871172
:1014E00008008716871500008711871287150000EE
:1014F0008711871287150000871187128715000052
:1015000087118712871587118712871500008711A9
:1015100008008712871500008711871687150000BD
:101520008711871287150000871187128715000021
:101530008711871287150000871187128715000011
:1015400087110800871687150000871187168715F1
:1015500000008711871287150000871187128715F1
:1015600000008711871287150000871187128715E1
:101570000000871108008712871500008711871265
:1015800087150000871187168715000087118712BD
:1015900087150000871187128715000087118712B1
:1015A000871500008711080087168715000087112E
:1015B000871287150000871187168715000087118D
:1015C0008712871500008711871287150000871181
:1015D0008712871500008711080087128715000001
:1015E0008711871687150000871187168715000059
:1015F0008711871287150000871187128715000051
:101600008711871287150000871108008716871534
:101610000000871187168715000087118716871528
:101620000000871187128715000087118712871520
:1016300000008711871287150000871108008712A4
:101640008715000087118712871500008711871200
:1016500087150000871187168715000087118712EC
:101660008715000087118712871500008711080071
:1016700087168715000087118712871500008711CC
:1016800087128715000087118716871500008711BC
:1016900087128715000087118712871500008711B0
:1016A000080087128715000087118716871500002C
:1016B000871187128715000087118716871500008C
:1016C0008711871287150000871187128715000080
:1016D0008711080087168715000087118716871560
:1016E000000087118712871500008711871687155C
:1016F0000000871187128715000087118712871550
:1017000000008711080087128715000087118716CF
:101710008715000087118716871500008711871627
:10172000871500008711871287150000871187121F
:1017300087150000871108008712871500008711A0
:1017400087128715000087118712871500008711FF
:1017500087168715000087118716871500008711E7
:10176000871287150000871108008716871500006B
:1017700087118716871500008711871687150000C7
:1017800087118712871500008711871687150000BB
:1017900087118712871500008711080087168715A3
:1017A0000000871187168715000087118716871597
:1017B0000000871187168715000087118716871587
:1017C00000008711871287150000871108008A1111
:1017D0000A12452757278712871107278A150A12E9
:1017E00008008A110A1245275727871287112D27CB
:1017F0008A150A120800BB22FC21080089221C223B
:101800001F233F22832364240800E7238A150A123A
:10181000ED228A150A12DF21FB236208DA00630831
:10182000DB00F1236C240800E7238A150A12ED225D
:101830008A150A12DF21FB236208DC006308DD0041
:10184000F1236C240800E7238A150A12ED228A1579
:101850000A12DF215A08E0005B08E100FE23F123B1
:101860006C240800E7238A150A12ED228A150A1251
:10187000DF215C08E0005D08E100FE23F1236C2419
:101880000800E723ED2238236224F1230800E72330
:10189000ED220030E4000430E500DF21382362242B
:1018A000F1230800E723ED224030E4000430E50096
:1018B000DF2138236224F1230800E7233823622440
:1018C000F12308004B2208008A110A12C8208A1549
:1018D0000A120B1D692C080048220800E723ED229C
:1018E0004308E5004408E400DF21ED22ED22ED226B
:1018F000ED22ED22BB22FC216308DD006208DC0042
:10190000F123E7230310430DD800D80A0030D90093
:10191000ED22D90B882CD80B862CED2238234B22B4
:10192000F123E723ED224308E5004408E400DF212A
:10193000ED22ED22ED22ED22ED225D08E1005C08B2
:10194000E00089221C221F233C2283238A110A12D1
:0E195000C8208A150A120B1DAB2CF1230800CB
:1020000083171030840001308000840A043080007F
:10201000840A0330800008008317103084000730E2
:1020200080000800F11215228A150A12ED228A1189
:102030000A167908E5007808E4008A150A12DF21FB
:102040008A110A164221003A03192C288A150A120D
:1020500000218A110A162228312208001C303E066F
:10206000031D3E280030F8000430F900FA01FB019E
:102070008A110A1670228A110A160800F112152216
:102080008A150A12ED228A110A167908E5007808E5
:10209000E4008A150A12DF218A110A164221003A49
:1020A00003195D285521E0008A150A1218218A11AA
:1020B0000A16E40F4E28E50A4E2831220800F112D4
:1020C000E70115228A150A12ED228A110A167908EB
:1020D000E5007808E4008A150A12DF218A110A1641
:1020E0004221003A03197A288A150A1200218A111E
:1020F0000A16702831220800F11215228A150A12D8
:1021000000218A110A1631220800F11223228A15B1
:102110000A1200218A110A1631220800F112E70181
:1021200015228A150A12ED228A110A167908E5008D
:102130007808E4008A150A12DF218A110A16422162
:10214000003A0319A9288A150A121A218A110A16B7
:102150009F2831220800F11215228A150A12ED2259
:102160008A110A167908E5007808E4008A150A122F
:10217000DF218A110A164221003A0319CF288A1555
:102180000A12F4218A110A1662088A110A125325CA
:1021900063088A110A1253258A110A16BB283122B4
:1021A0000800F11215227908E5007808E4008A1584
:1021B0000A12DF218A110A164221003A0319EB287C
:1021C0008A150A12F0218A110A1662085B21E40FAF
:1021D000DC28E50ADC2831220800F11215228A15D4
:1021E0000A12ED228A110A167908E5007808E4003F
:1021F0008A150A12DF218A110A164221003A0319B0
:102200000B298A150A12F4218A110A1662085B2129
:1022100063085B21FD2831220800F11215228A157E
:102220000A12ED218A110A1662085B2163085B21FC
:1022300031220800F11223228A150A12ED218A1197
:102240000A1662085B2163085B2131220800F11243
:1022500015227908E5007808E4008A150A12DF21C2
:102260008A110A164221003A031940298A150A12D6
:10227000F4218A110A1662085B2163085B21322966
:102280003122080000307C047D047E047F040319A1
:1022900000340130FC0203185429FD0203185429AC
:1022A000FE0203185429FF02FF348A110A125B252B
:1022B0008A110A1608008A110A1253258A110A1671
:1022C00008008A150A121C218A110A1608001C30FF
:1022D0003E06031D9529FF30E4000330E5008A1512
:1022E0000A1205248A110A164430E4000430E5007D
:1022F0008A150A1214248A110A168A150A12412410
:102300008A110A16FF30E4000330E5008A150A122C
:1023100023248A110A164430E4000430E5008A15AB
:102320000A1232248A110A1608008A150A121C2978
:102330001C303E06031DC629FF30E4000330E500D3
:102340008A150A1205248A110A164430E400043062
:10235000E5008A150A1214248A110A168A150A122F
:1023600047248A110A16FF30E4000330E5008A157D
:102370000A1223248A110A164430E4000430E500CE
:102380008A150A1232248A110A1608008A150A12BE
:102390001C291C303E06031DF729FF30E4000330E2
:1023A000E5008A150A1205248A110A164430E40051
:1023B0000430E5008A150A1214248A110A168A15B7
:1023C0000A1252248A110A16FF30E4000330E50095
:1023D0008A150A1223248A110A164430E4000430B4
:1023E000E5008A150A1232248A110A160800003400
:1023F0008A110A12452757278A110A1608008A11DE
:102400000A124E278A110A160800023402340234D6
:1024100002348A110A1608000130E8000800023070
:10242000E80008000230E80008008A110A12452777
:1024300057278A110A16871287118A110A1207274D
:102440008A110A1608008A110A12452757278A118D
:102450000A16871287158A110A1207278A110A1687
:1024600008008A110A12452757278A110A1687126F
:1024700087118A110A122D278A110A16080038308E
:10248000ED00A230EE00AF30EF008A110A127D2776
:102490008A110A160800F11215228A150A12ED2275
:1024A0008A110A167908E5007808E4008A150A12EC
:1024B000DF218A110A164221003A03196E2A8A1571
:1024C0000A12F4218A110A1662088A110A165B217F
:1024D0008A110A16E40F5B2AE50A5B2A31220800FA
:1024E000F11215228A150A12ED228A110A167908AC
:1024F000E5007808E4008A150A12DF218A110A161D
:102500004221003A0319982A8A110A165521E0003F
:10251000FF30E1008A150A12FE238A110A168A1575
:102520000A12ED228A110A16E40F802AE50A802A8F
:0625300031220800003416
:103000000313831600309400831294120800831275
:1030100003130130550603195A28023055060319C7
:1030200066280330550603196D2804305506031928
:103030007F280530550603199128063055060319D7
:103040009D28073055060319A9280830550603198D
:10305000B528093055060319C1280A305506031949
:10306000D3280B3055060319E5280C3055060319F3
:10307000EB280D305506031929290E305506031982
:10308000632918305506031970291930550603199C
:103090007D291A30550603197F291B30550603195F
:1030A00081291C305506031982291D305506031944
:1030B00094290800A621711865281D228317103055
:1030C000840056088000831203130800A62171189B
:1030D0006C280330D200E7210800A62171187E2851
:1030E0008A110A160722D2008A150A16F1218A11BE
:1030F0000A160822D2008A150A1607220800A621FD
:10310000711890288A110A160722D2008A150A1609
:10311000F1218A110A160822D2008A150A160722FE
:103120000800A62171189C288A150A16D200F121E0
:103130008A150A16D20007220800A6217118A828AD
:103140008A150A16D200F1218A150A16D200072222
:103150000800A6217118B4288A150A16D200F12198
:103160008A150A16D20007220800A6217118C02865
:103170008A150A16D200F1218A150A16D2000722F2
:103180000800A6217118D2288A110A160522D20039
:103190008A150A16F1218A110A160622D2008A150A
:1031A0000A1607220800A6217118E4288A110A16B7
:1031B0000522D2008A150A16F1218A110A16062262
:1031C000D2008A150A1607220800A621D701721B11
:1031D000D70A45220800F110831203137C08D70098
:1031E0004522F119F1147D08D7004522F119F11497
:1031F0007E08D7004522F119F1147808D70045223E
:10320000F119F1147908D7004522F119F1147A085F
:10321000D7004522F119F11416298A110A125B25EB
:103220008A150A16D7004522F119F114FE08031D6C
:103230001F29FD08031D1F29FC0803192829013037
:10324000FC0203180D29FD0203180D29FE020D29A9
:103250000800A621711862298A110A160622D200D6
:103260008A150A168317103084008001840A8001B1
:10327000840A8001840A8001E721831710308400CA
:10328000840A840A840A0008D400103084000008EC
:10329000840A840A840A8000103084005408800064
:1032A000831710308400840A840A0008D400103088
:1032B0008400840A0008840A800010308400840A94
:1032C000540880000800A62171186F297808D700DB
:1032D00045227908D70045227A08D7004522080000
:1032E000A62171187C297808D70045227C08D700D0
:1032F00045227D08D70045220800A6210800A62106
:1033000008000800A6217118D2288A110A169A22EC
:10331000D2008A150A16F1218A110A169A22D200C1
:103320008A150A1607220800A6217118E4288A11B6
:103330000A169A22D2008A150A16F1218A110A1653
:103340009A22D2008A150A16072208007110550821
:10335000D7004522711B7114FF30D6001D22711A4F
:10336000711456085702031D7114D608031DBA299B
:1033700071141D2208008A110A1642218A150A16A4
:10338000003A0319D1296808D2001D22711AD129E7
:1033900056088A110A1253258A150A16D20BC52916
:1033A000BB2908008A110A1642218A150A16003A1A
:1033B0000319E6296808D2008A110A125B258A15CA
:1033C0000A16D7004522D20BDC29D2290800831720
:1033D000103084001D2256088000840AD20BEA298E
:1033E00008007808D7004522D2030319062A790875
:1033F000D7004522D2030319062A7A08D7004522AE
:10340000D2030319062A7B08D700452208007C084E
:10341000D7004522D20303191C2A7D08D700452274
:10342000D20303191C2A7E08D7004522D2030319B0
:103430001C2A7F08D7004522080071126D22F1195D
:103440003D2A8A110A124E278A150A169301253041
:10345000940094168C110A30D3008A110A12D120DC
:103460008A150A160B19372A8C1D322A3A2AD30BD1
:103470002D2A3D2A1308D6003E2A711687128A117A
:103480000A1245278A150A1608006D22F1195E2ACC
:1034900071132530940094168C11570893000A304C
:1034A000D3008A110A12D1208A150A160B195B2A39
:1034B0008C1D562A5F2AD30B512A5E2A71178A1156
:1034C0000A12CB208A150A160B1D642A87128A114C
:1034D0000A1245278A150A160800F1118A110A12E4
:1034E0005F2787128A110A1245278A150A16643047
:1034F000D3008A110A12D1208A150A160B19832AC1
:10350000871D7E2A862AD30B792A982A8A110A12C5
:10351000C8208A150A160B1D8B2A87168A110A12D3
:10352000D1208A150A160B19982A8719932A992AE5
:10353000F11508008A110A125F274E278A150A160C
:10354000D601071EA12A871DA32A0830D300871D94
:10355000A72A8719A92A0310071A0314D60DD30B1B
:10356000A72A871DB12A8719B32ADA228A110A12DB
:1035700057278A150A168715000000000000000072
:1035800087118A110A125F274E278A150A1608002A
:103590008A110A12D1208A150A16E02A8A110A1203
:1035A000CE208A150A16E02A8A110A12CB208A1523
:1035B0000A16E02A8A110A12C8208A150A16E02A79
:0635C0000B1DE02A0800CB
:0435C6000034003499
:00000001FF
