:020000040000FA
:020008000800EE
:100020008A150A1600208A110A124926F012F212C5
:10003000C001C1018611701183120313F801F90187
:10004000FA01FB01FC01FD01FE01FF0120308400EB
:100050009125A00024302002031950293C302002B1
:10006000031D2828840AC9010230BD009125C90753
:10007000D8208000840ABD0B36282208C800210E33
:10008000C80406304802BD009125C907D820800069
:10009000840ABD0B44280230BD009125D820800081
:1000A000840ABD0B4D289125BC003E303C02031D47
:1000B000802884030008BC008403000EBC044908A7
:1000C0003C02031D89288313243084000008CA00E1
:1000D0008403000ECA04CA0803197D284E304A0260
:1000E00003187D2806118615FF304A0700300318D3
:1000F000013E8A004A08FF201A280030BF009828D5
:100100000130BF0098280230BF0098280330BF009C
:1001100098280430BF0098280530BF009828063082
:10012000BF0098280730BF0098280830BF009828E3
:100130000A30C8000030CA008317103084003F081E
:10014000800006157015E0251A2841346C346C3493
:10015000203459346F34753472342034423461346D
:10016000733465342034413472346534203442347D
:1001700065346C346F346E346734203454346F34E7
:06018000203455347334F5
:100190003D3081000B110800D83081000B110800A0
:1001A000F63081000B110800EC3081000B110800C3
:1001B000F700F6000F30F605473077020318E628FF
:1001C00041307702031CE6280930F607760808005C
:1001D000B800B900F030B905390EF420B9000F307D
:1001E0003805F420B8000800F6000A307602031C37
:1001F000FC2837307607FE28303076070800820763
:10020000000063296F29772977298B299D29AF2938
:10021000BB29C329CD29882C882C882C882C882C94
:10022000882CDC29E129882C882C882C882C882C87
:10023000882C882C882CE729882C882CF429882C59
:10024000882C882C882C1B2A282A352A402A4B2ABD
:10025000562A612A6C2A7C2AC22AF12AFC2A152BEA
:100260001C2B882C882C232B422B552B882C6A2B5B
:10027000882C7D2B882C8E2BA82BC22BCA2BD82BFD
:10028000E42BF02BFC2B082C142C202C2C2C382CA1
:10029000462C522C5E2C6A2C742C7E2C882C080048
:1002A0000530BD002130840091258000840ABD0BFB
:1002B0005429BC000D303C02031D7D2830308E25B2
:1002C00032308E251A280E30C8000130CA008A113B
:1002D0000A1600208A110A127015E0250800123053
:1002E000C8000230CA005A267015E02508000E30FA
:1002F000C8000430CA0070150230D4008A150A16EE
:1003000007208A110A12711C88290730BF001425A2
:100310007015E02508000830C8000530CA008313B6
:100320002608BC00250EBC04BC08031998299A298C
:1003300068279B296127E02508000830C80006309F
:10034000CA002608C200250EC2042808C300270ED2
:10035000C3042908C4002A0EC404E02508000A309A
:10036000C8000730CA008A110A160C208A110A1226
:100370007015E02508000A30C8000830CA00A02621
:100380007015E02508000830C8000930CA002608AA
:10039000C100250EC104E02508000830C8000A305D
:1003A000CA002608BC00250EBC04F212BC080319C2
:1003B000DA29F216E025080083120313F01606105E
:1003C00008000830C8001230CA00E02508000830D4
:1003D000C8001B30CA008A110A1685218A110A1228
:1003E0000430D400C12408000830C8001E30CA0000
:1003F0008A110A1685218A110A120330D400962424
:1004000008000830C8002130CA008A110A16882165
:100410008A110A120930D400962408000830C80056
:100420002230CA008A110A1688218A110A120A305B
:10043000D400C12408000830C8002330CA008A1143
:100440000A168B218A110A121C30D4009624080047
:100450000830C8002430CA008A110A168B218A117C
:100460000A121D30D400C12408000830C80025300D
:10047000CA00E0258A110A1695218A110A1208007D
:100480000830C8002630CA008A110A1695218A1140
:100490000A12E02508000830C8002730CA008A1177
:1004A0000A1695218A110A12E02508000830C800B2
:1004B0002830CA008A110A1695218A110A12E025ED
:1004C000882C0830C8002930CA008A110A16712108
:1004D0008A110A12E02508000830C8002A30CA0034
:1004E00083132608BE00250EBE048A110A168E212B
:1004F0008A110A12E02508000830C8002B30CA0013
:100500002608BC00250EBC0400303C020319932AC7
:1005100001303C020319AB2A02303C020319912A34
:10052000C02A2727C02A2727C8200B1D952A0D2758
:10053000C8200B1D992A59278719C02A51278715CA
:1005400087115927C8208719C02A0B1DA32A0730F5
:10055000BF001425C02A2727C8200B1DAD2A0D2750
:1005600051278715871159271930D4008A150A1683
:1005700007208A110A12711CC02A0730BF001425F7
:10058000E02508000A30C8002C30CA000708BC006B
:100590000730BC0503303C020319D62A05303C0263
:1005A0000319D82A0030CA000330E62A0230E62AAE
:1005B0005927871DE42A5030BD00871DE42ABD035A
:1005C000031DDD2A0030E62A0130E62ABC0083172D
:1005D00010308400831203133C0880007015E0255E
:1005E00008002727C8200B1DF32A0D270830C80054
:1005F0002D30CA00E02508000830C8002E30CA009F
:1006000051278715D4200B1D032B8711C8200B1DE4
:10061000072BC8200B1D0A2BC8200B1D0D2BC82033
:100620000B1D102B5927E02508000830C8002F307B
:10063000CA001A30D400822D0830C8003030CA00F9
:100640001930D400822D0830C8003330CA00260883
:10065000BC00250EBC0400303C02031D312B2727B3
:10066000402B01303C02031D372B0D27402B02305D
:100670003C02031D3D2BFA26402B0630BF001425FB
:10068000E02508000A30C8003430CA008317103053
:100690008400BF26831203131E08831203178000F1
:1006A000831203137015E02508000A30C8003530A6
:1006B000CA00831710308400FA26BB26272783122E
:1006C00003131E088312031780008312031370158F
:1006D000E02508000A30C8003730CA008317103000
:1006E0008400C326831203131E088312031780009D
:1006F000831203137015E02508000830C800393054
:10070000CA003F258A150A16A1208A110A12F11C77
:100710008C2B70160730BF004B2508000830C8002E
:100720003B30CA002508BC0001303C0203199C2B59
:100730000630BF001425A62B8A110A1695218A11AE
:100740000A12711DA62B0730BF001425E0250800F2
:100750000830C8003C30CA00F801F901FA01FB0179
:10076000FC01FD01FE01FF018A150A16A1208A1174
:100770000A125927871DB92BC02B0730BF0014253B
:10078000E02508001030C8003D30CA0070150D305B
:10079000D400822D0830C8003E30CA0020258A11BE
:1007A0000A1695218A110A1229258A110A120800AF
:1007B0000830C8003F30CA003F258A110A1695212B
:1007C0008A110A124B2508000830C8004030CA00C0
:1007D00020258A110A1629218A110A1229250800C2
:1007E0000830C8004130CA003F258A110A168A2005
:1007F0008A110A124B2508000830C8004230CA008E
:10080000F2248A110A1695218A110A12E02508009D
:100810000830C8004330CA003F258A110A1612204A
:100820008A110A124B2508000830C8004430CA005B
:100830003F258A110A1630208A110A124B2508001A
:100840000830C8004530CA003F258A110A166920C1
:100850008A110A124B2508000830C8004630CA0029
:100860003F258A110A164B208A110A124B250800CF
:100870000830C8004730CA0020258A110A16A62071
:100880008A110A1229258A110A1208000830C800A4
:100890004830CA0020258A110A16CB208A110A1274
:1008A000292508000830C8004930CA0020258A11CF
:1008B0000A160A218A110A12292508000830C800E0
:1008C0004A30CA0020258A110A16EB208A110A1222
:1008D000292508000830C8004B30CA002608C0008F
:1008E000250EC004E02508000830C8004C30CA00BE
:1008F000E025C8200B1D7A2C312608000830C800DE
:100900004D30CA00E025C8200B1D842C3D26080070
:100910000030BF000A30C8000030CA008317103012
:1009200084003F0880007015E0250800F2248A1535
:100930000A1607208A110A12711CA22C0730BF0068
:100940001425BF2CE025D0200B1DA42C7B308E2538
:10095000D0200B1DA92CC9018A150A166D218A11F8
:100960000A124908E82039088E2538088E25D0203B
:100970000B1DB82C7D308E25D0200B1DBD2CE02505
:100980000800F2248A150A1607208A110A12711C1F
:10099000CD2C0730BF001425F02CE02591257B3CA1
:1009A0000319D62C0130BF001425F02CC9018A157B
:1009B0000A1684218A110A129125D820BC00BC0E87
:1009C0009125D8203C0449020319E92C0430BF00CA
:1009D000701691257D3C0319F02C0130BF001425C1
:1009E000E025080083132C08F8002B0EF8042A08D1
:1009F000F900290EF9042808FA00270EFA0426083F
:100A0000FB00250EFB043408FC00330EFC04320806
:100A1000FD00310EFD043008FE002F0EFE042E08EE
:100A2000FF002D0EFF0408000A30C8000030CA0085
:100A300070158317103084003F08800006150800E9
:100A4000F224E025D0200B1D232D7B308E25C901FB
:100A500008004908E82039088E2538088E257D30A1
:100A60008E25F11E3D2D0A30C8000030CA007015D9
:100A70008317103084003F088000E02508007012C2
:100A8000F224E02591257B3C0319492D0130BF005C
:100A90007016C90108009125D820BC00BC0E912514
:100AA000D8203C0449020319582D0430BF007016A9
:100AB00091257D3C03195F2D0130BF007016031393
:100AC0008312701E6D2D0A30C8000030CA007015E8
:100AD0008317103084003F088000E0250800E820DC
:100AE0003908C9078E253808C9078E2508009125C1
:100AF000C907D820B900B90E9125C907D820B90473
:100B0000390808008A150A1607208A110A12711C72
:100B10008C2D0730BF001425E0250800F01CA22D05
:100B2000C72DF01C942DB02D83120313F01AA02DA5
:100B300006148316891B9D2D9A2D83120610080812
:100B400006100800F01AAF2D83128C1388000614CB
:100B50008316091BA92D83128C1FAC2D06100800CB
:100B6000831203138C1AB82D86128C1AB82DB52D4A
:100B70001A08C22D1819C02D9818C02D0301C22DB6
:100B8000181218168616BA01BA0BC42D0800C70031
:100B90000C1EC82D470899008316981CCD2DD12D09
:100BA00083128312080004304802C50083132130E9
:100BB0008400C9010008C907840AC50BDA2D0800A2
:100BC0008313203084005B308000840A4808E820CA
:100BD00039088000840A38088000840A4A08E8201E
:100BE00039088000840A38088000840A701D152E98
:100BF00008304802C5000310C50C2530C600831715
:100C00001030F7008317770884000008E82083136A
:100C10004608840039088000C60A840A3808800023
:100C2000C60A8317F70AC50B022ED32503304802E4
:100C3000F6002030760784004908E8203908800053
:100C4000840A38088000840A5D3080004808C500A6
:100C500083132030840000088E25840AC50B2B2EB8
:100C600008008312031386168316403099008312FE
:100C700018121A081A081816080083120313861689
:100C8000831615309900831218121A081A081816BC
:100C900008008316D0308700A00005148514851540
:100CA00004309F00831280309F0027278030CD00C2
:100CB000CF26080086157208CC0033278A110A1641
:100CC0008E218A110A1283120317103084007E26A7
:100CD000840A9426840A9726840A9A26840A9D26E2
:100CE000031383124C08F2007218FA26F2180D272B
:100CF00072192727F21933278611080083178001FC
:100D000003138312BF2633301E02031C8C2E9A302D
:100D10001E020318902E932E831701308000932E0D
:100D20008317803080000800831780010800831734
:100D300080010800831780010800831780010800E4
:100D4000CE01831710308400831686150615831292
:100D5000CC200B1DA92E061DAF2E0F30CE04861DF4
:100D6000B32EF030CE044E08831780008316861110
:100D70000611831208009F121F129F11C72E9F1287
:100D80001F129F15C72E9F121F169F15C72E6F2764
:100D90001F146F271F151F19CB2E1F100800861058
:100DA0001130CB00D9264D08CB00D92686147327E5
:100DB00008000830BB00CB0D031CE02E8617E12E87
:100DC000861300000000000000000617000000006D
:100DD000000000000613BB0BDB2E0800861406176C
:100DE000861708008614061786130800861406174F
:100DF000861308000708D1005115D114511051086D
:100E000087007214F2107211F2118A110A12C820AE
:100E10008A110A120B1D0A2F08000708D10051156C
:100E2000D1105114510887007210F2147211F2118E
:100E30008A110A12C8208A110A120B1D1D2F0F30A9
:100E4000CF00C8200B1D222FCF0B212F0800070831
:100E5000D1005111D1145114510887007210F210B1
:100E60007215F21108000708D1005115D114511460
:100E7000510887007210F2107211F21508009412D6
:100E800083162016A01220088700831285160800FA
:100E9000941283162016A01620088700831285124C
:100EA000080094128316A0112008870083120515EC
:100EB000080094128316A0152008870083120511DC
:100EC0000800051281010B110B1D642F721208001E
:100ED000051681010B110B1D6B2F72160800BA014C
:100EE000BA0B702F0800CC200B1D742F0800FF30A8
:100EF000CF004F08CD00CF26FA26BB262727053086
:100F0000D0006A081E02031C892FD00B812FCF0B43
:040F1000792F08002D
:1012000002293322DF08031D0829DE0803190E29ED
:101210000130DE0203180129DF02012908000D2236
:101220005F21080020225F2108000D225F210800B5
:101230008A110A1674218A150A12871287118A11D7
:101240000A12FA268A150A127908DF007808DE00E9
:1012500021305F0603192D29002108008A110A1682
:1012600074218A150A12871287118A110A12FA2626
:101270008A150A127908DF007808DE0008008A1152
:101280000A1674218A150A12871287118A110A1206
:10129000FA268A150A12C121A121DF017808DE0091
:1012A000002108008A110A1674218A150A12871271
:1012B00087118A110A1227278A150A120800DC01F1
:1012C000DD018A110A167B218A150A1287158711FA
:1012D0000830BB00871587110310871A0314DC0C34
:1012E000BB0B6A290630BB00871587110310871ACC
:1012F0000314DD0CBB0B7429DD0CDD0C8715871185
:101300008A110A1674218A150A1208008712871595
:1013100087110830BB008716DA0C031C871287156B
:101320008711BB0B8B290630BB008716DB0C031C17
:10133000871287158711BB0B95298712871587118F
:1013400008005B08E8005A08E700FF30DB00DA001D
:1013500086216808DB006708DA0008000130F70022
:10136000B7290230F700B7290430F700B7298A11EE
:101370000A12CC208A150A120B1DBC29F70BB729BB
:101380000800871287158711871287158711871222
:10139000871587118712871587118712871587117F
:1013A00087128715871108008716871587118712FE
:1013B000871587118712871587118712871587115F
:1013C00087128715871187128715871108008712E2
:1013D000871587118716871587118712871587113B
:1013E000871287158711871287158711871287152E
:1013F00087110800871687158711871687158711AB
:10140000871287158711871287158711871287150D
:101410008711871287158711080087128715871192
:1014200087128715871187168715871187128715E9
:101430008711871287158711871287158711080072
:1014400087168715871187128715871187168715C5
:1014500087118712871587118712871587118712C1
:10146000871587110800871287158711871687153A
:10147000871187168715871187128715871187129D
:10148000871587118712871587110800871687151A
:101490008711871687158711871687158711871279
:1014A000871587118712871587118712871587116E
:1014B00008008712871587118712871587118712F1
:1014C000871587118716871587118712871587114A
:1014D00087128715871108008716871587118712CD
:1014E000871587118712871587118716871587112A
:1014F00087128715871187128715871108008712B1
:101500008715871187168715871187128715871109
:1015100087168715871187128715871187128715F8
:101520008711080087168715871187168715871179
:1015300087128715871187168715871187128715D8
:101540008711871287158711080087128715871161
:1015500087168715871187168715871187168715B0
:101560008711871287158711871287158711080041
:10157000871287158711871287158711871287159C
:101580008711871687158711871687158711871288
:101590008715871108008716871587118716871505
:1015A0008711871687158711871287158711871668
:1015B00087158711871287158711080018210430B5
:1015C000E700FF30E8003322E80BE32AE70BE12ACB
:1015D00033223322332215215C08E4005D08E50044
:1015E00052213F210F2165135D1A6517E513DD1A9E
:1015F000E517C121A1216C22B421B4219222B4218A
:10160000B4215221F21A242B18210430E700FF30B4
:10161000E8003322E80B092BE70B072B3322332298
:1016200033226408DA006508DB00482352213F2199
:101630000F215D12651B5D16DD12E51BDD165C08D2
:10164000DA005D08DB00262352210800E72186210D
:101650005922B421B4210800FA2186215922B4214B
:10166000B421332208008A110A166521DA006521A7
:10167000DB008A150A12E72186215922B4210800CD
:101680008A110A166521DA006521DB008A150A1223
:10169000E72186215922B42108008A110A16652102
:1016A000DA006521DB008A150A12E7218621B822BB
:1016B000AE21CB225E2B5922B421B421080087161B
:1016C0008715871187168715871187168715871144
:1016D0008716871587118716871587118712871533
:0416E0008711080066
:1020000083171030840001308000840A0030800083
:10201000840A0030800008008317103084000930E3
:1020200080000800F1120130D700E2018A150A127F
:1020300018218A110A164821003A03192A288A15FC
:102040000A1240238A110A168A150A1233228A11AB
:102050000A161B288A150A1252218A110A1608002C
:10206000F1128A150A122E218A110A164821003A05
:10207000031945286521DA008A150A122C238A11D2
:102080000A16DE0F3628DF0A36288A150A12522170
:102090008A110A160800F112E2010130D8008A15EF
:1020A0000A123F218A110A164821003A03196328AF
:1020B0008A150A1233238A110A168A150A12332244
:1020C0008A110A1654288A150A1252218A110A16F0
:1020D0000800F1128A150A123F218A110A164821B6
:1020E000003A031984286521DA006521DB008A158E
:1020F0000A1226238A110A16DE0ADE0A8A150A1235
:1021000033228A110A166F288A150A1252218A115F
:102110000A160800F112E2018A150A123F218A11FB
:102120000A164821003A0319A0288A150A124D23DD
:102130008A110A168A150A1233228A110A16912860
:102140008A150A1252218A110A160800F1128A15FC
:102150000A1218218A110A164821003A0319C528C3
:102160008A150A1215218A110A165C088A110A12A8
:102170006F255D088A110A126F258A110A168A15C1
:102180000A1233228A110A16AC288A150A12522121
:102190008A110A160800F1128A150A122E218A11D4
:1021A0000A164821003A0319E5288A150A12122155
:1021B0008A110A165C086B218A150A1233228A11C9
:1021C0000A16DE0FD128DF0AD1288A150A125221F9
:1021D0008A110A160800F1128A150A123F218A1183
:1021E0000A164821003A031904298A150A121521F2
:1021F0008A110A165C086B215D086B218A150A1288
:1022000033228A110A16F1288A150A1252218A11DC
:102210000A160800F1128A150A123F218A110A16BD
:102220004821003A031923298A150A120F218A111D
:102230000A165C086B215D086B218A150A1233228D
:102240008A110A1610298A150A1252218A110A16B1
:102250000800F1128A150A123F218A110A16482134
:10226000003A031942298A150A1215218A110A1601
:102270005C086B215D086B218A150A1233228A11D2
:102280000A162F298A150A1252218A110A160800E5
:102290008A110A16FF08031D5629FE08031D562938
:1022A000FD08031D5629FC08031900340130FC0207
:1022B00003186129FD0203186129FE020318612930
:1022C000FF02FF308A110A1608008A110A127725C8
:1022D0008A110A1608008A110A126F258A110A1635
:1022E00008008A150A12DE2A8A110A123F2751278E
:1022F0008A110A1608008A110A1248278A110A163A
:10230000080002340234023402340130E3000800D1
:102310000230E30008000230E300080083120313D8
:0C2320005E30E900A930EA00080000343B
:103000000313831600309400831294120800831275
:1030100003130130540603194628023054060319DD
:103020005228033054060319592804305406031952
:103030006B280930540603197D280A3054060319F9
:103040008F280C3054060319A1280D30540603199B
:10305000DF280E30540603191929183054060319B5
:10306000262919305406031933291A305406031936
:1030700035291B305406031937291C30540603190F
:1030800038291D30540603194A2908005C2171189B
:103090005128CF21831710308400550880008312F7
:1030A000031308005C21711858280330D2009921BD
:1030B00008005C2171186A288A110A168321D2003F
:1030C0008A150A16A3218A110A168421D2008A15AC
:1030D0000A16B92108005C2171187C288A110A1689
:1030E0008321D2008A150A16A3218A110A16842187
:1030F000D2008A150A16B92108005C2171188E28A1
:103100008A110A168121D2008A150A16A3218A1172
:103110000A168221D2008A150A16B92108005C21FC
:103120007118A0288A110A168121D2008A150A1660
:10313000A3218A110A168221D2008A150A16B92102
:103140000800F110831203137C08D600EB21F1195B
:10315000F1147D08D600EB21F119F1147E08D60098
:10316000EB21F119F1147808D600EB21F119F114D3
:103170007908D600EB21F119F1147A08D600EB2179
:10318000F119F114CC288A110A1277258A150A162A
:10319000D600EB21F119F114FE08031DD528FD0816
:1031A000031DD528FC080319DE280130FC02031892
:1031B000C328FD020318C328FE02C32808005C21AF
:1031C000711818298A110A168221D2008A150A1646
:1031D0008317103084008001840A8001840A8001F2
:1031E000840A80019921831710308400840A840A9C
:1031F000840A0008D300103084000008840A840A7E
:10320000840A800010308400530880008317103037
:103210008400840A840A0008D30010308400840AE1
:103220000008840A800010308400840A530880005B
:1032300008005C21711825297808D600EB2179084F
:10324000D600EB217A08D600EB2108005C2171182A
:1032500032297808D600EB217C08D600EB217D08C6
:10326000D600EB2108005C2108005C210800080062
:103270005C2171188E288A110A169521D2008A15B0
:103280000A16A3218A110A169521D2008A150A1658
:10329000B92108005C217118A0288A110A1695210D
:1032A000D2008A150A16A3218A110A169521D20086
:1032B0008A150A16B921080071105408D600EB21AE
:1032C000FF30D500CF2155085602031D7114D508D3
:1032D000031D6C297114CF2108008A110A16482198
:1032E0008A150A16003A031983296308D200CF21F0
:1032F000711A832955088A110A126F258A150A1630
:10330000D20B77296D2908008A110A1648218A15DF
:103310000A16003A031998296308D2008A110A1282
:1033200077258A150A16D600EB21D20B8E2984291F
:103330000800831710308400CF2155088000840ACC
:10334000D20B9C2908007808D600EB21D203031980
:10335000B8297908D600EB21D2030319B8297A08D5
:10336000D600EB21D2030319B8297B08D600EB2144
:1033700008007C08D600EB21D2030319CE297D0872
:10338000D600EB21D2030319CE297E08D600EB210B
:10339000D2030319CE297F08D600EB210800930140
:1033A0000622F119E22971128A110A1248278A1598
:1033B0000A162530940094168C118C1DDD291308F3
:1033C000D500E329711687128A110A123F27941239
:1033D0008A150A1608000622F119F72925309400EB
:1033E00094168C11560893008C1DF429F7298A1124
:1033F0000A12D4208A150A160B1DFC2987128A117D
:103400000A123F2794128A150A1608008A110A1216
:10341000592787128A110A123F278A150A16F111B5
:103420008A110A12C8208A150A160B192C2A871D20
:10343000152A8A110A12D0208A150A160B1D1E2A77
:103440008716F1118A110A12C8208A150A160B195B
:0C3450002C2A8719272A2D2AF1150800C4
:04345C000034003404
:00000001FF
