:020000040000FA
:020008000800EE
:100020008A150A1600208A110A12BA21F012F21259
:10003000F213DC01DD018611701183120313F80144
:10004000F901FA01FB01FC01FD01FE01FF01203075
:1000500084000221A000243020020319062B3C302A
:100060002002031D2928840ACF010230D900022171
:10007000CF07D8208000840AD90B37282208CE0069
:10008000210ECE0406304E02D9000221CF07D8201F
:100090008000840AD90B45280230D9000221D820DB
:1000A0008000840AD90B4E280221D8003E30580225
:1000B000031D812884030008D8008403000ED8049F
:1000C0004F085802031D8A28831324308400000837
:1000D000D0008403000ED004D00803197E284E30CF
:1000E000500203187E2806118615903050070730FD
:1000F0000318013E8A00500890271B280030DB00BF
:1001000099280130DB0099280230DB009928033060
:10011000DB0099280430DB0099280530DB009928A2
:100120000630DB0099280730DB0099280830DB0017
:1001300099280A30CE000030D00083171030840098
:100140005B0880000615701551211B2841346C3462
:100150006C34203459346F34753472342034423462
:10016000613473346534203441347234653420345E
:10017000423465346C346F346E3467342034543414
:080180006F3420345534733450
:100190003D3081000B110800D83081000B110800A0
:1001A000F63081000B110800EC3081000B110800C3
:1001B000F700F6000F30F605473077020318E628FF
:1001C00041307702031CE6280930F607760808005C
:1001D000C700C800F030C805480EF420C8000F3032
:1001E0004705F420C7000800F6000A307602031C19
:1001F000FC2837307607FE28303076070800F01CE0
:1002000013293829F01C0529212983120313F01A18
:10021000112906148316891B0E290B298312061037
:10022000080806100800F01A202983128C13880091
:1002300006148316091B1A2983128C1F1D29061008
:100240000800831203138C1A292986128C1A292973
:1002500026291A0833291819312998183129030138
:100260003329181218168616C901C90B352908003A
:10027000CD000C1E39294D0899008316981C3E2983
:10028000422983128312080004304E02CB008313EC
:1002900021308400CF010008CF07840ACB0B4B2903
:1002A00008008313203084005B308000840A4E08ED
:1002B000E82048088000840A47088000840A500823
:1002C000E82048088000840A47088000840A701DDE
:1002D000862908304E02CB000310CB0C2530CC0011
:1002E00083171030F7008317770884000008E82090
:1002F00083134C08840048088000CC0A840A47080D
:100300008000CC0A8317F70ACB0B732944210330F2
:100310004E02F6002030760784004F08E820480897
:100320008000840A47088000840A5D3080004E08FF
:10033000CB008313203084000008FF20840ACB0BFD
:100340009C290800831203138616831640309900F7
:10035000831218121A081A081816080083120313B9
:100360008616831615309900831218121A081A0877
:10037000181608008316D0308700A00005148514D5
:10038000851504309F00831280309F00A0228030AA
:10039000D3004D22080086157208D200AC228312C9
:1003A000031710308400EA21840AF621840A02220D
:1003B000840A0B22840A1822031383125208F200C3
:1003C00072187A22F2188D227219A022F219AC2228
:1003D00086110800031383123D2233301E02031CD2
:1003E000262A9A301E0203182A2A2E2A0313831261
:1003F000412241081E02031C262A42081E0203183D
:100400002A2A2E2A03138312A022392224301E0204
:1004100003182A2A2E2A031383128D223D223330F9
:100420001E02031C262A9A301E0203182A2A2E2A8C
:10043000031383127A223922A02241081E02031CD0
:10044000262A42081E0203182A2A2E2A8317013060
:100450008000080083178030800008008317003078
:10046000800008008317103084000030831780005C
:1004700008009F121F129F11452A9F121F129F15DD
:10048000452A9F121F169F15452AE8221F14E822AD
:100490001F151F19492A1F10080003138312861005
:1004A0001130D10059225308D10059228614EC2270
:1004B00008000830CA00D10D031C602A8617612A83
:1004C0008613000000000000000006170000000076
:1004D000000000000613CA0B5B2A080086140617EA
:1004E0008617080086140617861308008614061758
:1004F000861308000708D7005715D7145710570858
:1005000087007214F2107211F2118A110A12C820B7
:100510008A110A120B1D8A2A08000708D7005715EE
:10052000D7105714570887007210F2147211F21185
:100530008A110A12C8208A110A120B1D9D2A08006E
:100540000708D7005711D71457145708870072109F
:10055000F2107215F21108000708D7005715D714CA
:100560005714570887007210F2107211F215080024
:10057000941283162016A012200887008312851675
:100580000800941283162016A016200887008312F4
:100590008512080094128316A01120088700831288
:1005A0000515080094128316A015200887008312F1
:1005B00005110800051281010B110B1DDD2A7212B5
:1005C0000800051681010B110B1DE42A72160800A4
:1005D000C901C90BE92A0800CC200B1DED2A08002F
:1005E000FF30D5005508D3004D227A223922A022AF
:1005F0000530D60043081E02031C052BD60BFA2A31
:10060000D50BF22A0030D3004D2208000530D90066
:100610002130840002218000840AD90B0A2BD800E3
:100620000D305802031D7E283030FF203230FF206D
:100630001B280E30CE000130D0008A110A1600208F
:100640008A110A127015512108001230CE000230B2
:10065000D000CB217015512108000E30CE0004309F
:10066000D00070150230E3008A150A1607208A119F
:100670000A12711C3E2B0730DB00DF26701551215A
:1006800008000830CE000530D00083132608D800BB
:10069000250ED804D80803194E2B502BE122512BDC
:1006A000DA22512108000830CE000630D00026089A
:1006B000DE00250EDE042808DF00270EDF042908EF
:1006C000E0002A0EE004512108000A30CE00073075
:1006D000D0008A110A160E208A110A1270155121B3
:1006E00008000A30CE000830D000322270155121A7
:1006F00008000830CE000930D0002608DD00250EA5
:10070000DD04512108000830CE000A30D000260850
:10071000D800250ED804F212D8080319902BF2162F
:10072000512108000830CE000B30D0002608D80038
:10073000250ED804D80803199E2BA42B8A110A165B
:100740008E218A110A12A92B8A110A168E218A116A
:100750000A12512108000830CE000C30D0002608C3
:10076000D800250ED8047213D808031DB82B7217B1
:100770000B30E3008A150A1607208A110A1251214C
:1007800008000830CE000D30D0008A150A16072068
:100790008A110A125121080083120313F016061061
:1007A00008000830CE001230D00051210800083077
:1007B000CE001B30D0008A110A1679218A110A1244
:1007C0000430E3008C2608000830CE001C30D00036
:1007D0000830E3008C2608000830CE001D30D00021
:1007E0000630E3008C2608000830CE001E30D00012
:1007F0008A110A1679218A110A120330E300692648
:1008000008000830CE001F30D0000730E300692612
:1008100008000830CE002030D0000530E300692603
:1008200008000830CE002330D0008A110A167F213C
:100830008A110A121C30E300692608000830CE0035
:100840002430D0008A110A167F218A110A121D3025
:10085000E3008C2608000830CE002530D00051215E
:100860008A110A168E218A110A1208000830CE0059
:100870002930D0008A110A1647218A110A12512103
:1008800008000830CE002A30D00083132608DA0092
:10089000250EDA048A110A1682218A110A125121C0
:1008A00008000830CE002B30D0002608D800250ED6
:1008B000D804003058020319682C0130580203197B
:1008C0007C2C023058020319662C8F2CA0228F2C0E
:1008D000A0225E278D225E27D22287198F2CCA2262
:1008E00087158711D222C82087198F2C0B1D742CD5
:1008F0000730DB00DF268F2CA0225E278D22CA2244
:1009000087158711D2221930E3008A150A160720AD
:100910008A110A12711C8F2C0730DB00DF2651214F
:1009200008000A30CE002C30D000F2189F2C72192B
:100930009D2C0030D0000330AD2C0230AD2CD222E3
:10094000871DAB2C5030D900871DAB2CD903031D5C
:10095000A42C0030AD2C0130AD2CD8008317103002
:100960008400831203135808800070155121080079
:10097000A0225E278D220830CE002D30D0005121DC
:1009800008000830CE002E30D0008711CA2287110F
:1009900087155A275A278711D2225121080008307B
:1009A000CE002F30D0001A30E3004A2F0830CE009E
:1009B0003030D0001930E3004A2F0830CE003130FB
:1009C000D000EB268A110A168E218A110A12F2260D
:1009D00008000830CE003230D00007278A110A16EE
:1009E0008E218A110A12132708000830CE003330F6
:1009F000D0002608D800250ED80400305802031D68
:100A0000032DA022122D01305802031D092D8D2225
:100A1000122D02305802031D0F2D7A22122D06309E
:100A2000DB00DF26512108000A30CE003430D00030
:100A30008317103084003D22831203131E08831293
:100A400003178000831203137015512108000A3028
:100A5000CE003530D0008317103084007A2239223E
:100A6000A022831203131E0883120317800083122F
:100A700003137015512108000A30CE003730D00022
:100A80008A110A1682218A110A12831710308400F3
:100A90004122831203131E0883120317800083125E
:100AA00003137015512108000830CE003930D000F2
:100AB00007278A150A16A1208A110A12F11C632D34
:100AC00070160730DB00132708000830CE003B30DB
:100AD000D0002508D800013058020319732D0630C4
:100AE000DB00DF267D2D8A110A1673218A110A1276
:100AF000711D7D2D0730DB00DF26512108000830F5
:100B0000CE003C30D000F801F901FA01FB01FC01F4
:100B1000FD01FE01FF018A150A16A1208A110A12A1
:100B2000D222871D902D972D0730DB00DF26512123
:100B300008001030CE003D30D00070150D30E300BD
:100B40004A2F0830CE003E30D000EB268A110A161C
:100B50008E218A110A12F2268A110A120800083020
:100B6000CE003F30D00007278A110A168E218A1145
:100B70000A12132708000830CE004030D000EB26C0
:100B80008A110A1601218A110A12F2260800083079
:100B9000CE004130D00007278A110A167C208A1126
:100BA0000A12132708000830CE004230D000BD26BC
:100BB0008A110A166D218A110A1251210800083083
:100BC000CE004330D00007278A110A1616208A115A
:100BD0000A12132708000830CE004430D00007273F
:100BE0008A110A162C208A110A12132708000830CD
:100BF000CE004530D00007278A110A165D208A11E1
:100C00000A12132708000830CE004630D00007270C
:100C10008A110A1647208A110A1213270800083081
:100C2000CE004730D000EB268A110A1692208A1196
:100C30000A12F2268A110A1208000830CE00483043
:100C4000D000EB268A110A16B2208A110A12F22667
:100C500008000830CE004930D000EB268A110A1671
:100C6000E7208A110A12F22608000830CE004A3026
:100C7000D000EB268A110A16CD208A110A12F2261C
:100C800008000830CE004B30D0002608DC00250ECE
:100C9000DC04512108000830CE004C30D000512136
:100CA0005E27A22108000830CE004D30D00051212F
:100CB0005E27AE2108000030DB000A30CE00003095
:100CC000D0008317103084005B088000701551211C
:100CD0000800BD268A150A1607208A110A12711CFF
:100CE000752E0730DB00DF268A2E512156277B30F8
:100CF000FF205627CF018A150A166D218A110A1284
:100D00004F08E8204808FF204708FF2056277D307D
:100D1000FF20562751210800BD268A150A160720F4
:100D20008A110A12711C982E0730DB00DF26BB2EB9
:100D3000512102217B3C0319A12E0130DB00DF266B
:100D4000BB2ECF018A150A1684218A110A120221AC
:100D5000D820D800D80E0221D82058044F020319F9
:100D6000B42E0430DB00701602217D3C0319BB2E2B
:100D70000130DB00DF265121080083132C08F80026
:100D80002B0EF8042A08F900290EF9042808FA00A5
:100D9000270EFA042608FB00250EFB043408FC008D
:100DA000330EFC043208FD00310EFD043008FE0055
:100DB0002F0EFE042E08FF002D0EFF0408000A303F
:100DC000CE000030D00070158317103084005B080F
:100DD000800006150800BD26512156277B30FF20D4
:100DE000CF0108004F08E8204808FF204708FF20EF
:100DF0007D30FF20052F0A30CE000030D000701566
:100E00008317103084005B088000512108007012A5
:100E1000BD26512102217B3C0319112F0130DB003B
:100E20007016CF0108000221D820D800D80E022168
:100E3000D82058044F020319202F0430DB0070160D
:100E400002217D3C0319272F0130DB0070160313AC
:100E50008312701E352F0A30CE000030D00070157E
:100E60008317103084005B08800051210800E820BF
:100E70004808CF07FF204708CF07FF2008000221BE
:100E8000CF07D820C800C80E0221CF07D820C80439
:100E9000480808008A150A1607208A110A12711CD0
:100EA000542F0730DB00DF2651210800D0200B1D16
:100EB000572F0800CC200B1D5B2F0800C8200B1DEE
:040EC0005F2F080098
:100F200082070000192B252B5B2E2D2B412B532BD9
:100F3000652B712B792B832B922BAB2B5B2E5B2E8E
:100F40005B2E5B2ECC2BD12B5B2E5B2E5B2E5B2E78
:100F50005B2E5B2E5B2E5B2ED72BE42BEC2BF42B26
:100F6000012C092C5B2E5B2E112C1E2C2B2C5B2EA6
:100F70005B2E5B2E362C412C512C912CB82CC12C85
:100F8000CF2CD62CDD2CE92CF52C142D272D5B2E07
:100F90003C2D5B2E542D5B2E652D7F2D992DA12D83
:100FA000AF2DBB2DC72DD32DDF2DEB2DF72D032E10
:100FB0000F2E1D2E292E352E412E4B2E532E5B2EFD
:020FC000080027
:1010000008308A005A087F3982070000C22CC22C9F
:10101000C22CC22C402AC22CC22C162B08308A00AB
:101020005A087F39820700000029652F652F652F38
:10103000652F652F652F7E2B08308A005A087F396F
:10104000820700007C29332F332F332F332F332F88
:10105000332F332F08308A005A087F398207000067
:101060007C297B2F7B2F7B2F7B2F7B2F7B2F7B2F35
:1010700008308A005A087F39820700000029652F4E
:10108000652F652F652F652F652F652F912F402EBA
:10109000C12B08308A005A087F39820700000800F7
:1010A0007A2C7A2C7A2C7A2C7A2C7A2C7A2C08307E
:1010B0008A005A087F3982070000BE292D2C2D2C6A
:1010C0002D2C2D2C2D2C2D2C2D2C08308A005A083F
:1010D0007F3982070000C829F82BF82BF82BF82B52
:1010E000F82BF82BF82B08308A005A087F39820732
:1010F00000000800D12CD12CD12CD12CD12CD12CFA
:10110000D12C08308A005A087F3982070000080075
:101110002D2C2D2C2D2C2D2C2D2C2D2C2D2C02342A
:0611200002340234033426
:101200008A110A165021871287118A110A127A222E
:101210008A150A12C12614217808BC007908BD007D
:101220007A08BE00402608008A110A1650218A1545
:101230000A126B26B030E5000B268230E5000B2643
:101240006B26B030E5000B268030E5000B266B26C0
:101250009C30E5000B268C30E5000B266B26D43045
:10126000E5000B268830E5000B266B26B530E5003F
:101270000B268030E5000B2671116B269C30E500B3
:101280000B265030E5000B2648213A1F7115080047
:101290006B26F530E5000B266E30E5000B26871235
:1012A000871587118716871587118712871587116C
:1012B00087158711BA01BB018A110A12C1228A154A
:1012C0000A120830CA0087150310871A0314871101
:1012D000BA0CCA0B63290830CA0003108715031023
:1012E000871A03148711BA0CCA0B6E298A110A16C1
:1012F00050218A150A1208008A110A1650218712F5
:1013000087118A110A127A228A150A127808BC00FB
:101310007908BD007A08BE00402608008A110A1626
:1013200050218A150A12871687158711871287158B
:101330008711871687158711871587113808E500EB
:101340000B263808E5000B266B26E5010B260B263D
:1013500087168715871187128715871187168715B6
:101360008711871587113908E5000B263908E50034
:101370000B266B26E5010B260B2608008A110A16A0
:101380003B21B8003B21B9008A150A128E210800C2
:101390008A110A1650218A150A1287128715871199
:1013A00087158711871687158711871587113808C4
:1013B000E5000B263908E5000B26BA01BB018A11AE
:1013C0000A1650218A150A12871687158711871267
:1013D000871587118715871187168715A927871104
:1013E0006B266B268A110A12C1228A150A1208304E
:1013F000CA0087150310871A03148711BA0CCA0B89
:10140000F9298A110A1650218A150A12871687159A
:1014100087118712871587118715871187168715FA
:1014200087116B266B268A110A12C1228A150A12AD
:101430000830CA0087150310871A03148711BB0CE4
:10144000CA0B1A2A8A110A1650218A150A12080094
:10145000C12631263030BE00BC01BD014026FF3020
:10146000B800B900F823BC0ABC0A4026F823BC0A1D
:10147000BC0A4026F823BC0ABC0A4026F823080010
:101480008A110A123D228A150A1273301E02031CA9
:10149000A92AA92A3C30BE000030BD000430BC009F
:1014A00040266B268330E5000B260030E5000B2636
:1014B0006B260030E5000B260030E5000B266B267E
:1014C0000030E5000B260030E5000B266B26883047
:1014D000E5000B260030E5000B266B260030E5000A
:1014E0000B260030E5000B266B260030E5000B26AE
:1014F0000030E5000B26C12622263C30BE002030FD
:10150000BD000E30BC0040266B26A630E5000B2641
:101510008430E5000B266B26A630E5000B268830CC
:10152000E5000B26D6266B26A630E5000B2682307A
:10153000E5000B266B260030E5000B260030E500A9
:101540000B266B26A630E5000B269430E5000B2613
:1015500008000630F6005E08C6005F08C400600898
:10156000C5000310C60CC40CC50CF60BB12A6527C8
:10157000C1262226BE01BD01BC0140266B26A63035
:10158000E5000B268430E5000B266B26A630E5002F
:101590000B268830E5000B26D6266B26A630E50004
:1015A0000B268230E5000B266B260030E5000B266B
:1015B0000030E5000B26A6276B26A630E5000B269B
:1015C0009430E5000B264030BC07031CED2A0130A7
:1015D000BD07031CED2A0130BE07BC08031D032B09
:1015E0005F1BF82A30303D02031D032B3D30FD2ADE
:1015F00060303D02031D032B7D30BD00C030BC00B8
:101600000930C500C401C608031D0C2BC408031D06
:101610000C2BC5080319142B0130C5020318BD2A71
:10162000C4020318BD2AC6029127080065273C3072
:10163000BE000030BD000530BC00402692260F30B1
:10164000E5000B260F30E5000B263C30BE000030D5
:10165000BD000430BC00402692268730E5000B26F2
:101660008730E5000B266B26E5010B26E5010B26EE
:101670006B268A110A12C8208A150A120B1D3E2BEE
:10168000C501C50B412BE5010B26E5010B26912772
:1016900008003F30C5008A110A163B21B8003B21E3
:1016A000B9008A150A12B4238A110A162C218A1548
:1016B0000A12C50B4B2B8A110A163B21B8003B219D
:1016C000B9008A150A12AC263808E5000B2639083D
:1016D000E5000B268712871587118712871587115A
:1016E000871287158711871287158A110A12CC2055
:1016F0008A150A120B1D7A2B871108008A110A1607
:1017000050218A150A12871287118A110A127A2229
:101710008A150A126B26A630E5000B268E30E500EE
:101720000B266B26A630E5000B269C30E5000B2629
:101730006B26A630E5000B268430E5000B267808E2
:10174000BC007908BD007A08BE00402608008A1156
:101750000A1650218A150A1292263808E5000B262F
:101760003908E5000B2608008A110A1650218A154F
:101770000A129F263808E5000B263908E5000B26DB
:10178000080094128A110A1650218A150A12852619
:101790000030E5000B268A110A12C1228A150A12AE
:1017A0000830CA0087150310871A03148711BA0C72
:1017B000CA0BD22B8A110A1650218A150A128526C5
:1017C0000030E5000B268A110A12C1228A150A127E
:1017D0000830CA0087150310871A03148711BB0C41
:1017E000CA0BEA2B8A110A1650218A150A12080020
:1017F0008A110A1650218A150A120B246B26F6301C
:10180000E5000B262A30E5000B260B24B926B92665
:10181000B926B92608008A110A1650218A150A121B
:10182000AC263808E5000B263908E5000B268712A0
:1018300087158711871287158711871287158711DA
:10184000871287159E2787113230C900C90B262CB5
:10185000E5010B26E5010B2608008A110A163B213B
:10186000B8003B21B9008A150A12B4238A110A165E
:101870002C213B21B8003B21B9008A150A12B42360
:101880008A110A162C218A150A128A110A163B217E
:10189000B8003B21B9008A150A12B4238A110A162E
:1018A0002C218A150A128A110A163B21B8003B2105
:1018B000B9008A150A120B24C12308008A110A16DE
:1018C00050218A150A12871287118A110A127A2268
:1018D0008A150A126B267C08E5000B260E30E500FF
:1018E0000B266B267808E5000B266E30E5000B26EC
:1018F000462008008A110A1650218A150A126B2602
:10190000A630E5000B269E30E5000B266B26A630A0
:10191000E5000B269C30E5000B266B263C08E50015
:101920000B260E30E5000B266B26A930E5000B26B2
:101930006E30E5000B2684305A060319A42C86303D
:101940005A060319A42CB22C6B263D08E5000B2681
:101950000E30E5000B266B26AA30E5000B266E3014
:10196000E5000B266B26A630E5000B268030E5004F
:101970000B266B26A830E5000B265030E5000B2621
:10198000092708008A110A123D228A150A127330AB
:101990001E02031CCF2C8030BF00CE25D02C382552
:1019A00008008A110A1650218A150A126B26A630E1
:1019B000E5000B269E30E5000B266B26A630E500E1
:1019C0000B269C30E5000B266B263C08E5000B2619
:1019D0000E30E5000B266B26A930E5000B266E3095
:1019E000E5000B2684305A060319FB2C86305A0674
:1019F0000319FB2C092D6B263D08E5000B260E3044
:101A0000E5000B266B26AA30E5000B266E30E500BC
:101A10000B266B263808E5000B260E30E5000B265A
:101A20006B26A830E5000B266E30E5000B266B26F2
:101A3000A630E5000B268430E5000B26D6266B2663
:101A4000A630E5000B268230E5000B266B26A6307B
:101A5000E5000B265030E5000B260927BA18262D85
:101A60006B26A630E5000B269430E5000B26080017
:101A70006527C12622262030BE00BD01BC014026BC
:101A8000A4256B260030E5000B260E30E5000B2662
:101A90006B26F730E5000B266E30E5000B266B2633
:101AA0000030E5000B260E30E5000B266B26F630E5
:101AB000E5000B266E30E5000B260430C5009F269E
:101AC000FF30E5000B26FF30E5000B26C50B5F2D30
:101AD0006B260030E5000B260030E5000B26912731
:101AE000A6270630F6005E08C6005F08C40060083E
:101AF000C5000310C60CC40CC50CF60B792D652768
:101B0000C1262226BE01BD01BC014026A4254030CD
:101B1000BC07031C912D0130BD07031C912D013022
:101B2000BE07C608031D9A2DC408031D9A2DC508BB
:101B30000319A22D0130C5020318852DC402031814
:101B4000852DC602912708006B26A630E5000B26DE
:101B50008430E5000B266B26A630E5000B26883086
:101B6000E5000B26D6266B26A630E5000B26823034
:101B7000E5000B266B260030E5000B260030E50063
:101B80000B26A6276B26A630E5000B269430E50031
:101B90000B2608008130BF00CE2508006527F326FC
:101BA00022263C30BE000030BD000430BC00402680
:101BB00092263F08E5000B26E5010B266B26E50182
:101BC0000B26E5010B266B26A627E5010B26E50172
:101BD0000B2684305A060319F32586305A0603195A
:101BE000F32591270800C12631263030BE00BC0104
:101BF000BD014026FF30B800B900F823BC0ABC0A7A
:101C00004026F823BC0ABC0A4026F823BC0ABC0ABA
:101C10004026F82308000830F6006518172E8712B2
:101C200087158711F60303191F2EE50C0D2E871655
:101C300087158711F60303191F2EE50C0D2EE50CF1
:101C4000871208006B26A630E5000B268E30E500D3
:101C50000B266B26A630E5000B269C30E5000B26F4
:101C600008006B26A630E5000B268E30E5000B261B
:101C70006B26A630E5000B268C30E5000B2608000D
:101C80006B263E08E5000B260E30E5000B266B2682
:101C9000F830E5000B266E30E5000B266B263D087C
:101CA000E5000B260E30E5000B266B26F730E5002D
:101CB0000B266E30E5000B266B263C08E5000B2654
:101CC0000E30E5000B266B26F630E5000B266E3055
:101CD000E5000B26080087128715871187128715E4
:101CE00087118712871587118712871587110800BA
:101CF0008712871587118716871587118712871511
:101D00008711871287158711080087168715871195
:101D100087128715871187128715871187168715F0
:101D20008711080087128715871187128715871179
:101D3000871687158711871687158711080087165C
:101D400087158711871287158711871687158711C1
:101D5000871687158711080087168715871187163C
:101D6000871587118716871587118716871587119D
:101D700008006B260030E5000B260030E5000B263E
:101D800008008A110A1650218A150A1283305A0651
:101D90000319D52E3C30BE000030BD000630BC001B
:101DA00040260030B800B900A72308006B26553044
:101DB000E5000B260E30E5000B266B26A730E5006C
:101DC0000B266E30E5000B266B26AA30E5000B26AD
:101DD0000E30E5000B266B26A730E5000B266E3093
:101DE000E5000B2608008A110A1650218A150A12EE
:101DF00083305A060319082F3C30BE000030BD0066
:101E00000630BC0040264030B8000030B900A7239F
:101E100008006B26F530E5000B266E30E5000B263A
:101E20007826BA01BB018A110A12C1228A150A1248
:101E30000830CA0087150310871A03148711BA0CDB
:101E4000CA0B1A2F0830CA00031087150310871A0F
:101E500003148711BA0CCA0B252F8A110A165021B8
:101E60008A150A1208008A110A1650218A150A12C8
:101E7000871287118A110A127A228A150A12C1263C
:101E800031266B260030E5000B26EF30E5000B26EF
:101E90006B260030E5000B26F830E5000B266B269C
:101EA000D430E5000B268830E5000B266B26B530D4
:101EB000E5000B268030E5000B267808BC00790889
:101EC000BD007A08BE00402608008A110A1650217B
:101ED0008A150A12871287118A110A127A228A1524
:101EE0000A12C12622267808BC007908BD007A08AB
:101EF000BE00402608008A110A1650218A150A12CF
:101F0000871287118A110A127A228A150A12C126AB
:101F100022267808BC007908BD007A08BE00402659
:101F200008008A110A1650218A150A128712871191
:101F30008A110A12A0228A150A1208008A110A12AE
:101F4000CC208A150A120B1DA32F08003230F60090
:101F5000AB2F0A30F600A630F700F70BAD2FF60BCB
:101F6000AB2F08002830F600A627F60BB42F080088
:1020000083171030840001308000840A0230800081
:10201000840A0230800083120313080083171030F3
:10202000840006308000831203130800F1128A1521
:102030000A120E208A110A161E21003A03192628B8
:102040008A150A1257208A110A161C288A150A12A4
:1020500046208A110A160800F1128A150A12382041
:102060008A110A161E21003A031941283B21B800A3
:102070008A150A1273208A110A16BC0F3228BD0A6B
:1020800032288A150A1246208A110A160800F1120F
:102090008A150A122A208A110A161E21003A0319EB
:1020A00057288A150A1281208A110A164D288A1586
:1020B0000A1246208A110A160800F1128A150A121D
:1020C0001C208A110A161B218A110A161E21003AA9
:1020D000031976283B21B8003B21B9008A150A1262
:1020E00065208A110A16BC0ABC0A63288A150A12DE
:1020F00046208A110A160800F1128A150A120E20CB
:102100008A110A161E21003A03198C288A150A1210
:1021100057208A110A1682288A150A1246208A1127
:102120000A160800F1128A150A120E208A110A16E0
:102130001E21003A0319AC288A150A1248208A1178
:102140000A163A088A110A1237273B088A110A121E
:1021500037278A110A1698288A150A1246208A11EA
:102160000A160800F1128A150A1238208A110A1676
:102170001E21003A0319C7288A150A1249208A111C
:102180000A163A084121BC0FB828BD0AB8288A159A
:102190000A1246208A110A160800F1128A150A123C
:1021A0002A208A110A161E21003A0319E1288A15ED
:1021B0000A1248208A110A163A0841213B08412197
:1021C000D3288A150A1246208A110A160800F1122D
:1021D0008A150A121C208A110A161E21003A0319B8
:1021E000FB288A150A1248208A110A163A0841214A
:1021F0003B084121ED288A150A1246208A110A1649
:102200000800F1128A150A120E208A110A161E21E0
:10221000003A031915298A150A1248208A110A164C
:102220003A0841213B08412107298A150A12462014
:102230008A110A1608008A150A1247288A110A16F6
:10224000FF08031D2C29FE08031D2C29FD08031D72
:102250002C29FC08031900340130FC02031837292B
:10226000FD0203183729FE0203183729FF02FF3049
:102270008A110A1608008A110A123F278A110A16C3
:1022800008008A110A1237278A110A1608008A15CF
:102290000A1200288A150A1200288A150A12002834
:1022A0008A110A12B822CA228A110A1608008A1153
:1022B0000A12C1228A110A1608008A150A129128E8
:1022C00008008A150A12922808008A150A128F2817
:1022D00008008A150A12902808008A150A125E243E
:1022E0008A110A1608008A150A1214218A110A1680
:1022F00008000130C00008000230C00008000230B1
:10230000C0000800A030C100A230C300A630C20047
:0E2310008A110A12F0228A110A16080008002B
:103000000313831600309400831294120800831275
:1030100003130130630603194628023063060319BF
:103020005228033063060319592804306306031934
:103030006B280930630603197D280A3063060319DB
:103040008F280C3063060319A1280D30630603197D
:10305000DF280E3063060319192918306306031997
:10306000262919306306031933291A306306031918
:1030700035291B306306031937291C3063060319F1
:1030800038291D30630603194A2908005C2171188C
:103090005128CF21831710308400640880008312E8
:1030A000031308005C21711858280330E1009921AE
:1030B00008005C2171186A288A110A166521E1004E
:1030C0008A150A16A3218A110A166921E1008A15B8
:1030D0000A16B92108005C2171187C288A110A1689
:1030E0006521E1008A150A16A3218A110A166921B1
:1030F000E1008A150A16B92108005C2171188E2892
:103100008A110A165D21E1008A150A16A3218A1187
:103110000A166121E1008A150A16B92108005C210E
:103120007118A0288A110A165D21E1008A150A1675
:10313000A3218A110A166121E1008A150A16B92114
:103140000800F110831203137C08E500EB21F1194C
:10315000F1147D08E500EB21F119F1147E08E5007A
:10316000EB21F119F1147808E500EB21F119F114C4
:103170007908E500EB21F119F1147A08E500EB215B
:10318000F119F114CC288A110A123F278A150A1660
:10319000E500EB21F119F114FE08031DD528FD0807
:1031A000031DD528FC080319DE280130FC02031892
:1031B000C328FD020318C328FE02C32808005C21AF
:1031C000711818298A110A166121E1008A150A1658
:1031D0008317103084008001840A8001840A8001F2
:1031E000840A80019921831710308400840A840A9C
:1031F000840A0008E200103084000008840A840A6F
:10320000840A800010308400620880008317103028
:103210008400840A840A0008E20010308400840AD2
:103220000008840A800010308400840A620880004C
:1032300008005C21711825297808E500EB21790840
:10324000E500EB217A08E500EB2108005C2171180C
:1032500032297808E500EB217C08E500EB217D08A8
:10326000E500EB2108005C2108005C210800080053
:103270005C2171188E288A110A168E21E1008A15A8
:103280000A16A3218A110A168E21E1008A150A1650
:10329000B92108005C217118A0288A110A168E2114
:1032A000E1008A150A16A3218A110A168E21E1006F
:1032B0008A150A16B921080071106308E500EB2190
:1032C000FF30E400CF2164086502031D7114E40897
:1032D000031D6C297114CF2108008A110A161E21C2
:1032E0008A150A16003A031983294008E100CF2104
:1032F000711A832964088A110A1237278A150A1657
:10330000E10B77296D2908008A110A161E218A15FA
:103310000A16003A031998294008E1008A110A1296
:103320003F278A150A16E500EB21E10B8E29842937
:103330000800831710308400CF2164088000840ABD
:10334000E10B9C2908007808E500EB21E103031953
:10335000B8297908E500EB21E1030319B8297A08B7
:10336000E500EB21E1030319B8297B08E500EB2117
:1033700008007C08E500EB21E1030319CE297D0854
:10338000E500EB21E1030319CE297E08E500EB21DE
:10339000E1030319CE297F08E500EB210800930122
:1033A0000622F119E22971128A110A12C1228A1524
:1033B0000A162530940094168C118C1DDD291308F3
:1033C000E400E329711687128A110A12B8229412B6
:1033D0008A150A1608000622F119F72925309400EB
:1033E00094168C11650893008C1DF429F7298A1115
:1033F0000A12D4208A150A160B1DFC2987128A117D
:103400000A12B82294128A150A1608008A110A12A2
:10341000D22287128A110A12B8228A150A16F111CD
:103420008A110A12C8208A150A160B192C2A871D20
:10343000152A8A110A12D0208A150A160B1D1E2A77
:103440008716F1118A110A12C8208A150A160B195B
:0C3450002C2A8719272A2D2AF1150800C4
:04345C000034003404
:00000001FF
