:020000040000FA
:040008007D2D080042
:100020008A150A1600208A110A124626F012F212C8
:10003000F217C001C1018611701183120313F80178
:10004000F901FA01FB01FC01FD01FE01FF01203075
:1000500084008E25A000243020020319FD283C30A6
:100060002002031D2928840ACB010230BD008E2501
:10007000CB07D6208000840ABD0B37282208CA008F
:10008000210ECA0406304A02BD008E25CB07D620B9
:100090008000840ABD0B45280230BD008E25D62085
:1000A0008000840ABD0B4E288E25BC003E303C02E9
:1000B000031D812884030008BC008403000EBC04D7
:1000C0004B083C02031D8A28831324308400000857
:1000D000CC008403000ECC04CC0803197E284E30DB
:1000E0004C0203187E280611861590304C07073005
:1000F0000318013E8A004C0890271B280030BF00DF
:1001000099280130BF0099280230BF009928033098
:10011000BF0099280430BF0099280530BF009928F6
:100120000630BF0099280730BF0099280830BF006B
:1001300099280A30CA000030CC00831710308400A0
:100140003F08800006157015DD251B2841346C34EE
:100150006C34203459346F34753472342034423462
:10016000613473346534203441347234653420345E
:10017000423465346C346F346E3467342034543414
:080180006F3420345534733450
:10019000F6308100D428EC308100D428D83081009A
:1001A000D4283D308100D4280B110800F700F60058
:1001B0000F30F605473077020318E4284130770204
:1001C000031CE4280930F60776080800B800B900D7
:1001D000F030B905390EF220B9000F303805F220A1
:1001E000B8000800F6000A307602031CFA283730FF
:1001F0007607FC283030760708000530BD00213036
:1002000084008E258000840ABD0B0129BC000D30BE
:100210003C02031D7E2830308B2532308B251B2875
:100220000E30CA000130CC008A110A1600208A1153
:100230000A127015DD2508001230CA000230CC0009
:1002400057267015DD2508000E30CA000430CC009A
:1002500070150230D7008A150A1607208A110A1273
:10026000711C35297524BF00FA247015DD2508009E
:100270000830CA000530CC0083132608BC00250EC8
:10028000BC04BC080319452947296D27482966275E
:10029000DD2508000830CA000630CC002608C20060
:1002A000250EC2042808C300270EC3042908C40071
:1002B0002A0EC404DD2508000A30CA000730CC002D
:1002C0008A110A160C208A110A127015DD25080001
:1002D0000A30CA000830CC00BE267015DD250800A3
:1002E0000830CA000930CC002608C100250EC10420
:1002F000DD2508000830CA000A30CC002608BC0002
:10030000250EBC04F212BC0803198729F216DD255C
:1003100008000830CA000B30CC002608BC00250EAF
:10032000BC04BC08031D9D299529F2178A110A16E1
:10033000D2218A110A12F217A429F2178A110A1679
:10034000D2218A110A12F213DD2508000830CA00F2
:100350000C30CC002608BC00250EBC047213BC086F
:10036000031DB32972170B30D7008A150A16072010
:100370008A110A12DD250800080008008312031301
:10038000F016061008000830CA001230CC00DD2537
:1003900008000830CA001330CC0083132608C500BB
:1003A000250EC50483132808C600270EC6048A112B
:1003B0000A16D2218A110A12DD2508000830CA0067
:1003C0001B30CC008A110A16AA218A110A120430A5
:1003D000D700A72408000830CA001E30CC008A11BC
:1003E0000A16AA218A110A120330D70084240800B1
:1003F0000830CA002330CC008A110A16B0218A11B5
:100400000A121C30D700842408000830CA002430A7
:10041000CC008A110A16B0218A110A121D30D700A9
:10042000A72408000830CA002530CC00DD258A1139
:100430000A16D2218A110A1208000830CA00263092
:10044000CC008A110A1688218A110A12DD250800BB
:100450000830CA002730CC008A110A168B218A1175
:100460000A12DD2508000830CA002830CC008A11A5
:100470000A16D2218A110A12DD25672C0830CA001B
:100480002930CC008A110A1679218A110A12DD2539
:1004900008000830CA002A30CC0083132608BE00AA
:1004A000250EBE048A110A16B3218A110A12DD250F
:1004B00008000830CA002B30CC002608BC00250EEE
:1004C000BC0400303C020319702A01303C020319BD
:1004D000842A02303C0203196E2A972A2C27972A75
:1004E0002C277925192779255E278719972A5627DA
:1004F000871587115E27D1208719972A0B1D7C2A23
:100500000730BF00FA24972A2C2779251927562768
:10051000871587115E271930D7008A150A1607201C
:100520008A110A12711C972A7524BF00FA24DD254E
:1005300008000A30CA002C30CC00F218A72A721921
:10054000A52A0030CC000330B52A0230B52A5E2738
:10055000871DB32A5030BD00871DB32ABD03031D7C
:10056000AC2A0030B52A0130B52ABC008317103000
:100570008400831203133C0880007015DD250800F9
:100580002C27792519270830CA002D30CC00DD250D
:1005900008000830CA002E30CC008711562787117A
:1005A0004D27071ED92A8A150A169A228A110A127D
:1005B000D02A87157525752587115E27DD2508004A
:1005C0000830CA002F30CC001A30D700652D083013
:1005D000CA003030CC001930D700652D0830CA0071
:1005E0003130CC0006258A110A16D2218A110A124E
:1005F0000D2508000830CA003230CC0022258A11AF
:100600000A16D2218A110A122E2508000830CA00C3
:100610003330CC002608BC00250EBC0400303C0260
:10062000031D142B2C27232B01303C02031D1A2BF6
:100630001927232B02303C02031D202B0627232BD6
:100640000630BF00FA24DD2508000A30CA00343025
:10065000CC00831710308400C926831203131E08B0
:10066000831203178000831203137015DD25080021
:100670000A30CA003530CC008317103084000627BA
:10068000C5262C27831203131E088312031780002C
:10069000831203137015DD2508000A30CA003730B5
:1006A000CC00831710308400CD26831203131E085C
:1006B000831203178000831203137015DD250800D1
:1006C0000830CA003930CC0022258A150A16EB20E2
:1006D0008A110A12F11C6F2B70160730BF002E25ED
:1006E00008000830CA003B30CC002508BC000130AF
:1006F0003C0203197F2B0630BF00FA24892B8A1194
:100700000A16A7218A110A12711D892B0730BF0012
:10071000FA24DD2508000830CA003C30CC00F8017E
:10072000F901FA01FB01FC01FD01FE01FF018A153F
:100730000A16EB208A110A125E27871D9C2BA32B19
:100740000730BF00FA24DD2508001030CA003D3014
:10075000CC0070150D30D700652D0830CA003E3032
:10076000CC0006258A110A16D2218A110A120D25FB
:100770008A110A1208000830CA003F30CC00222536
:100780008A110A16D2218A110A122E250800083071
:10079000CA004030CC0006258A110A1631218A1180
:1007A0000A120D2508000830CA004130CC0022256D
:1007B0008A110A1692208A110A122E250800083082
:1007C000CA004230CC00D8248A110A16A7218A1107
:1007D0000A12DD2508000830CA004330CC0022256B
:1007E0008A110A1612208A110A122E2508000830D2
:1007F000CA004430CC0022258A110A1634208A11FE
:100800000A122E2508000830CA004530CC002225E7
:100810008A110A1671208A110A122E250800083042
:10082000CA004630CC0022258A110A164F208A11B0
:100830000A122E2508000830CA004730CC000625D1
:100840008A110A16AE208A110A120D258A110A127F
:1008500008000830CA004830CC0006258A110A1664
:10086000D3208A110A120D2508000830CA00493029
:10087000CC0006258A110A1612218A110A120D25AA
:1008800008000830CA004A30CC0006258A110A1632
:10089000F3208A110A120D2508000830CA004B30D7
:1008A000CC002608C000250EC004DD250800083055
:1008B000CA004C30CC00DD2579252E2608000830F2
:1008C000CA004D30CC00DD2579253A2608000030DD
:1008D000BF000A30CA000030CC00831710308400FB
:1008E0003F0880007015DD250800F11D792C0930C6
:1008F000832C711E7D2C1030832C711F812C1130A4
:10090000832C0830832C0800D8248A150A16072067
:100910008A110A12711C902C0730BF00FA24A52CF2
:10092000DD2571257B308B257125CB018A150A16B3
:10093000BB218A110A124B08E62039088B2538089A
:100940008B2571257D308B257125DD250800D82468
:100950008A150A1607208A110A12711CB32C073057
:10096000BF00FA24D62CDD258E257B3C0319BC2C38
:100970000130BF00FA24D62CCB018A150A16D221E9
:100980008A110A128E25D620BC00BC0E8E25D620D8
:100990003C044B020319CF2C0430BF0070168E2587
:1009A0007D3C0319D62C0130BF00FA24DD25080058
:1009B00083132C08F8002B0EF8042A08F900290EDE
:1009C000F9042808FA00270EFA042608FB00250E71
:1009D000FB043408FC00330EFC043208FD00310E29
:1009E000FD043008FE002F0EFE042E08FF002D0E21
:1009F000FF0408000A30CA000030CC0070158317CD
:100A0000103084003F08800006150800D824DD253A
:100A100071257B308B25CB0108004B08E620390877
:100A20008B2538088B257D308B25202D0A30CA0078
:100A30000030CC0070158317103084003F08800010
:100A4000DD2508007012D824DD258E257B3C031996
:100A50002C2D0130BF007016CB0108008E25D6204A
:100A6000BC00BC0E8E25D6203C044B0203193B2D46
:100A70000430BF0070168E257D3C0319422D0130D5
:100A8000BF00701603138312701E502D0A30CA0067
:100A90000030CC0070158317103084003F088000B0
:100AA000DD250800E6203908CB078B253808CB0761
:100AB0008B2508008E25CB07D620B900B90E8E25D0
:100AC000CB07D620B904390808008A150A16072072
:100AD0008A110A12711C6F2D0730BF00FA24DD2520
:100AE0000800C8200B1D722D0800CE200B1D762D8E
:100AF0000800D1200B1D7A2D0800F300030E83019E
:100B0000F5000A08F4008A0174088A00750E830053
:100B1000F30E730E0900F01C9F2DC42DF01C912DB7
:100B2000AD2D83120313F01A9D2D06148316891B15
:100B30009A2D972D83120610080806100800F01A47
:100B4000AC2D83128C13880006148316091BA62D66
:100B500083128C1FA92D06100800831203138C1A10
:100B6000B52D86128C1AB52DB22D1A08BF2D181965
:100B7000BD2D9818BD2D0301BF2D1812181686160D
:100B8000BA01BA0BC12D0800C9000C1EC52D4908B9
:100B900099008316981CCA2DCE2D8312831208004B
:100BA00004304A02C700831321308400CB010008BF
:100BB000CB07840AC70BD72D08008313203084008D
:100BC0005B308000840A4A08E62039088000840AE5
:100BD00038088000840A4C08E62039088000840A1E
:100BE00038088000840A701D122E08304A02C7009F
:100BF0000310C70C2530C80083171030F700831787
:100C0000770884000008E620831348088400390828
:100C10008000C80A840A38088000C80A8317F70AC7
:100C2000C70BFF2DD02503304A02F600203076078F
:100C300084004B08E62039088000840A38088000C8
:100C4000840A5D3080004A08C70083132030840086
:100C500000088B25840AC70B282E08008312031373
:100C60008616831640309900831218121A081A0843
:100C70001816080083120313861683161530990080
:100C8000831218121A081A08181608008316D03092
:100C90008700A00005148514851504309F00831279
:100CA00080309F002C278030CF00D9260800861581
:100CB0007208CE003827831203171030840076267E
:100CC000840A8226840A8E26840A9726840AA42609
:100CD000031383124E08F20072180627F218192720
:100CE00072192C27F2193827861108000313831272
:100CF000C92633301E02031CB22E9A301E0203187E
:100D0000B62EBA2E03138312CD266C081E02031CC6
:100D1000B22E6E081E020318B62EBA2E03138312CB
:100D20002C27C526A4081E020318B62EBA2E0313BC
:100D300083121927C92633301E02031CB22E9A30A3
:100D40001E020318B62EBA2E031383120627C526D9
:100D50002C276C081E02031CB22E6E081E020318FC
:100D6000B62EBA2E8317013080000800831780301A
:100D700080000800831700308000080083171030BF
:100D8000840000308317800008009F121F129F11FB
:100D9000D12E9F121F129F15D12E9F121F169F1525
:100DA000D12E74271F1474271F151F19D52E1F103D
:100DB00008000313831286101130CD00E5264F087A
:100DC000CD00E5268614782708000830BB00CD0D3D
:100DD000031CEC2E8617ED2E861300000000000089
:100DE0000000061700000000000000000613BB0B07
:100DF000E72E0800861406178617080086140617C3
:100E00008613080086140617861308000708D30007
:100E10005315D3145310530887007214F210721133
:100E2000F2118A110A12D1208A110A120B1D162FF3
:100E300008000708D3005315D31053145308870034
:100E40007210F2147211F2118A110A12D1208A1151
:100E50000A120B1D292F08000708D3005311D314C1
:100E60005314530887007210F2107215F211080023
:100E70000708D3005315D314531453088700721076
:100E8000F2107211F2150800941283162016A012A7
:100E900020088700831285160800941283162016F6
:100EA000A01620088700831285120800941283166A
:100EB000A0112008870083120515080094128316DC
:100EC000A015200887008312051108000512810172
:100ED0000B110B1D692F72120800051681010B11F1
:100EE0000B1D702F72160800BA01BA0B752F08007F
:100EF000CE200B1D792F08000030D1005108CF0003
:100F0000D926CD266D081E0203188B2FD10F7E2FF8
:080F10000030CF00D9260800D3
:100F20008207000010291C29672C242938294A2906
:100F30005C29682970297A298929A629672CBC2966
:100F4000BD29672CBE29C329C929672C672C672CAA
:100F5000672C672C672C672CDE29672C672CEB2904
:100F6000672C672C672C672CF829052A122A1D2A62
:100F7000282A332A3E2A492A592A992AC02AC92AC4
:100F8000E02AE72AEE2AFA2A062B252B382B672C93
:100F90004D2B672C602B672C712B8B2BA52BAD2B2E
:100FA000BB2BC72BD32BDF2BEB2BF72B032C0F2CBF
:100FB0001B2C292C352C412C4D2C572C5F2C672CAD
:040FC000672C080092
:1010000008308A003E0882070034003400345F2B29
:101010007B2B912BD72BD82BD92BDA2BFF2B072C03
:1010200008308A003E088207003400340034112C56
:101030002F2C892C8A2C142D152D162DFF2B182DB5
:1010400008308A003E0882070034003400345F2BE9
:101050008A2B912B8A2B912B8A2BF72B8A2BFF34EF
:1010600008308A003E0882070034003400345F2BC9
:10107000832B912B832B912B832BED2B832BFF34F5
:1010800008308A003E0882070034003400340134FE
:10109000083401340434013404340134023401349A
:1010A0000234023408308A003E08820700340034DB
:1010B0000034013404340134043401340434013480
:1010C0000134013402340234992908308A003E0880
:1010D0008207003400340034152E352E5A2E672E28
:1010E000B42EB52EB62EB72EDB2E08308A003E0861
:1010F0008207003400340034192D1F2D202D212D9E
:10110000222D232D292D2A2D312D08308A003E082D
:1011100082070034003400343C2D512D692D702D90
:101120008F2D902D912D922D942D08308A003E0800
:101130008207003400340034952DB82DDD2DEA2DC2
:10114000EB2DEC2DED2DEE2D022E08308A003E0801
:10115000820700340034003400291C292E292F294D
:0A1160004729482949295729582931
:101200008A110A166D21DD006D21DE008A150A1291
:101210005522F121C008031D19298A110A12C92675
:101220008A150A1276301E02031C192926231F2252
:101230001B29C7221F2208008A110A166D21DD0012
:101240006D21DE008A150A125522F121262319226A
:1012500039232D29C7221F221F2208001C29FF30F5
:10126000DD00DE005522F121C7221C221C22392379
:101270008A110A166D21DD006D21DE008A150A1221
:101280005522F12126231C221C22392308001C2967
:101290002F298A110A166D21DD006D21DE008A15C5
:1012A0000A125522F121C7221F221F2208001C29E1
:1012B0008A110A166D21DD006D21DE008A150A12E1
:1012C0005522F12126231C2213238A110A12C82039
:1012D0008A150A1208006D29A122E208031D73294C
:1012E000E108031979290130E10203186C29E202AF
:1012F0006C2908007B22CA2108008E22CA2108001E
:101300007B22CA2108008A110A168E218A150A1228
:10131000871287118A110A1206278A150A1279087C
:10132000E2007808E10021306206031998296B2158
:1013300008008A110A168E218A150A12871287114F
:101340008A110A1206278A150A127908E20078081B
:10135000E10008008A110A168E218A150A128712E6
:1013600087118A110A1206278A150A122F220C22C7
:10137000E2017808E1006B2108008A110A168E212B
:101380008A150A12871287118A110A122C278A15C8
:101390000A120800DF01E0018A110A1695218A1558
:1013A0000A12871587110830BB00871587110310B3
:1013B000871A0314DF0CBB0BD5290630BB00871539
:1013C00087110310871A0314E00CBB0BDF29E00C14
:1013D000E00C871587118A110A168E218A150A12C8
:1013E00008008712871587110830BB008716DD0CAF
:1013F000031C871287158711BB0BF6290630BB002B
:101400008716DE0C031C871287158711BB0B002A79
:1014100087128715871108005E08EB005D08EA0057
:10142000FF30DE00DD00F1216B08DE006A08DD0020
:1014300008000130F700252A0230F700252A043081
:10144000F700252A1E30F700252A8A110A12CE201D
:101450008A150A120B1D2A2AF70B252A0800871263
:1014600087158711871287158711871287158711AE
:10147000871287158711871287158711871287159D
:10148000871108008716871587118712871587111E
:10149000871287158711871287158711871287157D
:1014A0008711871287158711080087128715871102
:1014B0008716871587118712871587118712871559
:1014C00087118712871587118712871587110800E2
:1014D0008716871587118716871587118712871535
:1014E0008711871287158711871287158711871231
:1014F00087158711080087128715871187128715AE
:10150000871187168715871187128715871187120C
:101510008715871187128715871108008716871589
:1015200087118712871587118716871587118712EC
:1015300087158711871287158711871287158711DD
:101540000800871287158711871687158711871658
:1015500087158711871287158711871287158711BD
:101560008712871587110800871687158711871638
:101570008715871187168715871187128715871199
:101580008712871587118712871587110800871220
:10159000871587118712871587118712871587117D
:1015A0008716871587118712871587118712871568
:1015B00087110800871687158711871287158711ED
:1015C0008712871587118716871587118712871548
:1015D00087118712871587110800871287158711D1
:1015E0008716871587118712871587118716871524
:1015F00087118712871587118712871587110800B1
:101600008716871587118716871587118712871503
:1016100087118716871587118712871587118712FB
:101620008715871108008712871587118716871578
:1016300087118716871587118716871587118712D7
:10164000871587118712871587110800871287155C
:1016500087118712871587118712871587118716BB
:1016600087158711871687158711871287158711A8
:101670000800871687158711871687158711871623
:101680008715871187128715871187168715871188
:101690008712871587110800871687158711871607
:1016A0008715871187168715871187168715871164
:1016B0008716871587118712871587110800203034
:1016C000F9000730F800AA217A21E01260136008BF
:1016D000DE005F08DD001925BD212030F90007304C
:1016E000F800AA214222B422C7221F221F2242222E
:1016F000B422BD210800F801F901AA214C231F22C0
:101700001F22BD210800DA221F221F22C7221F220A
:101710001F22080000231F221F22C7221F221F2270
:10172000080083210430EA00FF30EB00A122EB0B1C
:10173000962BEA0B942BA122A122A12280215F08E3
:10174000E7006008E800BD21AA217A216813601A29
:101750006817E813E01AE8172F220C22DA221F225A
:101760001F2200231F221F22BD2183210430EA00F3
:10177000FF30EB00A122EB0BBA2BEA0BB82BA12216
:10178000A122A1226708DD006808DE006226BD21D3
:10179000AA217A216012681B6016E012E81BE0168D
:1017A0005F08DD006008DE002025BD2108007B2BDE
:1017B000912B7B2B2030F9000730F800AA2155220D
:1017C0000C22DA221F221F221F221F2200231F2287
:1017D0001F221F221F22BD210800832155220C2217
:1017E000DA221F221F221F221F22BD21080083216F
:1017F00000231F221F221F221F22BD210800F801E3
:10180000F901AA21DA221F222222BD210800AA21E1
:101810002F220C22DA221F221C221F221C22BD2171
:101820000800F801F90183214308E9004408EA00AF
:101830001A2CA122FF30DD00DE005522F121C72243
:101840001F22E908031D272CEA0803192D2C01305B
:10185000EA020318192CE902192CBD2108000330F3
:10186000F6004208E9004308EA004408EB000310D0
:10187000E90CEA0CEB0CF60B372CF901F80183218B
:101880000830F600FF30DD00DE005522F121F60BB6
:101890004A2C4C2CA122422CC7221F221F22E908CD
:1018A000031D582CEA08031D582CEB080319632C60
:1018B0000130EB020318612CEA020318612CE902E3
:1018C000612CA122402C2F220430EB00FF30DD00E0
:1018D000DE005522F121C7221F221F22EB0B712CA3
:1018E000732CA122662CA122FF30DD00DE005522E0
:1018F000F121C7221F221F22A122A122A122FF30F3
:10190000DD00DE005522F121C7221F221F22BD214A
:101910000800912BAE24F5248E240800F801F9016B
:10192000AA21FF30DD00DE005522F121C7221C2252
:101930001C2239230230EA000430EB00A122FF30E0
:10194000DD00DE005522F121EB0B9E2C26231C220C
:101950001C223923EA0B9C2CBD2108000530F6001F
:101960004208E9004308EA004408EB000310E90CD0
:10197000EA0CEB0CF60BB62CF901F8018321FF30D1
:10198000DD00DE005522F1212030DC000430F600BD
:10199000C7221C223923CF2C0430F600A122FF30AD
:1019A000DD00DE005522F121DC03F60BCE2C2623D0
:1019B0001C221C223923DC080319DF2CCC2CE9085B
:1019C000031DE82CEA08031DE82CEB080319122D6F
:1019D0000130EB020318F12CEA020318F12CE902A2
:1019E000F12CA122C42CBD2108001C221C22F901CB
:1019F000F8019921FF30DD00DE006822F121EB01C2
:101A0000C7221C221C223923FF30DD00DE006822A1
:101A1000F12126231C221C221C221C223923A12254
:101A2000EB0B002DBD210800912B8A2CDA2BFF2B0C
:101A3000FF345522F121C7221F221F220800192D31
:101A4000192D192D192D5522F121C7221C223923B8
:101A50000800192D5522F121C722C722192213236C
:101A600008005522F12126231C2213238A110A1271
:101A7000C8208A150A1208006822F121C008031D37
:101A80004D2D8A110A12C9268A150A1276301E02B5
:101A9000031C4D2D26231F224F2DC7221F22A122BA
:101AA00008006822F121C008031D642D8A110A1262
:101AB000C9268A150A1276301E02031C642D2623BD
:101AC0001F221F223923672DC7221F221F22A12276
:101AD00008006822F121C7221F221F22A12208002C
:101AE0006822F121C008031D832D8A110A12C9261C
:101AF0008A150A1276301E02031C832D26231F220C
:101B00001F2239238D2DC7221C221C221C221C229D
:101B1000392326231C221C223923A1220800692DE7
:101B2000702D692D00340800FF348A110A166D21CA
:101B3000DD006D21DE008A150A125522F121E50A29
:101B40005B086506031DB72DC008031DB42D8A115F
:101B50000A12C9268A150A1276301E02031CB42DF9
:101B600026231F22E501B72DC7221F22E501080009
:101B70008A110A166D21DD006D21DE008A150A1218
:101B80005522F121E50A5B086506031DDC2DC0081E
:101B9000031DD82D8A110A12C9268A150A1273301C
:101BA0001E02031CD82D262319223923E501DC2D22
:101BB000C7221F221F22E50108008A110A166D2183
:101BC000DD006D21DE008A150A125522F121C7229F
:101BD0001F220800672EDD2DEA2DDD2D8A110A1641
:101BE0006D21DD006D21DE008A150A125522F121DA
:101BF000E50A5B086506031D012EC722192213237F
:101C0000E50108008A110A166D21DD006D21DE0054
:101C10008A150A125522F12126231C2213238A1128
:101C20000A12C8208A150A1208008A110A166D21A4
:101C3000DD006D21DE008A150A125522F1210130E6
:101C400040020319302E8A110A12C9268A150A1277
:101C500076301E02031C302E26231F22E501342E6F
:101C6000C7221F221F22E50108008A110A166D21D2
:101C7000DD006D21DE008A150A125522F121E50AE8
:101C80005A086506031D592EC008031D552E8A11DA
:101C90000A12C9268A150A1276301E02031C552E16
:101CA000262319223923E501592EC7221F221F227C
:101CB000E50108008A110A166D21DD006D21DE00A4
:101CC0008A150A125522F121C7221F220800C008D6
:101CD0000319A02E6B2EBD211922F901F8018321D1
:101CE000FF30DD00DE005522F121C7221C221C221C
:101CF00039230830EB008A110A166D21DD006D21B1
:101D0000DE008A150A125522F1210330EA00A122D1
:101D10008A110A166D21DD006D21DE008A150A1276
:101D20005522F121EA0B872E26231C221C2239235F
:101D3000A122EB0B7B2EFF01FE01FD01FC01B32E66
:101D40008A110A166D21DD006D21DE008A150A1246
:101D50005522F121E50A04306506031DB32E262322
:101D60001C223923E50108005A2E672E5A2E8A11AB
:101D70000A166D21DD006D21DE008A150A1255223A
:101D8000F121E50A8A110A1650218A150A128A15CC
:101D90000A12A1228A150A128A110A166D21DD0083
:101DA0006D21DE008A150A125522F121C72219225F
:101DB0001323E50108008A110A166D21DD006D214B
:101DC000DE008A150A125522F121E50A26231C227B
:0E1DD00013238A110A12C8208A150A1208006D
:1020000083171030840002308000840A073080007B
:10201000840A0230800008008317103084000130E9
:1020200080000800F1128A150A1240208A110A164F
:10203000DA00E5018A150A1283218A110A16502155
:10204000003A03192E288A150A1265208A110A16E9
:102050008A150A12A1228A110A161F288A150A1245
:10206000BD218A110A160800F1128A150A1264208D
:102070008A110A165021003A031949286D21DD0002
:102080008A150A1285208A110A16E10F3A28E20AF7
:102090003A288A150A12BD218A110A160800F1127F
:1020A000E5018A150A1252208A110A16DB008A15E8
:1020B0000A12AA218A110A165021003A03196B2824
:1020C0008A150A1295208A110A168A150A12A12267
:1020D0008A110A165C288A150A12BD218A110A166D
:1020E0000800F1128A150A12AA218A110A16502133
:1020F000003A03198C286D21DD006D21DE008A1560
:102100000A1275208A110A16E10AE10A8A150A12D2
:10211000A1228A110A1677288A150A12BD218A116E
:102120000A160800F112E5018A150A12AA218A117D
:102130000A165021003A0319A8288A150A12A52068
:102140008A110A168A150A12A1228A110A169928DA
:102150008A150A12BD218A110A160800F1128A1581
:102160000A1283218A110A165021003A0319CD2838
:102170008A150A1280218A110A165F088A110A122A
:10218000522560088A110A1252258A110A168A15E8
:102190000A12A1228A110A16B4288A150A12BD2130
:1021A0008A110A160800F1128A150A1264208A118F
:1021B0000A165021003A0319ED288A150A127D21CA
:1021C0008A110A165F0873218A150A12A1228A1140
:1021D0000A16E10FD928E20AD9288A150A12BD2168
:1021E0008A110A160800F1128A150A12AA218A1108
:1021F0000A165021003A03190C298A150A12802167
:102200008A110A165F087321600873218A150A1261
:10221000A1228A110A16F9288A150A12BD218A11EB
:102220000A160800F1128A150A12AA218A110A1642
:102230005021003A03192B298A150A127A218A1192
:102240000A165F087321600873218A150A12A122F9
:102250008A110A1618298A150A12BD218A110A162E
:102260000800F1128A150A12AA218A110A165021B1
:10227000003A03194A298A150A1280218A110A167E
:102280005F087321600873218A150A12A1228A113E
:102290000A1637298A150A12BD218A110A16080062
:1022A0008A110A16FF08031D5E29FE08031D5E2918
:1022B000FD08031D5E29FC08031900340130FC02EF
:1022C00003186929FD0203186929FE020318692908
:1022D000FF02FF308A110A1608008A110A125A25D5
:1022E0008A110A1608008A110A1252258A110A1642
:1022F00008008A110A12C9268A110A1676301E02AF
:10230000031C85298A150A1200288A150A1210282A
:102310008A150A1230288A150A1220288A110A12F0
:10232000442756278A110A1608008A110A124D27D7
:102330008A110A1608008A150A1262288A150A12DA
:1023400063288A150A1250288A150A1251288A1100
:102350000A1608000130E60008000230E600080016
:102360000230E6000800831203133830EC00C1216C
:10237000ED00AF30EE008A110A127C278A110A168E
:10238000D12911308A003E0882070034003400341D
:102390009C349C349C349C349C349C349C34A234B7
:0623A0009C34080000342B
:103000000313831600309400831294120800831275
:1030100003130130570603195A28023057060319C3
:1030200066280330570603196D2804305706031924
:103030007F280530570603199128063057060319D3
:103040009D28073057060319A92808305706031989
:10305000B528093057060319C1280A305706031945
:10306000D3280B3057060319E5280C3057060319EF
:10307000EB280D305706031929290E30570603197E
:103080006329183057060319702919305706031998
:103090007D291A30570603197F291B30570603195B
:1030A00081291C305706031982291D305706031940
:1030B00094290800A621711865281D228317103055
:1030C000840058088000831203130800A621711899
:1030D0006C280330D400E7210800A62171187E284F
:1030E0008A110A16A121D4008A150A16F1218A1123
:1030F0000A16A421D4008A150A1607220800A62160
:10310000711890288A110A16A121D4008A150A166E
:10311000F1218A110A16A421D4008A150A16072261
:103120000800A62171189C288A150A16D400F121DE
:103130008A150A16D40007220800A6217118A828AB
:103140008A150A16D400F1218A150A16D40007221E
:103150000800A6217118B4288A150A16D400F12196
:103160008A150A16D40007220800A6217118C02863
:103170008A150A16D400F1218A150A16D4000722EE
:103180000800A6217118D2288A110A169B21D400A2
:103190008A150A16F1218A110A169E21D4008A1571
:1031A0000A1607220800A6217118E4288A110A16B7
:1031B0009B21D4008A150A16F1218A110A169E2134
:1031C000D4008A150A1607220800A621D901721B0D
:1031D000D90A45220800F110831203137C08D90094
:1031E0004522F119F1147D08D9004522F119F11495
:1031F0007E08D9004522F119F1147808D90045223A
:10320000F119F1147908D9004522F119F1147A085D
:10321000D9004522F119F11416298A110A125A25EA
:103220008A150A16D9004522F119F114FE08031D6A
:103230001F29FD08031D1F29FC0803192829013037
:10324000FC0203180D29FD0203180D29FE020D29A9
:103250000800A621711862298A110A169E21D4003D
:103260008A150A168317103084008001840A8001B1
:10327000840A8001840A8001E721831710308400CA
:10328000840A840A840A0008D600103084000008EA
:10329000840A840A840A8000103084005608800062
:1032A000831710308400840A840A0008D600103086
:1032B0008400840A0008840A800010308400840A94
:1032C000560880000800A62171186F297808D900D7
:1032D00045227908D90045227A08D90045220800FC
:1032E000A62171187C297808D90045227C08D900CC
:1032F00045227D08D90045220800A6210800A62104
:1033000008000800A6217118D2288A110A16D221B5
:10331000D4008A150A16F1218A110A16D221D40086
:103320008A150A1607220800A6217118E4288A11B6
:103330000A16D221D4008A150A16F1218A110A161A
:10334000D221D4008A150A160722080071105708E6
:10335000D9004522711B7114FF30D8001D22711A4B
:10336000711458085902031D7114D808031DBA2995
:1033700071141D2208008A110A1650218A150A1696
:10338000003A0319D1296608D4001D22711AD129E7
:1033900058088A110A1252258A150A16D40BC52913
:1033A000BB2908008A110A1650218A150A16003A0C
:1033B0000319E6296608D4008A110A125A258A15CB
:1033C0000A16D9004522D40BDC29D229080083171C
:1033D000103084001D2258088000840AD40BEA298A
:1033E00008007808D9004522D4030319062A790871
:1033F000D9004522D4030319062A7A08D9004522A8
:10340000D4030319062A7B08D900452208007C084A
:10341000D9004522D40303191C2A7D08D90045226E
:10342000D40303191C2A7E08D9004522D4030319AA
:103430001C2A7F08D9004522080071126D22F1195B
:103440003D2A8A110A124D278A150A169301253042
:10345000940094168C110A30D5008A110A12D120DA
:103460008A150A160B19372A8C1D322A3A2AD50BCF
:103470002D2A3D2A1308D8003E2A711687128A1178
:103480000A1244278A150A1608006D22F1195E2ACD
:1034900071132530940094168C11590893000A304A
:1034A000D5008A110A12D1208A150A160B195B2A37
:1034B0008C1D562A5F2AD50B512A5E2A71178A1154
:1034C0000A12CB208A150A160B1D642A87128A114C
:1034D0000A1244278A150A160800F1118A110A12E5
:1034E0005E2787128A110A1244278A150A16643049
:1034F000D5008A110A12D1208A150A160B19832ABF
:10350000871D7E2A862AD50B792A982A8A110A12C3
:10351000C8208A150A160B1D8B2A87168A110A12D3
:10352000D1208A150A160B19982A8719932A992AE5
:10353000F11508008A110A125E274D278A150A160E
:10354000D801071EA12A871DA32A0830D500871D90
:10355000A72A8719A92A0310071A0314D80DD50B17
:10356000A72A871DB12A8719B32ADA228A110A12DB
:1035700056278A150A168715000000000000000073
:1035800087118A110A125E274D278A150A1608002C
:103590008A110A12D1208A150A16E02A8A110A1203
:1035A000CE208A150A16E02A8A110A12CB208A1523
:1035B0000A16E02A8A110A12C8208A150A16E02A79
:0635C0000B1DE02A0800CB
:0435C6000034003499
:0635CA00000200070002F0
:00000001FF
