:020000040000FA
:04000800FE2C0800C2
:100020008A150A1600208A110A12CD25F012F21242
:10003000F217CF01D0018611701183120313F3015F
:10004000F401F501F601F701F801F901FA01203098
:1000500084001525A000243020020319C8283C3054
:100060002002031D2928840AD8010230CC0015255E
:10007000D80721278000840ACC0B37282208D70014
:10008000210ED70406305702CC001525D8072127AA
:100090008000840ACC0B45280230CC00152521278E
:1000A0008000840ACC0B4E281525CB003E304B0235
:1000B000031D812884030008CB008403000ECB04B9
:1000C00058084B02031D8A2883132430840000083B
:1000D000D9008403000ED904D90803197E285030B2
:1000E000590203187E2806118615903059070730EB
:1000F0000318013E8A00590890271B280030CE00C3
:1001000099280130CE0099280230CE00992803307A
:10011000CE0099280430CE0099280530CE009928C9
:100120000630CE0099280730CE0099280830CE003E
:1001300099280F25D9018317103084004E088000BC
:100140000615701564251B2841346C346C3420343A
:1001500059346F347534723420344234613473341A
:10016000653420344134723465342034423465348B
:100170006C346F346E346734203454346F3420342C
:04018000553473344B
:100190000530CC002130840015258000840ACC0B6A
:1001A000CC28CB000D304B02031D7E2830301225A9
:1001B000323012251B280E30D7000130D9008A11A9
:1001C0000A1600208A110A127015642508001230E0
:1001D000D7000230D900DE257015642508000E30E6
:1001E000D7000430D90070150230E4008A150A16D1
:1001F00007208A110A12711C0029FC23CE008124D9
:100200007015642508000C250530D90083132608D5
:10021000CB00250ECB04CB0803190F291129F42696
:100220001229ED26642508000C250630D900260881
:10023000D100250ED1042808D200270ED2042908A7
:10024000D3002A0ED304642508000F250730D900F7
:100250008A110A160E208A110A12701564250800E8
:100260000F250830D90045267015642508000C2597
:100270000930D9002608D000250ED00464250800D6
:100280000C250A30D9002608CB00250ECB04F2122B
:10029000CB0803194C29F216642508000C250B30F5
:1002A000D9002608CB00250ECB04CB08031D6129FD
:1002B0005929F2178A110A16C4218A110A12F21753
:1002C0006829F2178A110A16C4218A110A12F21338
:1002D000642508000C250C30D9002608CB00250E1B
:1002E000CB047213CB08031D762972170B30E40080
:1002F0008A150A1607208A110A12642508007E282A
:1003000083120313F016061008000C251230D900D2
:10031000642508007E287E287E280C251B30D90005
:100320008A110A16AE218A110A120430E4002E2422
:1003300008000C251E30D9008A110A16AE218A1138
:100340000A120330E4000B2408007E287E280C25C6
:100350002330D9008A110A16B4218A110A121C30DE
:10036000E4000B2408000C252430D9008A110A1659
:10037000B4218A110A121D30E4002E2408000C2535
:100380002530D90064258A110A16B7218A110A126C
:1003900008000C252630D9008A110A168D218A11F1
:1003A0000A12642508000C252730D9008A110A1684
:1003B00092218A110A12642508000C252830D900E0
:1003C0008A110A16B7218A110A126425F02B0C250E
:1003D0002930D9008A110A167B218A110A12642554
:1003E00008000C252A30D90083132608CD00250EDD
:1003F000CD048A110A16B8218A110A126425080050
:100400000C252B30D9002608CB00250ECB0400305C
:100410004B020319162A01304B0203192A2A023013
:100420004B020319142A3D2AB3263D2AB326FA2487
:10043000A026FA24E52687193D2ADD26871587118F
:10044000E5261C2787193D2A0B1D222A0730CE00DE
:1004500081243D2AB326FA24A026DD26871587119C
:10046000E5261930E4008A150A1607208A110A12B7
:10047000711C3D2AFC23CE008124642508000F2531
:100480002C30D900F2184B2A7219492AD9010330AD
:10049000592A0230592AE526871D572A5030CC00A8
:1004A000871D572ACC03031D502A0030592A0130DA
:1004B000592ACB00831710308400831203134B0892
:1004C0008000701564250800B326FA24A0260C25A8
:1004D0002D30D900642508000C252E30D900871155
:1004E000DD268711D426071E7B2A8A150A16B1221B
:1004F0008A110A12722A8715F624F6248711E52636
:10050000642508000C252F30D9001A30E400E62CB1
:100510000C253030D9001930E400E62C0C253130A0
:10052000D9008B248A110A16C4218A110A12922436
:1005300008000C253230D900A5248A110A16C421DE
:100540008A110A12B12408000C253330D90026087C
:10055000CB00250ECB0400304B02031DB12AB3267D
:10056000C02A01304B02031DB72AA026C02A023040
:100570004B02031DBD2A8D26C02A0630CE008124E1
:10058000642508000F253430D9008317103084000B
:100590005026831203131E08831203178000831250
:1005A00003137015642508000F253530D900831713
:1005B000103084008D264C26B326831203131E08A8
:1005C000831203178000831203137015642508003B
:1005D0000F253730D900831710308400542683123A
:1005E00003131E0883120317800083120313701570
:1005F000642508000C253930D900A5248A150A166F
:10060000F3208A110A12F11C082B70160730CE0055
:10061000B12408000C253B30D9002508CB0001305F
:100620004B020319172B0630CE008124212B8A118F
:100630000A16B7218A110A12711D212B0730CE002C
:100640008124642508000C253C30D900F301F40115
:10065000F501F601F701F801F901FA018A150A1608
:10066000F3208A110A12E526871D332B3A2B073017
:10067000CE008124642508001030D7003D30D90019
:1006800070150D30E400E62C0C253E30D9008B248B
:100690008A110A16B7218A110A1292248A110A12A3
:1006A00008000C253F30D900A5248A110A16B7216D
:1006B0008A110A12B12408000C254030D9008B247D
:1006C0008A110A1635218A110A12922408000C2573
:1006D0004130D900A5248A110A16A0208A110A12D5
:1006E000B12408000C254230D9005F248A110A1673
:1006F000A8218A110A12642508000C254330D9006C
:10070000A5248A110A1616208A110A12B12408009B
:100710000C254430D900A5248A110A163B208A11E1
:100720000A12B12408000C254530D900A5248A11ED
:100730000A1673208A110A12B12408000C254630CB
:10074000D900A5248A110A1659208A110A12B12447
:1007500008000C254730D9008B248A110A16BA20CC
:100760008A110A1292248A110A1208000C254830B4
:10077000D9008B248A110A16DD208A110A129224CC
:1007800008000C254930D9008B248A110A1618213B
:100790008A110A12922408000C254A30D9008B24B1
:1007A0008A110A16FB208A110A12922408000C25CD
:1007B0004B30D9002608CF00250ECF046425080051
:1007C0000C254C30D9006425FA24B52508000C25E9
:1007D0004D30D9006425FA24C12508007E287E28E2
:1007E0000030CE000F25D9018317103084004E0849
:1007F0008000701564250800F11D002C09300A2CBA
:10080000711E042C10300A2CF11E082C11300A2CF9
:1008100008300A2C08005F248A150A1607208A115E
:100820000A12711C172C0730CE0081242C2C642551
:10083000F2247B301225F224D8018A150A16D2211F
:100840008A110A12580831276808122567081225EC
:10085000F2247D301225F224642508005F248A15D5
:100860000A1607208A110A12711C3A2C0730CE0092
:1008700081245D2C642515257B3C0319432C013014
:10088000CE0081245D2CD8018A150A16E9218A112F
:100890000A1215252127CB00CB0E152521274B0445
:1008A00058020319562C0430CE00701615257D3CD5
:1008B00003195D2C0130CE008124642508008313C8
:1008C0002C08F3002B0EF3042A08F400290EF4047C
:1008D0002808F500270EF5042608F600250EF60474
:1008E0003408F700330EF7043208F800310EF8042C
:1008F0003008F9002F0EF9042E08FA002D0EFA0424
:1009000008000F25D90170158317103084004E0898
:100910008000061508005F246425F2247B30122530
:10092000D8010800580831276808122567081225E1
:100930007D301225A32C0F25D90170158317103097
:1009400084004E0880006425080070125F2464252E
:1009500015257B3C0319AF2C0130CE007016D80151
:10096000080015252127CB00CB0E152521274B0488
:1009700058020319BE2C0430CE00701615257D3C9C
:100980000319C52C0130CE00701603138312701E9C
:10099000D12C0F25D90170158317103084004E0813
:1009A00080006425080031276808D80712256708E9
:1009B000D807122508001525D8072127E800E80EDA
:1009C0001525D8072127E804680808008A150A16A3
:1009D00007208A110A12711CF02C0730CE008124E6
:1009E0006425080013270B1DF32C080019270B1D85
:1009F000F72C08001C270B1DFB2C0800FB00030E26
:100A00008301FD000A08FC008A017C088A007D0E33
:100A10008300FB0E7B0E09000830D70008000A3067
:100A2000D7000800F01C262D4B2DF01C182D342D5E
:100A300083120313F01A242D06148316891B212D0B
:100A40001E2D83120610080806100800F01A332D18
:100A500083128C13880006148316091B2D2D831214
:100A60008C1F302D06100800831203138C1A3C2DA6
:100A700086128C1A3C2D392D1A08462D1819442D32
:100A80009818442D0301462D181218168616E901F0
:100A9000E90B482D0800D6000C1E4C2D5608990075
:100AA0008316981C512D552D831283120800043093
:100AB0005702D400831321308400D8010008D807DE
:100AC000840AD40B5E2D08008313203084005B3031
:100AD0008000840A5708312768088000840A670864
:100AE0008000840A5908312768088000840A670852
:100AF0008000840A701D992D08305702D40003101D
:100B0000D40C2530D50083171030FF0083177F08E1
:100B1000840000083127831355088400680880008A
:100B2000D50A840A67088000D50A8317FF0AD40B08
:100B3000862D572503305702FE0020307E078400A3
:100B40005808312768088000840A67088000840AF2
:100B50005D3080005708D4008313203084000008E3
:100B60001225840AD40BAF2D0800831203138616B6
:100B7000831640309900831218121A081A081816A2
:100B8000080083120313861683161530990083120A
:100B900018121A081A08181608008316D030870091
:100BA000A00005148514851504309F008312803041
:100BB0009F00B3268030DC0060260800861572088E
:100BC000DB00BF268312031710308400FD25840A42
:100BD0000926840A1526840A1E26840A2B26031356
:100BE00083125B08F20072188D26F218A026721983
:100BF000B326F219BF26861108000313831250266C
:100C000033301E02031C392E9A301E0203183D2E6B
:100C1000412E03138312542648081E02031C392E4A
:100C200049081E0203183D2E412E03138312B326DA
:100C30004C26A4081E0203183D2E412E03138312D6
:100C4000A026502633301E02031C392E9A301E0275
:100C500003183D2E412E031383128D264C26B326F6
:100C600048081E02031C392E49081E0203183D2E97
:100C7000412E8317013080000800831780308000E8
:100C800008008317003080000800831710308400AC
:100C900000308317800008009F121F129F11582EEA
:100CA0009F121F129F15582E9F121F169F15582E08
:100CB000FB261F14FB261F151F195C2E1F10080092
:100CC0000313831286101130DA006C265C08DA00F8
:100CD0006C268614FF2608000830EA00DA0D031C93
:100CE000732E8617742E861300000000000000008B
:100CF000061700000000000000000613EA0B6E2E2D
:100D0000080086140617861708008614061786132F
:100D1000080086140617861308000708E00060150F
:100D2000E0146010600887007214F2107211F21162
:100D30008A110A121C278A110A120B1D9D2E080007
:100D40000708E0006015E01060146008870072106A
:100D5000F2147211F2118A110A121C278A110A1256
:100D60000B1DB02E08000708E0006011E0146014AD
:100D7000600887007210F2107215F211080007085F
:100D8000E0006015E0146014600887007210F21033
:100D90007211F2150800941283162016A012200872
:100DA0008700831285160800941283162016A01659
:100DB0002008870083128512080094128316A01160
:100DC0002008870083120515080094128316A015C9
:100DD00020088700831205110800051281010B11FC
:100DE0000B1DF02E72120800051681010B110B1D50
:100DF000F72E72160800E901E90BFC2E08001927EE
:100E00000B1D002F08000030DE005E08DC006026AD
:100E100054264A081E020318122FDE0F052F003039
:100E2000DC0060260800F63081001F2FEC308100C6
:100E30001F2FD83081001F2F3D3081001F2F0B1135
:100E40000800FF00FE000F30FE0547307F02031848
:100E50002F2F41307F02031C2F2F0930FE077E0801
:100E60000800E700E800F030E805680E3D27E800DC
:100E70000F3067053D27E7000800FE000A307E02BC
:100E8000031C452F37307E07472F30307E07080080
:100F200082070000DB28E728F02BEF28032914298B
:100F300025293029372940294E296A29F02B7F2974
:100F4000F02BF02B802985298A29F02BF02BF02B10
:100F5000F02B8B29F02B8C298D29F02BF02B992944
:100F6000F02BF02BA529A629A729B329BF29C92928
:100F7000D329DD29E729F129002A3F2A642A6C2A8E
:100F8000822A882A8E2A992AA42AC22AD42AF02BB5
:100F9000E82AF02BFA2AF02B0A2B232B3C2B442B8C
:100FA000512B5C2B672B722B7D2B882B932B9E2B2D
:100FB000A92BB62BC12BCC2BD72BE02BE72BEE2B61
:040FC000EF2B08000B
:101200008A110A1250268A150A1246301E02031C41
:101210004E290B2908008A110A1697218A150A12ED
:10122000871287118A110A128D268A150A123C30FC
:10123000C1000030C0000530BF0056240A30C20093
:101240000130C30046213C30C1000030C0000430F2
:10125000BF0056248A30C2000130C300462132212B
:10126000262608008124E6012B24E6012B24812474
:101270005D260630B9005D26B90B3B29B901B90BD3
:101280003F29E6012B24E6012B240800B424420860
:10129000E6002B244308E6002B2408006223080004
:1012A0008A110A1697218A150A12B4243B08E6000F
:1012B0002B243C08E6002B2408008A110A169721EB
:1012C0008A150A12C5243B08E6002B243C08E600D8
:1012D0002B24080094128A110A1697218A150A12E3
:1012E000A3240030E6002B248A110A12D4268A1582
:1012F0000A120830EA0087150310871A03148711B1
:10130000BD0CEA0B7B298A110A1697218A150A124D
:10131000A3240030E6002B248A110A12D4268A1551
:101320000A120830EA0087150310871A0314871180
:10133000BE0CEA0B93298A110A1697218A150A1204
:1013400008008A110A1697218A150A128A304D065A
:10135000031DAB29AD29C921AF29EE21AF298A3060
:101360004D06031DB429BF298124F630E6002B2445
:101370002A30E6002B24C921BF0ABF0AC429BF0AAC
:101380005624EE21BF0AC429E724E724E724E724F2
:1013900008008A110A1697218A150A12D6243B08DA
:1013A000E6002B243C08E6002B248712871500005A
:1013B0008711871287150000871187128715000093
:1013C000871187128715572687113230E900E90BFC
:1013D000E729E6012B24E6012B2408008A110A16CE
:1013E00097218A150A12D6243B08E6002B243C08D4
:1013F000E6002B24871287150000871187128715B6
:101400000000871187128715000087118712871542
:101410005726572687114B26E6012B24E6012B245D
:1014200008008A110A166F21BB006F21BC008A15C3
:101430000A125D218A110A1660216F21BB006F21FB
:10144000BC008A150A125D218A110A1660218A15CC
:101450000A128A110A166F21BB006F21BC008A157F
:101460000A125D218A110A1660218A150A128A1150
:101470000A166F21BB006F21BC008A150A12C92110
:101480006A2108000730B9008A110A166F21BB00D3
:101490006F21BC008A150A125D218A110A1660218B
:1014A0008A150A12B90B442A8A110A166F21BB0049
:1014B0006F21BC008A150A12EE216A2108008A11E8
:1014C0000A1697218A150A12871287118A110A12A1
:1014D0008D268A150A1281247708E6002B240E3007
:1014E000E6002B2481247308E6002B246E30E600EE
:1014F0002B24262608008A110A1697218A150A121B
:101500001F252E258124A630E6002B248030E600FE
:101510002B248124A830E6002B245030E6002B2415
:101520009C2508008A110A1250268A150A12733067
:101530001E02031CA02A9C2A8030C2000624080038
:10154000622308008A110A1250268A150A12733083
:101550001E02031CF92AF92A3C30C1000030C000E9
:101560000430BF00562481248330E6002B24003051
:10157000E6002B2481240030E6002B240030E60016
:101580002B2481240030E6002B240030E6002B249D
:1015900081248830E6002B240030E6002B248124AF
:1015A0000030E6002B240030E6002B24812400309C
:1015B000E6002B240030E6002B24ED2438243C30B8
:1015C000C1002030C0000E30BF00562463258124A6
:1015D000A630E6002B248830E6002B240225732554
:1015E00081240030E6002B240030E6002B246B25FC
:1015F00008000630FE005108BA005208B80053082F
:10160000B9000310BA0CB80CB90CFE0B012BFA256B
:10161000ED243824C101C001BF0156246325812473
:10162000A630E6002B248830E6002B240225732503
:1016300081240030E6002B240030E6002B245D26B8
:101640006B254030BF07031C2B2B0130C007031C48
:101650002B2B0130C107BF08031D412B521B362B1A
:1016600030304002031D412B3D303B2B60304002A7
:10167000031D412B7D30C000C030BF000930B900D0
:10168000B801BA08031D4A2BB808031D4A2BB90834
:101690000319522B0130B90203180D2BB80203189D
:1016A0000D2BBA02262608008A110A1697218A15E0
:1016B0000A121F252E2554256325022573257B2517
:1016C0006B250800FA25ED2438242030C100C00124
:1016D000BF015624EE2381240030E6002B240E3077
:1016E000E6002B248124F730E6002B246E30E60040
:1016F0002B2481240030E6002B240E30E6002B241E
:101700008124F630E6002B246E30E6002B240430D2
:10171000B900C524FF30E6002B24FF30E6002B245F
:10172000B90B892B81240030E6002B240030E60021
:101730002B2426265D260630FE005108BA005208EA
:10174000B8005308B9000310BA0CB80CB90CFE0B62
:10175000A32BFA25ED243824C101C001BF01562472
:10176000EE234030BF07031CBB2B0130C007031C16
:10177000BB2B0130C107BA08031DC42BB808031DD9
:10178000C42BB9080319CC2B0130B9020318AF2BB5
:10179000B8020318AF2BBA0226265D26FA25C0012F
:1017A000BF010430B8000030B9008A110A16972131
:1017B0008A150A121F252E25FF30BB0054256325EC
:1017C000022573257B256B25BF0FE72BC00AB90BBC
:1017D000D52BB80BD52BEC2B2626080063258124AE
:1017E000A630E6002B248830E6002B240225732542
:1017F00081240030E6002B240030E6002B245D26F7
:101800006B2508008130C20006240800FA258625D1
:1018100038243C30C1000030C0000430BF005624E2
:10182000B4244208E6002B24E6012B248124E6019F
:101830002B24E6012B2481245D26E6012B24E601DE
:101840002B2484304D060319332686304D060319A8
:101850003326262608000830FE00661C871266180C
:1018600087168715E60C8711FE0B2D2C87120800B2
:101870008124A630E6002B248E30E6002B24812420
:10188000A630E6002B249C30E6002B24080081249F
:10189000A630E6002B248E30E6002B248124A630CF
:1018A000E6002B248C30E6002B240800812441081C
:1018B000E6002B240E30E6002B248124F830E600CD
:1018C0002B246E30E6002B2481244008E6002B24D4
:1018D0000E30E6002B248124F730E6002B246E30F6
:1018E000E6002B2481243F08E6002B240E30E6007E
:1018F0002B248124F630E6002B246E30E6002B24C6
:1019000008008712871500008711871287150000CD
:10191000871187128715000087118712871500002D
:101920008711080087128715000087118716871511
:10193000000087118712871500008711871287150D
:10194000000087110800871687150000871187128D
:1019500087150000871187128715000087118716E9
:10196000871500008711080087128715000087116E
:1019700087128715000087118716871500008711C9
:101980008716871500008711080087168715000045
:1019900087118712871500008711871687150000A9
:1019A000871187168715000087110800871687158D
:1019B0000000871187168715000087118716871585
:1019C0000000871187168715000087110800812401
:1019D000E6012B24E6012B2408008A110A16972120
:1019E0008A150A1283304D060319012D3C30C100BF
:1019F0000030C0000630BF0056240030BB00BC00E1
:101A00005021080081245530E6002B240E30E600DA
:101A10002B248124A730E6002B246E30E6002B24F3
:101A20008124AA30E6002B240E30E6002B248124EA
:101A3000A730E6002B246E30E6002B24080081241A
:101A4000A630E6002B249E30E6002B248124A6300D
:101A5000E6002B249C30E6002B24080081243F085C
:101A6000E6002B240E30E6002B248124A930E6006A
:101A70002B246E30E6002B2484304D060319452DAF
:101A800086304D060319452D532D81244008E6006C
:101A90002B240E30E6002B248124AA30E6002B24D0
:101AA0006E30E6002B24080081243B08E6002B243E
:101AB0000E30E6002B248124A830E6002B246E3063
:101AC000E6002B2408008124A630E6002B24843075
:101AD000E6002B2408008124A630E6002B24943055
:101AE000E6002B2408008124A630E6002B24823057
:101AF000E6002B2408008124A630E6002B24503079
:101B0000E6002B249C25BD187B2D08008A110A169F
:101B100097218A150A1283304D0603199B2D3C30FC
:101B2000C1000030C0000630BF0056244030BB006A
:101B30000030BC00502108008124F530E6002B2441
:101B40006E30E6002B249224BD01BE018A110A12D8
:101B5000D4268A150A120830EA0087150310871A5E
:101B600003148711BD0CEA0BAD2D0830EA000310F9
:101B700087150310871A03148711BD0CEA0BB82DC3
:101B80008A110A1697218A150A1208008A110A1664
:101B900097218A150A12871287118A110A128D2637
:101BA0008A150A12ED244724EB258124D430E6005F
:101BB0002B248830E6002B248124B530E6002B242A
:101BC0008030E6002B247308BF007408C00075083D
:101BD000C1005624080081240030E6002B24EF3099
:101BE000E6002B2481240030E6002B24F830E600A8
:101BF0002B2408008A110A1697218A150A128712C7
:101C000087118A110A128D268A150A12ED243824AA
:101C10007308BF007408C0007508C100562408008E
:101C20008A110A1697218A150A12871287118A11BA
:101C30000A128D268A150A12ED2438247308BF0073
:101C40007408C0007508C100562408008A110A16DD
:101C500097218A150A12871287118A110A12B32650
:101C60008A150A120800ED2447243030C100C00153
:101C7000BF015624FF30BB00BC00A121BF0ABF0A30
:101C80005624A121BF0ABF0A5624A121BF0ABF0AB8
:101C90005624A12108008A110A1213278A150A1254
:101CA000632E8A110A1216278A150A12632E8A11C8
:101CB0000A1219278A150A12632E8A110A121C2782
:0C1CC0008A150A12632E0B1D632E08000B
:1020000083171030840002308000840A073080007B
:10201000840A0530800083120313080083171030F0
:102020008400043080008312031308007113C4017C
:102030008A150A12FA258A110A165221003A031942
:1020400032288A304D06031D26282C288A150A12AC
:1020500011228A110A161D288A150A1242228A1193
:102060000A161D289721871287118A110A12B32692
:102070008A110A16080071138A150A12FA258A11A4
:102080000A165221003A031950286F21BB008A1505
:102090000A1254238A110A16BF0F4128C00A412888
:1020A0009721871287118A110A12B3268A110A16FC
:1020B00008007113C4018A150A1210268A110A1623
:1020C0005221003A03196A288A150A1211228A112C
:1020D0000A1660289721871287118A110A12B326DF
:1020E0008A110A16080071138A150A12C6258A1168
:1020F0000A168A150A1256248A110A165221003A23
:1021000003198C286F21BB006F21BC008A150A12AD
:10211000A1218A110A167928972008009721871291
:1021200087118A110A128D268A110A160800972132
:10213000871287118A110A12B3268A110A1608001B
:102140007113C4018A150A12FA258A110A1652213E
:10215000003A0319B1288A150A1211228A110A16A7
:10216000A7289721871287118A110A12B3268A118C
:102170000A16080071138A150A12FA258A110A161E
:102180005221003A0319D4288A150A126A218A11A9
:102190000A163D088A110A12D3243E088A110A122F
:1021A000D3248A110A16C0289721871287118A1111
:1021B0000A12B3268A110A16080071138A150A1228
:1021C000FA258A110A165221003A0319F2288A15B3
:1021D0000A127B228A110A163D087521BF0FE328D7
:1021E000C00AE3289721871287118A110A12B326A1
:1021F0008A110A16080071138A150A1210268A110C
:102200000A165221003A03190F298A150A126A2167
:102210008A110A163D0875213E087521012997216A
:10222000871287118A110A12B3268A110A1608002A
:1022300071138A150A12C6258A110A165221003A0C
:1022400003192C298A150A126A218A110A163D08D7
:1022500075213E0875211E299721871287118A1141
:102260000A12B3268A110A16080071138A150A1277
:10227000FA258A110A165221003A031949298A15AA
:102280000A126A218A110A163D0875213E08752135
:102290003B299721871287118A110A12B3268A11C6
:1022A0000A1608008A110A16FA08031D6029F9089F
:1022B000031D6029F808031D6029F708031900347D
:1022C0000130F70203186B29F80203186B29F90291
:1022D00003186B29FA02FF308A110A1608008A11C6
:1022E0000A12DB248A110A1608008A110A12D32462
:1022F0008A110A16080085304D06031984298A3090
:102300004D06031987298A298A150A12A22A8A15D5
:102310000A1200298A150A12922A8A150A12922292
:102320008A110A168A150A1292228A110A168A112D
:102330000A12CB26DD268A110A1608008A110A1213
:10234000D4268A110A1608000234033402340234F7
:102350008A150A125F228A110A1608000130C50088
:1023600008000230C50008000230C500080008005F
:102370003830C8009630CA00AF30C9008A110A123E
:0823800003278A110A16080068
:103000000313831600309400831294120800831275
:1030100003130130640603196228023064060319A1
:103020006E280330640603197528043064060319FA
:1030300087280530640603199928063064060319A9
:10304000A528073064060319BC2908306406031953
:10305000BC29093064060319C9280A30640603191B
:10306000DB280B3064060319ED280C3064060319C5
:10307000F3280D306406031931290E306406031954
:103080006B2918306406031978291930640603196E
:1030900085291A306406031987291B306406031931
:1030A00089291C30640603198A291D306406031916
:1030B0009C291E3064060319AE291F3064060319CB
:1030C000AE290800BD2171186D28342283171030F5
:1030D000840065088000831203130800BD21711865
:1030E00074280330E100FE210800BD2171188628F4
:1030F0008A110A16A621E1008A150A1608228A11E9
:103100000A16A721E1008A150A161E220800BD2111
:10311000711898288A110A16A621E1008A150A1644
:1031200008228A110A16A721E1008A150A161E2212
:103130000800BD217118A4288A150A16E10008228A
:103140008A150A16E1001E220800BD217118B02858
:103150008A150A16E10008228A150A16E1001E22C5
:103160000800BD217118BC288A150A16E100082242
:103170008A150A16E1001E220800BD217118C82810
:103180008A150A16E10008228A150A16E1001E2295
:103190000800BD217118DA288A110A16A421E1005D
:1031A0008A150A1608228A110A16A521E1008A1535
:1031B0000A161E220800BD217118EC288A110A1671
:1031C000A421E1008A150A1608228A110A16A521EF
:1031D000E1008A150A161E220800BD21E601721BB5
:1031E000E60A5C220800F110831203137708E60058
:1031F0005C22F119F1147808E6005C22F119F1144F
:103200007908E6005C22F119F1147308E6005C22EB
:10321000F119F1147408E6005C22F119F114750833
:10322000E6005C22F119F1141E298A110A12DB242E
:103230008A150A16E6005C22F119F114F908031D3B
:103240002729F808031D2729F70803193029013019
:10325000F70203181529F80203181529F902152990
:103260000800BD2171186A298A110A16A521E100FA
:103270008A150A168317103084008001840A8001A1
:10328000840A8001840A8001FE21831710308400A3
:10329000840A840A840A0008E300103084000008CD
:1032A000840A840A840A8000103084006308800045
:1032B000831710308400840A840A0008E300103069
:1032C0008400840A0008840A800010308400840A84
:1032D000630880000800BD21711877297308E60093
:1032E0005C227408E6005C227508E6005C22080097
:1032F000BD21711884297308E6005C227708E60076
:103300005C227808E6005C220800BD210800BD218F
:1033100008000800BD2171189B298A110A16B721DF
:10332000E1008A150A1608228A110A16B721E1005F
:103330008A150A161E220800BD217118EC288A1170
:103340000A16B721E1008A150A1608228A110A1600
:10335000B721E1008A150A161E220800BD21711846
:10336000BB290330E1008A150A1608220230E10069
:103370008A150A161E220800080071106408E6006B
:103380005C22F11A7114FF30E5003422711A7114B5
:1033900065086602031D7114E508031DD129711427
:1033A000342208008A110A1652218A150A16003A98
:1033B0000319E8294508E1003422711AE829650853
:1033C0008A110A12D3248A150A16E10BDC29D229A4
:1033D00008008A110A1652218A150A16003A0319A2
:1033E000FD294508E1008A110A12DB248A150A1614
:1033F000E6005C22E10BF329E9290800831710306D
:103400008400342265088000840AE10B012A080048
:103410007308E6005C22E10303191D2A7408E60024
:103420005C22E10303191D2A7508E6005C22E10312
:1034300003191D2A7608E6005C2208007708E600DA
:103440005C22E1030319332A7808E6005C22E103D9
:103450000319332A7908E6005C22E1030319332AB1
:103460007A08E6005C22080071128422F119542ABD
:103470008A110A12D4268A150A169301253094005F
:1034800094168C110A30E2008A110A121C278A1540
:103490000A160B194E2A8C1D492A512AE20B442A7E
:1034A000542A1308E500552A711687128A110A1248
:1034B000CB268A150A1608008422F119752AF11202
:1034C0002530940094168C11660893000A30E200AF
:1034D0008A110A121C278A150A160B19722A8C1DCA
:1034E0006D2A762AE20B682A752AF1168A110A12C9
:1034F00016278A150A160B1D7B2A87128A110A12B3
:10350000CB268A150A160800F1118A110A12E5263F
:1035100087128A110A12CB268A150A166430E20035
:103520008A110A121C278A150A160B199A2A871D56
:10353000952A9D2AE20B902AAF2A8A110A12132794
:103540008A150A160B1DA22A87168A110A121C2731
:103550008A150A160B19AF2A8719AA2AB02AF1155B
:1035600008008A110A12E526D4268A150A16E501F2
:10357000071EB82A871DBA2A0830E200871DBE2A16
:103580008719C02A0310071A0314E50DE20BBE2A9F
:10359000871DC82A8719CA2AF1228A110A12DD2634
:1035A0008A150A1687150000000000000000871128
:1035B0008A110A12E526D4268A150A1608008A11ED
:1035C0000A121C278A150A16F72A8A110A121927C5
:1035D0008A150A16F72A8A110A1216278A150A1658
:1035E000F72A8A110A1213278A150A16F72A0B1DC1
:0435F000F72A0800AE
:0435F400003400346B
:00000001FF
