:020000040000FA
:040008000800692F54
:100020008A150A1600208A110A12B821F012F2125B
:10003000F213E801E9018611701183120313F8012C
:10004000F901FA01FB01FC01FD01FE01FF01203075
:1000500084000021A000243020020319002B3C3032
:100060002002031D2928840AD5010230E500002161
:10007000D507D6208000840AE50B37282208D40053
:10008000210ED40406305402E5000021D507D62005
:100090008000840AE50B45280230E5000021D620C7
:1000A0008000840AE50B4E280021E4003E30640203
:1000B000031D812884030008E4008403000EE40487
:1000C00055086402031D8A28831324308400000825
:1000D000D6008403000ED604D60803197E284E30BD
:1000E000560203187E2806118615903056070730F1
:1000F0000318013E8A00560890271B280030E700AD
:1001000099280130E70099280230E7009928033048
:10011000E70099280430E70099280530E70099287E
:100120000630E70099280730E70099280830E700F3
:1001300099280A30D4000030D6008317103084008C
:1001400067088000061570154F211B2841346C3458
:100150006C34203459346F34753472342034423462
:10016000613473346534203441347234653420345E
:10017000423465346C346F346E3467342034543414
:080180006F3420345534733450
:10019000F6308100D428EC308100D428D83081009A
:1001A000D4283D308100D4280B110800F700F60058
:1001B0000F30F605473077020318E4284130770204
:1001C000031CE4280930F60776080800CD00CE00AD
:1001D000F030CE054E0EF220CE000F304D05F2204D
:1001E000CD000800F6000A307602031CFA283730EA
:1001F0007607FC28303076070800F01C11293629D4
:10020000F01C03291F2983120313F01A0F29061467
:100210008316891B0C290929831206100808061069
:100220000800F01A1E2983128C1388000614831606
:10023000091B182983128C1F1B2906100800831222
:1002400003138C1A272986128C1A272924291A08A5
:10025000312918192F2998182F290301312918122B
:1002600018168616CF01CF0B33290800D3000C1EB9
:100270003729530899008316981C3C29402983127A
:100280008312080004305402D1008313213084000B
:10029000D5010008D507840AD10B4929080083132A
:1002A000203084005B308000840A5408E6204E0829
:1002B0008000840A4D088000840A5608E6204E0813
:1002C0008000840A4D088000840A701D842908304B
:1002D0005402D1000310D10C2530D2008317103006
:1002E000F7008317770884000008E620831352087C
:1002F00084004E088000D20A840A4D088000D20A89
:100300008317F70AD10B7129422103305402F600FA
:100310002030760784005508E6204E088000840AC5
:100320004D088000840A5D3080005408D10083139A
:10033000203084000008FD20840AD10B9A2908008F
:100340008312031386168316403099008312181205
:100350001A081A0818160800831203138616831643
:1003600015309900831218121A081A081816080076
:100370008316D0308700A00005148514851504303D
:100380009F00831280309F009E228030D9004B2234
:10039000080086157208D800AA22831203171030AD
:1003A0008400E821840AF421840A0022840A0922B4
:1003B000840A1622031383125808F2007218782256
:1003C000F2188B2272199E22F219AA2286110800B5
:1003D000031383123B2233301E02031C242A9A305B
:1003E0001E020318282A2C2A031383123F223B08DB
:1003F0001E02031C242A3D081E020318282A2C2A48
:10040000031383129E223722A4081E020318282AEF
:100410002C2A031383128B223B2233301E02031C2F
:10042000242A9A301E020318282A2C2A0313831226
:10043000782237229E223B081E02031C242A3D08F4
:100440001E020318282A2C2A831701308000080076
:100450008317803080000800831700308000080078
:1004600083171030840000308317800008009F122B
:100470001F129F11432A9F121F129F15432A9F127A
:100480001F169F15432AE6221F14E6221F151F1967
:10049000472A1F1008000313831286101130D7005B
:1004A00057225908D70057228614EA22080008303C
:1004B000D000D70D031C5E2A86175F2A8613000022
:1004C000000000000000061700000000000000000F
:1004D0000613D00B592A0800861406178617080041
:1004E000861406178613080086140617861308005C
:1004F0000708DD005D15DD145D105D0887007214CE
:10050000F2107211F2118A110A12D1208A110A1204
:100510000B1D882A08000708DD005D15DD105D143D
:100520005D0887007210F2147211F2118A110A121A
:10053000D1208A110A120B1D9B2A08000708DD0032
:100540005D11DD145D145D0887007210F2107215E4
:10055000F21108000708DD005D15DD145D145D086B
:1005600087007210F2107211F215080094128316AF
:100570002016A01220088700831285160800941206
:1005800083162016A0162008870083128512080003
:1005900094128316A0112008870083120515080005
:1005A00094128316A01520088700831205110800F5
:1005B000051281010B110B1DDB2A721208000516B2
:1005C00081010B110B1DE22A72160800CF01CF0B1F
:1005D000E72A0800CE200B1DEB2A08000030DB00C4
:1005E0005B08D9004B22782237229E223C081E024B
:1005F0000318FF2ADB0FF02A0030D9004B22080035
:100600000530E5002130840000218000840AE50BDC
:10061000042BE4000D306402031D7E283030FD20E1
:100620003230FD201B280E30D4000130D6008A1154
:100630000A1614208A110A1270154F210800123070
:10064000D4000230D600C92170154F2108000E30A9
:10065000D4000430D60070150230E1008A150A1665
:1006600007208A110A12711C382B6126E700E62642
:1006700070154F2108000830D4000530D6008313D0
:100680002608E400250EE404E4080319482B4A2B4D
:10069000DF224B2BD8224F2108000830D40006302F
:1006A000D6002608EA00250EEA042808EB00270EEB
:1006B000EB042908EC002A0EEC044F2108000A3054
:1006C000D4000730D6008A110A1620208A110A1297
:1006D00070154F2108000A30D4000830D6003022AF
:1006E00070154F2108000830D4000930D6002608C4
:1006F000E900250EE9044F2108000830D4000A3033
:10070000D6002608E400250EE404F212E4080319DA
:100710008A2BF2164F2108000830D4000B30D60087
:100720002608E400250EE404E4080319982B9F2B07
:100730008A110A165A218A110A12F213A52B8A115C
:100740000A165A218A110A12F2174F21080008309E
:10075000D4000C30D6002608E400250EE404721301
:10076000E408031DB42B72170B30E1008A150A163A
:1007700007208A110A124F2108000800080083127E
:100780000313F016061008000830D4001230D6000B
:100790004F2108000830D4001B30D6008A110A16F9
:1007A00045218A110A120430E1009326080008301E
:1007B000D4001E30D6008A110A1645218A110A1269
:1007C0000330E100702608000830D4002330D60042
:1007D0008A110A164B218A110A121C30E100702678
:1007E00008000830D4002430D6008A110A164B21A4
:1007F0008A110A121D30E100932608000830D40047
:100800002530D6004F218A110A165A218A110A1260
:1008100008000830D4002630D6008A110A1631218B
:100820008A110A124F2108000830D4002730D60060
:100830008A110A1632218A110A124F210800083043
:10084000D4002830D6008A110A165A218A110A12B9
:100850004F21532E0830D4002930D6008A110A16B1
:100860001E218A110A124F2108000830D4002A30B4
:10087000D60083132608E600250EE6048A110A1620
:100880004E218A110A124F2108000830D4002B3063
:10089000D6002608E400250EE404003064020319A3
:1008A0005C2C013064020319702C023064020319BD
:1008B0005A2C832C9E22832C9E2265278B2265270F
:1008C000D0228719832CC82287158711D022D120E6
:1008D0008719832C0B1D682C0730E700E626832C34
:1008E0009E2265278B22C82287158711D0221930B6
:1008F000E1008A150A1607208A110A12711C832C3E
:100900006126E700E6264F2108000A30D4002C308B
:10091000D600F218932C7219912C0030D6000330B7
:10092000A12C0230A12CD022871D9F2C5030E50035
:10093000871D9F2CE503031D982C0030A12C01304E
:10094000A12CE40083171030840083120313640881
:10095000800070154F2108009E2265278B220830E9
:10096000D4002D30D6004F2108000830D4002E309E
:10097000D6008711C8228711BF22071EC52C8A15F1
:100980000A1698228A110A12BC2C87156127612742
:100990008711D0224F2108000830D4002F30D60014
:1009A0001A30E100512F0830D4003030D600193011
:1009B000E100512F0830D4003130D600F2268A11E0
:1009C0000A165A218A110A12F92608000830D400A2
:1009D0003230D6000E278A110A165A218A110A12BD
:1009E0001A2708000830D4003330D6002608E40067
:1009F000250EE40400306402031D002D9E220F2DFD
:100A000001306402031D062D8B220F2D023064027B
:100A1000031D0C2D78220F2D0630E700E6264F210E
:100A200008000A30D4003430D60083171030840018
:100A30003B22831203131E088312031780008312C4
:100A4000031370154F2108000A30D4003530D6004A
:100A5000831710308400782237229E2283120313DA
:100A60001E088312031780008312031370154F2191
:100A700008000A30D4003730D600831710308400C5
:100A80003F22831203131E08831203178000831270
:100A9000031370154F2108000830D4003930D600F8
:100AA0000E278A150A16EB208A110A12F11C5B2DFB
:100AB00070160730E7001A2708000830D4003B30D2
:100AC000D6002508E4000130640203196B2D0630BE
:100AD000E700E626752D8A110A1644218A110A12AA
:100AE000711D752D0730E700E6264F2108000830FC
:100AF000D4003C30D600F801F901FA01FB01FC01F9
:100B0000FD01FE01FF018A150A16EB208A110A1267
:100B1000D022871D882D8F2D0730E700E6264F2134
:100B200008001030D4003D30D60070150D30E100C3
:100B3000512F0830D4003E30D600F2268A110A1612
:100B40005A218A110A12F9268A110A12080008305D
:100B5000D4003F30D6000E278A110A165A218A1176
:100B60000A121A2708000830D4004030D600F226B6
:100B70008A110A16D7208A110A12F92608000830AD
:100B8000D4004130D6000E278A110A166D208A1132
:100B90000A121A2708000830D4004230D600C426B2
:100BA0008A110A1644218A110A124F2108000830BE
:100BB000D4004330D6000E278A110A1626208A1147
:100BC0000A121A2708000830D4004430D6000E2735
:100BD0008A110A1651208A110A121A2708000830B1
:100BE000D4004530D6000E278A110A166D208A11CE
:100BF0000A121A2708000830D4004630D6000E2703
:100C00008A110A166D208A110A121A270800083064
:100C1000D4004730D600F2268A110A1690208A1195
:100C20000A12F9268A110A1208000830D400483046
:100C3000D600F2268A110A16B6208A110A12F9265F
:100C400008000830D4004930D600F2268A110A166E
:100C5000D7208A110A12F92608000830D4004A3039
:100C6000D600F2268A110A16D7208A110A12F9260E
:100C700008000830D4004B30D6002608E800250EC6
:100C8000E8044F2108000830D4004C30D6004F2132
:100C90006527A02108000830D4004D30D6004F2130
:100CA0006527AC2108000030E7000A30D40000308E
:100CB000D6008317103084006708800070154F211C
:100CC0000800F11D652E09306F2E711E692E10303F
:100CD0006F2E711F6D2E11306F2E08306F2E080091
:100CE000C4268A150A1607208A110A12711C7C2E46
:100CF0000730E700E626912E4F215D277B30FD204F
:100D00005D27D5018A150A16BB218A110A125508DA
:100D1000E6204E08FD204D08FD205D277D30FD209A
:100D20005D274F210800C4268A150A1607208A115C
:100D30000A12711C9F2E0730E700E626C22E4F21B3
:100D400000217B3C0319A82E0130E700E626C22EC5
:100D5000D5018A150A16D2218A110A120021D6203D
:100D6000E400E40E0021D620640455020319BB2ED2
:100D70000430E700701600217D3C0319C22E0130BB
:100D8000E700E6264F21080083132C08F8002B0EFD
:100D9000F8042A08F900290EF9042808FA00270E99
:100DA000FA042608FB00250EFB043408FC00330E71
:100DB000FC043208FD00310EFD043008FE002F0E49
:100DC000FE042E08FF002D0EFF0408000A30D40098
:100DD0000030D6007015831710308400670880003B
:100DE00006150800C4264F215D277B30FD20D50164
:100DF00008005508E6204E08FD204D08FD207D30F6
:100E0000FD200C2F0A30D4000030D6007015831757
:100E100010308400670880004F2108007012C4263B
:100E20004F2100217B3C0319182F0130E700701679
:100E3000D50108000021D620E400E40E0021D620D0
:100E4000640455020319272F0430E70070160021AF
:100E50007D3C03192E2F0130E70070160313831217
:100E6000701E3C2F0A30D4000030D6007015831756
:100E700010308400670880004F210800E6204E08EB
:100E8000D507FD204D08D507FD2008000021D50716
:100E9000D620CE00CE0E0021D507D620CE044E0897
:100EA00008008A150A1607208A110A12711C5B2F86
:100EB0000730E700E6264F210800C8200B1D5E2FF3
:100EC0000800CE200B1D622F0800D1200B1D662FBD
:100ED0000800F300030E8301F5000A08F4008A01FC
:100EE0000B18E12274088A00750E8300F30E730E4E
:020EF0000900F7
:100F200082070000132B1F2B532E272B3B2B4D2BFF
:100F30005F2B6B2B732B7D2B8C2BA72B532EBD2B59
:100F4000BE2B532EBF2BC42B532E532E532E532E5A
:100F5000532E532E532E532ECA2B532E532ED72B94
:100F6000532E532E532E532EE42BF12BFE2B092CF4
:100F7000142C1F2C2A2C352C452C852CAC2CB52C54
:100F8000CC2CD32CDA2CE62CF22C112D242D532E24
:100F9000392D532E4C2D532E5D2D772D912D992DBE
:100FA000A72DB32DBF2DCB2DD72DE32DEF2DFB2D51
:100FB000072E152E212E2D2E392E432E4B2E532E3D
:040FC000532E0800A4
:10120000D422092208001622F0219B220922C122A1
:10121000092208000430F6006A08CA006B08CB00F7
:101220006C08CC000310CA0CCB0CCC0CF60B1229AA
:101230000030C3000030C20093210021CA08031D02
:101240002729CB08031D2729CC080319352901308C
:10125000CC0203183029CB0203183029CA023029E6
:101260001030C2070318C30A1C2908000800080030
:101270002922D521E722032208002922D52188220C
:10128000032208003C22D521882209227522080069
:101290002922D5218822032208000330B900033017
:1012A000B8008A110A161221BE001221BF008A1549
:1012B0000A122922D521B90375228A110A16FA20A9
:1012C0008A150A12003A03197529B80B51298A1197
:1012D0000A161221BE001221BF008A150A12292205
:1012E000D521B903882203228729B9080319802947
:1012F000FF30BF00BE002922D5217522B903752910
:10130000FF30BF00BE002922D5218822032275228A
:1013100008008B297522C208031992290130C202E4
:1013200003188A29080095297522C308031D9B29E3
:10133000C2080319A1290130C20203189429C3026B
:10134000942908004F22AE2108006222AE21080035
:101350004F22AE2108001622F0210800C001C10171
:101360008A110A163A218A150A1287158711083040
:10137000D000871587110310871A0314C00CD00BF7
:10138000B9290630D000871587110310871A031476
:10139000C10CD00BC329C10CC10C871587118A1150
:1013A0000A1633218A150A12080087128715871139
:1013B0000830D0008716BE0C031C871287158711D2
:1013C000D00BDA290630D0008716BF0C031C871219
:1013D00087158711D00BE42987128715871108001C
:1013E0003F08CC003E08CB00FF30BF00BE00D52137
:1013F0004C08BF004B08BE0008000130F7000C2A63
:101400000230F7000C2A0330F7000C2A0430F700F2
:101410000C2A0630F7000C2A8A110A12CE208A15EF
:101420000A120B1D112AF70B0C2A080087128715C8
:1014300087118712871587118712871587118712E1
:1014400087158711871287158711871287158711CE
:10145000080087128715871187168715871187124D
:1014600087158711871287158711871287158711AE
:101470008712871587110800871687158711871629
:10148000871587118712871587118712871587118E
:101490008712871587118712871587110800871211
:1014A000871587118712871587118716871587116A
:1014B000871287158711871287158711871287155D
:1014C00087110800871687158711871287158711DE
:1014D0008716871587118712871587118712871539
:1014E00087118712871587110800871287158711C2
:1014F0008716871587118716871587118712871515
:1015000087118712871587118712871587110800A1
:1015100087128715871187128715871187128715FC
:1015200087118716871587118712871587118712EC
:101530008715871108008716871587118712871569
:1015400087118712871587118716871587118712CC
:10155000871587118712871587110800871287154D
:1015600087118716871587118712871587118716A8
:10157000871587118712871587118712871587119D
:101580000800871687158711871687158711871218
:101590008715871187168715871187128715871179
:1015A00087128715871108008716871587118712FC
:1015B000871587118712871587118712871587115D
:1015C00087168715871187128715871108008712DC
:1015D000871587118712871587118712871587113D
:1015E0008716871587118716871587118712871524
:0415F0008711080057
:102000008A110A12B622C8228712871178228A11F1
:102010000A1608008A110A12B622C82287128711EE
:102020009E228A110A16080083171030840001309E
:102030008000840A05308000840A00308000080097
:10204000831710308400083080000800F11200204F
:102050007908C3007808C2008A150A1293218A11F0
:102060000A1601306802031940283628FA20003A7F
:1020700003194F288A150A124D218A110A1636288B
:102080008A150A1200218A110A16FA20003A031949
:102090004F288A150A124D218A110A1645280A204E
:1020A0000800F11200207908C3007808C2008A15E0
:1020B0000A1293218A110A16FA20003A03196B2892
:1020C0001221BE008A150A1242218A110A16C20F75
:1020D0005C28C30A5C280A200800F11200208A1537
:1020E0000A12AB218A110A167808C2008A150A1250
:1020F00089218A110A161221BE001221BF008A15F9
:102100000A1248218A110A160130FC0203198E288E
:102110008A150A1275228A110A167B280A200800DD
:10212000F11200207908C3007808C2008A150A124B
:1021300093218A110A16FA20003A0319B4288A1545
:102140000A12A8218A110A1640088A110A123E278B
:1021500041088A110A123E278A110A168A150A12A4
:1021600075228A110A169B280A200800F112002005
:102170007908C3007808C2008A150A1293218A11CF
:102180000A16FA20003A0319D5288A150A12A52141
:102190008A110A16400818218A150A1275228A1116
:1021A0000A16C20FC128C30AC1280A200800F1126A
:1021B00000208A150A12AB218A110A167808C2007B
:1021C0008A150A1289218A110A16FA20003A03197F
:1021D000F8288A150A12A2218A110A164008182125
:1021E000410818218A150A1275228A110A16E52853
:1021F0000A200800FF08031D0629FE08031D062902
:10220000FD08031D0629FC08031900340130FC02F7
:1022100003181129FD0203181129FE0203181129C0
:10222000FF02FF348A110A1246278A110A16080093
:102230008A110A123E278A110A16080000207630F9
:102240001E02031C29298A150A1203218A110A1663
:102250002F298A150A120A218A110A162F290A2003
:102260000800080008008A110A12B622C8228A1142
:102270000A1608008A110A12BF228A110A160800DB
:10228000023402340234023408000130C70008006E
:102290000230C70008000230C70008003830BB0019
:1022A0008A30BC00AF30BD008A110A12EE228A11BA
:0622B0000A1608000034CC
:103000000313831600309400831294120800831275
:1030100003130130610603195A28023061060319AF
:1030200066280330610603196D2804306106031910
:103030007F280530610603199128063061060319BF
:103040009D28073061060319A92808306106031975
:10305000B528093061060319C1280A306106031931
:10306000D3280B3061060319E5280C3061060319DB
:10307000EB280D306106031929290E30610603196A
:103080006329183061060319702919306106031984
:103090007D291A30610603197F291B306106031947
:1030A00081291C306106031982291D30610603192C
:1030B00094290800A621711865281D228317103055
:1030C000840062088000831203130800A62171188F
:1030D0006C280330DE00E7210800A62171187E2845
:1030E0008A110A164221DE008A150A16F1218A1178
:1030F0000A164321DE008A150A1607220800A621B7
:10310000711890288A110A164221DE008A150A16C3
:10311000F1218A110A164321DE008A150A160722B8
:103120000800A62171189C288A150A16DE00F121D4
:103130008A150A16DE0007220800A6217118A828A1
:103140008A150A16DE00F1218A150A16DE0007220A
:103150000800A6217118B4288A150A16DE00F1218C
:103160008A150A16DE0007220800A6217118C02859
:103170008A150A16DE00F1218A150A16DE000722DA
:103180000800A6217118D2288A110A164021DE00F3
:103190008A150A16F1218A110A164121DE008A15C4
:1031A0000A1607220800A6217118E4288A110A16B7
:1031B0004021DE008A150A16F1218A110A164121E2
:1031C000DE008A150A1607220800A621E301721BF9
:1031D000E30A45220800F110831203137C08E30080
:1031E0004522F119F1147D08E3004522F119F1148B
:1031F0007E08E3004522F119F1147808E300452226
:10320000F119F1147908E3004522F119F1147A0853
:10321000E3004522F119F11416298A110A124627F2
:103220008A150A16E3004522F119F114FE08031D60
:103230001F29FD08031D1F29FC0803192829013037
:10324000FC0203180D29FD0203180D29FE020D29A9
:103250000800A621711862298A110A164121DE0090
:103260008A150A168317103084008001840A8001B1
:10327000840A8001840A8001E721831710308400CA
:10328000840A840A840A0008E000103084000008E0
:10329000840A840A840A8000103084006008800058
:1032A000831710308400840A840A0008E00010307C
:1032B0008400840A0008840A800010308400840A94
:1032C000600880000800A62171186F297808E300C3
:1032D00045227908E30045227A08E30045220800E8
:1032E000A62171187C297808E30045227C08E300B8
:1032F00045227D08E30045220800A6210800A621FA
:1033000008000800A6217118D2288A110A165A212D
:10331000DE008A150A16F1218A110A165A21DE00EA
:103320008A150A1607220800A6217118E4288A11B6
:103330000A165A21DE008A150A16F1218A110A1688
:103340005A21DE008A150A1607220800711061084A
:10335000E3004522711B7114FF30E2001D22711A37
:10336000711462086302031D7114E208031DBA2977
:1033700071141D2208008A110A16FA208A150A16ED
:10338000003A0319D1294708DE001D22711AD129FC
:1033900062088A110A123E278A150A16DE0BC52911
:1033A000BB2908008A110A16FA208A150A16003A63
:1033B0000319E6294708DE008A110A1246278A15F2
:1033C0000A16E3004522DE0BDC29D2290800831708
:1033D000103084001D2262088000840ADE0BEA2976
:1033E00008007808E3004522DE030319062A79085D
:1033F000E3004522DE030319062A7A08E30045228A
:10340000DE030319062A7B08E300452208007C0836
:10341000E3004522DE0303191C2A7D08E300452250
:10342000DE0303191C2A7E08E3004522DE0303198C
:103430001C2A7F08E3004522080071126D22F11951
:103440003D2A8A110A12BF228A150A1693012530D5
:10345000940094168C110A30DF008A110A12D120D0
:103460008A150A160B19372A8C1D322A3A2ADF0BC5
:103470002D2A3D2A1308E2003E2A711687128A116E
:103480000A12B6228A150A1608006D22F1195E2A60
:1034900071132530940094168C11630893000A3040
:1034A000DF008A110A12D1208A150A160B195B2A2D
:1034B0008C1D562A5F2ADF0B512A5E2A71178A114A
:1034C0000A12CB208A150A160B1D642A87128A114C
:1034D0000A12B6228A150A160800F1118A110A1278
:1034E000D0228712B6228A150A16C6220A30DF00B9
:1034F0008A110A12D1208A150A160B19822A871DF1
:103500007D2A852ADF0B782A962AD82287160A3048
:10351000DF008A110A12D1208A150A160B19932A84
:1035200087198E2A972ADF0B892A962AF115080017
:103530008A110A12D022BF228A150A16E201071E3A
:103540009F2A871DA12A0830DF00871DA52A871919
:10355000A72A0310071A0314E20DDF0BA52A871D03
:10356000AF2A8719B12AD8228A110A12C8228A15CD
:103570000A168715000000000000000087118A115C
:103580000A12D022BF228A150A1608008A110A12CE
:10359000D1208A150A16DE2A8A110A12CE208A152F
:1035A0000A16DE2A8A110A12CB208A150A16DE2A8A
:1035B0008A110A12C8208A150A16DE2A0B1DDE2A75
:0235C000080001
:0435C200003400349D
:00000001FF
