:020000040000FA
:04000800642D08005B
:100020008A150A1600208A110A126826F012F212A6
:10003000F217BC01BD018611701183120313F30185
:10004000F401F501F601F701F801F901FA01203098
:1000500084007B25A000243020020319C8283C30EE
:100060002002031D2928840AC7010230B9007B251C
:10007000C70741268000840AB90B37282208C6002A
:10008000210EC60406304602B9007B25C70741266B
:100090008000840AB90B45280230B9007B2541262F
:1000A0008000840AB90B4E287B25B8003E30380208
:1000B000031D812884030008B8008403000EB804DF
:1000C00047083802031D8A2883132430840000085F
:1000D000C8008403000EC804C80803197E285030E5
:1000E000480203187E28061186159030480707300D
:1000F0000318013E8A00480890271B280030BB00E7
:1001000099280130BB0099280230BB0099280330A0
:10011000BB0099280430BB0099280530BB00992802
:100120000630BB0099280730BB0099280830BB0077
:1001300099287525C8018317103084003B0880007A
:1001400006157015CA251B2841346C346C342034D4
:1001500059346F347534723420344234613473341A
:10016000653420344134723465342034423465348B
:100170006C346F346E346734203454346F3420342C
:04018000553473344B
:100190000530B900213084007B258000840AB90B2A
:1001A000CC28B8000D303802031D7E283030782569
:1001B000323078251B280E30C6000130C8008A1165
:1001C0000A165D208A110A127015CA25080012301D
:1001D000C6000230C80079267015CA2508000E3006
:1001E000C6000430C80070150230CC008A150A160B
:1001F00007208A110A12711C00296224BB00E7241F
:100200007015CA25080072250530C800831326081A
:10021000B800250EB804B80803190F2911296A2758
:1002200012296927CA25080072250630C800260849
:10023000BE00250EBE042808BF00270EBF042908F3
:10024000C0002A0EC004CA25080075250730C80062
:100250008A110A1669208A110A127015CA25080027
:1002600075250830C800D3267015CA2508007225E8
:100270000930C8002608BD00250EBD04CA250800A7
:1002800072250A30C8002608B800250EB804F212FC
:10029000B80803194C29F216CA25080072250B303C
:1002A000C8002608B800250EB804B808031D612947
:1002B0005929F2178A110A1675208A110A12F217A3
:1002C0006829F2178A110A166F208A110A12F2138E
:1002D000CA25080072250C30C8002608B800250E73
:1002E000B8047213B808031D762972170B30CC00BE
:1002F0008A150A1607208A110A12CA2508000E302C
:10030000C6000E30C8008A110A163A208A110A1255
:10031000711F8D290730BB00E7247015CA2508001E
:1003200083120313F0160610080072251230C8005D
:10033000CA25080072251330C80083132608C1009F
:10034000250EC10483132808C200270EC2048A1197
:100350000A16A6208A110A12CA2508000A30C60009
:100360001830C8008A110A1622208A110A12711F39
:10037000BC290730BB00E7247015CA2508000C30E3
:10038000C6001A30C800C5248A110A1600208A1136
:100390000A12711FCE290730BB00E7247015CA2549
:1003A000080072251B30C8008A110A1619258A1107
:1003B0000A120430CC009424080072251E30C800B4
:1003C0008A110A1619258A110A120330CC007124E9
:1003D0000800C52472252130C8000730CC004C2D00
:1003E000C52472252230C8000830CC004C2D72255F
:1003F0002330C8008A110A161E258A110A121C30E1
:10040000CC007124080072252430C8008A110A1615
:100410001E258A110A121D30CC0094240800722572
:100420002530C800CA258A110A16FC208A110A1232
:10043000080072252630C8008A110A16E2208A11A7
:100440000A12CA25080072252730C8008A110A1628
:10045000C1208A110A12CA25080072252830C80056
:100460008A110A16C0208A110A12CA25562C722532
:100470002930C8008A110A168C208A110A12CA254E
:10048000080072252A30C80083132608BA00250EFA
:10049000BA048A110A1642258A110A12CA250800CE
:1004A00072252B30C8002608B800250EB80400308D
:1004B00038020319662A0130380203197A2A0230F9
:1004C00038020319642A8D2A2F278D2A2F276025A9
:1004D00020276025612787198D2A592787158711BD
:1004E00061273C2687198D2A0B1D722A0730BB0015
:1004F000E7248D2A2F276025202759278715871164
:1005000061271930CC008A150A1607208A110A12B1
:10051000711C8D2A6224BB00E724CA2508007525BA
:100520002C30C800F2189B2A7219992AC80103308E
:10053000A92A0230A92A6127871DA72A5030B900AD
:10054000871DA72AB903031DA02A0030A92A01305C
:10055000A92AB800831710308400831203133808C7
:1005600080007015CA2508002F27602520277225D6
:100570002D30C800CA25080072252E30C80087110A
:10058000592787115027071ECB2A8A150A16BE2223
:100590008A110A12C22A87155C255C2587116127FA
:1005A000CA25080072252F30C8001A30CC004C2D07
:1005B00072253030C8001930CC004C2D72253130F6
:1005C000C800F1248A110A16AF268A110A12F824EB
:1005D000080072253230C8000B258A110A16AF2692
:1005E0008A110A121725080072253330C800260820
:1005F000B800250EB80400303802031D012B2F2748
:10060000102B01303802031D072B2027102B02303E
:100610003802031D0D2B1D27102B0630BB00E724CD
:10062000CA25080075253430C800831710308400AF
:10063000E026831203131E0883120317800083121F
:1006400003137015CA25080075253530C8008317B7
:10065000103084001D27DA262F27831203131E086B
:10066000831203178000831203137015CA25080034
:1006700075253730C800831710308400E4268312B4
:1006800003131E08831203178000831203137015CF
:10069000CA25080072253930C8000B258A150A16AC
:1006A000F3208A110A12F11C582B70160730BB0078
:1006B0001725080072253B30C8002508B800013016
:1006C00038020319672B0630BB00E724712B8A110F
:1006D0000A16AF268A110A12711D712B0730BB0052
:1006E000E724CA25080072253C30C800F301F40154
:1006F000F501F601F701F801F901FA018A150A1668
:10070000F3208A110A126127871D832B8A2B073059
:10071000BB00E724CA2508001030C6003D30C800E1
:1007200070150D30CC004C2D72253E30C800F124E0
:100730008A110A1648238A110A12F8248A110A1209
:10074000080072253F30C8000B258A110A16C02107
:100750008A110A121725080072254030C800F124BA
:100760008A110A1648238A110A12F82408007225F1
:100770004130C8000B258A110A16C0218A110A12BD
:100780001725080072254230C800C5248A110A16B0
:100790007B208A110A12CA25080072254330C8003E
:1007A0000B258A110A16C0218A110A121725080082
:1007B00072254430C8000B258A110A16AF268A110B
:1007C0000A121725080072254530C8000B258A112A
:1007D0000A167A218A110A12172508007225463056
:1007E000C8000B258A110A16C4218A110A1217257E
:1007F000080072254730C800F1248A110A164823E0
:100800008A110A12F8248A110A1208007225483047
:10081000C800F1248A110A16AF268A110A12F82498
:10082000080072254930C800F1248A110A161823DD
:100830008A110A12F824080072254A30C800F124EF
:100840008A110A164C238A110A12F824080072250C
:100850004B30C8002608BC00250EBC04CA25080081
:1008600072254C30C800CA2560251B260800722559
:100870004D30C800CA2560252726080072254E3055
:10088000C8008A110A1628258A110A121E30CC00C7
:100890007124080072254F30C8008A110A162825D5
:1008A0008A110A121F30CC00942408000030BB00CB
:1008B0007525C8018317103084003B08800070152F
:1008C000CA250800F11D662C0930702C711E6A2C97
:1008D0001030702CF11E6E2C1130702C0830702CE2
:1008E0000800C5248A150A1607208A110A12711CED
:1008F0007D2C0730BB00E724922CCA2558257B307D
:1009000078255825C7018A150A16DF218A110A128F
:1009100047085126500878254F08782558257D30FE
:1009200078255825CA250800C5248A150A160720E7
:100930008A110A12711CA02C0730BB00E724C32CBB
:10094000CA257B257B3C0319A92C0130BB00E72479
:10095000C32CC7018A150A16F6218A110A127B25B3
:100960004126B800B80E7B254126380447020319FA
:10097000BC2C0430BB0070167B257D3C0319C32CB6
:100980000130BB00E724CA25080083132C08F300BC
:100990002B0EF3042A08F400290EF4042808F500AD
:1009A000270EF5042608F600250EF6043408F70095
:1009B000330EF7043208F800310EF8043008F9005D
:1009C0002F0EF9042E08FA002D0EFA0408007525E2
:1009D000C80170158317103084003B08800006158D
:1009E0000800C524CA2558257B307825C701080092
:1009F00047085126500878254F0878257D307825FE
:100A0000092D7525C80170158317103084003B0827
:100A10008000CA2508007012C524CA257B257B3CAE
:100A20000319152D0130BB007016C70108007B2586
:100A30004126B800B80E7B25412638044702031929
:100A4000242D0430BB0070167B257D3C03192B2D13
:100A50000130BB00701603138312701E372D7525ED
:100A6000C80170158317103084003B088000CA2528
:100A7000080051265008C70778254F08C707782572
:100A800008007B25C7074126D000D00E7B25C7076D
:100A90004126D004500808008A150A1607208A113A
:100AA0000A12711C562D0730BB00E724CA25080026
:100AB00033260B1D592D080039260B1D5D2D08000E
:100AC0003C260B1D612D0800FB00030E8301FD0079
:100AD0000A08FC008A017C088A007D0E8300FB0E58
:100AE0007B0E09000830C60008000A30C600080066
:100AF000F01C8C2DB12DF01C7E2D9A2D831203132A
:100B0000F01A8A2D06148316891B872D842D8312D3
:100B10000610080806100800F01A992D83128C138D
:100B2000880006148316091B932D83128C1F962DA3
:100B300006100800831203138C1AA22D86128C1A39
:100B4000A22D9F2D1A08AC2D1819AA2D9818AA2D80
:100B50000301AC2D181218168616D101D10BAE2D3B
:100B60000800C5000C1EB22D450899008316981C7C
:100B7000B72DBB2D83128312080004304602C30038
:100B8000831321308400C7010008C707840AC30B00
:100B9000C42D08008313203084005B308000840A59
:100BA0004608512650088000840A4F088000840AB5
:100BB0004808512650088000840A4F088000840AA3
:100BC000701DFF2D08304602C3000310C30C2530F2
:100BD000C40083171030FF0083177F0884000008CB
:100BE000512683134408840050088000C40A840AF4
:100BF0004F088000C40A8317FF0AC30BEC2DBD25E4
:100C000003304602FE0020307E078400470851264C
:100C100050088000840A4F088000840A5D308000FC
:100C20004608C30083132030840000087825840A16
:100C3000C30B152E0800831203138616831640304B
:100C40009900831218121A081A081816080083123D
:100C500003138616831615309900831218121A088A
:100C60001A0818160800F63081003F2EEC3081007B
:100C70003F2ED83081003F2E3D3081003F2E0B119A
:100C80000800FF00FE000F30FE0547307F0203180A
:100C90004F2E41307F02031C4F2E0930FE077E0885
:100CA0000800CF00D000F030D005500E5D26D000F7
:100CB0000F304F055D26CF000800FE000A307E028F
:100CC000031C652E37307E07672E30307E07080004
:100CD0008316D0308700AE000514851485150430C6
:100CE0009F00831280309F002F278030EB00F0267A
:100CF000080086157208EA003B278A110A16422569
:100D00008A110A1283120317103084009D26840A68
:100D1000A926840AAB26840AB826840AC6260313A9
:100D200083126A08F20072181D27F2182027721920
:100D30002F27F2193B278611080003138312E026A0
:100D400033301E02031CC72E9A301E020318CB2E0E
:100D5000CF2EB82ECF2E031383122F27DA26003082
:100D60001E02031CC72E24301E020318CB2ECF2ECA
:100D7000031383126A272027E02633301E02031C48
:100D8000C72E9A301E020318CB2ECF2EB82E8317F3
:100D9000013080000800831780308000080083172E
:100DA0000030800008008317103084000030831763
:100DB00080000800031383129F121F129F11E82E58
:100DC0009F121F129F15E82E9F121F169F15E82EC7
:100DD00071271F1471271F151F19EC2E1F100800F3
:100DE0000313831286101130E900FC266B08E9001A
:100DF000FC268614752708000830D200E90D031C74
:100E0000032F8617042F8613000000000000000047
:100E1000061700000000000000000613D20BFE2E93
:100E2000080086140617861708008614061786130E
:100E3000080086140617861308006A27202F08006A
:100E40000708EF006F15EF106F146F08870072101E
:100E5000F2147211F2113C260B1D2C2F080007080A
:100E6000EF006F11EF146F146F0887007210F2100B
:100E70007215F21108000708EF006F15EF146F14D8
:100E80006F0887007210F2107211F21508009412A8
:100E900083162E16AE122E088700831285160800C0
:100EA000941283162E16AE162E0887008312851212
:100EB000080094128316AE112E08870083120515C0
:100EC000080094128316AE152E08870083120511B0
:100ED00008006A2F051681010B110B1D6D2F72166C
:100EE0000800D101D10B722F080039260B1D762F77
:100EF00008000030ED006D08EB00F026E4266808DD
:100F00001E020318882FED0F7B2F0030EB00F02618
:020F10000800D7
:100F200082070000DB28E728562CEF280329142924
:100F300025293029372940294E296A29562C7F290D
:100F4000562C562C902995299A29562C562C562CDD
:100F5000562CAE29562CBF29D129562C562CDD29CA
:100F6000562C562CE929F029F729032A0F2A192A89
:100F7000232A2D2A372A412A502A8F2AB42ABC2A0A
:100F8000D22AD82ADE2AE92AF42A122B242B562C1C
:100F9000382B562C4A2B562C5A2B732B8C2B942BDC
:100FA000A12BAC2BB72BC22BCD2BD82BE32BEE2BAD
:100FB000F92B062C112C1C2C272C302C372C3E2CDA
:040FC0004A2C0800AF
:101200000430D9000230D8000030D70079250430EE
:10121000D9000230D8000030D7007925ED252030E4
:10122000D9000830D8000030D70079258830D9009F
:101230000130D8009030D70079252030D9007F3098
:10124000D800E130D7007925BA30D9000530D80070
:101250009130D7007925ED2508002030D9000830DD
:10126000D8000030D70079258830D9000130D80067
:101270009030D70079252030D9007F30D800E13078
:10128000D70079252430D9000030D8003A30D70073
:1012900079258830D9003B30D8000A30D70079252D
:1012A000BB30D9000830D8008B30D7007925ED2528
:1012B000ED258A150A12CD248A150A128A110A12FE
:1012C00060258A150A120430D9000230D800003097
:1012D000D7007925ED258A150A12FF218A150A12F1
:1012E00008002430D9000030D8002A30D7007925F2
:1012F0008830D9003B30D8000A30D7007925080063
:10130000ED25ED250430D9000230D8000030D7009B
:101310007925ED2508007808D9007708D800D7018D
:1013200063252030D9040030D70479257408D9000A
:101330007308D800D70163252030D9040030D704C2
:101340007925ED250800F21FFE298A110A122F27A0
:101350008A150A128A150A12C7278A150A12AA279D
:10136000871287118A110A1220278A150A128A11F8
:101370000A122F278A150A128A150A12C7278A15F8
:101380000A124D30D3009B274330D3009B274830AF
:10139000D3009B275130D3009B2700008A110A12EB
:1013A00020278A150A12B727B7278715000087114B
:1013B00000008715000087110000871500008711C5
:1013C00000008715000087110000871500008711B5
:1013D00000000430D9000230D8000030D700792551
:1013E0000430D9000230D8000030D7007925003011
:1013F000D9000030D8000030D70079250800F21F4E
:10140000092AAA27871287118A110A122F278A15FB
:101410000A12080083160313240883120313D90049
:1014200083160313230883120313D8006325203087
:10143000D9040030D70479258316031325088312B5
:101440000313D90083160313220883120313D80051
:1014500063252030D9040130D7047925831603137E
:10146000270883120313D900831603132608831257
:101470000313D80063252030D9040230D70479251E
:10148000831603132A0883120313D9008316031348
:10149000290883120313D80063252030D9040330B0
:1014A000D7047925831603132B0883120313D9005D
:1014B00083160313280883120313D80063252030F2
:1014C000D9040430D7047925831603132D08831219
:1014D0000313D900831603132C0883120313D800B7
:1014E00063252030D9040530D704792508007D080C
:1014F000D9007C08D800D70163252030D9040030FA
:10150000D7047925ED250800EB30D9000330D80049
:101510000030D7007925ED25ED25BB30D9000B3003
:10152000D800B630D7007925ED25ED25BB30D900A0
:10153000DB30D800B630D7007925ED25ED25BB305E
:10154000D900EB30D800B630D7007925ED25ED2550
:10155000BB30D9001B30D800B630D7007925ED2537
:10156000ED25BB30D9000B30D800B630D700792537
:10157000ED25ED25BB30D900DB30D800B630D700E3
:101580007925ED25ED25BB30D900EB30D800B630FC
:10159000D7007925ED25ED25BB30D9001B30D800CB
:1015A000B630D7007925ED25ED250800EB30D900C0
:1015B0000330D8000030D7007925ED25ED25BB306C
:1015C000D9001B30D8009630D7007925ED25ED25C0
:1015D00008002030D9000030D8000730D700792526
:1015E0000800BB30D9000830D8000130D700792579
:1015F000ED25ED2508008830D9003C30D80020309A
:10160000D70079253B25831603132008A300210862
:10161000A400831203138830D9003C30D800213055
:10162000D70079253B25831603132008A200210843
:10163000A500831203138830D9003C30D800223033
:10164000D70079253B25831603132008A60021081F
:10165000A700831203138830D9003C30D800233010
:10166000D70079253B25831603132008A9002108FC
:10167000AA00831203138830D9003C30D8002430EC
:10168000D70079253B25831603132008A8002108DD
:10169000AB00831203138830D9003C30D8002530CA
:1016A000D70079253B25831603132008AC002108B9
:1016B000AD00831203130800BA30D9000B30D800F4
:1016C000B630D7007925ED25ED258830D9003C309E
:1016D000D8002030D70079253B250800EB30D90011
:1016E0000330D8008030D7007925BA30D9001B30BC
:1016F000D8009630D7007925ED25ED25BA30D900F0
:10170000DB30D800B630D7007925ED25ED25BA308D
:10171000D900DB30D800D630D7007925ED25ED256E
:10172000BA30D9001B30D800B630D7007925ED2566
:10173000ED25BA30D9001B30D8009630D700792576
:10174000ED25ED25BA30D900DB30D800B630D70012
:101750007925ED25ED25BA30D900DB30D800D6301B
:10176000D7007925ED25ED25BA30D9001B30D800FA
:10177000B630D7007925ED25ED2508002430D900B5
:101780000430D800FA30D70079258830D9003B30B2
:10179000D8000A30D700792508004108D90042084E
:1017A000D800D70163252030D9040A30D704792521
:1017B0008830D9003B30D8000A30D700792508009E
:1017C0002030D9007630D8000230D700792520307B
:1017D000D9007630D8006330D7007925080024304E
:1017E000D9000430D8002A30D70079258830D900B4
:1017F0003B30D8000A30D700792508002430D900C2
:101800000430D8002A30D70079258830D9003B3001
:10181000D8000A30D700792508002430D9000430D8
:10182000D8002130D700792508002430D9000030B5
:10183000D8001A30D70079258830D9003B30D8003D
:101840000A30D700792508002430D9000030D800AC
:101850000A30D70079258830D9003B30D8000A30CB
:10186000D70079250800D9017508D800D70163256C
:101870002030D9040030D70479258830D9000130D0
:10188000D8009030D70079257408D9007308D800A3
:10189000D70163252030D9040630D7047925ED25FA
:1018A000ED2508007408D9007308D800D701632516
:1018B0002030D9040730D7047925D9017508D8001C
:1018C000D70163252030D9040030D704792588302A
:1018D000D9000130D8009030D70079250800D9010F
:1018E0007508D800D70163252030D9040030D7040B
:1018F00079258830D9000130D8009030D70079257B
:101900007408D9007308D800D70163252030D904A2
:101910000030D704792508002030D9000530D800E0
:101920005830D70079258830D9003B30D80038307E
:10193000D70079252030D9000A30D800A930D70047
:1019400079258830D9003B30D8003930D700792547
:1019500008007830D9000930D8000130D700792547
:101960002030D9000530D8005130D70079257830A3
:10197000D9000930D8008130D70079252030D9002E
:101980000A30D800A130D70079257830D900093045
:10199000D8008130D70079250800A830D900E73079
:1019A000D8006130D7007925ED25ED25ED25ED2511
:1019B00080212030D9007830D8004830D7007925F0
:1019C000ED252030D9007630D8000930D7007925B0
:1019D000ED257830D9000C30D8001930D7007925A2
:1019E000ED25ED253B25831603132108FD00831209
:1019F0000313FD1BD82CA930D900E730D800613083
:101A0000D7007925ED25ED25ED25ED25ED250800FF
:101A1000A830D900E730D8006130D7007925ED250E
:101A2000ED25ED25ED250530D400C727D40B152D68
:101A30000800A830D900E730D8006130D7007925F8
:101A4000ED25ED25ED25ED25FF30D200BF27D20B8A
:101A5000262DFF30D200BF27D20B2B2DA930D90065
:101A6000E730D8006130D7007925ED25ED25ED254B
:101A7000ED25ED2508008A110A1247278A150A125A
:101A8000ED258A250830D200871500008711D20B7A
:101A9000442D8A110A1250278A150A121030D200DA
:101AA00087150310071A03148711FD0CFC0CD20BC9
:101AB000502D831603137D08A1007C08A00083121B
:101AC00003139B2508000310D90CD80CD70C031066
:101AD000D90CD80CD70C0310D90CD80CD70C031088
:101AE000D90CD80CD70CF030D7050800590ED80502
:101AF00008008712871500008711871287150000DC
:101B0000871187128715000087118712871500003B
:101B10008711B32D87168715000087118712871547
:101B2000000087118712871500008711871287151B
:101B3000000087110800D901D801D7018712871545
:101B40008A110A1247278A150A12871187168715E4
:101B500000008711871287150000871187128715EB
:101B600000008711B32D0830D200D70C0318871658
:101B7000031C8712871500008711D20BB52DD70CD7
:101B80008712000000000000000000000830D200B2
:101B9000D80C03188716031C8712871500008711BD
:101BA000D20BC82DD80C87120000000000000000E6
:101BB00000000830D200D90C03188716031C8712C6
:101BC000871500008711D20BDB2DD90C871200007E
:101BD00000000000000000000800D901D801D70172
:101BE000792508008A110A12592747278A150A12EF
:101BF0008A110A1220272F278A150A128A150A121B
:101C0000C7278A150A124D30D3009B274330D300D3
:101C10009B274830D3009B275030D3009B278A1145
:101C20000A1220278A150A120530D400C727D40BC0
:101C3000162E08008A110A122F278A150A12080088
:101C4000F1130030D600D800D80E0130D70040275D
:101C5000EC26F1192D2E83272E2EF1178A110A1248
:101C600047278A150A120800F1130130D600D80060
:101C7000D80E0330D70040277708D8007508D70062
:101C800040277408D8007308D7004027EC26F119C4
:101C90004B2E83274C2EF1170800F1130230D6008B
:101CA000D800D80E0430D70040277808D80077082D
:101CB000D70040270030D8007508D70040277408A7
:101CC000D8007308D7004027EC26F119692E832726
:101CD0006A2EF1170800F1130430D600D800D80E90
:101CE0000430D70040270030D8007508D7004027BF
:101CF0007408D8007308D7004027942EF117080005
:101D0000F1130530D600D800D80E6330D700402735
:101D10000030D8007508D70040277408D800730831
:101D2000D7004027942EF1170800F1170800F1138F
:101D30000A30D600D800D80E0330D70040277A08E2
:101D4000D8007908D70040277808D8007708D7004E
:101D50004027EC26F119AE2E8327AF2EF1178A11FA
:101D60000A1247278A150A120800F1130B30D60011
:101D7000D800D80E0130D7004027EC26F119C22E2A
:101D80008327C32EF1178A110A1247278A150A12D0
:101D900008008317103084001030D500D226D50BF0
:101DA000CE2E08000008D700840A0008D80040277B
:101DB000840A0008D700840A840A840A0008D8002C
:101DC0004027840384030008D700840A0008D80051
:101DD0004027840A840A0800F1118A110A12502748
:101DE0008A150A12FC3081000B11071AFA2E0B1DFE
:101DF000F52E1F2F5608003A031921275608013ADD
:101E0000031921275608023A031933275608043AC2
:101E100003192A275608053A03192A2756080A3AA9
:101E20000319332756080B3A031921272127F119E3
:101E3000202FFF3081000B110B1D1C2F202FF115BF
:101E40000800D83081000B11071E292F0B1D242FED
:101E5000F11508003D3081000B11071E322F0B1DBC
:101E60002D2FF11508004030D500D83081000B111E
:101E7000071E3F2F0B1D382FD50B352FF1150800EE
:101E80008A110A1247278A150A120830D200D80D83
:101E900087120318871687150000000087110000BD
:101EA000D20B472FD80D87120830D200D70D8712DA
:101EB000031887168715000087110000D20B562FD4
:101EC000D70D87120330D4000000D40B642F080014
:101ED0008A110A1250278A150A121030D2000310F4
:101EE000071A031487150000000087110000000086
:101EF000FC0DFD0D0310D20B6F2F0830D400000035
:101F0000D40B7F2F0800DA01DB01DC01F113B127CC
:101F10006827F0307D05DA00DA0E0F307D05DB0032
:101F20007C08DC00B12768277D08DE007C08DD0026
:101F30009A2FF11708000830FE00D31B8716D31F15
:101F40008712D30D871500008711FE0B9D2FD30D2F
:101F5000871208008A110A12472759278A150A1280
:101F600008001330D4000000D40BB32F08008A11EE
:101F70000A1233268A150A120B1DBC2F08008A117B
:101F80000A1239268A150A120B1DC42F08008A115D
:0E1F90000A123C268A150A120B1DCC2F0800DF
:10200000831710308400711301303D06031D202812
:102010008A150A12F22597268A110A16F11B202822
:10202000F0305C06031919280F305C0603191B28D1
:102030002028FF301C2800308000840A80002128DE
:1020400071170800831710308400711301303D06AA
:10205000031D38288A150A12F22520268A110A162D
:10206000F11B3528013080003928003080003928E4
:1020700071170800831710308400711301303D067A
:10208000031D5B288A150A12F225B5268A110A1645
:10209000F11B5B285C08FE00FF00FE0E0F30FE0502
:1020A0000F30FF057E088000840A7F088000840AC4
:1020B000003080005C2871170800831710308400FE
:1020C00003308000840A03308000840A02308000DC
:1020D00008008317103084000E30800008008A1535
:1020E0000A12A3218A110A1608008A150A12FF2172
:1020F0008A110A1608008A150A12A3218A110A16E3
:102100008A150A1280218A110A168A150A128B2151
:10211000FF218A110A1608008A150A12A3218A11C2
:102120000A168A150A1280218A110A168A150A12BD
:10213000BE238A110A168A150A1219258A110A164F
:102140008A150A12FF218A110A1608008A150A1236
:10215000A3218A110A168A150A1280218A110A16E9
:102160008A150A12CD238A110A168A150A12192510
:102170008A110A168A150A12FF218A110A16080006
:1021800008008A110A12E0268A110A1676301E0209
:10219000031CCA288A150A12A3218A150A12802153
:1021A0008A110A168A150A12CD248A110A168A156E
:1021B0000A1280218A110A168A150A12FF218A1131
:1021C0000A1608008A150A12A3218A110A168A150E
:1021D0000A1280218A110A168A150A12CD248A1140
:1021E0000A168A150A1280218A110A168A150A12FD
:1021F000FF218A110A1608008A150A12A3218A11E2
:102200000A168A150A1280218A110A168030F500F2
:10221000F401F3018A150A126F248A110A168A152D
:102220000A120D248A110A168A150A12F1228A113D
:102230000A168A150A12E0238A110A168A150A124A
:10224000A9248A110A168A150A12CD248A110A169F
:1022500041303A060319352942303A060319352927
:1022600043303A06031935293A298A150A12002102
:102270008A110A168030F5000430F400F3018A1543
:102280000A126F248A110A168A150A120D248A115D
:102290000A168A150A12F1228A110A168A150A12DA
:1022A000E0238A110A168A150A12A9248A110A162D
:1022B0008A150A12CD248A110A1641303A060319EA
:1022C0006A2942303A0603196A2943303A0603194B
:1022D0006A296F298A150A122D218A110A168A1570
:1022E0000A1280218A110A168A150A12FF218A1100
:1022F0000A160800BD0803197E29662D71130130E6
:10230000E4008A150A12A3218A110A168D23003AC5
:102310000319BA298A150A1280218A110A168A1508
:102320000A1224248A110A168A150A1252248A11C2
:102330000A168A110A124125FC004125FD008A1166
:102340000A168A150A1277228A110A168A150A12A3
:10235000D6228A110A168A150A1208258A110A1627
:102360008A150A1280218A110A160230F30703180F
:10237000F40A86298A150A12FF218A110A16080012
:10238000BD080319C829CB2DBD080319872A662D5E
:1023900071138A150A12A3218A110A168A150A12C4
:1023A00080218A110A168A150A1215248A110A1622
:1023B000E101A8234030E1001030DF00600803197C
:1023C000812A8A150A1252248A110A169924831620
:1023D0000313230883120313E20083160313240854
:1023E00083120313E3008A150A120A228A110A16BD
:1023F0008A150A1284228A110A160430E102083072
:10240000F307031C062AF40F062AF50ADF0BDE2960
:102410007408D90008307302D8000318122A01305A
:102420007402D900D7018A150A1263258A110A1687
:102430002030D9040830D7048A150A1279258A1168
:102440000A166308D9006208D800D7018A150A1253
:1024500063258A110A162030D9040630D7048A155C
:102460000A1279258A110A168A150A12ED258A118F
:102470000A168A150A12ED258A110A168A150A12F9
:10248000BB30D9000C30D8000630D70079258A112E
:102490000A168A150A12CD248A110A168A150A12FA
:1024A00080218A110A16DA29E10803197C2A831689
:1024B0000313FF30A200A400A300A500A700A600FC
:1024C000A800AA00A900AB00AD00AC000313831262
:1024D0008A150A120A228A110A168A150A128422F9
:1024E0008A110A160430E102031D542A8A150A12C1
:1024F00080218A110A16812A8A150A1280218A11DE
:102500000A168A150A12FF218A110A160800711389
:102510008A150A12A3218A110A168A150A12802125
:102520008A110A168A150A1215248A110A16E1015F
:10253000A8234030E1001030DF0060080319F32ABF
:102540008A150A1252248A110A1699248A150A1227
:102550000A228A110A168A150A1284228A110A1678
:102560000430E1020830F307031CB92AF40FB92A3A
:10257000F50ADF0B9D2A8A150A1208258A110A1608
:102580008A150A1280218A110A16992AE10803196C
:10259000EE2A83160313FF30A200A400A300A500B7
:1025A000A700A600A800AA00A900AB00AD00AC00DF
:1025B000031383128A150A120A228A110A168A152F
:1025C0000A1284228A110A160430E102031D542AD9
:1025D0008A150A1280218A110A16F32A8A150A120C
:1025E00080218A110A168A150A12FF218A110A16F9
:1025F00008008A150A12A3218A110A168A150A12DE
:1026000080218A110A168A150A12EF238A110A16E6
:102610008A150A12CD248A110A168A150A128021F7
:102620008A110A168A150A12FF218A110A16080051
:10263000BD0803191C2B902D71138A150A12A321B2
:102640008A110A168A150A1280218A110A168A1519
:102650000A1233248A110A168A150A12E9228A11EB
:102660000A16A8238A110A1660080319422B8A1534
:102670000A125C238A110A16F7248A110A16F30A31
:10268000F30A342B8A150A12FF218A110A16080050
:10269000BD080319502BAC2DBD080319502B902DEC
:1026A00071138A150A12A3218A110A168A150A12B1
:1026B00080218A110A168A150A1233248A110A16F1
:1026C000A8238A110A1660080319872B8A150A1293
:1026D00033248A110A168A150A126E238A110A16E1
:1026E0008A150A12FB228A110A168A110A16D523A4
:1026F0008A110A168A150A1280218A110A160830D0
:10270000F307031C862BF40F862BF50A632B8A151F
:102710000A12FF218A110A1608008A110A16F70800
:10272000031D9B2BF808031D9B2BF908031D9B2BF6
:10273000FA08031900346408F7020318A72B0130C4
:10274000F8020318A72BF9020318A72BFA02FF348B
:102750008A110A16F708031DB92BF808031DB92BB7
:10276000F908031DB92BFA08031DB92B0030E0004E
:1027700008000130F7020318C52B0130F8020318D6
:10278000C52BF9020318C52BFA02FF30E000080040
:10279000DE08031DCE2BDD08031900346408DD02BA
:1027A0000318D42B0130DE02FF34831603132308F1
:1027B000FC002408FD002208FB00831203138A1189
:1027C0000A127C0839257D0839257B0839258A11AC
:1027D0000A16A8238A110A16600803193A2C8316D0
:1027E00003132608FC002708FD002508FB008312C0
:1027F00003138A110A127C0839257D0839257B08C4
:1028000039258A110A16A8238A110A1660080319A5
:102810003A2C831603132908FC002A08FD00280817
:10282000FB00831203138A110A127C0839257D08E4
:1028300039257B0839258A110A16A8238A110A1618
:10284000600803193A2C831603132C08FC002D088A
:10285000FD002B08FB00831203138A110A127C0867
:1028600039257D0839257B0839258A110A16A823C0
:102870008A110A1608008A110A124125FC00412516
:10288000FD008A110A16831603137C08A3007D0835
:10289000A400831203138A110A16A8238A110A16A8
:1028A00060080319982C8A110A124125FC00412561
:1028B000FD008A110A16831603137C08A6007D0802
:1028C000A700831203138A110A16A8238A110A1675
:1028D00060080319982C8A110A124125FC00412531
:1028E000FD008A110A16831603137C08A9007D08CF
:1028F000AA00831203138A110A16A8238A110A1642
:1029000060080319982C8A110A124125FC00412500
:10291000FD008A110A16831603137C08AC007D089B
:10292000AD00831203138A110A16A8238A110A160E
:1029300008008A110A124125FC004125FD004125AD
:10294000FB008A110A16831603137C08A3007D0876
:10295000A4007B08A20083120313A82360080319B4
:10296000F62C8A110A124125FC004125FD00412563
:10297000FB008A110A16831603137C08A6007D0843
:10298000A7007B08A50083120313A823600803197E
:10299000F62C8A110A124125FC004125FD00412533
:1029A000FB008A110A16831603137C08A9007D0810
:1029B000AA007B08A80083120313A8236008031948
:1029C000F62C8A110A124125FC004125FD00412503
:1029D000FB008A110A16831603137C08AC007D08DD
:1029E000AD007B08AB0083120313A82308008316F5
:1029F00003132008FC002108FD00831203137C0848
:102A00008A110A1239258A110A167D088A110A12BA
:102A100039258A110A16A823080003340334023426
:102A2000023403340130E40002340130E4000234A3
:102A300003340130E4000130E50008000130E40017
:102A40000230E50008000130E4000230E500080033
:102A50000130E4000330E500080003138312070887
:102A6000EF006F15EF106F146F0887007210F214EB
:102A70007211F2118A110A1236268A110A160B1DDA
:102A80003F2D08001930E6008A30E800AF30E7003B
:102A90008A110A1279278A110A1608008A110A1265
:102AA00033268A110A160B1D532D08008A110A12AB
:102AB00039268A110A160B1D5B2D08008A110A128D
:102AC0003C268A110A160B1D632D080071138A1506
:102AD0000A12F22520268A110A16F11B8E2D8A155C
:102AE0000A126B268A110A168A110A124125D7008A
:102AF0004125D8008A110A168A150A1240278A1120
:102B00000A168A150A12EC268A110A16F1198E2D58
:102B10008A150A1283278A110A168F2D7117080049
:102B20000130E4008A150A12F22520268A110A16BD
:102B3000F11BAA2D8A150A1234268A110A16F11BD6
:102B4000AA2DDD03DD03C823003A0319AB2D782637
:102B50008626A32D711708000330E4008A150A1297
:102B6000F22520268A110A16F11BC42D8A150A1295
:102B70004D268A110A16DD03DD03C823003A031926
:102B8000C52D2D265526BD2D71178A150A121A2618
:102B90008A110A1608004030E4008A150A12F2254C
:102BA00020268A110A16F11BFD2D8D23003A0319E8
:102BB000FE2D8A150A1280268A110A16A0268A1569
:102BC0000A12C9268A110A16A0268A150A12C926CF
:102BD0008A110A168A150A12EC268A110A16F119A8
:102BE000FD2D8A150A1283278A110A168030F307F1
:102BF0000318F40A0319F50AD52D71178A150A125C
:102C00001A268A110A1608002030E4008A150A12D2
:102C1000F22520268A110A168D23003A0319272E41
:102C2000A0268A150A1280268A110A168A150A1207
:102C3000C9268A110A168A150A1283278A110A16CA
:102C40004030F3070318F40A0319F50A0C2E8A150D
:102C50000A121A268A110A1608008A150A1268270B
:102C60008A110A16831603137C08A3007D08A400AA
:102C7000831203138A150A1268278A110A1683160B
:102C800003137C08A2007D08A500831203138A1594
:102C90000A1268278A110A16831603137C08A600F5
:102CA0007D08A7008312031308008A110A128316F5
:102CB0000313230883123925831603132408831270
:102CC000392583160313220883123925831603132B
:102CD0002608831239258316031327088312392502
:102CE000831603132508831239258A110A16080052
:102CF0008A150A1268278A110A16831603137C089C
:102D0000A3007D08A4008312031308008A110A128D
:102D1000831603132308831239258316031324080B
:102D2000831239258A110A160800831203138A11A7
:102D30000A127C0839257D0839258A110A160800EF
:102D40006030DF008317103084008A110A12412599
:102D50008A110A168000840ADF0BA52E08000800DD
:103000000313831600309400831294120800831275
:10301000031301304C060319622802304C060319D1
:103020006E2803304C060319752804304C0603192A
:10303000872805304C060319992806304C060319D9
:10304000A52807304C060319BC2908304C06031983
:10305000BC2909304C060319C9280A304C0603194B
:10306000DB280B304C060319ED280C304C060319F5
:10307000F3280D304C06031931290E304C06031984
:103080006B2918304C060319782919304C0603199E
:1030900085291A304C06031987291B304C06031961
:1030A00089291C304C0603198A291D304C06031946
:1030B0009C291E304C060319AE291F304C060319FB
:1030C000AE290800CA2171186D28412283171030DB
:1030D00084004D088000831203130800CA21711870
:1030E00074280330C9000B220800CA2171188628F1
:1030F0008A110A160F25C9008A150A1615228A1187
:103100000A161225C9008A150A162B220800CA21A0
:10311000711898288A110A160F25C9008A150A16EF
:1031200015228A110A161225C9008A150A162B22A1
:103130000800CA217118A4288A150A16C900152288
:103140008A150A16C9002B220800CA217118B02856
:103150008A150A16C90015228A150A16C9002B22DB
:103160000800CA217118BC288A150A16C900152240
:103170008A150A16C9002B220800CA217118C8280E
:103180008A150A16C90015228A150A16C9002B22AB
:103190000800CA217118DA288A110A160D25C900FB
:1031A0008A150A1615228A110A160E25C9008A15D3
:1031B0000A162B220800CA217118EC288A110A1657
:1031C0000D25C9008A150A1615228A110A160E2520
:1031D000C9008A150A162B220800CA21CE01721BCB
:1031E000CE0A69220800F110831203137708CE007B
:1031F0006922F119F1147808CE006922F119F1144D
:103200007908CE006922F119F1147308CE00692201
:10321000F119F1147408CE006922F119F11475083E
:10322000CE006922F119F1141E298A110A124125D2
:103230008A150A16CE006922F119F114F908031D46
:103240002729F808031D2729F70803193029013019
:10325000F70203181529F80203181529F902152990
:103260000800CA2171186A298A110A160E25C90098
:103270008A150A168317103084008001840A8001A1
:10328000840A8001840A80010B2283171030840095
:10329000840A840A840A0008CB00103084000008E5
:1032A000840A840A840A8000103084004B0880005D
:1032B000831710308400840A840A0008CB00103081
:1032C0008400840A0008840A800010308400840A84
:1032D0004B0880000800CA21711877297308CE00B6
:1032E00069227408CE0069227508CE0069220800A0
:1032F000CA21711884297308CE0069227708CE008C
:1033000069227808CE0069220800CA210800CA2173
:1033100008000800CA2171189B298A110A16102575
:10332000C9008A150A1615228A110A161525C90020
:103330008A150A162B220800CA217118EC288A1156
:103340000A161025C9008A150A1615228A110A16AE
:103350001525C9008A150A162B220800CA217118E2
:10336000BB290330C9008A150A1615220230C9008C
:103370008A150A162B220800CA217118C92904309F
:10338000C9008A150A1615220430C9008A150A16C2
:103390002B22080071104C08CE006922F11A71141A
:1033A000FF30CD004122711A71144D084E02031DE9
:1033B0007114CD08031DDE297114412208008A1101
:1033C0000A168D238A150A16003A0319F52965088D
:1033D000C9004122711AF5294D088A110A123925AE
:1033E0008A150A16C90BE929DF2908008A110A166D
:1033F0008D238A150A16003A03190A2A6508C9009E
:103400008A110A1241258A150A16CE006922C90BB3
:10341000002AF629080083171030840041224D0845
:103420008000840AC90B0E2A08007308CE006922A6
:10343000C90303192A2A7408CE006922C903031993
:103440002A2A7508CE006922C90303192A2A760898
:10345000CE00692208007708CE006922C90303194B
:10346000402A7808CE006922C9030319402A790846
:10347000CE006922C9030319402A7A08CE006922C6
:10348000080071129122F119612A8A110A1250273B
:103490008A150A1693012530940094168C110A306F
:1034A000CA008A110A123C268A150A160B195B2AD1
:1034B0008C1D562A5E2ACA0B512A612A1308CD0098
:1034C000622A711687128A110A1247278A150A166C
:1034D00008009122F119822AF112253094009416E5
:1034E0008C114E0893000A30CA008A110A123C2639
:1034F0008A150A160B197F2A8C1D7A2A832ACA0B71
:10350000752A822AF1168A110A1236268A150A1697
:103510000B1D882A87128A110A1247278A150A1654
:103520000800F1118A110A12612787128A110A1202
:1035300047278A150A166430CA008A110A123C26E7
:103540008A150A160B19A72A871DA22AAA2ACA0BAE
:103550009D2ABC2A8A110A1233268A150A160B1DC7
:10356000AF2A87168A110A123C268A150A160B19E9
:10357000BC2A8719B72ABD2AF11508008A110A1238
:10358000612750278A150A16CD01071EC52A871DF7
:10359000C72A0830CA00871DCB2A8719CD2A0310F5
:1035A000071A0314CD0DCA0BCB2A871DD52A8719FC
:1035B000D72AFE228A110A1259278A150A16871558
:1035C000000000000000000087118A110A12612724
:1035D00050278A150A1608008A110A123C268A15F5
:1035E0000A16042B8A110A1239268A150A16042B88
:1035F0008A110A1236268A150A16042B8A110A1213
:0E36000033268A150A16042B0B1D042B080016
:02360E00003486
:02361000003484
:00000001FF
