:020000040000FA
:020008000800EE
:100020008A150A1600208A110A120B26F012F21203
:10003000F213C001C1018611701183120313F8017C
:10004000F901FA01FB01FC01FD01FE01FF01203075
:1000500084005325A000243020020319FF283C30DF
:100060002002031D2928840AC9010230BD0053253E
:10007000C907D8208000840ABD0B37282208C80091
:10008000210EC80406304802BD005325C907D820F8
:100090008000840ABD0B45280230BD005325D820BE
:1000A0008000840ABD0B4E285325BC003E303C0224
:1000B000031D812884030008BC008403000EBC04D7
:1000C00049083C02031D8A28831324308400000859
:1000D000CA008403000ECA04CA0803197E284E30E1
:1000E0004A0203187E280611861590304A07073009
:1000F0000318013E8A004A0890271B280030BF00E1
:1001000099280130BF0099280230BF009928033098
:10011000BF0099280430BF0099280530BF009928F6
:100120000630BF0099280730BF0099280830BF006B
:1001300099280A30C8000030CA00831710308400A4
:100140003F08800006157015A2251B2841346C3429
:100150006C34203459346F34753472342034423462
:10016000613473346534203441347234653420345E
:10017000423465346C346F346E3467342034543414
:080180006F3420345534733450
:100190003D3081000B110800D83081000B110800A0
:1001A000F63081000B110800EC3081000B110800C3
:1001B000F700F6000F30F605473077020318E628FF
:1001C00041307702031CE6280930F607760808005C
:1001D000B800B900F030B905390EF420B9000F307D
:1001E0003805F420B8000800F6000A307602031C37
:1001F000FC2837307607FE283030760708000530B7
:10020000BD002130840053258000840ABD0B0329E2
:10021000BC000D303C02031D7E28303050253230AA
:1002200050251B280E30C8000130CA008A110A165A
:1002300014208A110A127015A22508001230C80075
:100240000230CA001C267015A22508000E30C80016
:100250000430CA0070150230D5008A150A1607202E
:100260008A110A12711C37290730BF00CD2470157E
:10027000A22508000830C8000530CA0083132608EC
:10028000BC00250EBC04BC080319472949293227A4
:100290004A292B27A22508000830C8000630CA00CA
:1002A0002608C200250EC2042808C300270EC30476
:1002B0002908C4002A0EC404A22508000A30C80078
:1002C0000730CA008A110A1620208A110A127015F6
:1002D000A22508000A30C8000830CA00832670151D
:1002E000A22508000830C8000930CA002608C1004D
:1002F000250EC104A22508000830C8000A30CA0033
:100300002608BC00250EBC04F212BC08031989297A
:10031000F216A22508000830C8000B30CA002608D3
:10032000BC00250EBC04BC08031997299D298A111D
:100330000A1693218A110A12A2298A110A169321F8
:100340008A110A12A22508000830C8000C30CA0021
:100350002608BC00250EBC047213BC08031DB1297D
:1003600072170B30D5008A150A1607208A110A1257
:10037000A225080083120313F016061008000830A7
:10038000C8001230CA00A22508000830C8001B307F
:10039000CA008A110A167E218A110A120430D50079
:1003A0007A2408000830C8001C30CA000830D50084
:1003B0007A2408000830C8001D30CA000630D50075
:1003C0007A2408000830C8001E30CA008A110A16B4
:1003D0007E218A110A120330D50057240800083004
:1003E000C8001F30CA000730D50057240800083065
:1003F000C8002030CA000530D50057240800083056
:10040000C8002330CA008A110A1684218A110A12F0
:100410001C30D500572408000830C8002430CA001A
:100420008A110A1684218A110A121D30D5007A24F5
:1004300008000830C8002530CA00A2258A110A1613
:1004400093218A110A1208000830C8002930CA0016
:100450008A110A1663218A110A12A225080008309F
:10046000C8002A30CA0083132608BE00250EBE0429
:100470008A110A1687218A110A12A225080008305B
:10048000C8002B30CA002608BC00250EBC04003072
:100490003C020319562A01303C0203196A2A023031
:1004A0003C020319542A7D2AF1267D2AF1264C2587
:1004B000DE264C25232787197D2A1B2787158711C0
:1004C0002327C82087197D2A0B1D622A0730BF0009
:1004D000CD247D2AF1264C25DE261B278715871182
:1004E00023271930D5008A150A1607208A110A1207
:1004F000711C7D2A0730BF00CD24A22508000A30D8
:10050000C8002C30CA00F2188D2A72198B2A0030CC
:10051000CA0003309B2A02309B2A2327871D992A71
:100520005030BD00871D992ABD03031D922A00305B
:100530009B2A01309B2ABC00831710308400831251
:1005400003133C0880007015A2250800F1264C25F5
:10055000DE260830C8002D30CA00A2250800083069
:10056000C8002E30CA0087111B2787118715482520
:10057000482587112327A22508000830C8002F30FE
:10058000CA001A30D500382D0830C8003030CA00F3
:100590001930D500382D0830C8003130CA00D924B0
:1005A0008A110A1693218A110A12E02408000830E1
:1005B000C8003230CA00F5248A110A1693218A1124
:1005C0000A12012508000830C8003330CA00260886
:1005D000BC00250EBC0400303C02031DF12AF126AC
:1005E000002B01303C02031DF72ADE26002B0230CF
:1005F0003C02031DFD2ACB26002B0630BF00CD2474
:10060000A22508000A30C8003430CA008317103011
:1006100084008E26831203131E08831203178000A2
:10062000831203137015A22508000A30C800353064
:10063000CA00831710308400CB268A26F126831245
:1006400003131E088312031780008312031370150F
:10065000A22508000A30C8003730CA008A110A16DD
:1006600087218A110A128317103084009226831280
:1006700003131E08831203178000831203137015DF
:10068000A22508000830C8003930CA00F5248A15B0
:100690000A16EB208A110A12F11C512B7016073032
:1006A000BF00012508000830C8003B30CA002508FB
:1006B000BC0001303C020319612B0630BF00CD2481
:1006C0006B2B8A110A167D218A110A12711D6B2B60
:1006D0000730BF00CD24A22508000830C8003C30F8
:1006E000CA00F801F901FA01FB01FC01FD01FE015C
:1006F000FF018A150A16EB208A110A122327871D8B
:100700007E2B852B0730BF00CD24A225080010309A
:10071000C8003D30CA0070150D30D500382D0830A6
:10072000C8003E30CA00D9248A110A1693218A11C2
:100730000A12E0248A110A1208000830C8003F306B
:10074000CA00F5248A110A1693218A110A1201257A
:1007500008000830C8004030CA00D9248A110A169F
:100760003D218A110A12E02408000830C8004130F7
:10077000CA00F5248A110A16AC208A110A12012532
:1007800008000830C8004230CA00AB248A110A169B
:100790007D218A110A12A22508000830C8004330C2
:1007A000CA00F5248A110A1626208A110A12012588
:1007B00008000830C8004430CA00F5248A110A161F
:1007C00056208A110A12012508000830C800453059
:1007D000CA00F5248A110A1691208A110A120125ED
:1007E00008000830C8004630CA00F5248A110A16ED
:1007F00072208A110A12012508000830C80047300B
:10080000CA00D9248A110A16AE208A110A12E024DD
:100810008A110A1208000830C8004830CA00D924DA
:100820008A110A16D4208A110A12E024080008301E
:10083000C8004930CA00D9248A110A1618218A1121
:100840000A12E02408000830C8004A30CA00D9243F
:100850008A110A16F5208A110A12E02408000830CD
:10086000C8004B30CA002608C000250EC004A225CF
:1008700008000830C8004C30CA00A2254C25F325DA
:1008800008000830C8004D30CA00A2254C25FF25BD
:1008900008000030BF000A30C8000030CA008317CB
:1008A000103084003F0880007015A2250800AB249A
:1008B0008A150A1607208A110A12711C632C073048
:1008C000BF00CD24782CA22544257B30502544251B
:1008D000C9018A150A16B7218A110A124908E820A7
:1008E000390850253808502544257D3050254425A9
:1008F000A2250800AB248A150A1607208A110A12BD
:10090000711C862C0730BF00CD24A92CA2255325AD
:100910007B3C03198F2C0130BF00CD24A92CC901C9
:100920008A150A16CE218A110A125325D820BC0036
:10093000BC0E5325D8203C0449020319A22C0430D4
:10094000BF00701653257D3C0319A92C0130BF0050
:10095000CD24A225080083132C08F8002B0EF804E0
:100960002A08F900290EF9042808FA00270EFA04CB
:100970002608FB00250EFB043408FC00330EFC04A3
:100980003208FD00310EFD043008FE002F0EFE047B
:100990002E08FF002D0EFF0408000A30C8000030AA
:1009A000CA0070158317103084003F0880000615B8
:1009B0000800AB24A22544257B305025C90108003E
:1009C0004908E82039085025380850257D30502541
:1009D000F32C0A30C8000030CA007015831710309D
:1009E00084003F088000A22508007012AB24A225D5
:1009F00053257B3C0319FF2C0130BF007016C90141
:100A000008005325D820BC00BC0E5325D8203C0438
:100A1000490203190E2D0430BF00701653257D3C8A
:100A20000319152D0130BF00701603138312701EB9
:100A3000232D0A30C8000030CA007015831710300B
:100A400084003F088000A2250800E8203908C90773
:100A500050253808C907502508005325C907D82054
:100A6000B900B90E5325C907D820B90439080800C0
:100A70008A150A1607208A110A12711C422D0730A6
:100A8000BF00CD24A2250800D0200B1D452D080055
:100A9000CC200B1D492D0800C8200B1D4D2D080032
:100AA000F01C642D892DF01C562D722D831203131A
:100AB000F01A622D06148316891B5F2D5C2D83129C
:100AC0000610080806100800F01A712D83128C1306
:100AD000880006148316091B6B2D83128C1F6E2D44
:100AE00006100800831203138C1A7A2D86128C1AB2
:100AF0007A2D772D1A08842D1819822D9818822D99
:100B00000301842D181218168616BA01BA0B862D09
:100B10000800C7000C1E8A2D470899008316981CF0
:100B20008F2D932D83128312080004304802C500D4
:100B3000831321308400C9010008C907840AC50B4A
:100B40009C2D08008313203084005B308000840AD1
:100B50004808E82039088000840A38088000840AA0
:100B60004A08E82039088000840A38088000840A8E
:100B7000701DD72D08304802C5000310C50C253064
:100B8000C60083171030F700831777088400000829
:100B9000E82083134608840039088000C60A840AC6
:100BA00038088000C60A8317F70AC50BC42D95259F
:100BB00003304802F6002030760784004908E82018
:100BC00039088000840A38088000840A5D3080007B
:100BD0004808C50083132030840000085025840A8B
:100BE000C50BED2D080083120313861683164030C3
:100BF0009900831218121A081A081816080083128E
:100C000003138616831615309900831218121A08DA
:100C10001A08181608008316D0308700A0000514A3
:100C20008514851504309F00831280309F00F126C3
:100C30008030CD009E26080086157208CC00FD2667
:100C400083120317103084003B26840A4726840A47
:100C50005326840A5C26840A6926031383124C08EF
:100C6000F2007218CB26F218DE267219F126F2195C
:100C7000FD2686110800031383128E2633301E02D0
:100C8000031C772E9A301E0203187B2E7F2E03132F
:100C90008312922659081E02031C772E5B081E023F
:100CA00003187B2E7F2E03138312F1268A2624300D
:100CB0001E0203187B2E7F2E03138312DE268E2640
:100CC00033301E02031C772E9A301E0203187B2E2F
:100CD0007F2E03138312CB268A26F12659081E0283
:100CE000031C772E5B081E0203187B2E7F2E8317B2
:100CF00001308000080083178030800008008317CF
:100D00000030800008008317103084000030831703
:100D1000800008009F121F129F11962E9F121F1213
:100D20009F15962E9F121F169F15962E39271F145A
:100D300039271F151F199A2E1F100800031383123D
:100D400086101130CB00AA264D08CB00AA268614A7
:100D50003D2708000830BB00CB0D031CB12E8617C1
:100D6000B22E8613000000000000000006170000ED
:100D70000000000000000613BB0BAC2E0800861418
:100D800006178617080086140617861308008614AF
:100D90000617861308000708D1005115D114511009
:100DA000510887007214F2107211F2118A110A129E
:100DB000C8208A110A120B1DDB2E08000708D1007B
:100DC0005115D1105114510887007210F21472118C
:100DD000F2118A110A12C8208A110A120B1DEE2E76
:100DE00008000708D1005111D1145114510887008F
:100DF0007210F2107215F21108000708D100511597
:100E0000D1145114510887007210F2107211F215AA
:100E10000800941283162016A0122008870083125F
:100E200085160800941283162016A0162008870045
:100E300083128512080094128316A01120088700DF
:100E400083120515080094128316A0152008870048
:100E5000831205110800051281010B110B1D2E2FA5
:100E600072120800051681010B110B1D352F721629
:100E70000800BA01BA0B3A2F0800CC200B1D3E2FF8
:100E80000800FF30CF004F08CD009E26CB268A26D3
:100E9000F1260530D0005A081E02031C562FD00B35
:0E0EA0004B2FCF0B432F0030CD009E260800B5
:100F20008207000012291E29492C26293A294C291A
:100F30005E296A2972297C298B29A429492C492CEC
:100F4000492C492CBA29BF29492C492C492C492C18
:100F5000492C492C492C492CC529D229DA29E229C6
:100F6000EF29F729492C492CFF290C2A192A492C49
:100F7000492C492C242A2F2A3F2A7F2AA62AAF2A25
:100F8000BD2AC42ACB2AD72AE32A022B152B492CA7
:100F90002A2B492C422B492C532B6D2B872B8F2B23
:100FA0009D2BA92BB52BC12BCD2BD92BE52BF12BB1
:100FB000FD2B0B2C172C232C2F2C392C412C492C9E
:020FC000080027
:1012000018303E060319FE2A19303E0603191D2B1D
:1012100020303E060319332B21303E060319492B9B
:101220000800080018303E060319792B19303E06D5
:101230000319862B20303E060319932B21303E06DE
:101240000319A02B080018303E060319672B19302C
:101250003E0603196D2B20303E060319732B080040
:1012600018303E060319522B19303E060319572B2E
:1012700020303E0603195C2B21303E060319612BFA
:10128000080018303E060319AE2B19303E0603192C
:10129000BB2B20303E060319C82B21303E06031914
:1012A000D52B080054295322E108031D5A29E008D0
:1012B000031960290130E00203185329E102532980
:1012C000080040226D2108002D226D2108002D22EA
:1012D0006D210800E121AF210800DE01DF018A1144
:1012E0000A1673218A150A12871587110830BB0068
:1012F000871587110310871A0314DE0CBB0B78299E
:101300000630BB00871587110310871A0314DF0C02
:10131000BB0B8229DF0CDF0C871587118A110A1697
:101320006C218A150A120800871287158711083068
:10133000BB008716DC0C031C871287158711BB0BBB
:1013400099290630BB008716DD0C031C8712871510
:101350008711BB0BA32987128715871108005D0829
:10136000EA005C08E900FF30DD00DC0094216A0837
:10137000DD006908DC0008000130F700D7290230E1
:10138000F700D7290330F700D7290430F700D72911
:101390000530F700D7290830F700D7290A30F700C1
:1013A000D7291430F700D7291E30F700D7298A1122
:1013B0000A12CC208A150A120B1DDC29F70BD7293B
:1013C00008008712871587118712871587118712E2
:1013D000871587118712871587118712871587113F
:1013E00087128715871108008716871587118712BE
:1013F000871587118712871587118712871587111F
:1014000087128715871187128715871108008712A1
:1014100087158711871687158711871287158711FA
:1014200087128715871187128715871187128715ED
:10143000871108008716871587118716871587116A
:1014400087128715871187128715871187128715CD
:101450008711871287158711080087128715871152
:1014600087128715871187168715871187128715A9
:101470008711871287158711871287158711080032
:101480008716871587118712871587118716871585
:101490008711871287158711871287158711871281
:1014A00087158711080087128715871187168715FA
:1014B000871187168715871187128715871187125D
:1014C00087158711871287158711080087168715DA
:1014D0008711871687158711871687158711871239
:1014E000871587118712871587118712871587112E
:1014F00008008712871587118712871587118712B1
:101500008715871187168715871187128715871109
:10151000871287158711080087168715871187128C
:1015200087158711871287158711871687158711E9
:101530008712871587118712871587110800871270
:1015400087158711871687158711871287158711C9
:1015500087168715871187128715871187128715B8
:10156000871108008712871587118716871587113D
:101570008716871587118716871587118712871594
:10158000871187128715871108008716871587111D
:101590008716871587118712871587118716871574
:1015A0008711871287158711871287158711080001
:1015B0008716871587118712871587118712871558
:1015C000871187128715871187168715871187124C
:1015D00087158711080087128715871187128715CD
:1015E0008711871287158711871687158711871628
:1015F0008715871187128715871108002030F90099
:101600000730F8000A24F42166227922CE21F42141
:101610006622132B07220722AF21F42166227922AA
:10162000D121F42166221A22AF21F42166227922E7
:10163000D121F42166221D2408002030F900073052
:10164000F8000A24F42166227922D121F4216622AD
:101650002E2B0722AF218C227922C821C522792284
:10166000C8211D2408002030F9000730F8000A24A2
:10167000F42166227922CE21F4216622442B07220E
:10168000AF218C227922CE21C5227922CE211D24A0
:1016900008002030F9000730F8000A248C22D421F9
:1016A0001D240800072294217922D1210800072255
:1016B00094217922CB210800072294217922C52187
:1016C0000800072294217922C221B22208001A229E
:1016D00094217922CB21532208001A2294217922C5
:1016E000CB21532208001A2294217922CB215322A4
:1016F00008008A110A165721DC005721DD008A15DF
:101700000A12072294217922D12108008A110A168F
:101710005721DC005721DD008A150A120722942187
:101720007922C52108008A110A165721DC005721A9
:10173000DD008A150A12072294217922C5210800AA
:101740008A110A165721DC005721DD008A150A127A
:10175000072294217922C221B22208008A110A1696
:101760005721DC005721DD008A150A120722942137
:101770007922D12108008A110A165721DC0057214D
:10178000DD008A150A12072294217922C52108005A
:101790008A110A165721DC005721DD008A150A122A
:1017A000072294217922CB2108008A110A16572199
:1017B000DC005721DD008A150A12072294217922C4
:1017C000C221B22208008A110A166C218A150A1257
:1017D000871287118A110A12CB268A150A127908F4
:1017E000E1007808E000213061060319F82B52214E
:1017F00008008A110A166C218A150A1287128711AD
:101800008A110A12CB268A150A127908E100780893
:10181000E00008008A110A166C218A150A12871244
:1018200087118A110A12CB268A150A12E121AF21EB
:10183000E1017808E000522108008A110A166C21A3
:101840008A150A12871287118A110A12F1268A153F
:061850000A120800080066
:102000008A110A1209271B2787128711CB268A11EA
:102010000A1608008A110A1209271B27871287113E
:10202000F1268A110A160800831710308400013047
:102030008000840A02308000840A0030800008009A
:102040008317103084000C3080000800F11200204B
:102050007908E1007808E0008A150A1252218A11F5
:102060000A16013040020319452836283F21003A5C
:10207000031954288A150A1241218A110A168A1551
:102080000A1253228A110A1636288A150A122A249D
:102090008A110A163F21003A031954288A150A1298
:1020A00041218A110A164A280A200800F11200204C
:1020B0007908E1007808E0008A150A1252218A1195
:1020C0000A163F21003A031970285721DC008A15AF
:1020D0000A1223218A110A16E00F6128E10A6128F9
:1020E0000A200800F11200208A150A126A218A11BA
:1020F0000A167808E0008A150A1252218A110A1677
:102100003F21003A03198F288A150A1212218A11D9
:102110000A168A150A1253228A110A1680280A20E2
:102120000800F11200208A150A126A218A110A1683
:102130007908E1007808E0008A150A1252218A1114
:102140000A165721DC005721DD008A150A123021BA
:102150008A110A160A20080072280800F1120020CD
:102160007908E1007808E0008A150A1252218A11E4
:102170000A163F21003A0319D2288A150A1264214F
:102180008A110A165E088A110A1225255F088A112B
:102190000A1225258A110A168A150A1253228A1153
:1021A0000A16B9280A200800F11200207908E10077
:1021B0007808E0008A150A1252218A110A163F2176
:1021C000003A0319F3288A150A1261218A110A16A6
:1021D0005E085D218A150A1253228A110A16E00F41
:1021E000DF28E10ADF280A200800F11200208A1502
:1021F0000A126A218A110A167808E0008A150A1262
:1022000052218A110A163F21003A031916298A150C
:102210000A1264218A110A165E085D215F085D2199
:102220008A150A1253228A110A1603290A20080065
:10223000F11200208A150A126A218A110A167908F9
:10224000E1007808E0008A150A1252218A110A1664
:102250003F21003A03193B298A150A1267218A1186
:102260000A165E085D215F085D218A150A12532255
:102270008A110A1628290A200800F5280800FF08F4
:10228000031D4B29FE08031D4B29FD08031D4B2987
:10229000FC08031900340130FC0203185629FD0222
:1022A00003185629FE0203185629FF02FF348A112B
:1022B0000A122D258A110A1608008A110A122525EC
:1022C0008A110A1608008A150A1200218A110A16B4
:1022D0000A200800080008008A110A1209271B2793
:1022E0008A110A1608008A110A1212278A110A1680
:1022F0000800023402340234023408000130E500E0
:1023000008000230E50008000230E500080038301F
:10231000D9009630DA00BF30DB008A110A1241275B
:082320008A110A1608000034BE
:103000000313831600309400831294120800831275
:1030100003130130550603195A28023055060319C7
:1030200066280330550603196D2804305506031928
:103030007F280530550603199128063055060319D7
:103040009D28073055060319A9280830550603198D
:10305000B528093055060319C1280A305506031949
:10306000D3280B3055060319E5280C3055060319F3
:10307000EB280D305506031929290E305506031982
:10308000632918305506031970291930550603199C
:103090007D291A30550603197F291B30550603195F
:1030A00081291C305506031982291D305506031944
:1030B00094290800A6217118652819228317103059
:1030C000840056088000831203130800A62171189B
:1030D0006C280330D200E3210800A62171187E2855
:1030E0008A110A167B21D2008A150A16ED218A114F
:1030F0000A167C21D2008A150A1603220800A6218E
:10310000711890288A110A167B21D2008A150A1696
:10311000ED218A110A167C21D2008A150A16032293
:103120000800A62171189C288A150A16D200ED21E4
:103130008A150A16D20003220800A6217118A828B1
:103140008A150A16D200ED218A150A16D20003222A
:103150000800A6217118B4288A150A16D200ED219C
:103160008A150A16D20003220800A6217118C02869
:103170008A150A16D200ED218A150A16D2000322FA
:103180000800A6217118D2288A110A167921D200C6
:103190008A150A16ED218A110A167A21D2008A159B
:1031A0000A1603220800A6217118E4288A110A16BB
:1031B0007921D2008A150A16ED218A110A167A2180
:1031C000D2008A150A1603220800A621D701721B15
:1031D000D70A35220800F110831203137C08D700A8
:1031E0003522F119F1147D08D7003522F119F114B7
:1031F0007E08D7003522F119F1147808D70035225E
:10320000F119F1147908D7003522F119F1147A086F
:10321000D7003522F119F11416298A110A122D2529
:103220008A150A16D7003522F119F114FE08031D7C
:103230001F29FD08031D1F29FC0803192829013037
:10324000FC0203180D29FD0203180D29FE020D29A9
:103250000800A621711862298A110A167A21D20063
:103260008A150A168317103084008001840A8001B1
:10327000840A8001840A8001E321831710308400CE
:10328000840A840A840A0008D400103084000008EC
:10329000840A840A840A8000103084005408800064
:1032A000831710308400840A840A0008D400103088
:1032B0008400840A0008840A800010308400840A94
:1032C000540880000800A62171186F297808D700DB
:1032D00035227908D70035227A08D7003522080030
:1032E000A62171187C297808D70035227C08D700E0
:1032F00035227D08D70035220800A6210800A62126
:1033000008000800A6217118D2288A110A169321F4
:10331000D2008A150A16ED218A110A169321D200CD
:103320008A150A1603220800A6217118E4288A11BA
:103330000A169321D2008A150A16ED218A110A165F
:103340009321D2008A150A1603220800711055082D
:10335000D7003522FF30D600192256085702031D28
:103360007114D608031DB6297114192208008A1198
:103370000A163F218A150A16003A0319CD29650855
:10338000D2001922711ACD2956088A110A12252550
:103390008A150A16D20BC129B72908008A110A1604
:1033A0003F218A150A16003A0319E2296508D2005E
:1033B0008A110A122D258A150A16D7003522D20B3A
:1033C000D829CE2908008317103084001922560806
:1033D0008000840AD20BE62908007808D70035223D
:1033E000D2030319022A7908D7003522D203031920
:1033F000022A7A08D7003522D2030319022A7B0851
:10340000D700352208007C08D7003522D2030319E3
:10341000182A7D08D7003522D2030319182A7E08FE
:10342000D7003522D2030319182A7F08D700352286
:10343000080093015022F1192C2A71128A110A12E4
:1034400012278A150A162530940094168C118C1DAB
:10345000272A1308D6002D2A711687128A110A12FC
:10346000092794128A150A1608005022F119412AD8
:103470002530940094168C11570893008C1D3E2A19
:10348000412A8A110A12D4208A150A160B1D462ACF
:1034900087128A110A12092794128A150A1608003F
:1034A0008A110A12232787128A110A1209278A15FC
:1034B0000A16F1118A110A12C8208A150A160B1968
:1034C000762A871D5F2A8A110A12D0208A150A16C9
:1034D0000B1D682A8716F1118A110A12C8208A1555
:1034E0000A160B19762A8719712A772AF11508000E
:1034F0008A110A12232712278A150A16D601071ED7
:103500007F2A871D812A0830D300871D852A8719C5
:10351000872A0310071A0314D60DD30B852A871D9B
:103520008F2A8719912AA6228A110A121B278A1527
:103530000A168715000000000000000087118A119C
:103540000A12232712278A150A1608008A110A125E
:0C355000D0208A150A160B1DAB2A0800BB
:04355C000034003403
:00000001FF
