:020000040000FA
:04000800682D080057
:100020008A150A1600208A110A123726F012F212D7
:10003000F217C001C1018611701183120313F80178
:10004000F901FA01FB01FC01FD01FE01FF01203075
:1000500084007F25A000243020020319FD283C30B5
:100060002002031D2928840ACB010230BD007F2510
:10007000CB07D6208000840ABD0B37282208CA008F
:10008000210ECA0406304A02BD007F25CB07D620C8
:100090008000840ABD0B45280230BD007F25D62094
:1000A0008000840ABD0B4E287F25BC003E303C02F8
:1000B000031D812884030008BC008403000EBC04D7
:1000C0004B083C02031D8A28831324308400000857
:1000D000CC008403000ECC04CC0803197E285030D9
:1000E0004C0203187E280611861590304C07073005
:1000F0000318013E8A004C0890271B280030BF00DF
:1001000099280130BF0099280230BF009928033098
:10011000BF0099280430BF0099280530BF009928F6
:100120000630BF0099280730BF0099280830BF006B
:1001300099287925CC018317103084003F0880006E
:1001400006157015CE251B2841346C346C342034D0
:1001500059346F347534723420344234613473341A
:10016000653420344134723465342034423465348B
:100170006C346F346E346734203454346F3420342C
:04018000553473344B
:10019000F6308100D428EC308100D428D83081009A
:1001A000D4283D308100D4280B110800F700F60058
:1001B0000F30F605473077020318E4284130770204
:1001C000031CE4280930F60776080800B800B900D7
:1001D000F030B905390EF220B9000F303805F220A1
:1001E000B8000800F6000A307602031CFA283730FF
:1001F0007607FC283030760708000530BD00213036
:1002000084007F258000840ABD0B0129BC000D30CD
:100210003C02031D7E2830307C2532307C251B2893
:100220000E30CA000130CC008A110A165F218A11F3
:100230000A127015CE2508001230CA000230CC0018
:1002400048267015CE2508000E30CA000430CC00B8
:1002500070150230D7008A150A1607208A110A1273
:10026000711C35296624BF00EB247015CE250800CB
:1002700076250530CC0083132608BC00250EBC046F
:10028000BC080319442946295E2747295727CE254C
:10029000080076250630CC002608C200250EC204D0
:1002A0002808C300270EC3042908C4002A0EC4046A
:1002B000CE25080079250730CC008A110A166B215B
:1002C0008A110A127015CE25080079250830CC0055
:1002D000AF267015CE25080076250930CC002608FB
:1002E000C100250EC104CE25080076250A30CC00B9
:1002F0002608BC00250EBC04F212BC080319812993
:10030000F216CE25080076250B30CC002608BC005E
:10031000250EBC04BC08031D96298E29F2178A11EC
:100320000A1641268A110A12F2179D29F2178A111C
:100330000A1641268A110A12F213CE2508007625E4
:100340000C30CC002608BC00250EBC047213BC087F
:10035000031DAB2972170B30D7008A150A16072028
:100360008A110A12CE2508007E2883120313F01684
:100370000610080076251230CC00CE250800762520
:100380001330CC0083132608C500250EC504831343
:100390002808C600270EC6048A110A1612268A11DA
:1003A0000A12CE2508007E287E2876251B30CC0038
:1003B0008A110A16E1248A110A120430D7009824FF
:1003C000080076251E30CC008A110A16E1248A1115
:1003D0000A120330D70075240800C924762521307D
:1003E000CC000730D700502DC92476252230CC0010
:1003F0000830D700502D76252330CC008A110A16FC
:10040000E7248A110A121C30D700752408007625CB
:100410002430CC008A110A16E7248A110A121D30F2
:10042000D7009824080076252530CC00CE258A11E7
:100430000A1648218A110A12080076252630CC00B7
:100440008A110A163E218A110A12CE250800762545
:100450002730CC008A110A162A218A110A12CE25C9
:10046000080076252830CC008A110A1629218A1125
:100470000A12CE255A2C76252930CC008A110A166C
:1004800009208A110A12CE25080076252A30CC00D0
:1004900083132608BE00250EBE048A110A160626FE
:1004A0008A110A12CE25080076252B30CC002608AA
:1004B000BC00250EBC0400303C0203196A2A01303E
:1004C0003C0203197E2A02303C020319682A912A51
:1004D0001D27912A1D2764250A2764254F27871980
:1004E000912A4727871587114F27D1208719912AED
:1004F0000B1D762A0730BF00EB24912A1D276425A7
:100500000A274727871587114F271930D7008A15E3
:100510000A1607208A110A12711C912A6624BF004C
:10052000EB24CE25080079252C30CC00F2189F2A28
:1005300072199D2ACC010330AD2A0230AD2A4F2713
:10054000871DAB2A5030BD00871DAB2ABD03031D9C
:10055000A42A0030AD2A0130AD2ABC008317103028
:100560008400831203133C0880007015CE25080018
:100570001D2764250A2776252D30CC00CE250800BE
:1005800076252E30CC008711472787113E27071E7E
:10059000CF2A8A150A16BE228A110A12C62A871580
:1005A0006025602587114F27CE25080076252F303E
:1005B000CC001A30D700502D76253030CC001930C1
:1005C000D700502D76253130CC00F5248A110A163B
:1005D00041268A110A12FC24080076253230CC000C
:1005E0000F258A110A1641268A110A121B250800B6
:1005F00076253330CC002608BC00250EBC04003024
:100600003C02031D052B1D27142B01303C02031D4A
:100610000B2B0A27142B02303C02031D112BF7264B
:10062000142B0630BF00EB24CE250800792534308A
:10063000CC00831710308400BA26831203131E08DF
:10064000831203178000831203137015CE25080050
:1006500079253530CC00831710308400F726B62674
:100660001D27831203131E088312031780008312B1
:1006700003137015CE25080079253730CC00831779
:1006800010308400BE26831203131E088312031742
:100690008000831203137015CE25080076253930AB
:1006A000CC000F258A150A16F3208A110A12F11CB4
:1006B0005C2B70160730BF001B25080076253B30E9
:1006C000CC002508BC0001303C0203196B2B06301E
:1006D000BF00EB24752B8A110A16EA248A110A122C
:1006E000711D752B0730BF00EB24CE250800762541
:1006F0003C30CC00F801F901FA01FB01FC01FD01DD
:10070000FE01FF018A150A16F3208A110A124F27EB
:10071000871D872B8E2B0730BF00EB24CE250800CA
:100720001030CA003D30CC0070150D30D700502D70
:1007300076253E30CC00F5248A110A16E7228A116C
:100740000A12FC248A110A12080076253F30CC00D8
:100750000F258A110A1624238A110A121B25080064
:1007600076254030CC00F5248A110A16E7228A113A
:100770000A12FC24080076254130CC000F258A118E
:100780000A1624228A110A121B25080076254230F7
:10079000CC00C9248A110A1600208A110A12CE251B
:1007A000080076254330CC000F258A110A16242232
:1007B0008A110A121B25080076254430CC000F252B
:1007C0008A110A16A1218A110A121B250800762512
:1007D0004530CC000F258A110A1671218A110A12A0
:1007E0001B25080076254630CC000F258A110A16F5
:1007F00024228A110A121B25080076254730CC00D6
:10080000F5248A110A16E7228A110A12FC248A1199
:100810000A12080076254830CC00F5248A110A1601
:10082000B3228A110A12FC24080076254930CC0034
:10083000F5248A110A1692228A110A12FC24080051
:1008400076254A30CC00F5248A110A16E7228A114F
:100850000A12FC24080076254B30CC002608C00084
:10086000250EC004CE25080076254C30CC00CE25C0
:1008700064251F26080076254D30CC00CE25642542
:100880002B26080076254E30CC008A110A163A260F
:100890008A110A121E30D7007524080076254F30C1
:1008A000CC008A110A163A268A110A121F30D70084
:1008B000982408000030BF007925CC018317103040
:1008C00084003F0880007015CE250800F11D6A2CB9
:1008D0000930742C711E6E2C1030742CF11E722C89
:1008E0001130742C0830742C0800C9248A150A169B
:1008F00007208A110A12711C812C0730BF00EB24DB
:10090000962CCE255C257B307C255C25CB018A1579
:100910000A16DF218A110A124B08E62039087C25C5
:1009200038087C255C257D307C255C25CE2508009B
:10093000C9248A150A1607208A110A12711CA42CD0
:100940000730BF00EB24C72CCE257F257B3C031945
:10095000AD2C0130BF00EB24C72CCB018A150A1641
:10096000F6218A110A127F25D620BC00BC0E7F25F5
:10097000D6203C044B020319C02C0430BF00701673
:100980007F257D3C0319C72C0130BF00EB24CE2509
:10099000080083132C08F8002B0EF8042A08F9002D
:1009A000290EF9042808FA00270EFA042608FB008D
:1009B000250EFB043408FC00330EFC043208FD0055
:1009C000310EFD043008FE002F0EFE042E08FF003D
:1009D0002D0EFF0408007925CC0170158317103007
:1009E00084003F08800006150800C924CE255C2538
:1009F0007B307C25CB0108004B08E62039087C259C
:100A000038087C257D307C250D2D7925CC0170158D
:100A10008317103084003F088000CE250800701234
:100A2000C924CE257F257B3C0319192D0130BF0039
:100A30007016CB0108007F25D620BC00BC0E7F2598
:100A4000D6203C044B020319282D0430BF00701639
:100A50007F257D3C03192F2D0130BF007016031335
:100A60008312701E3B2D7925CC0170158317103031
:100A700084003F088000CE250800E6203908CB0717
:100A80007C253808CB077C2508007F25CB07D6209E
:100A9000B900B90E7F25CB07D620B9043908080064
:100AA0008A150A1607208A110A12711C5A2D07305E
:100AB000BF00EB24CE250800C8200B1D5D2D0800CB
:100AC000CE200B1D612D0800D1200B1D652D0800C7
:100AD000F300030E8301F5000A08F4008A0174088C
:100AE0008A00750E8300F30E730E09000830CA00E9
:100AF00008000A30CA000800F01C902DB52DF01C2B
:100B0000822D9E2D83120313F01A8E2D0614831648
:100B1000891B8B2D882D83120610080806100800EB
:100B2000F01A9D2D83128C13880006148316091B5E
:100B3000972D83128C1F9A2D061008008312031321
:100B40008C1AA62D86128C1AA62DA32D1A08B02D4C
:100B50001819AE2D9818AE2D0301B02D18121816C5
:100B60008616BA01BA0BB22D0800C9000C1EB62DAC
:100B7000490899008316981CBB2DBF2D8312831240
:100B8000080004304A02C700831321308400CB01DF
:100B90000008CB07840AC70BC82D08008313203038
:100BA00084005B308000840A4A08E620390880000F
:100BB000840A38088000840A4C08E620390880003E
:100BC000840A38088000840A701D032E08304A0207
:100BD000C7000310C70C2530C80083171030F7007A
:100BE0008317770884000008E620831348088400F0
:100BF00039088000C80A840A38088000C80A8317A8
:100C0000F70AC70BF02DC12503304A02F600203049
:100C1000760784004B08E62039088000840A3808EB
:100C20008000840A5D3080004A08C70083132030AA
:100C3000840000087C25840AC70B192E0800831243
:100C400003138616831640309900831218121A086F
:100C50001A08181608008312031386168316153017
:100C60009900831218121A081A0818160800831619
:100C7000D0308700A00005148514851504309F002E
:100C8000831280309F001D278030CF00CA260800C5
:100C900086157208CE0029278312031710308400AE
:100CA0006726840A7326840A7F26840A8826840A93
:100CB0009526031383124E08F2007218F726F218D5
:100CC0000A2772191D27F219292786110800031314
:100CD0008312BA2633301E02031CA32E9A301E0242
:100CE0000318A72EAB2E03138312BE265F081E0225
:100CF000031CA32E60081E020318A72EAB2E03139D
:100D000083121D27B626A4081E020318A72EAB2E99
:100D1000031383120A27BA2633301E02031CA32EA4
:100D20009A301E020318A72EAB2E03138312F72648
:100D3000B6261D275F081E02031CA32E60081E0294
:100D40000318A72EAB2E83170130800008008317ED
:100D5000803080000800831700308000080083176F
:100D60001030840000308317800008009F121F128B
:100D70009F11C22E9F121F129F15C22E9F121F1667
:100D80009F15C22E65271F1465271F151F19C62E14
:100D90001F1008000313831286101130CD00D626D1
:100DA0004F08CD00D6268614692708000830BB00FE
:100DB000CD0D031CDD2E8617DE2E861300000000ED
:100DC00000000000061700000000000000000613ED
:100DD000BB0BD82E08008614061786170800861449
:100DE00006178613080086140617861308000708DE
:100DF000D3005315D3145310530887007214F21004
:100E00007211F2118A110A12D1208A110A120B1DD5
:100E1000072F08000708D3005315D31053145308A5
:100E200087007210F2147211F2118A110A12D12085
:100E30008A110A120B1D1A2F08000708D30053113C
:100E4000D3145314530887007210F2107215F21164
:100E500008000708D3005315D31453145308870010
:100E60007210F2107211F2150800941283162016F7
:100E7000A01220088700831285160800941283169A
:100E80002016A016200887008312851208009412ED
:100E90008316A011200887008312051508009412FC
:100EA0008316A0152008870083120511080005127B
:100EB00081010B110B1D5A2F7212080005168101BA
:100EC0000B110B1D612F72160800BA01BA0B662FA9
:100ED0000800CE200B1D6A2F08000030D1005108F9
:100EE000CF00CA26BE2661081E0203187C2FD10F30
:0A0EF0006F2F0030CF00CA26080063
:100F20008207000010291C295A2C24293829492914
:100F30005A2965296C29752983299F295A2CB42996
:100F40005A2C5A2CB529BA29BF295A2C5A2C5A2C5A
:100F50005A2CD3295A2CD429D5295A2C5A2CE12978
:100F60005A2C5A2CED29F429FB29072A132A1D2A69
:100F7000272A312A3B2A452A542A932AB82AC02AEA
:100F8000D62ADC2AE22AED2AF82A162B282B5A2CFC
:100F90003C2B5A2C4E2B5A2C5E2B772B902B982BBC
:100FA000A52BB02BBB2BC62BD12BDC2BE72BF22B8D
:100FB000FD2B0A2C152C202C2B2C342C3B2C422CBA
:040FC0004E2C0800AB
:101000000030E4000130E3003427AA208A110A12DC
:1010100035278A150A1208001030E4000430E30076
:1010200034270030E4007D08E4000F30E4057C083C
:10103000E30034270030E4007A08E300342779081D
:10104000E4007808E3003427AA2008002030E400F8
:101050000430E30034277D08E4007C08E3003427F3
:101060000030E4007A08E30034277908E4007808C7
:10107000E3003427AA2008004030E4001330E300E6
:1010800034270130E4007A08E30034277908E400CB
:101090007808E300342708005030E4003330E300E0
:1010A00034270130E4007A08E30034277908E400AB
:1010B0007808E300342708006030E4000430E300DF
:1010C00034270030E4007A08E30034277908E4008C
:1010D0007808E300342708007030E4000230E300B1
:1010E00034270130E4007A08E3003427AA200800FE
:1010F000E4000330E30034270130E4007A08E30021
:1011000034277908E4007808E3003427AA2008008F
:10111000A030E4000330E30034272F08E400300857
:10112000E30034273108E4003208E3003427AA2022
:101130008A110A1235278A150A120800B030E40015
:101140000130E3003427AA208A110A1235278A15B4
:101150000A1208008A110A123E278A150A121B2752
:101160006C2708004508E5004608E4000030E3006D
:1011700049262030E5040A30E30456268830E5008D
:0C1180003B30E4000A30E3005626080073
:101200008A110A12CE208A150A120B1D0529080020
:101210007D08E5007C08E4000030E300492620302A
:10122000E5040030E30456267908E5007808E40078
:101230000030E30049262030E5040030E304562660
:101240009726972608008A110A12472735278A15FC
:101250000A12871287118A110A12F7268A150A12B2
:101260000430E6008A110A12D1208A150A120B1DD9
:101270003729E60B322997269726972697268A1133
:101280000A121D278A150A128A110A12F7268A15D0
:101290000A1208008A110A12472735278A150A12EE
:1012A000871287118A110A12F7268A150A12080076
:1012B0008A110A121D278A150A128A110A12D120D0
:1012C0008A150A120B1D62290800972697260430FA
:1012D000E5000130E4000030E3005626972697260B
:1012E000080083160313250883120313E5008316F1
:1012F0000313240883120313E40049262030E50475
:101300000030E304562683160313260883120313C2
:10131000E50083160313230883120313E400492610
:101320002030E5040130E304562683160313280811
:1013300083120313E5008316031327088312031394
:10134000E40049262030E5040230E30456268316E3
:1013500003132B0883120313E500831603132A08D3
:1013600083120313E40049262030E5040330E3042C
:101370005626831603132C0883120313E5008316E5
:101380000313290883120313E40049262030E504DF
:101390000430E3045626831603132E088312031326
:1013A000E500831603132D0883120313E400492676
:1013B0002030E5040530E3045626080083160313A5
:1013C0002408F4002508F500831203137408E400D0
:1013D0007508E50049262030E5040030E304562670
:1013E000831603132308F40083120313E501740822
:1013F000E40049262030E5040130E30456260800C5
:101400007508E5007408E4000030E3004926203048
:10141000E5040030E304562608008316031325086C
:10142000F5002408F400031383127508E50074081E
:10143000E40049262030E5040030E30456268316F4
:1014400003132808F5002708F40003138312750816
:10145000E5007408E40049262030E5040130E30487
:101460005626831603132B08F5002A08F4000313ED
:1014700083127508E5007408E40049262030E5046D
:101480000230E3045626831603132E08F5002D08B8
:10149000F400031383127508E5007408E40049267C
:1014A0002030E5040330E30456260800EB30E50065
:1014B0000330E4000030E30056269726972697264F
:1014C0009726BB30E5000B30E400B630E30056262B
:1014D0009726972697269726BB30E500DB30E40059
:1014E000B630E30056269726972697269726BB30D8
:1014F000E500EB30E400B630E30056269726972649
:1015000097269726BB30E5001B30E400B630E30099
:1015100056269726972697269726BB30E5000B3050
:10152000E400B630E300562697269726972697269E
:10153000BB30E500DB30E400B630E30056269726EA
:10154000972697269726BB30E500EB30E400B630AF
:10155000E30056269726972697269726BB30E50068
:101560001B30E400B630E3005626972697269726D0
:1015700097260800EB30E5000330E4000030E3007C
:101580005626BB30E5001B30E400B630E30056269B
:101590009726972697269726BB30E5001B30E40058
:1015A000B630E30056269726972697269726BB3017
:1015B000E5001B30E400B630E30056269726972658
:1015C00097269726BB30E5001B30E400B630E300D9
:1015D000562697269726972697260800EB30E50093
:1015E0000330E4000030E3005626BB30E5001B303A
:1015F000E4009630E30056269726972697269726EE
:101600000800EB30E5000330E4000030E30056262C
:101610000800BB30E5001B30E4008630E3005626AE
:1016200097269726972697260800EB30E50003308B
:10163000E4000030E3005626BB30E5000B30E40048
:10164000B630E30056269726972697269726BB3076
:10165000E500DB30E400B630E300562697269726F7
:101660009726972608008830E5003C30E4002030BB
:10167000E30056261D26831603132108A400220822
:10168000A500831203138830E5003C30E4002130CC
:10169000E30056261D26831603132108A300220803
:1016A000A600831203138830E5003C30E4002230AA
:1016B000E30056261D26831603132108A7002208DF
:1016C000A800831203138830E5003C30E400233087
:1016D000E30056261D26831603132108AA002208BC
:1016E000AB00831203138830E5003C30E400243063
:1016F000E30056261D26831603132108A90022089D
:10170000AC00831203138830E5003C30E400253040
:10171000E30056261D26831603132108AD00220878
:10172000AE008312031308008830E5003C30E4006B
:101730002030E30056261D26831603132108A4003B
:101740002208A500831203138830E5003C30E40032
:101750002130E30056261D26831603132108A70017
:101760002208A800831203138830E5003C30E4000F
:101770002230E30056261D26831603132108AA00F3
:101780002208AB00831203138830E5003C30E400EC
:101790002330E30056261D26831603132108AD00CF
:1017A0002208AE00831203130800EB30E50003307B
:1017B000E4008030E3005626BA30E5000B30E40048
:1017C000B630E30056269726972697269726883028
:1017D000E5003C30E4002030E30056261D260800DA
:1017E000EB30E5000330E4008030E3005626BA30E9
:1017F000E5001B30E400B630E30056269726972616
:1018000097269726BA30E5001B30E400B630E30097
:1018100056269726972697269726BA30E5001B303E
:10182000E400B630E300562697269726972697269B
:10183000BA30E5001B30E400B630E30056269726A8
:101840009726972697260800EB30E5000330E40042
:101850008030E3005626BA30E5001B30E4009630B5
:10186000E30056269726972697269726BA30E50056
:10187000DB30E400B630E3005626972697269726FD
:101880009726BA30E500DB30E400D630E300562678
:101890009726972697269726BA30E5001B30E40056
:1018A000B630E30056269726972697269726BA3015
:1018B000E5001B30E4009630E30056269726972675
:1018C00097269726BA30E500DB30E400B630E30017
:1018D00056269726972697269726BA30E500DB30BE
:1018E000E400D630E30056269726972697269726BB
:1018F000BA30E5001B30E400B630E30056269726E8
:101900009726972697260800EB30E5000330E40081
:101910000030E30056268830E5003B30E400163006
:10192000E30056268830E5003B30E4002630E30033
:1019300056262030E5000430E4000730E300562648
:101940000800EB30E5000330E4000030E3005626E9
:101950008830E5003B30E4001630E30056262030A6
:10196000E5000830E4000630E30056268830E50044
:101970003B30E4002630E30056262030E5000430FA
:10198000E4000730E300562608002030E500003070
:10199000E4000630E30056268830E5003B30E400E2
:1019A0001630E30056262030E5000730E400F6301C
:1019B000E30056268830E5003B30E4002630E300A3
:1019C00056262030E5000230E4000730E3005626BA
:1019D00008002430E5000730E400FA30E300562622
:1019E0008830E5003B30E4000A30E300562608006A
:1019F0002430E5000730E4005A30E30056268830F2
:101A0000E5003B30E4000A30E300562608002430AD
:101A1000E5000730E4001A30E30056268830E50080
:101A20003B30E4000A30E300562608002430E5008D
:101A30000730E4002A30E30056268830E5003B30CA
:101A4000E4000A30E300562608002430E5000030A8
:101A5000E4001A30E30056268830E5003B30E4000D
:101A60000A30E300562608002430E5000030E40088
:101A70000A30E30056268830E5003B30E4000A30A7
:101A8000E300562608002430E5000030E4008A30E8
:101A9000E30056268830E5003B30E4000A30E300DE
:101AA000562608002430E5000030E4004A30E30008
:101AB00056268830E5003B30E4000A30E300562625
:101AC00008002430E5000030E4005A30E3005626D8
:101AD0008830E5003B30E4000A30E3005626080079
:101AE000972697260030E5007A08E4000030E300EE
:101AF00049262030E5040030E30456268830E5000E
:101B00000130E4009030E30056267908E5007808BB
:101B1000E4000030E30049262030E5040630E30409
:101B200056269726972608000030E5007A08E4003C
:101B30000030E30049262030E5040030E304562657
:101B40008830E5000130E4009030E3005626790843
:101B5000E5007808E4000030E30049262030E50481
:101B60000730E304562608002030E5000530E40085
:101B70005830E30056262030E5000A30E400A93052
:101B8000E30056268830E5003B30E4003830E300BF
:101B900056268830E5003B30E4003930E300562615
:101BA00008002030E5000430E4000730E30056264A
:101BB0004330E5000330E4000730E3005626AF3041
:101BC000E5000030E4004230E3005626EC30E5004A
:101BD0002730E4006430E30056268830E5003B30CF
:101BE000E4001630E300562608004330E5000330D9
:101BF000E4000730E30056268830E5003B30E4007F
:101C00001630E30056260800A830E500E730E4006F
:101C10006130E300562697269726972697260021BF
:101C20000021A930E500E730E4006130E3005626EA
:101C3000972697269726972608008A110A12352795
:101C40008A150A12972663260830BB00871587116C
:101C5000BB0B262E8A110A123E278A150A12103053
:101C6000BB0087150310071A03148711F50CF40C39
:101C7000BB0B312E97268A110A1235278A150A12B4
:101C8000831603137508A2007408A10083120313BE
:101C900008000430BB000310E50CE40CE30CBB0BA4
:101CA0004B2E0F30E505F030E3050800871287154D
:101CB0008711871287158711871287158711871259
:101CC00087158711702E871687158711871287153C
:101CD00087118712871587118712871587110800CA
:101CE0000830BB00E30C871203188716871587118D
:101CF000BB0B722EE30C871200000830BB00E40C13
:101D000087120318871687158711BB0B7F2EE40CEB
:101D1000871200000830BB00E50C871203188716F5
:101D200087158711BB0B8C2EE50C87120800E50187
:101D3000E401E301562608007B08E5007A08E40088
:101D4000E30149262030E5040630E30456268830B6
:101D5000E5003B30E4002630E30056267908E50034
:101D60007808E400E30149262030E5040630E30466
:101D700056268830E5003B30E4001630E300562656
:101D80000800BA30E5000230E4009630E300562641
:101D900097269726972697260800BB30E5001B302C
:101DA000E4008530E3005626972697269726972647
:101DB0000800A030E500B030E4000530E30056260E
:101DC0000800A130E500B030E4000530E3005626FD
:101DD0000800A030E500F030E4000530E3005626AE
:101DE0000800A130E500F030E4000530E30056269D
:101DF00008008A110A12472735278A150A12871602
:101E000087158A110A16F1258A150A128712871179
:101E10008A110A12CB208A150A120B1D0D2FFF30D2
:101E2000E6000000E60B112F08008A110A121D2798
:101E30008A150A120800FC3081000B11071A232FA3
:101E40000B1D1E2F322F7F3081000B11071E2B2FF1
:101E50000B1D262F322FFF3081000B110B1D2E2F53
:101E60000030332FFF3008008A110A1235278A15F7
:101E70000A120830BB00E40D871203188716871575
:101E800000008711BB0B3B2FE40D871200000830C8
:101E9000BB00E30D87120318871687150000871112
:101EA000BB0B492FE30D871200000330E600000052
:101EB000E60B572F08001030BB0087150310071AD8
:101EC00003148711F40DF50DBB0B5D2F0830E600F0
:101ED0000000E60B682F08005B271330E6000000C7
:101EE000E60B6F2F831203137408E7007508E800F0
:101EF0005B27831203137408E9007508EA00E81AE7
:0C1F0000822F832F00000800080008005A
:102000008A150A1223216521082158218A110A16EE
:1020100008008A110A12BA268A110A1676301E02A0
:10202000031C7F2813288A150A1223218A110A16F5
:102030008A150A1265218A110A16F830FA00003052
:10204000F9000630F8008A150A127025D5238A1186
:102050000A1683160313220883120313F600313085
:1020600076060319662883160313220883120313C6
:10207000F60033307606031966283E288A150A12C0
:1020800043258A110A160230DA00F830FA000030CF
:10209000F9000630F8008A150A1294258A110A16EA
:1020A0008A150A1201238A110A168A150A120923AF
:1020B0008A110A168A150A12B4258A110A168A1577
:1020C0000A1204268A110A16DA0B45288312031312
:1020D0000030FB008030FA000030F9008030F8005A
:1020E0008A150A129C26E924B42504268A110A16A8
:1020F000F6208A150A1258218A110A1608000230A1
:10210000DA008A150A124325942501230923B425F0
:1021100004268A110A16DA0B81280130FE0080306D
:10212000FD000030FC00F801F901FA01FB0140302C
:10213000DD002623003A0319BD288A150A124A2118
:1021400065219C268A110A164030F807031CB42822
:102150000130F907031CB4280130FA07031CB42826
:102160000130FB07031CB4288A150A120725B42581
:10217000042658218A110A169928F6207F30FA0081
:10218000F030F9000030F800FF01FE010F30FD00D3
:10219000FF30FC000F30DD002623003A0319F02841
:1021A0008A150A12232165219C268A110A162030DD
:1021B000F807031CE7280130F907031CE728013062
:1021C000FA07031CE7280130FB07031CE7288A15E0
:1021D0000A12F824B425042658218A110A16CC289C
:1021E0008A150A1258218A110A1608008030FA004E
:1021F0000030F9000030F800FF01FE010630FD005C
:102200000030FC004030DD002623003A0319282965
:102210008A150A124A2165219C268A110A16403025
:10222000F807031C1F290130F907031C1F2901307F
:10223000FA07031C1F290130FB07031C1F298A15FD
:102240000A120725B425042658218A110A160429E2
:10225000080008008A110A12BA268A110A16763076
:102260001E02031CBE2834298A150A122321652167
:10227000B425042658218A110A1608008A150A1264
:1022800023216521B425042658218A110A16080045
:102290008A110A12BA268A110A1676301E02031C07
:1022A000F62852298A150A12232165218A110A1655
:1022B000F6208A150A1258218A110A160800831777
:1022C0001030840001308000840A06308000840AC7
:1022D0000230800008008317103084000A3080002C
:1022E000080071130130DD008A150A1223216521CF
:1022F000432594258A110A162623003A03199B299F
:102300008A150A12432594258A110A168A110A127F
:102310004525F4004525F5008A110A168A150A128A
:102320000022EE22B42504268A110A160230F8078C
:102330000318F90A7C298A150A1258218A110A16EB
:102340000800C1080319B1298A150A12F9260020CC
:102350008A110A1668258A150A1215278A110A1683
:10236000080071138A150A1223216521612594251D
:102370008A110A16DC0141235B08003A0319E3299C
:102380008A150A12612594258A110A161030DC007C
:102390000430DA0013248A150A120D22BA228A1197
:1023A0000A16DC03DC03DC03DC03DA0BCA298A151A
:1023B0000A12B425042665218A110A162030F8076E
:1023C0000318F90ABC29DC080319052A831603132C
:1023D000FF30A500A400A800A700AB00AA00AE0033
:1023E000AD00031383128A150A120D22BA228A1134
:1023F0000A16DC03DC03DC03DC03031DE3298A1576
:102400000A12B42504268A110A168A150A125821BE
:102410008A110A16080071130430DD008A150A12A9
:10242000232165218A110A168A150A1265218A114B
:102430000A162623003A03191E2A142A8A150A129C
:1024400058218A110A160800C1080319342A8A156E
:102450000A12F92600208A110A16A4258A150A12E2
:1024600015278A110A16080071138A150A122321EA
:102470006521252594258A110A16DC014123203087
:10248000DC000830DA005B08003A0319662A8A1576
:102490000A12252594258A110A1664248A150A121F
:1024A000712156228A110A16DC03DC03DC03DC03EB
:1024B0000830F8070318F90ADA0B432A8A150A12BA
:1024C000B425042665218A110A163F2ADC0803195F
:1024D0008C2A83160313FF30A300A500A400A600D6
:1024E000A800A700A900AB00AA00AC00AE00AD0098
:1024F000031383128A150A12712156228A110A16B1
:10250000DC03DC03DC03DC03031D662A8A150A12E4
:10251000B42504268A110A168A150A1258218A112E
:102520000A16080071138A150A12232165218A11DF
:102530000A1641238A150A1265218A110A165B08B8
:10254000003A0319AD2A8A150A127025D5238A117B
:102550000A16C524F80AF80A9A2A8A150A12582176
:102560008A110A160800C1080319C32A8A150A121B
:10257000F92600208A110A164A258A150A121527FB
:102580008A110A16080071138A150A12232165217F
:1025900070258A110A1641235B08003A0319E12AC3
:1025A0008A150A12F02394238A110A16C2238A1567
:1025B0000A1265218A110A160430F8070318F90A6D
:1025C000CC2A8A150A1258218A110A160800C10855
:1025D0000319F72A8A150A12F92600208A110A1609
:1025E000EB248A150A1215278A110A16080071139E
:1025F0008A150A122321652170258A110A164123A2
:102600005B08003A03191E2B8A150A127025242430
:1026100033238A110A1661238A150A1265218A1149
:102620000A160830F807031C1D2B0130F907031C9C
:102630001D2B0130FA07031C1D2B002B8A150A12D3
:1026400058218A110A160800342208008A110A1635
:10265000FF08031D342BFE08031D342BFD08031D4A
:10266000342BFC08031900345D08FC020318402BCE
:102670000130FD020318402BFE020318402BFF021D
:10268000FF348A110A16FF08031D522BFE08031D92
:10269000522BFD08031D522BFC08031D522B00304A
:1026A000DB0008000130FC0203185E2B0130FD0244
:1026B00003185E2BFE0203185E2BFF02FF30DB00C7
:1026C0000800831603132408F4002508F5002308E6
:1026D000F300831203138A110A1274083D2575084A
:1026E0003D2573083D258A110A1641235B08003AEF
:1026F0000319C12B831603132708F4002808F500DB
:102700002608F300831203138A110A1274083D2568
:1027100075083D2573083D258A110A1641235B087B
:10272000003A0319C12B831603132A08F4002B085F
:10273000F5002908F300831203138A110A127408A2
:102740003D2575083D2573083D258A110A1641234C
:102750005B08003A0319C12B831603132D08F400FC
:102760002E08F5002C08F300831203138A110A12B5
:1027700074083D2575083D2573083D258A110A1604
:1027800041230800831603132508F5002408F400EC
:10279000831203138A110A1274083D2575083D251A
:1027A0008A110A1641235B08003A0319122C83167A
:1027B00003132808F5002708F400831203138A1175
:1027C0000A1274083D2575083D258A110A16412311
:1027D0005B08003A0319122C831603132B08F5002B
:1027E0002A08F400831203138A110A1274083D2583
:1027F00075083D258A110A1641235B08003A031922
:10280000122C831603132E08F5002D08F4008312F2
:1028100003138A110A1274083D2575083D258A1193
:102820000A16412308008A110A124525F40045259D
:10283000F5008A110A16831603137408A40075089C
:10284000A5008312031341235B08003A0319632C8C
:102850008A110A124525F4004525F5008A110A1649
:10286000831603137408A7007508A80083120313C6
:1028700041235B08003A0319632C8A110A1245258B
:10288000F4004525F5008A110A168316031374080F
:10289000AA007508AB008312031341235B08003ABA
:1028A0000319632C8A110A124525F4004525F50009
:1028B0008A110A16831603137408AD007508AE005A
:1028C00083120313412308008A110A124525F400DC
:1028D0004525F5004525F3008A110A1683160313D2
:1028E0007408A4007508A5007308A30083120313DD
:1028F00041235B08003A0319C42C8A110A124525AA
:10290000F4004525F5004525F3008A110A168316C3
:1029100003137408A7007508A8007308A6008312A3
:10292000031341235B08003A0319C42C8A110A12CD
:102930004525F4004525F5004525F3008A110A16C2
:10294000831603137408AA007508AB007308A90066
:102950008312031341235B08003A0319C42C8A1124
:102960000A124525F4004525F5004525F3008A1196
:102970000A16831603137408AD007508AE007308B9
:10298000AC008312031341230800831603132108AC
:10299000F4002208F5008312031374088A110A1246
:1029A0003D258A110A1675088A110A123D258A11D9
:1029B0000A1641230800033403340234023402347B
:1029C00002340130DE0008000230DE000800023070
:1029D000DE00080000348A150A1226208A110A1621
:1029E00041235B08003A0319F82CF9242125F12C26
:1029F00008008A150A125B278A110A168316031328
:102A00007408A4007508A500831203138A150A121E
:102A10005B278A110A16831603137408A30075082E
:102A2000A600831203138A150A125B278A110A165D
:102A3000831603137408A7007508A80083120313F4
:102A40000800831603138A110A12240883123D25F5
:102A500083160313250883123D25831603132308C9
:102A600083123D258A110A164123831603138A1106
:102A70000A12270883123D258316031328088312A0
:102A80003D2583160313260883123D258A110A1655
:102A9000412308008A150A120C208A110A164123C4
:102AA0005B08003A03195C2D8A150A125B278A110C
:102AB0000A165D254123502D0800831203138A1145
:102AC0000A1274083D2575083D258A110A1608006A
:102AD0001030DD002623003A0319832D2030DA0060
:102AE000842580308A150A1278203C208A110A1623
:102AF00091258A150A12AA208A110A162030F80791
:102B00000318F90A6A2D08008317103084008A110F
:102B10000A1245258A110A168000840ADA0B872DCD
:102B200008008317103084001030DA000008E3003A
:102B3000840A0008E400840A8A150A1234278A11DC
:102B40000A16DA0B962D08002030DD002623003A05
:102B50000319C12D6030DA00842590308A150A12DD
:102B600078204C208A110A16C2258A150A12AA203A
:102B70008A110A164030F8070318F90A0319FA0AED
:102B8000A62D08008317103084001030DA00CB2502
:102B9000DA0BC72D08000008E300840A0008E400EF
:102BA0008A150A1234278A110A16840A0008E300DB
:102BB000840A840A840A0008E4008A150A12342769
:102BC0008A110A16840384030008E300840A0008BB
:102BD000E4008A150A1234278A110A16840A840A24
:102BE0000800031383120708D3005315D31453109E
:102BF000530887007214F2107211F2118A110A122E
:102C0000CB208A110A160B1D032E08007130DF003D
:102C10009630E100A930E0008A110A126D278A116E
:102C20000A160800F801F901FA01FB018A150A12D7
:102C300023218A110A168A150A1265218A110A1699
:102C40008A150A129C268A110A168A150A12B220BF
:102C50008A110A168A150A12B4258A110A168A15CB
:102C60000A1204268A110A168A150A1258218A1194
:102C70000A1608000130DD000330DE0008000334CE
:042C80000334080011
:103000000313831600309400831294120800831275
:1030100003130130570603196228023057060319BB
:103020006E28033057060319752804305706031914
:1030300087280530570603199928063057060319C3
:10304000A528073057060319BC290830570603196D
:10305000BC29093057060319C9280A305706031935
:10306000DB280B3057060319ED280C3057060319DF
:10307000F3280D305706031931290E30570603196E
:103080006B29183057060319782919305706031988
:1030900085291A305706031987291B30570603194B
:1030A00089291C30570603198A291D305706031930
:1030B0009C291E3057060319AE291F3057060319E5
:1030C000AE290800CA2171186D28412283171030DB
:1030D000840058088000831203130800CA21711865
:1030E00074280330D4000B220800CA2171188628E6
:1030F0008A110A16DD24D4008A150A1615228A11AF
:103100000A16DE24D4008A150A162B220800CA21CA
:10311000711898288A110A16DD24D4008A150A1617
:1031200015228A110A16DE24D4008A150A162B22CB
:103130000800CA217118A4288A150A16D40015227D
:103140008A150A16D4002B220800CA217118B0284B
:103150008A150A16D40015228A150A16D4002B22C5
:103160000800CA217118BC288A150A16D400152235
:103170008A150A16D4002B220800CA217118C82803
:103180008A150A16D40015228A150A16D4002B2295
:103190000800CA217118DA288A110A16DB24D40023
:1031A0008A150A1615228A110A16DC24D4008A15FB
:1031B0000A162B220800CA217118EC288A110A1657
:1031C000DB24D4008A150A1615228A110A16DC247B
:1031D000D4008A150A162B220800CA21D901721BB5
:1031E000D90A69220800F110831203137C08D90060
:1031F0006922F119F1147D08D9006922F119F1143D
:103200007E08D9006922F119F1147808D9006922E1
:10321000F119F1147908D9006922F119F1147A0829
:10322000D9006922F119F1141E298A110A124525C3
:103230008A150A16D9006922F119F114FE08031D36
:103240002729FD08031D2729FC080319302901300F
:10325000FC0203181529FD0203181529FE02152981
:103260000800CA2171186A298A110A16DC24D400C0
:103270008A150A168317103084008001840A8001A1
:10328000840A8001840A80010B2283171030840095
:10329000840A840A840A0008D600103084000008DA
:1032A000840A840A840A8000103084005608800052
:1032B000831710308400840A840A0008D600103076
:1032C0008400840A0008840A800010308400840A84
:1032D000560880000800CA21711877297808D9009B
:1032E00069227908D90069227A08D9006922080080
:1032F000CA21711884297808D90069227C08D9006C
:1033000069227D08D90069220800CA210800CA2163
:1033100008000800CA2171189B298A110A16DF24A7
:10332000D4008A150A1615228A110A16E024D40040
:103330008A150A162B220800CA217118EC288A1156
:103340000A16DF24D4008A150A1615228A110A16D5
:10335000E024D4008A150A162B220800CA2171180D
:10336000BB290330D4008A150A1615220230D40076
:103370008A150A162B220800CA217118C92904309F
:10338000D4008A150A1615220430D4008A150A16AC
:103390002B22080071105708D9006922F11A711404
:1033A000FF30D8004122711A711458085902031DC8
:1033B0007114D808031DDE297114412208008A11F6
:1033C0000A1626238A150A16003A0319F5295E08FB
:1033D000D4004122711AF52958088A110A123D2594
:1033E0008A150A16D40BE929DF2908008A110A1662
:1033F00026238A150A16003A03190A2A5E08D40001
:103400008A110A1245258A150A16D9006922D40B99
:10341000002AF6290800831710308400412258083A
:103420008000840AD40B0E2A08007808D90069228B
:10343000D40303192A2A7908D9006922D40303196D
:103440002A2A7A08D9006922D40303192A2A7B0878
:10345000D900692208007C08D9006922D403031925
:10346000402A7D08D9006922D4030319402A7E0826
:10347000D9006922D4030319402A7F08D9006922A0
:10348000080071129122F119612A8A110A123E274D
:103490008A150A1693012530940094168C110A306F
:1034A000D5008A110A12D1208A150A160B195B2A37
:1034B0008C1D562A5E2AD50B512A612A1308D80082
:1034C000622A711687128A110A1235278A150A167E
:1034D00008009122F119822AF112253094009416E5
:1034E0008C11590893000A30D5008A110A12D12094
:1034F0008A150A160B197F2A8C1D7A2A832AD50B66
:10350000752A822AF1168A110A12CB208A150A1608
:103510000B1D882A87128A110A1235278A150A1666
:103520000800F1118A110A124F2787128A110A1214
:1035300035278A150A166430D5008A110A12D1205F
:103540008A150A160B19A72A871DA22AAA2AD50BA3
:103550009D2ABC2A8A110A12C8208A150A160B1D38
:10356000AF2A87168A110A12D1208A150A160B195A
:10357000BC2A8719B72ABD2AF11508008A110A1238
:103580004F273E278A150A16D801071EC52A871D10
:10359000C72A0830D500871DCB2A8719CD2A0310EA
:1035A000071A0314D80DD50BCB2A871DD52A8719E6
:1035B000D72AFE228A110A1247278A150A1687156A
:1035C000000000000000000087118A110A124F2736
:1035D0003E278A150A1608008A110A12D1208A1578
:1035E0000A16042B8A110A12CE208A150A16042BF9
:1035F0008A110A12CB208A150A16042B8A110A1284
:0E360000C8208A150A16042B0B1D042B080087
:02360E00003486
:02361000003484
:00000001FF
