:020000040000FA
:040008000800C72EF7
:100020008A150A1600208A110A12C820F012F2124C
:10003000F217DC01DD018611701183120313F80140
:10004000F901FA01FB01FC01FD01FE01FF01203075
:100050008400D826A000243020020319472A3C300F
:100060002002031D2928840AE7010230D900D8267E
:10007000E70720228000840AD90B37282208E600EF
:10008000210EE60406306602D900D826E7072022B2
:100090008000840AD90B45280230D900D8262022B6
:1000A0008000840AD90B4E28D826D8003E3058024A
:1000B000031D812884030008D8008403000ED8049F
:1000C00067085802031D8A2883132430840000081F
:1000D000E8008403000EE804E80803197E284E3087
:1000E000680203187E2806118615903068070730CD
:1000F0000318013E8A00680890271B280030DB00A7
:1001000099280130DB0099280230DB009928033060
:10011000DB0099280430DB0099280530DB009928A2
:100120000630DB0099280730DB0099280830DB0017
:1001300099280A30E6000030E80083171030840068
:100140005B0880000615701527271B2841346C3486
:100150006C34203459346F34753472342034423462
:10016000613473346534203441347234653420345E
:10017000423465346C346F346E3467342034543414
:080180006F3420345534733450
:100190008316D0308700A00005148514851504301F
:1001A0009F00831280309F00B4218030D1006121F4
:1001B00008007208D000C0218A110A16CD228A11C7
:1001C0000A1283120317103084004221FE20840A91
:1001D00042210A21840A42211621840A42211F2138
:1001E000840A2C215008F20072188E21F218A121E5
:1001F0007219B421F219C021861108000313831269
:1002000051212E301E02031C3A295D301E020318B4
:100210003E2942290313831255214C081E02031C58
:100220003A294E081E0203183E294229031383125D
:10023000B4214D2124301E0203183E294229031304
:100240008312A12151212E301E02031C3A295D3058
:100250001E0203183E294229031383128E214D21C9
:10026000B4214C081E02031C3A294E081E02031832
:100270003E2942298317013080000800831780300F
:1002800080000800831700308000080083171030BA
:10029000840000308317800008009F121F129F11F6
:1002A00059299F121F129F1559299F121F169F151A
:1002B0005929FC211F14FC211F151F195D291F102E
:1002C000080086101130CF006D215108CF006D213C
:1002D000861418220B1D6A2908000830D700CF0D9C
:1002E000031C74298617752986130000000000007E
:1002F0000000061700000000000000000613D70BE6
:100300006F2908008614061786170800861406173A
:100310008613080086140617861308000708D30002
:100320005315D3145310530887007214F21072112E
:10033000F2118A110A121B228A110A120B1D9E2920
:1003400008000708D3005315D3105314530887002F
:100350007210F2147211F2118A110A121B228A1100
:100360000A120B1DB12908000708D3005311D3143A
:100370005314530887007210F2107215F21108001E
:100380000708D3005315D314531453088700721071
:10039000F2107211F2150800941283162016A012A2
:1003A00020088700831285160800941283162016F1
:1003B000A016200887008312851208009412831665
:1003C000A0112008870083120515080094128316D7
:1003D000A01520088700831205110800051281016D
:1003E0000B110B1DF12972120800051681010B116A
:1003F0000B1DF82972160800D601D60BFD2908003E
:100400000030D2005208D10061218E214D21B4214B
:100410004D081E020318112AD20F022A0030D10003
:1004200061210800F63081001E2AEC3081001E2A6E
:10043000D83081001E2A3D3081001E2A0B11080091
:10044000F700F6000F30F6054730770203182E2A22
:1004500041307702031C2E2A0930F607760808007F
:10046000D400D500F030D505550E3C22D5000F3014
:1004700054053C22D4000800F6000A307602031C22
:10048000442A37307607462A303076070800053090
:10049000D90021308400D8268000840AD90B4B2A49
:1004A000D8000D305802031D7E283030D52632305A
:1004B000D5261B280E30E6000130E8008A110A1606
:1004C00000208A110A127015272708001230E60052
:1004D0000230E800D9207015272708000E30E6000A
:1004E0000430E80070150230EC008A150A16072067
:1004F0008A110A12711C7F2ABF25DB004426701561
:10050000272708000830E6000530E8008313260896
:10051000D800250ED804D80803198F2A912AF5216E
:10052000922AEE21272708000830E6000630E8006E
:100530002608DE00250EDE042808DF00270EDF0473
:100540002908E0002A0EE004272708000A30E60008
:100550000730E8008A110A160E208A110A12701557
:10056000272708000A30E6000830E8004621701509
:10057000272708000830E6000930E8002608DD00DB
:10058000250EDD04272708000830E6000A30E800C1
:100590002608D800250ED804F212D8080319D12A4B
:1005A000F216272708000830E6000B30E80026087E
:1005B000D800250ED804D808031DE72ADF2AF21731
:1005C0008A110A1658238A110A12F217EE2AF21714
:1005D0008A110A1658238A110A12F21327270800D3
:1005E0000830E6000C30E8002608D800250ED804B4
:1005F0007213D808031DFD2A72170B30EC008A1500
:100600000A1607208A110A12272708000800080086
:1006100083120313F016061008000830E6001230AB
:10062000E800272708000830E6001330E8008313AD
:100630002608E100250EE10483132808E200270EB6
:10064000E2048A110A1658238A110A122727080081
:100650000830E6001B30E8008A110A16C4228A110D
:100660000A120430EC00F12508000830E6001E30C4
:10067000E8008A110A16C4228A110A120330EC001B
:10068000CE2508000830E6002330E8008A110A165B
:10069000CA228A110A121C30EC00CE25080008304C
:1006A000E6002430E8008A110A16CA228A110A12CA
:1006B0001D30EC00F12508000830E6002530E80088
:1006C00027278A110A1658238A110A1208000830AF
:1006D000E6002630E8008A110A16A3228A110A12BF
:1006E000272708000830E6002730E8008A110A169C
:1006F000A2228A110A12272708000830E6002830B3
:10070000E8008A110A1658238A110A122727B12DE8
:100710000830E6002930E8008A110A16F9218A110A
:100720000A12272708000830E6002A30E800831361
:100730002608DA00250EDA048A110A16CD228A115B
:100740000A12272708000830E6002B30E8002608A8
:10075000D800250ED804003058020319BA2B0130F6
:1007600058020319CE2B023058020319B82BE12B83
:10077000B421E12BB421C326A121C326E621871988
:10078000E12BDE2187158711E6211B228719E12B3A
:100790000B1DC62B0730DB004426E12BB421C326FA
:1007A000A121DE2187158711E6211930EC008A1579
:1007B0000A1607208A110A12711CE12BBF25DB00E3
:1007C0004426272708000A30E6002C30E800F218FB
:1007D000F12B7219EF2B0030E8000330FF2B0230B1
:1007E000FF2BE621871DFD2B5030D900871DFD2BE7
:1007F000D903031DF62B0030FF2B0130FF2BD8004F
:10080000831710308400831203135808800070157A
:1008100027270800B421C326A1210830E6002D3087
:10082000E800272708000830E6002E30E80087118E
:10083000DE218711D521071E232C8A150A169A223C
:100840008A110A121A2C8715BF26BF268711E621A6
:10085000272708000830E6002F30E8001A30EC00A7
:10086000AF2E0830E6003030E8001930EC00AF2E33
:100870000830E6003130E80050268A110A16582365
:100880008A110A12572608000830E6003230E800C4
:100890006C268A110A1658238A110A127826080033
:1008A0000830E6003330E8002608D800250ED804CA
:1008B00000305802031D5E2CB4216D2C013058020B
:1008C000031D642CA1216D2C02305802031D6A2CDB
:1008D0008E216D2C0630DB004426272708000A30C5
:1008E000E6003430E8008317103084005121831271
:1008F00003131E088312031780008312031370155D
:10090000272708000A30E6003530E800831710304A
:1009100084008E214D21B421831203131E088312FB
:1009200003178000831203137015272708000A306D
:10093000E6003730E8008317103084005521831219
:1009400003131E088312031780008312031370150C
:10095000272708000830E6003930E8006C268A15A1
:100960000A16EB208A110A12F11CB92C70160730F6
:10097000DB00782608000830E6003B30E800250858
:10098000D800013058020319C92C0630DB00442678
:10099000D32C8A110A1658238A110A12711DD32CDE
:1009A0000730DB004426272708000830E6003C30EB
:1009B000E800F801F901FA01FB01FC01FD01FE016B
:1009C000FF018A150A16EB208A110A12E621871DFB
:1009D000E62CED2C0730DB004426272708001030DA
:1009E000E6003D30E80070150D30EC00AF2E083009
:1009F000E6003E30E80050268A110A1658238A1174
:100A00000A1257268A110A1208000830E6003F3001
:100A1000E8006C268A110A1658238A110A127826D1
:100A200008000830E6004030E80050268A110A1617
:100A300072218A110A12572608000830E600413058
:100A4000E8006C268A110A1610218A110A127826EB
:100A500008000830E6004230E80022268A110A1613
:100A6000B5228A110A12272708000830E600433011
:100A7000E8006C268A110A1616208A110A127826B6
:100A800008000830E6004430E8006C268A110A1697
:100A9000D0208A110A12782608000830E600453076
:100AA000E8006C268A110A1635218A110A12782666
:100AB00008000830E6004630E8006C268A110A1665
:100AC00010218A110A12782608000830E600473003
:100AD000E80050268A110A1672218A110A12572636
:100AE0008A110A1208000830E6004830E800502653
:100AF0008A110A1696218A110A1257260800083010
:100B0000E6004930E80050268A110A1672218A113F
:100B10000A12572608000830E6004A30E80050263E
:100B20008A110A1672218A110A1257260800083003
:100B3000E6004B30E8002608DC00250EDC04272701
:100B400008000830E6004C30E8002727C326782745
:100B500008000830E6004D30E8002727C326842728
:100B600008000030DB000A30E6000030E8008317A0
:100B7000103084005B088000701527270800F11DE5
:100B8000C32D0930CD2D711EC72D1030CD2D711FF5
:100B9000CB2D1130CD2D0830CD2D080022268A1501
:100BA0000A1607208A110A12711CDA2D0730DB00A1
:100BB0004426EF2D2727BB267B30D526BB26E70111
:100BC0008A150A16BB218A110A12670830225508B5
:100BD000D5265408D526BB267D30D526BB2627270B
:100BE000080022268A150A1607208A110A12711C8B
:100BF000FD2D0730DB004426202E2727D8267B3CFE
:100C00000319062E0130DB004426202EE7018A1549
:100C10000A16D2218A110A12D8262022D800D80E0C
:100C2000D8262022580467020319192E0430DB004D
:100C30007016D8267D3C0319202E0130DB00442697
:100C40002727080083132C08F8002B0EF8042A0825
:100C5000F900290EF9042808FA00270EFA042608DC
:100C6000FB00250EFB043408FC00330EFC043208A4
:100C7000FD00310EFD043008FE002F0EFE042E088C
:100C8000FF002D0EFF0408000A30E6000030E800E7
:100C900070158317103084005B088000061508006B
:100CA00022262727BB267B30D526E70108006708C8
:100CB00030225508D5265408D5267D30D5266A2EF3
:100CC0000A30E6000030E800701583171030840009
:100CD0005B08800027270800701222262727D826C5
:100CE0007B3C0319762E0130DB007016E70108000B
:100CF000D8262022D800D80ED826202258046702F1
:100D00000319852E0430DB007016D8267D3C0319AC
:100D10008C2E0130DB00701603138312701E9A2E86
:100D20000A30E6000030E8007015831710308400A8
:100D30005B0880002727080030225508E707D526E2
:100D40005408E707D5260800D826E7072022D50053
:100D5000D50ED826E7072022D504550808008A15A5
:100D60000A1607208A110A12711CB92E0730DB00FF
:100D700044262727080012220B1DBC2E080018222B
:100D80000B1DC02E08001B220B1DC42E0800F300F3
:100D9000030E8301F5000A08F4008A0174088A0032
:100DA000750E8300F30E730E0900F01CE92E0E2F52
:100DB000F01CDB2EF72E83120313F01AE72E061415
:100DC0008316891BE42EE12E8312061008080610F4
:100DD0000800F01AF62E83128C138800061483166E
:100DE000091BF02E83128C1FF32E061008008312AD
:100DF00003138C1AFF2E86128C1AFF2EFC2E1A0853
:100E0000092F1819072F9818072F0301092F1812F7
:100E100018168616D601D60B0B2F0800E5000C1EFF
:100E20000F2F650899008316981C142F182F831212
:100E30008312080004306602E3008313213084002B
:100E4000E7010008E707840AE30B212F080083135A
:100E5000203084005B308000840A66083022550808
:100E60008000840A54088000840A680830225508EB
:100E70008000840A54088000840A701D5C2F0830AA
:100E80006602E3000310E30C2530E4008317103002
:100E9000F700831777088400000830228313640862
:100EA000840055088000E40A840A54088000E40A9B
:100EB0008317F70AE30B492F1A2703306602F6005F
:100EC0002030760784006708302255088000840AA5
:100ED00054088000840A5D3080006608E3008313B4
:100EE000203084000008D526840AE30B722F080006
:100EF000831203138616831640309900831218124A
:100F00001A081A0818160800831203138616831687
:100F100015309900831218121A081A0818160800BA
:100F2000820700005A2A662AB12D6E2A822A942A44
:100F3000A62AB22ABA2AC42AD32AF02AB12D062B0D
:100F4000072BB12D082B0D2B132BB12DB12DB12D4E
:100F5000B12DB12DB12DB12D282BB12DB12D352BAA
:100F6000B12DB12DB12DB12D422B4F2B5C2B672B09
:100F7000722B7D2B882B932BA32BE32B0A2C132C6A
:100F80002A2C312C382C442C502C6F2C822CB12D37
:100F9000972CB12DAA2CB12DBB2CD52CEF2CF72CD6
:100FA000052D112D1D2D292D352D412D4D2D592D61
:100FB000652D732D7F2D8B2D972DA12DA92DB12D55
:040FC000B12D080047
:1012000094128A110A16A4228A150A12C3250030E4
:10121000EE00D3248A110A12D5218A150A12083049
:10122000D700871503100000871A03148711C00C1C
:10123000D70B11298A110A16A4228A150A12C3256E
:101240000030EE00D3248A110A12D5218A150A1221
:101250000830D700871503100000871A0314871180
:10126000C10CD70B2A298A110A16A4228A150A1240
:1012700008008A110A16DB21BE008A150A123226DE
:101280003E08EE00D3243E08EE00D32487128715D3
:10129000000000000000871100000000000087121D
:1012A000871500000000000087110000000000000A
:1012B0008712871500000000000087110000000061
:1012C0000000871287157C268711FF30D600D60BC9
:1012D0006729EE01D324EE01D324C20A22258A1104
:1012E0000A16DB21BE008A150A1232263E08EE00DD
:1012F000D3243E08EE00D324871287150000000097
:101300000000871100000000000087128715000010
:101310000000000087110000000000008712871500
:10132000000000000000871100000000000087128C
:1013300087157C268711FF30D600D60B9D29EE013C
:10134000D324EE01D324C20A08008E305A060319B2
:10135000422A91305A060319F82908000330B900CF
:101360008A110A16DB21BE00DB21BF008A150A1292
:101370000D263E08EE00D3243F08EE00D324B90B1F
:10138000B0298A110A16DB21BE00DB21BF008A15B5
:101390000A1232263E08EE00D3243F08EE00D32482
:1013A0008712871500000000000087110000000070
:1013B0000000871287150000000000008711000060
:1013C0000000000087128715000000000000871150
:1013D0000000000000008712871574268711FF3077
:1013E000D600D60BF129EE01D324EE01D324080058
:1013F0000F30B9008A110A16DB21BE00DB21BF00C5
:101400008A150A120D263E08EE00D3243F08EE008E
:10141000D324B90BFA298A110A16DB21BE00DB217D
:10142000BF008A150A1232263E08EE00D3243F0878
:10143000EE00D324871287150000000000008711FA
:101440000000000000008712871500000000000067
:1014500087110000000000008712871500000000BF
:101460000000871100000000000087128715742615
:101470008711FF30D600D60B3B2AEE01D324EE01B4
:10148000D32408001F30B9008A110A16DB21BE00E0
:10149000DB21BF008A150A120D263E08EE00D32478
:1014A0003F08EE00D324B90B442A8A110A16DB2127
:1014B000BE00DB21BF008A150A1232263E08EE006C
:1014C000D3243F08EE00D3248712871500000000C4
:1014D000000087110000000000008712871500003F
:1014E000000000008711000000000000871287152F
:1014F00000000000000087110000000000008712BB
:10150000871574268711FF30D600D60B852AEE0189
:10151000D324EE01D32408001F30B9008A110A1623
:10152000DB21BE00DB21BF008A150A120D263E0812
:10153000EE00D3243F08EE00D324B90B8E2A8A1183
:101540000A16DB21BE00DB21BF008A150A12E8253E
:101550003E08EE00D3243F08EE00D32408001F30DD
:10156000B9008A110A16DB21BE00DB21BF008A15F3
:101570000A120D263E08EE00D3243F08EE00D324C5
:10158000B90BB12A8A110A16DB21BE00DB21BF008C
:101590008A150A1232263E08EE00D3243F08EE00D8
:1015A000D324871287150000000000008711000077
:1015B000000000008712871500000000000087115E
:1015C00000000000000087128715000000000000E6
:1015D000871100000000000087128715742687110C
:1015E000FF30D600D60BF22AEE01D324EE01D3242D
:1015F00008007925EE01D324EE01D32479258A1140
:101600000A121B228A150A120B1D042BB901B90BF1
:10161000072BEE01D324EE01D32408000330B900D8
:101620008A110A16DB21BE00DB21BF008A150A12CF
:101630000D263E08EE00D3243F08EE00D324B90B5C
:10164000102B8A110A16DB21BE00DB21BF008A1590
:101650000A1232263E08EE00D3243F08EE00D324BF
:1016600087128715000000000000871100000000AD
:10167000000087128715000000000000871100009D
:10168000000000008712871500000000000087118D
:101690000000000000008712871574268711FF30B4
:1016A000D600D60B512BEE01D324EE01D324080033
:1016B0008A110A16DB21BE00DB21BF008A150A123F
:1016C0000730B9000D263E08EE00D3243F08EE0097
:1016D000D324B90B582B8A110A16DB21BE00DB215B
:1016E000BF008A150A1232263E08EE00D3243F08B6
:1016F000EE00D32487128715000000000000871138
:1017000000000000000087128715000000000000A4
:1017100087110000000000008712871500000000FC
:101720000000871100000000000087128715742652
:101730008711FF30D600D60B9B2BEE01D324EE0190
:10174000D32408008A110A16DB21BE00DB21BF006A
:101750008A150A1232263E08EE00D3243F08EE0016
:10176000D3248712871500000000000087110000B5
:10177000000000008712871500000000000087119C
:101780000000000000008712871500000000000024
:10179000871100000000000087128715742687114A
:1017A000EE01D324EE01D324FF30D600D60BD62B86
:1017B000080079257C08EE00D3240E30EE00D324F7
:1017C00079257808EE00D3246E30EE00D32408008B
:1017D000E8254908EE00D3244908EE00D324080088
:1017E000E8254030EE00D3240030EE00D32408007A
:1017F0007925A830EE00D3245030EE00D32479258B
:10180000F530EE00D3246E30EE00D3240824080017
:101810007925EE01D324EE01D324C001C1019E2518
:101820008A110A12D5218A150A120830D7008715A5
:101830000310871A03148711C00CD70B172C08301C
:10184000D700031087150310871A03148711C10CE2
:10185000D70B222C8A110A16A4228A150A12871283
:10186000871108007925A630EE00D3249E30EE00C3
:10187000D3247925A630EE00D3249C30EE00D32467
:10188000080079253E08EE00D3240E30EE00D32464
:101890007925A830EE00D3246E30EE00D324080062
:1018A0007925A630EE00D3248430EE00D32408003E
:1018B0007925A630EE00D3248430EE00D324792598
:1018C000A630EE00D3248830EE00D324080079251A
:1018D000A630EE00D3249430EE00D32408007925FE
:1018E000A630EE00D3248230EE00D3240800792500
:1018F000A630EE00D3248430EE00D3247925A63020
:10190000EE00D3248830EE00D3247925A630EE00F3
:10191000D3248230EE00D324871287150000000004
:1019200000008711000000000000871287150000EA
:1019300000000000871100000000000087128715DA
:101940000000000000008711000000000000871266
:101950008715742674268711FF30D600D60BAE2C5F
:1019600008007925A630EE00D3248230EE00D3247F
:1019700008007925A630EE00D3248030EE00D32471
:1019800008007925A630EE00D3245030EE00D32491
:101990007925F530EE00D3246E30EE00D3240824F0
:1019A000C118C12C08000830F6006E18E52C87120B
:1019B00087150000000000008711000000000000F3
:1019C000F6030319F32CEE0CD52C871687150000AF
:1019D000000000008711000000000000F60303195A
:1019E000F32CEE0CD52CEE0C871208007925A630CE
:1019F000EE00D3248E30EE00D3247925A630EE00FD
:101A0000D3249C30EE00D3247925A630EE00D324D5
:101A10008430EE00D32408007925A630EE00D324CC
:101A20008E30EE00D3247925A630EE00D3248C30FE
:101A3000EE00D3247925A630EE00D3248430EE00C6
:101A4000D324080079254408EE00D3240E30EE009C
:101A5000D3247925F830EE00D3246E30EE00D32461
:101A600079254308EE00D3240E30EE00D3247925E7
:101A7000F730EE00D3246E30EE00D32479254208EF
:101A8000EE00D3240E30EE00D3247925F630EE009C
:101A9000D3246E30EE00D324080079254208EE00EE
:101AA000D3240E30EE00D3247925F630EE00D32473
:101AB0006E30EE00D324080079254208EE00D324CE
:101AC0000E30EE00D3247925A930EE00D3246E30F9
:101AD000EE00D32479254308EE00D3240E30EE0027
:101AE000D3247925AA30EE00D3246E30EE00D3241F
:101AF0000800871287150000000000008711000011
:101B00000000000087128715000000000000871108
:101B10000000000000008712871500000000000090
:101B200087110000000000008712871500000000E8
:101B300000008711000000000000080087128715D0
:101B40000000000000008711000000000000871660
:101B50008715000000000000871100000000000051
:101B600087128715000000000000871100000000A8
:101B70000000871287150000000000008711000098
:101B80000000000008008716871500000000000014
:101B90008711000000000000871287150000000078
:101BA0000000871100000000000087128715000068
:101BB0000000000087110000000000008716871554
:101BC0000000000000008711000000000000080075
:101BD0008712871500000000000087110000000038
:101BE0000000871287150000000000008711000028
:101BF0000000000087168715000000000000871114
:101C0000000000000000871687150000000000009B
:101C100087110000000000000800871687150000EB
:101C200000000000871100000000000087128715E7
:101C3000000000000000871100000000000087166F
:101C40008715000000000000871100000000000060
:101C500087168715000000000000871100000000B3
:101C6000000008008716871500000000000087119B
:101C7000000000000000871687150000000000002B
:101C80008711000000000000871687150000000083
:101C90000000871100000000000087168715000073
:101CA00000000000871100000000000008007925F6
:101CB0005530EE00D3240E30EE00D3247925A73022
:101CC000EE00D3246E30EE00D3247925AA30EE0046
:101CD000D3240E30EE00D3247925A730EE00D32490
:101CE0006E30EE00D32408008A110A1218228A15D9
:101CF0000A120B1D792E08008A110A121B228A155E
:101D00000A120B1D812E08003230F600892E0A308F
:101D1000F600A630F700F70B8B2EF60B892E080085
:0C1D20002830F6008426F60B922E0800F6
:1020000083171030840002308000840A0130800081
:10201000840A0030800083120313080083171030F5
:102020008400103080008312031308008E305A069B
:102030000319692891305A0603194428080004300E
:10204000CB007A08C4007908C3007808C200E721F1
:102050008A150A12F6248A110A16BF21003A0319BA
:1020600042288A150A1222258A110A168A150A128E
:10207000A5218A110A160830C2070318C30A0319DA
:10208000C40A2D28F02108001030CB007A08C400C3
:102090007908C3007808C200E7218A150A12F624DD
:1020A0008A110A16BF21003A031967288A150A12F5
:1020B00022258A110A168A150A12A5218A110A16E2
:1020C0002030C2070318C30A0319C40A5228F0219A
:1020D00008002030CB007A08C4007908C3007808D3
:1020E000C200E7218A150A12F6248A110A16BF21B6
:1020F000003A03198C288A150A1222258A110A1619
:102100008A150A12A5218A110A164030C20703183F
:10211000C30A0319C40A7728F0210800E7218A15A9
:102120000A120C258A110A163C30C4000030C30084
:102130000630C2008A150A1222258A110A168A154B
:102140000A12F0238A110A164030CB007A08C40024
:102150007908C3007808C2008A150A12F6248A1189
:102160000A16BF21003A0319CE288A150A12222521
:10217000AF228A110A164030C2070318C30A031996
:10218000C40A8A150A122225AF228A110A16403083
:10219000C2070318C30A0319C40AB128F0210800B2
:1021A0000130CB007908C3007808C200E7218A1506
:1021B0000A1232248A110A16BF21003A03190E2985
:1021C0008A150A125C258A110A168A110A16DB2161
:1021D0008A110A16BE00BF008A150A1241248A110C
:1021E0000A168A150A1250248A110A168A150A122A
:1021F00057268A110A168A150A126F248A110A169E
:102200008A150A12C1248A110A168A150A1267242D
:102210008A110A16C20FDC28C30ADC28F021080044
:102220000430CB007A08C4007908C3007808C200E3
:10223000E7218A150A12F6248A110A16BF21003AEC
:10224000031933298A150A1222258A110A168A15BA
:102250000A120E238A110A160830C2070318C30A8D
:102260000319C40A1E29F02108000130CB00E72120
:102270007A08C4007908C3007808C2008A150A12D7
:102280000C258A110A168A110A16BF218A110A160C
:10229000003A031956298A150A1222258A110A16AC
:1022A0008A150A1239218A110A164329F0210800D9
:1022B0000130CB007A08C4007908C3007808C20056
:1022C000E7218A150A12F6248A110A168A150A12BB
:1022D00022258A110A168A150A1258238A110A160B
:1022E000F02108000130CB007A08C4007908C3004F
:1022F0007808C200E7218A150A1222258A110A16D7
:10230000BF21003A031994298A150A1200218A1163
:102310000A1640088A110A129C2641088A110A12DC
:102320009C268A110A168029F02108000130CB0072
:102330007A08C4007908C3007808C200E7218A152A
:102340000A1232248A110A16BF21003A0319BD2944
:102350008A150A125C258A110A168A150A12B924EE
:102360008A110A168A150A12F8238A110A164108D8
:10237000E121C20FA429C30AA429F0210800FF0803
:10238000031DCC29FE08031DCC29FD08031DCC2903
:10239000FC08031DCC2900344B08FC020318DA2981
:1023A0000130FD020318DA290130FE020318DA2990
:1023B0000130FF02FF348A110A12A4268A110A167C
:1023C00008008A110A129C268A110A160800A42203
:1023D000871287118A110A128E218A110A160800A3
:1023E000A422871287118A110A12B4218A110A16AF
:1023F000080091305A06031D032A8A110A16272362
:102400008A110A16082A92305A060319342A082A11
:10241000E7213C30C4000030C3000530C2008A15FB
:102420000A1222258A110A160F30C9008A150A12CB
:10243000E8238A110A163C30C4000030C30004307F
:10244000C2008A150A1222258A110A168730C9008D
:102450008A150A12E8238A110A168A150A12F92225
:102460008A110A16F0210800E7212030C400C301B8
:10247000C2018A150A12F6248A110A168A150A124E
:1024800022258A110A168A150A1277248A110A1639
:102490008A150A1222258A110A160430BB008A15F1
:1024A0000A120D26FF30EE00D324FF30EE00D324B5
:1024B0008A110A16BB0B4F2A79250030EE00D3246F
:1024C0000030EE00D324F0210330F6005E08BD009A
:1024D0005F08BC006008BB000310BD0CBC0CBB0C4B
:1024E000F60B6C2AE721C401C301C2018A150A1246
:1024F000F6248A110A168A150A1222258A110A164A
:102500008A150A1277248A110A160830C207031C9A
:102510008F2A0130C307031C8F2A0130C407BD086E
:10252000031D982ABC08031D982ABB080319A02A7A
:102530000130BB0203187B2ABC0203187B2ABD02B0
:10254000F0210800080008008A110A12CC21DE21BF
:102550008A110A1608008A110A12D5218A110A1650
:1025600008000234033402340234A4228712871193
:102570008A110A128E218A110A168A150A12D92383
:102580008A110A16F02108000130CA000800023042
:10259000CA0008000230CA0008003830CC008A3077
:1025A000CD009630CE008A110A1200228A110A1636
:1025B0000800F800C301C201AA3078060319E52A11
:1025C000553078060319EA2A262B0130FD00003029
:1025D000FC00EF2A0430FD000030FC00EF2AE72168
:1025E0008A150A1232248A110A16FF30BE008A1593
:1025F0000A1241248A110A168A150A125C258A11C8
:102600000A168A150A1250248A110A168A150A1205
:1026100057268A110A168A150A126F248A110A1679
:102620008A150A12C1248A110A168A150A12672409
:102630008A110A16C20A0319C30A0130FC02031CDC
:10264000FD037C087D04031DFC2AF0210800E7211E
:102650002030C400C301C2018A150A12F6248A116F
:102660000A168A150A1222258A110A168A150A12D2
:1026700077248A110A168A150A1222258A110A1647
:102680000430BB008A150A120D26FF30EE00D32459
:10269000FF30EE00D3248A110A16BB0B422B79259A
:1026A0000030EE00D3240030EE00D324F0210800E7
:0226B000080020
:103000000313831600309400831294120800831275
:10301000031301306C0603195A2802306C06031999
:10302000662803306C0603196D2804306C060319FA
:103030007F2805306C060319912806306C060319A9
:103040009D2807306C060319A92808306C0603195F
:10305000B52809306C060319C1280A306C0603191B
:10306000D3280B306C060319E5280C306C060319C5
:10307000EB280D306C06031929290E306C06031954
:10308000632918306C060319702919306C0603196E
:103090007D291A306C0603197F291B306C06031931
:1030A00081291C306C06031982291D306C06031916
:1030B00094290800A621711865281D228317103055
:1030C00084006D088000831203130800A621711884
:1030D0006C280330E900E7210800A62171187E283A
:1030E0008A110A16B322E9008A150A16F1218A11FB
:1030F0000A16B422E9008A150A1607220800A6213A
:10310000711890288A110A16B322E9008A150A1646
:10311000F1218A110A16B422E9008A150A1607223B
:103120000800A62171189C288A150A16E900F121C9
:103130008A150A16E90007220800A6217118A82896
:103140008A150A16E900F1218A150A16E9000722F4
:103150000800A6217118B4288A150A16E900F12181
:103160008A150A16E90007220800A6217118C0284E
:103170008A150A16E900F1218A150A16E9000722C4
:103180000800A6217118D2288A110A16B122E90076
:103190008A150A16F1218A110A16B222E9008A1547
:1031A0000A1607220800A6217118E4288A110A16B7
:1031B000B122E9008A150A16F1218A110A16B222F3
:1031C000E9008A150A1607220800A621EE01721BE3
:1031D000EE0A45220800F110831203137C08EE006A
:1031E0004522F119F1147D08EE004522F119F11480
:1031F0007E08EE004522F119F1147808EE00452210
:10320000F119F1147908EE004522F119F1147A0848
:10321000EE004522F119F11416298A110A12A4268A
:103220008A150A16EE004522F119F114FE08031D55
:103230001F29FD08031D1F29FC0803192829013037
:10324000FC0203180D29FD0203180D29FE020D29A9
:103250000800A621711862298A110A16B222E90013
:103260008A150A168317103084008001840A8001B1
:10327000840A8001840A8001E721831710308400CA
:10328000840A840A840A0008EB00103084000008D5
:10329000840A840A840A8000103084006B0880004D
:1032A000831710308400840A840A0008EB00103071
:1032B0008400840A0008840A800010308400840A94
:1032C0006B0880000800A62171186F297808EE00AD
:1032D00045227908EE0045227A08EE0045220800D2
:1032E000A62171187C297808EE0045227C08EE00A2
:1032F00045227D08EE0045220800A6210800A621EF
:1033000008000800A6217118D2288A110A1658232D
:10331000E9008A150A16F1218A110A165823E900D4
:103320008A150A1607220800A6217118E4288A11B6
:103330000A165823E9008A150A16F1218A110A167D
:103340005823E9008A150A160722080071106C0834
:10335000EE004522711B7114FF30ED001D22711A21
:1033600071146D086E02031D7114ED08031DBA2956
:1033700071141D2208008A110A16BF218A150A1627
:10338000003A0319D1294A08E9001D22711AD129EE
:103390006D088A110A129C268A150A16E90BC5299E
:1033A000BB2908008A110A16BF218A150A16003A9D
:1033B0000319E6294A08E9008A110A12A4268A1587
:1033C0000A16EE004522E90BDC29D22908008317F2
:1033D000103084001D226D088000840AE90BEA2960
:1033E00008007808EE004522E9030319062A790847
:1033F000EE004522E9030319062A7A08EE00452269
:10340000E9030319062A7B08EE00452208007C0820
:10341000EE004522E90303191C2A7D08EE0045222F
:10342000E90303191C2A7E08EE004522E90303196B
:103430001C2A7F08EE004522080071126D22F11946
:103440003D2A8A110A12D5218A150A1693012530C0
:10345000940094168C110A30EA008A110A121B2279
:103460008A150A160B19372A8C1D322A3A2AEA0BBA
:103470002D2A3D2A1308ED003E2A711687128A1163
:103480000A12CC218A150A1608006D22F1195E2A4B
:1034900071132530940094168C116E0893000A3035
:1034A000EA008A110A121B228A150A160B195B2AD6
:1034B0008C1D562A5F2AEA0B512A5E2A71178A113F
:1034C0000A1215228A150A160B1D642A87128A1100
:1034D0000A12CC218A150A160800F1118A110A1263
:1034E000E62187128A110A12CC218A150A16643045
:1034F000EA008A110A121B228A150A160B19832A5E
:10350000871D7E2A862AEA0B792A982A8A110A12AE
:1035100012228A150A160B1D8B2A87168A110A1287
:103520001B228A150A160B19982A8719932A992A99
:10353000F11508008A110A12E621D5218A150A160A
:10354000ED01071EA12A871DA32A0830EA00871D66
:10355000A72A8719A92A0310071A0314ED0DEA0BED
:10356000A72A871DB12A8719B32ADA228A110A12DB
:10357000DE218A150A1687150000000000000000F1
:1035800087118A110A12E621D5218A150A16080028
:103590008A110A121B228A150A16E02A8A110A12B7
:1035A00018228A150A16E02A8A110A1215228A158B
:1035B0000A16E02A8A110A1212228A150A16E02A2D
:0635C0000B1DE02A0800CB
:0435C6000034003499
:00000001FF
