:020000040000FA
:04000800992D080026
:100020008A150A1600208A110A126826F012F212A6
:10003000F217C001C1018611701183120313F80178
:10004000F901FA01FB01FC01FD01FE01FF01203075
:100050008400B025A000243020020319FD283C3084
:100060002002031D2928840ACB010230BD00B025DF
:10007000CB07D6208000840ABD0B37282208CA008F
:10008000210ECA0406304A02BD00B025CB07D62097
:100090008000840ABD0B45280230BD00B025D62063
:1000A0008000840ABD0B4E28B025BC003E303C02C7
:1000B000031D812884030008BC008403000EBC04D7
:1000C0004B083C02031D8A28831324308400000857
:1000D000CC008403000ECC04CC0803197E285030D9
:1000E0004C0203187E280611861590304C07073005
:1000F0000318013E8A004C0890271B280030BF00DF
:1001000099280130BF0099280230BF009928033098
:10011000BF0099280430BF0099280530BF009928F6
:100120000630BF0099280730BF0099280830BF006B
:100130009928AA25CC018317103084003F0880003D
:1001400006157015FF251B2841346C346C3420349F
:1001500059346F347534723420344234613473341A
:10016000653420344134723465342034423465348B
:100170006C346F346E346734203454346F3420342C
:04018000553473344B
:10019000F6308100D428EC308100D428D83081009A
:1001A000D4283D308100D4280B110800F700F60058
:1001B0000F30F605473077020318E4284130770204
:1001C000031CE4280930F60776080800B800B900D7
:1001D000F030B905390EF220B9000F303805F220A1
:1001E000B8000800F6000A307602031CFA283730FF
:1001F0007607FC283030760708000530BD00213036
:100200008400B0258000840ABD0B0129BC000D309C
:100210003C02031D7E283030AD253230AD251B2831
:100220000E30CA000130CC008A110A16B6218A119C
:100230000A127015FF2508001230CA000230CC00E7
:1002400079267015FF2508000E30CA000430CC0056
:1002500070150230D0008A150A1607208A110A127A
:10026000711C35299724BF001C257015FF25080037
:10027000A7250530CC0083132608BC00250EBC043E
:10028000BC080319442946294A2747294927FF253D
:100290000800A7250630CC002608C200250EC2049F
:1002A0002808C300270EC3042908C4002A0EC4046A
:1002B000FF250800AA250730CC008A110A16C221A2
:1002C0008A110A127015FF250800AA250830CC00F3
:1002D000B6267015FF250800A7250930CC00260892
:1002E000C100250EC104FF250800A7250A30CC0057
:1002F0002608BC00250EBC04F212BC080319812993
:10030000F216FF250800A7250B30CC002608BC00FC
:10031000250EBC04BC08031D96298E29F2178A11EC
:100320000A1682258A110A12F2179D29F2178A11DC
:100330000A1682258A110A12F213FF250800A72542
:100340000C30CC002608BC00250EBC047213BC087F
:10035000031DAB2972170B30D0008A150A1607202F
:100360008A110A12FF2508000E30CA000E30CC0098
:100370008A110A1682258A110A12711FC2290730B2
:10038000BF001C257015FF25080083120313F0160B
:1003900006100800A7251230CC00FF250800A7256D
:1003A0001330CC0083132608C500250EC504831323
:1003B0002808C600270EC6048A110A167B218A1156
:1003C0000A12FF2508000A30CA001830CC008A1132
:1003D0000A1682258A110A12711FF1290730BF00FF
:1003E0001C257015FF2508000C30CA001A30CC00FF
:1003F000FA248A110A1682258A110A12711F032A09
:100400000730BF001C257015FF250800A7251B30ED
:10041000CC008A110A164B248A110A120430D0002B
:10042000C9240800A7251E30CC008A110A164B24C7
:100430008A110A120330D000A6240800FA24A72546
:100440002130CC000730D000812DFA24A72522309E
:10045000CC000830D000812DA7252330CC008A1194
:100460000A1651248A110A121C30D000A624080052
:10047000A7252430CC008A110A1651248A110A12A9
:100480001D30D000C9240800A7252530CC00FF2549
:100490008A110A169F218A110A120800A725263000
:1004A000CC008A110A1661218A110A12FF25080060
:1004B000A7252730CC008A110A1660218A110A125A
:1004C000FF250800A7252830CC008A110A168225AE
:1004D0008A110A12FF258B2CA7252930CC008A11FE
:1004E0000A1611208A110A12FF250800A7252A30B2
:1004F000CC0083132608BE00250EBE048A110A16FE
:100500006F258A110A12FF250800A7252B30CC0081
:100510002608BC00250EBC0400303C0203199B2AAF
:1005200001303C020319AF2A02303C020319992A18
:10053000C22A0F27C22A0F27952503279525412771
:100540008719C22A3927871587114127D120871992
:10055000C22A0B1DA72A0730BF001C25C22A0F275D
:100560009525032739278715871141271930D00092
:100570008A150A1607208A110A12711CC22A9724AA
:10058000BF001C25FF250800AA252C30CC00F2183E
:10059000D02A7219CE2ACC010330DE2A0230DE2A9C
:1005A0004127871DDC2A5030BD00871DDC2ABD0392
:1005B000031DD52A0030DE2A0130DE2ABC00831755
:1005C00010308400831203133C0880007015FF254F
:1005D00008000F2795250327A7252D30CC00FF25E0
:1005E0000800A7252E30CC00871139278711302726
:1005F000071E002B8A150A16BE228A110A12F72A34
:1006000087159125912587114127FF250800A725EA
:100610002F30CC001A30D000812DA7253030CC00EF
:100620001930D000812DA7253130CC0026258A1124
:100630000A1682258A110A122D250800A7253230B4
:10064000CC0040258A110A1682258A110A124C25EF
:100650000800A7253330CC002608BC00250EBC04BA
:1006600000303C02031D362B0F27452B01303C0286
:10067000031D3C2B0327452B02303C02031D422B5C
:100680000027452B0630BF001C25FF250800AA25A2
:100690003430CC00831710308400C3268312031338
:1006A0001E08831203178000831203137015FF25A1
:1006B0000800AA253530CC008317103084000027AD
:1006C000BD260F27831203131E0883120317800011
:1006D000831203137015FF250800AA253730CC00BC
:1006E000831710308400C726831203131E08831259
:1006F00003178000831203137015FF250800A72538
:100700003930CC0040258A150A16F3208A110A12C6
:10071000F11C8D2B70160730BF004C250800A72553
:100720003B30CC002508BC0001303C0203199C2B57
:100730000630BF001C25A62B8A110A1654248A11E4
:100740000A12711DA62B0730BF001C25FF250800CB
:10075000A7253C30CC00F801F901FA01FB01FC01AE
:10076000FD01FE01FF018A150A16F3208A110A1203
:100770004127871DB82BBF2B0730BF001C25FF2545
:1007800008001030CA003D30CC0070150D30D0008C
:10079000812DA7253E30CC0026258A110A16B422C9
:1007A0008A110A122D258A110A120800A7253F3046
:1007B000CC0040258A110A1610228A110A124C25F3
:1007C0000800A7254030CC0026258A110A16B4223D
:1007D0008A110A122D250800A7254130CC0040259A
:1007E0008A110A1610228A110A124C250800A72520
:1007F0004230CC00FA248A110A1600208A110A120B
:10080000FF250800A7254330CC0040258A110A1691
:1008100010228A110A124C250800A7254430CC006A
:1008200040258A110A160F228A110A124C25080047
:10083000A7254530CC0040258A110A16C8218A1107
:100840000A124C250800A7254630CC0040258A1105
:100850000A1610228A110A124C250800A7254730D3
:10086000CC0026258A110A16B4228A110A122D25D7
:100870008A110A120800A7254830CC0026258A11C3
:100880000A16B3228A110A122D250800A72549301D
:10089000CC0026258A110A168E228A110A122D25CD
:1008A0000800A7254A30CC0026258A110A16B42252
:1008B0008A110A122D250800A7254B30CC002608E6
:1008C000C000250EC004FF250800A7254C30CC0031
:1008D000FF25952550260800A7254D30CC00FF2583
:1008E00095255C260800A7254E30CC008A110A16F3
:1008F0007B258A110A121E30D000A6240800A725E5
:100900004F30CC008A110A167B258A110A121F303B
:10091000D000C92408000030BF00AA25CC018317ED
:10092000103084003F0880007015FF250800F11D7D
:100930009B2C0930A52C711E9F2C1030A52CF11E6C
:10094000A32C1130A52C0830A52C0800FA248A15F8
:100950000A1607208A110A12711CB22C0730BF0038
:100960001C25C72CFF258D257B30AD258D25CB0182
:100970008A150A16DF218A110A124B08E620390867
:10098000AD253808AD258D257D30AD258D25FF257C
:100990000800FA248A150A1607208A110A12711C07
:1009A000D52C0730BF001C25F82CFF25B0257B3C3B
:1009B0000319DE2C0130BF001C25F82CCB018A1551
:1009C0000A16F6218A110A12B025D620BC00BC0EE8
:1009D000B025D6203C044B020319F12C0430BF0093
:1009E0007016B0257D3C0319F82C0130BF001C2582
:1009F000FF25080083132C08F8002B0EF8042A08A2
:100A0000F900290EF9042808FA00270EFA0426082E
:100A1000FB00250EFB043408FC00330EFC043208F6
:100A2000FD00310EFD043008FE002F0EFE042E08DE
:100A3000FF002D0EFF040800AA25CC0170158317B6
:100A4000103084003F08800006150800FA24FF25B6
:100A50008D257B30AD25CB0108004B08E6203908F9
:100A6000AD253808AD257D30AD253E2DAA25CC011C
:100A700070158317103084003F088000FF250800A0
:100A80007012FA24FF25B0257B3C03194A2D013052
:100A9000BF007016CB010800B025D620BC00BC0EEC
:100AA000B025D6203C044B020319592D0430BF0059
:100AB0007016B0257D3C0319602D0130BF00701603
:100AC00003138312701E6C2DAA25CC017015831799
:100AD000103084003F088000FF250800E620390818
:100AE000CB07AD253808CB07AD250800B025CB07CF
:100AF000D620B900B90EB025CB07D620B9043908E5
:100B000008008A150A1607208A110A12711C8B2DFB
:100B10000730BF001C25FF250800C8200B1D8E2DA7
:100B20000800CE200B1D922D0800D1200B1D962D04
:100B30000800F300030E8301F5000A08F4008A019F
:100B400074088A00750E8300F30E730E09000830D6
:100B5000CA0008000A30CA000800F01CC12DE62DAA
:100B6000F01CB32DCF2D83120313F01ABF2D0614E2
:100B70008316891BBC2DB92D831206100808061098
:100B80000800F01ACE2D83128C13880006148316E9
:100B9000091BC82D83128C1FCB2D06100800831251
:100BA00003138C1AD72D86128C1AD72DD42D1A0820
:100BB000E12D1819DF2D9818DF2D0301E12D1812F2
:100BC00018168616BA01BA0BE32D0800C9000C1ED0
:100BD000E72D490899008316981CEC2DF02D8312FF
:100BE0008312080004304A02C700831321308400B6
:100BF000CB010008CB07840AC70BF92D080083132B
:100C0000203084005B308000840A4A08E6203908DE
:100C10008000840A38088000840A4C08E6203908DD
:100C20008000840A38088000840A701D342E083041
:100C30004A02C7000310C70C2530C80083171030C4
:100C4000F7008317770884000008E620831348081C
:100C5000840039088000C80A840A38088000C80A5D
:100C60008317F70AC70B212EF22503304A02F6003C
:100C70002030760784004B08E62039088000840A7B
:100C800038088000840A5D3080004A08C70083135A
:100C9000203084000008AD25840AC70B4A2E0800C6
:100CA000831203138616831640309900831218129C
:100CB0001A081A08181608008312031386168316DA
:100CC00015309900831218121A081A08181608000D
:100CD0008316D0308700A0000514851485150430D4
:100CE0009F00831280309F000F278030DE00D326C4
:100CF000080086157208DD001B278A110A166F2569
:100D00008A110A1283120317103084009D26840A68
:100D1000A026840AA326840AA626840AA9260313E9
:100D200083125D08F20072180027F2180327721967
:100D30000F27F2191B278611080003138312B22E06
:100D400003138312B22E03138312B22E03138312E2
:100D5000B22EB22E83170130800008008317803036
:100D600080000800831700308000080083171030CF
:100D700084000030831780000800031383129F1241
:100D80001F129F11CB2E9F121F129F15CB2E9F1249
:100D90001F169F15CB2E51271F1451271F151F19E2
:100DA000CF2E1F1008000313831286101130DC00B1
:100DB000DF265E08DC00DF26861455270800083091
:100DC000BB00DC0D031CE62E8617E72E8613000001
:100DD00000000000000006170000000000000000F6
:100DE0000613BB0BE12E08008614061786170800B1
:100DF0008614061786130800861406178613080043
:100E00004A27032F08000708E1006115E11061146B
:100E1000610887007210F2147211F21108000708BD
:100E2000E1006111E1146114610887007210F21091
:100E30007215F21108000708E1006115E114611450
:100E4000610887007210F2107211F21508009412F6
:100E500083162016A012200887008312851608002A
:100E6000941283162016A01620088700831285127C
:100E7000080094128316A01120088700831205151C
:100E8000080094128316A01520088700831205110C
:100E900008004A2F051681010B110B1D4D2F7216EC
:100EA0000800BA01BA0B522F0800CE200B1D562F96
:100EB0000800FF30DF005F08DE00D3260027BD26D4
:100EC0000F270530E0006B081E02031C752FE00B96
:100ED000632FDF0B5B2F0030DE00D3260027BD26FB
:0C0EE0000F271E08EA000530EA07080092
:100F20008207000010291C298B2C242938294929E3
:100F30005A2965296C29752983299F298B2CB42965
:100F40008B2C8B2CC529CA29CF298B2C8B2C8B2C35
:100F50008B2CE3298B2CF429062A8B2C8B2C122A20
:100F60008B2C8B2C1E2A252A2C2A382A442A4E2ADE
:100F7000582A622A6C2A762A852AC42AE92AF12A62
:100F8000072B0D2B132B1E2B292B472B592B8B2C6F
:100F90006D2B8B2C7F2B8B2C8F2BA82BC12BC92B34
:100FA000D62BE12BEC2BF72B022C0D2C182C232C01
:100FB0002E2C3B2C462C512C5C2C652C6C2C732C31
:040FC0007F2C08007A
:101000000030D5000130D40007279A208A110A1237
:1010100027278A150A1208001030D5000430D400A2
:1010200007270030D5007D08D5000F30D5057C0896
:10103000D40007270030D5007A08D40007277908A4
:10104000D5007808D40007279A2008002030D50062
:101050000430D40007277D08D5007C08D40007277A
:101060000030D5007A08D40007277908D500780821
:10107000D40007279A2008005030D5003330D40020
:1010800007270130D5007A08D40007277908D50052
:101090007808D400072708006030D5000430D40059
:1010A00007270030D5007A08D40007277908D50033
:1010B0007808D400072708007030D5000230D4002B
:1010C00007270130D5007A08D40007279A200800A6
:1010D000D5000330D40007270130D5007A08D400AA
:1010E00007277908D5007808D40007279A20080038
:1010F000A030D5000330D40007272F08D5003008D2
:10110000D40007273108D5003208D40007279A20D9
:101110008A110A1227278A150A120800B030D50052
:101120000130D40007279A208A110A1227278A152E
:101130000A1208008A110A1230278A150A12EE26AE
:041140003F2708003D
:101200007D08D6007C08D5000030D4001A26203096
:10121000D6040030D40427267908D6007808D500F3
:101220000030D4001A262030D6040030D4042726FB
:101230007326732608008A110A120F278A150A12CC
:101240008A150A12C3268A150A128A150A12AA26B4
:101250008A150A12871287118A110A1203278A1522
:101260000A128A110A120F278A150A128A150A12FF
:10127000C3268A150A124D30D3008C264330D30082
:101280008C264830D3008C265130D3008C260000A9
:101290008A110A1203278A150A12B126B126871568
:1012A00000008711000087150000871100008715D6
:1012B00000008711000087150000871100008715C6
:1012C0000000871100000430D6000230D500003045
:1012D000D40027260430D6000230D5000030D400D8
:1012E00027260030D6000030D5000030D400272655
:1012F00008008A110A12392727278A150A1287122D
:1013000087118A110A1200278A150A1208008A1109
:101310000A120F278A150A128A110A12D1208A1579
:101320000A120B1D91290800732673260430D6007B
:101330000130D5000030D40027267326080083161C
:101340000313250883120313D600831603132408FE
:1013500083120313D5001A262030D6040030D4049B
:10136000272683160313260883120313D600831639
:101370000313230883120313D5001A262030D60442
:101380000130D4042726831603132808831203137D
:10139000D60083160313270883120313D5001A26D9
:1013A0002030D6040230D4042726831603132B08DA
:1013B00083120313D600831603132A088312031320
:1013C000D5001A262030D6040330D40427268316ED
:1013D00003132C0883120313D60083160313290862
:1013E00083120313D5001A262030D6040430D40407
:1013F0002726831603132E0883120313D6008316A1
:1014000003132D0883120313D5001A262030D604A7
:101410000530D40427260800831603132408F4009B
:101420002508F500831203137408D5007508D6004B
:101430001A262030D6040030D4042726831603133E
:101440002308F40083120313D6017408D5001A266A
:101450002030D6040130D404272608007508D600B1
:101460007408D5000030D4001A262030D60400308D
:10147000D404272608007508D6007408D5001A265B
:101480002030D6040630D404272608008316031320
:101490002508F5002408F400031383127508D6000C
:1014A0007408D5001A262030D6040030D40427262C
:1014B000831603132808F5002708F400031383128A
:1014C0007508D6007408D5001A262030D6040130DD
:1014D000D4042726831603132B08F5002A08F400EA
:1014E000031383127508D6007408D5001A2620301D
:1014F000D6040230D4042726831603132E08F500E1
:101500002D08F400031383127508D6007408D50063
:101510001A262030D6040330D40427260800EB30E6
:10152000D6000330D5000030D4002726732673265A
:10153000BB30D6000B30D500B630D400272673263A
:101540007326BB30D600DB30D500B630D40027265A
:1015500073267326BB30D600EB30D500B630D400EE
:10156000272673267326BB30D6001B30D500B63035
:10157000D400272673267326BB30D6000B30D50047
:10158000B630D400272673267326BB30D600DB3056
:10159000D500B630D400272673267326BB30D6007C
:1015A000EB30D500B630D400272673267326BB3027
:1015B000D6001B30D500B630D400272673267326FC
:1015C0000800BB30D6001B30D5008630D40027265B
:1015D000732673260800EB30D6000330D5000030A8
:1015E000D40027260800BB30D6001B30D50086303B
:1015F000D40027260800EB30D6000330D500003099
:10160000D4002726BB30D6000B30D500B630D4002E
:1016100027267326732673267326BB30D600DB304D
:10162000D500B630D400272673267326732673267A
:1016300008008830D6003C30D5002030D400272662
:101640007326ED25831603132108A4002208A500A4
:101650008312031373268830D6003C30D500213026
:10166000D40027267326ED25831603132108A30033
:101670002208A6008312031373268830D6003C305C
:10168000D5002230D40027267326ED2583160313B8
:101690002108A7002208A8008312031373268830AC
:1016A000D6003C30D5002330D40027267326ED2504
:1016B000831603132108AA002208AB008312031328
:1016C00073268830D6003C30D5002430D40027263D
:1016D0007326ED25831603132108A9002208AC0008
:1016E0008312031373268830D6003C30D500253092
:1016F000D40027267326ED25831603132108AD0099
:101700002208AE008312031308008830D6003C3054
:10171000D5002030D4002726ED2583160313210899
:10172000A4002208A500831203138830D6003C30A1
:10173000D5002130D4002726ED2583160313210878
:10174000A7002208A800831203138830D6003C307B
:10175000D5002230D4002726ED2583160313210857
:10176000AA002208AB00831203138830D6003C3055
:10177000D5002330D4002726ED2583160313210836
:10178000AD002208AE00831203130800EB30D60030
:101790000330D5008030D4002726BA30D6000B3075
:1017A000D500B630D40027267326732673267326F9
:1017B0008830D6003C30D5002030D4002726ED25D7
:1017C0000800EB30D6000330D5008030D400272647
:1017D000BA30D6001B30D5009630D40027267326A9
:1017E0007326BA30D600DB30D500B630D4002726B9
:1017F00073267326BA30D600DB30D500D630D4003D
:10180000272673267326BA30D6001B30D500B63093
:10181000D400272673267326BA30D6001B30D50095
:101820009630D400272673267326BA30D600DB30D4
:10183000D500B630D400272673267326BA30D600DA
:10184000DB30D500D630D400272673267326BA3075
:10185000D6001B30D500B630D40027267326732659
:1018600008007B08D6007A08D500D4011A2620305B
:10187000D6040630D40427268830D6003B30D50065
:101880002630D40027267908D6007808D500D40160
:101890001A262030D6040630D40427268830D600F5
:1018A0003B30D5001630D40027260800EB30D60098
:1018B0000330D5000030D40027268830D6003B30D6
:1018C000D5001630D40027268830D6003B30D5000E
:1018D0002630D40027262030D6000430D50007302B
:1018E000D40027260800EB30D6000330D5000030A6
:1018F000D40027268830D6003B30D5001630D400DF
:1019000027262030D6000830D5000630D400272600
:101910008830D6003B30D5002630D4002726203032
:10192000D6000430D5000730D40027260800EB305D
:10193000D6000330D5000030D40027268830D600EA
:101940003B30D5001630D40027262030D600083092
:10195000D5000730D40027268830D6003B30D5008C
:101960002730D40027262030D6000430D500073099
:10197000D400272608002030D6000030D5000730DC
:10198000D400272608002430D6000730D500FA30CE
:10199000D40027268830D6003B30D5000A30D4004A
:1019A000272608002430D6000730D5005A30D4004E
:1019B00027268830D6003B30D5000A30D4002726B1
:1019C00008004508D6004608D5000030D4001A2685
:1019D0002030D6040A30D40427268830D6003B3085
:1019E000D5000A30D400272608002430D60007305E
:1019F000D5001A30D40027268830D6003B30D500D9
:101A00000A30D400272608002430D6000730D5003D
:101A10002A30D40027268830D6003B30D5000A3043
:101A2000D400272608002430D6000030D5001A3014
:101A3000D40027268830D6003B30D5000A30D400A9
:101A4000272608002430D6000030D5000A30D40004
:101A500027268830D6003B30D5000A30D400272610
:101A600008002430D6000030D5008A30D400272664
:101A70008830D6003B30D5000A30D4002726080035
:101A80000030D6007A08D5000030D4001A26203065
:101A9000D6040030D40427268830D6000130D50083
:101AA0009030D40027267908D6007808D500003079
:101AB000D4001A262030D6040630D4042726080085
:101AC0000030D6007A08D5000030D4001A26203025
:101AD000D6040030D40427268830D6000130D50043
:101AE0009030D40027267908D6007808D500003039
:101AF000D4001A262030D6040730D4042726080044
:101B00002430D6000030D5008A30D4002726883013
:101B1000D6003B30D5000A30D400272608002030FC
:101B2000D6000530D5005830D40027262030D60006
:101B30000A30D500A930D40027268830D6003B30A3
:101B4000D5003830D40027268830D6003B30D50069
:101B50003930D400272608004330D6000330D500A2
:101B60000730D4002726AF30D6000030D5004230F1
:101B7000D4002726EC30D6002730D5006430D400BE
:101B800027268830D6003B30D5001630D4002726D3
:101B900008004330D6000330D5000730D400272694
:101BA0008830D6003B30D5001630D40027260800F8
:101BB000A830D600E730D5006130D4002726732640
:101BC0007326BD26BD26A930D600E730D50061308A
:101BD000D40027267326732608008A110A122727A5
:101BE0008A150A12732638260830BB0087150000B4
:101BF0008711BB0BF62D8A110A1230278A150A129B
:101C00001030BB0087150310071A03148711F50C59
:101C1000F40CBB0B022E73268A110A1227278A1591
:101C20000A12831603137508A2007408A100831218
:101C3000031308000430BB000310D60CD50CD40CE1
:101C4000BB0B1C2E0F30D605F030D40508008712D0
:101C500087150000871187128715000087118712EA
:101C60008715000087118712871500008711492EFC
:101C700087168715000087118712871500008711C6
:101C800087128715000087118712871500008711BA
:101C900008000830BB00D40C87120318871687157C
:101CA00000008711BB0B4B2ED40C871200000830AC
:101CB000BB00D50C87120318871687150000871103
:101CC000BB0B592ED50C871200000830BB00D60C78
:101CD000871203188716871500008711BB0B672E24
:101CE000D60C87120800D601D501D401272608009A
:101CF000BA30D6000230D5009630D400272673269D
:101D000073260800BB30D6001B30D5008530D400C8
:101D100027267326732608000830F600D31B9D2E55
:101D200087120000871500000000000000008711E6
:101D3000F6030319A72ED30D8E2E871600008715E4
:101D400000008711F6030319A72ED30D8E2ED30D95
:101D5000871208008A110A12272739278A150A12C2
:101D600008008A110A12C8208A150A12C92E8A117F
:101D70000A12CB208A150A12C92E8A110A12CE2005
:101D80008A150A12C92E8A110A12D1208A150A123E
:101D9000C92E0B1DC92E08008A110A1239272727C0
:101DA0008A150A12871687158A110A165A258A1566
:101DB0000A12871287118A110A12CB208A150A1279
:101DC0000B1DE02EFF30D7000000D70BE42E0800DB
:101DD0008A110A120F278A150A120800FC308100A6
:101DE0000B11071AF62E0B1DF12E052F7F308100E7
:101DF0000B11071EFE2E0B1DF92E052FFF30810043
:101E00000B110B1D012F0030062FFF3008008A1127
:101E10000A1227278A150A120830BB00D50D87122F
:101E200003188716871500008711BB0B0E2FD50DE1
:101E3000871200000830BB00D40D871203188716E4
:101E4000871500008711BB0B1C2FD40D87120000D3
:101E50000330D7000000D70B2A2F08001030BB003A
:101E600087150310071A03148711F40DF50DBB0B2A
:101E7000302F0830D7000000D70B3B2F08002E274B
:101E80001330D7000000D70B422F831203137408BE
:101E9000D8007508D9002E27831203137408DA00BE
:101EA0007508DB00D91A552F562F000008000800CE
:021EB000080028
:102000008A150A121B218A110A168A150A129421AE
:102010008A110A168A150A12002187218A110A16C6
:1020200008008A110A12C3268A110A1617288A156F
:102030000A121B218A110A168A150A1294218A1182
:102040000A160230E2008A150A1231258A110A1690
:10205000F830FA000030F9000630F8008A150A124C
:1020600060258A110A168A150A12EB228A110A16AD
:102070008A150A12F3228A110A168A150A128F2566
:102080008A110A168A150A12D8258A110A16E20B35
:1020900023288A150A12C3248A110A168A150A12DD
:1020A0008F258A110A168A150A12D8258A110A164E
:1020B0008A150A1294218A110A160030FB0080301A
:1020C000FA000030F9008030F8008A150A12312435
:1020D0008A110A168A150A1204258A110A168A1507
:1020E0000A128F258A110A168A150A12D8258A1112
:1020F0000A168A110A1684208A110A168A150A12EB
:1021000087218A110A160800831203130030FB008E
:102110008030FA000530F900C030F8000313831254
:102120008A150A1294218A110A168A150A12312474
:102130008A110A168A150A12F5248A110A168A15B6
:102140000A128F258A110A168A150A12D8258A11B1
:102150000A168A150A1294218A110A160800831297
:102160000313440883120313EC0083120313430880
:1021700083120313ED008312031342088312031327
:10218000EE00031383128A110A1683120313EC0F55
:10219000CC28ED0FCC28EE0A03138312831203130D
:1021A000FB01FA01F901F801031383128A150A12DF
:1021B0001B218A110A168A150A1294218A110A16FD
:1021C0008A150A1231248A110A168A150A12F52470
:1021D0008A110A168A150A128F258A110A168A157B
:1021E0000A12D8258A110A168A150A1294218A1110
:1021F0000A168A150A1287218A110A168A150A12E6
:102200001B218A110A16831203134030F807031C9E
:102210000E29F90A0319FA0A0319FB0A0313831298
:10222000831203134030EC0203181A290130ED0227
:10223000031CEE03031383128312031300306C0498
:102240006D046E0403138312031DE0288A110A161D
:1022500084208A110A168A150A1287218A110A1601
:102260008A110A165A298A150A121B218A110A167E
:102270008A150A1294218A110A168A150A12312423
:102280008A110A161830E2008A150A1204258A11EA
:102290000A168A150A128F258A110A168A150A1239
:1022A000D8258A110A168A150A12C9258A110A1612
:1022B000E20B44298A150A1287218A110A1608009E
:1022C00008008A150A121B218A110A168A150A1299
:1022D00094218A110A168A150A128F258A110A1664
:1022E0008A150A12D8258A110A168A150A12872118
:1022F0008A110A1608008A150A121B218A110A1669
:102300008A150A1294218A110A168A150A12E124E2
:102310008A110A168A150A128F258A110A168A1539
:102320000A12D8258A110A168A110A1684208A11DF
:102330000A168A150A1287218A110A1608008A11BC
:102340000A12C3268A110A16A5298A150A121B2108
:102350008A110A168A150A1294218A110A16332143
:102360008A150A1287218A110A160800831710306D
:10237000840001308000840A00308000840A063026
:10238000800008008317103084001230800008009D
:1023900071130130E7008A150A121B218A110A16EF
:1023A0008A150A1294218A110A16E022003A0319AA
:1023B000092A8A150A1231258A110A168A150A1263
:1023C00060258A110A168A110A127625F4007625EC
:1023D000F5008A110A168A150A123B228A110A167A
:1023E0008A150A12E1228A110A168A150A128F2505
:1023F0008A110A168A150A12D8258A110A168A1510
:102400000A1294218A110A160230F8070318F90AF1
:10241000D5298A150A1287218A110A160800080090
:1024200071138A150A121B218A110A168A150A12BB
:1024300094218A110A168A150A1213258A110A167E
:102440008A150A1260258A110A16E401FB2220303F
:10245000E4000830E2006308003A03195C2A8A1598
:102460000A1213258A110A168A150A1260258A1182
:102470000A16CE238A150A129F218A110A168A1576
:102480000A128F228A110A160430E4020830F80773
:102490000318F90AE20B2B2A8A150A128F258A11D2
:1024A0000A168A150A12D8258A110A168A150A12DE
:1024B00094218A110A16272AE4080319882A831608
:1024C0000313FF30A300A500A400A600A800A700E6
:1024D000A900AB00AA00AC00AE00AD00031383124C
:1024E0008A150A129F218A110A168A150A128F224A
:1024F0008A110A160430E402031D5C2A8A150A12A6
:102500008F258A110A168A150A12D8258A110A16E9
:102510008A150A1287218A110A16080071138A1572
:102520000A121B218A110A168A150A1294218A118D
:102530000A16FB228A150A1294218A110A166308C8
:10254000003A0319AD2A8A150A124025C6238A11BA
:102550000A162F24F80AF80A9A2A8A150A128721DD
:102560008A110A160800080071138A150A121B2125
:102570008A110A168A150A1294218A110A168A15D6
:102580000A1240258A110A16FB226308003A031931
:10259000DA2A8A150A12E1238A110A168A150A1202
:1025A00019238A110A161B238A150A1294218A11EB
:1025B0000A16C52A8A150A1287218A110A160800E6
:1025C0008A110A16FF08031DEE2AFE08031DEE2AD3
:1025D000FD08031DEE2AFC08031900346708FC02FD
:1025E0000318FA2A0130FD020318FA2AFE02031822
:1025F000FA2AFF02FF348A110A16FF08031D0C2B6A
:10260000FE08031D0C2BFD08031D0C2BFC08031DED
:102610000C2B0030E30008000130FC020318182BDB
:102620000130FD020318182BFE020318182BFF02BD
:10263000FF30E3000800831603132408F400250884
:10264000F5002308F300831203138A110A12740899
:102650006E2575086E2573086E258A110A16FB22F1
:102660006308003A03197B2B831603132708F40031
:102670002808F5002608F300831203138A110A12B2
:1026800074086E2575086E2573086E258A110A1662
:10269000FB226308003A03197B2B831603132A08D5
:1026A000F4002B08F5002908F300831203138A11A4
:1026B0000A1274086E2575086E2573086E258A1136
:1026C0000A16FB226308003A03197B2B83160313B7
:1026D0002D08F4002E08F5002C08F30083120313D4
:1026E0008A110A1274086E2575086E2573086E2506
:1026F0008A110A16FB22080008008A110A127625A0
:10270000F4007625F5008A110A168316031374085F
:10271000A4007508A50083120313FB226308003A86
:102720000319CD2B8A110A127625F4007625F500BF
:102730008A110A16831603137408A7007508A800E7
:1027400083120313FB226308003A0319CD2B8A116D
:102750000A127625F4007625F5008A110A168316EA
:1027600003137408AA007508AB0083120313FB223D
:102770006308003A0319CD2B8A110A127625F4005A
:102780007625F5008A110A16831603137408AD0026
:102790007508AE0083120313FB2208008A110A1287
:1027A0007625F4007625F5007625F3008A110A16C1
:1027B000831603137408A4007508A5007308A3000A
:1027C00083120313FB226308003A03192E2C8A118B
:1027D0000A127625F4007625F5007625F3008A1195
:1027E0000A16831603137408A7007508A800730857
:1027F000A60083120313FB226308003A03192E2C50
:102800008A110A127625F4007625F5007625F30064
:102810008A110A16831603137408AA007508AB0000
:102820007308A90083120313FB226308003A0319FB
:102830002E2C8A110A127625F4007625F5007625CD
:10284000F3008A110A16831603137408AD00750885
:10285000AE007308AC0083120313FB22080083163A
:1028600003132108F4002208F500831203137408EF
:102870008A110A126E258A110A1675088A110A121F
:102880006E258A110A16FB22080003340334023431
:102890000234023402340130E80008000230E8005B
:1028A00008000230E800080000348A150A122620C9
:1028B0008A110A16FB226308003A0319622C63246A
:1028C0008B245B2C08008A150A122E278A110A16FF
:1028D000831603137408A4007508A500831203135C
:1028E0008A150A122E278A110A16831603137408F2
:1028F000A3007508A600831203138A150A122E2757
:102900008A110A16831603137408A7007508A80015
:10291000831203130800831603138A110A12240872
:1029200083126E2583160313250883126E258316E2
:102930000313230883126E258A110A16FB228316BD
:1029400003138A110A12270883126E2583160313B4
:10295000280883126E2583160313260883126E251A
:102960008A110A16FB2208008A150A120C208A1105
:102970000A16FB226308003A0319C62C8A150A12AC
:102980002E278A110A16C724FB22BA2C08008312AC
:1029900003138A110A1274086E2575086E258A11B0
:1029A0000A1608001030E700E022003A0319EC2C68
:1029B0002030E200ED2480308A150A1268208A1146
:1029C0000A16FA248A150A129A208A110A16203049
:1029D000F8070318F90AD42C080083171030840074
:1029E0008A110A1276258A110A168000840AE20BDF
:1029F000F02C08008317103084001030E20000082B
:102A0000D400840A0008D500840A8A150A12072710
:102A10008A110A16E20BFF2C08002030E700E022A2
:102A2000003A03192A2D6030E200ED2490308A1517
:102A30000A1268203C208A110A162B258A150A12D0
:102A40009A208A110A164030F8070318F90A031968
:102A5000FA0A0F2D08008317103084001030E200AE
:102A60003425E20B302D08000008D400840A000849
:102A7000D5008A150A1207278A110A16840A000847
:102A8000D400840A840A840A0008D5008A150A1230
:102A900007278A110A16840384030008D400840AD5
:102AA0000008D5008A150A1207278A110A16840A17
:102AB000840A0800031383120708E1006115E1147A
:102AC0006110610887007214F2107211F2118A11FC
:102AD0000A12CB208A110A160B1D6C2D08007130CA
:102AE000E900A230EB00A930EA008A110A12592746
:102AF0008A110A1608000130E7000330E8000800D8
:062B000003340334080059
:103000000313831600309400831294120800831275
:1030100003130130500603196228023050060319C9
:103020006E28033050060319752804305006031922
:1030300087280530500603199928063050060319D1
:10304000A528073050060319BC290830500603197B
:10305000BC29093050060319C9280A305006031943
:10306000DB280B3050060319ED280C3050060319ED
:10307000F3280D305006031931290E30500603197C
:103080006B29183050060319782919305006031996
:1030900085291A305006031987291B305006031959
:1030A00089291C30500603198A291D30500603193E
:1030B0009C291E3050060319AE291F3050060319F3
:1030C000AE290800CA2171186D28412283171030DB
:1030D000840051088000831203130800CA2171186C
:1030E00074280330CD000B220800CA2171188628ED
:1030F0008A110A164724CD008A150A1615228A114C
:103100000A164824CD008A150A162B220800CA2167
:10311000711898288A110A164724CD008A150A16B4
:1031200015228A110A164824CD008A150A162B2268
:103130000800CA217118A4288A150A16CD00152284
:103140008A150A16CD002B220800CA217118B02852
:103150008A150A16CD0015228A150A16CD002B22D3
:103160000800CA217118BC288A150A16CD0015223C
:103170008A150A16CD002B220800CA217118C8280A
:103180008A150A16CD0015228A150A16CD002B22A3
:103190000800CA217118DA288A110A164524CD00C0
:1031A0008A150A1615228A110A164624CD008A1598
:1031B0000A162B220800CA217118EC288A110A1657
:1031C0004524CD008A150A1615228A110A164624AE
:1031D000CD008A150A162B220800CA21D201721BC3
:1031E000D20A69220800F110831203137C08D2006E
:1031F0006922F119F1147D08D2006922F119F11444
:103200007E08D2006922F119F1147808D2006922EF
:10321000F119F1147908D2006922F119F1147A0830
:10322000D2006922F119F1141E298A110A12762599
:103230008A150A16D2006922F119F114FE08031D3D
:103240002729FD08031D2729FC080319302901300F
:10325000FC0203181529FD0203181529FE02152981
:103260000800CA2171186A298A110A164624CD005D
:103270008A150A168317103084008001840A8001A1
:10328000840A8001840A80010B2283171030840095
:10329000840A840A840A0008CF00103084000008E1
:1032A000840A840A840A8000103084004F08800059
:1032B000831710308400840A840A0008CF0010307D
:1032C0008400840A0008840A800010308400840A84
:1032D0004F0880000800CA21711877297808D200A9
:1032E00069227908D20069227A08D200692208008E
:1032F000CA21711884297808D20069227C08D2007A
:1033000069227D08D20069220800CA210800CA216A
:1033100008000800CA2171189B298A110A1649243D
:10332000CD008A150A1615228A110A164A24CD00E4
:103330008A150A162B220800CA217118EC288A1156
:103340000A164924CD008A150A1615228A110A1672
:103350004A24CD008A150A162B220800CA217118AA
:10336000BB290330CD008A150A1615220230CD0084
:103370008A150A162B220800CA217118C92904309F
:10338000CD008A150A1615220430CD008A150A16BA
:103390002B22080071105008D2006922F11A711412
:1033A000FF30D1004122711A711451085202031DDD
:1033B0007114D108031DDE297114412208008A11FD
:1033C0000A16E0228A150A16003A0319F529680838
:1033D000CD004122711AF52951088A110A126E2571
:1033E0008A150A16CD0BE929DF2908008A110A1669
:1033F000E0228A150A16003A03190A2A6808CD0045
:103400008A110A1276258A150A16D2006922CD0B76
:10341000002AF62908008317103084004122510841
:103420008000840ACD0B0E2A08007808D200692299
:10343000CD0303192A2A7908D2006922CD03031982
:103440002A2A7A08D2006922CD0303192A2A7B0886
:10345000D200692208007C08D2006922CD0303193A
:10346000402A7D08D2006922CD030319402A7E0834
:10347000D2006922CD030319402A7F08D2006922B5
:10348000080071129122F119612A8A110A1230275B
:103490008A150A1693012530940094168C110A306F
:1034A000CE008A110A12D1208A150A160B195B2A3E
:1034B0008C1D562A5E2ACE0B512A612A1308D10090
:1034C000622A711687128A110A1227278A150A168C
:1034D00008009122F119822AF112253094009416E5
:1034E0008C11520893000A30CE008A110A12D120A2
:1034F0008A150A160B197F2A8C1D7A2A832ACE0B6D
:10350000752A822AF1168A110A12CB208A150A1608
:103510000B1D882A87128A110A1227278A150A1674
:103520000800F1118A110A12412787128A110A1222
:1035300027278A150A166430CE008A110A12D12074
:103540008A150A160B19A72A871DA22AAA2ACE0BAA
:103550009D2ABC2A8A110A12C8208A150A160B1D38
:10356000AF2A87168A110A12D1208A150A160B195A
:10357000BC2A8719B72ABD2AF11508008A110A1238
:10358000412730278A150A16D101071EC52A871D33
:10359000C72A0830CE00871DCB2A8719CD2A0310F1
:1035A000071A0314D10DCE0BCB2A871DD52A8719F4
:1035B000D72AFE228A110A1239278A150A16871578
:1035C000000000000000000087118A110A12412744
:1035D00030278A150A1608008A110A12D1208A1586
:1035E0000A16042B8A110A12CE208A150A16042BF9
:1035F0008A110A12CB208A150A16042B8A110A1284
:0E360000C8208A150A16042B0B1D042B080087
:02360E00003486
:02361000003484
:00000001FF
