:020000040000FA
:040008000800AB2E13
:100020008A150A1600208A110A12C820F012F2124C
:10003000F217DB01DC018611701183120313F80142
:10004000F901FA01FB01FC01FD01FE01FF01203075
:100050008400BC26A0002430200203192B2A3C3047
:100060002002031D2928840AE6010230D800BC269C
:10007000E60704228000840AD80B37282208E5000E
:10008000210EE50406306502D800BC26E6070422EE
:100090008000840AD80B45280230D800BC260422F0
:1000A0008000840AD80B4E28BC26D7003E30570269
:1000B000031D812884030008D7008403000ED704A1
:1000C00066085702031D8A28831324308400000821
:1000D000E7008403000EE704E70803197E284E308A
:1000E000670203187E2806118615903067070730CF
:1000F0000318013E8A00670890271B280030DA00A9
:1001000099280130DA0099280230DA009928033062
:10011000DA0099280430DA0099280530DA009928A5
:100120000630DA0099280730DA0099280830DA001A
:1001300099280A30E5000030E7008317103084006A
:100140005A088000061570150B271B2841346C34A3
:100150006C34203459346F34753472342034423462
:10016000613473346534203441347234653420345E
:10017000423465346C346F346E3467342034543414
:080180006F3420345534733450
:100190008316D0308700A00005148514851504301F
:1001A0009F00831280309F008F218030CF0050212C
:1001B000080086157208CE009B218A110A16CF21ED
:1001C0008A110A128312031710308400FD20840A5A
:1001D0000921840A0B21840A1821840A2621031389
:1001E00083124E08F20072187D21F21880217219D4
:1001F0008F21F2199B2186110800031383124021DD
:1002000033301E02031C27299A301E0203182B29A3
:100210002F2918292F29031383128F213A21003007
:100220001E02031C272924301E0203182B292F2904
:1002300003138312CA218021402133301E02031C84
:1002400027299A301E0203182B292F2918298317D2
:100250000130800008008317803080000800831779
:1002600000308000080083171030840000308317AE
:1002700080000800031383129F121F129F11482948
:100280009F121F129F1548299F121F169F1548295C
:10029000D1211F14D1211F151F194C291F1008002F
:1002A0000313831286101130CD005C214F08CD005E
:1002B0005C218614D52108000830D600CD0D031C22
:1002C00063298617642986130000000000000000DF
:1002D000061700000000000000000613D60B5E2980
:1002E000080086140617861708008614061786135A
:1002F00008008614061786130800CA218029080002
:100300000708D2005215D2105214520887007210FA
:10031000F2147211F211FF210B1D8C29080007083D
:10032000D2005211D2145214520887007210F210E7
:100330007215F21108000708D2005215D214521497
:10034000520887007210F2107211F2150800941210
:1003500083162016A0122008870083128516080035
:10036000941283162016A016200887008312851287
:10037000080094128316A011200887008312051527
:10038000080094128316A015200887008312051117
:100390000800CA29051681010B110B1DCD29721603
:1003A0000800D501D50BD2290800FC210B1DD62948
:1003B0000800FF30D0005008CF0050217D213A21A5
:1003C0008F210530D10048081E02031CF529D10BEE
:1003D000E329D00BDB290030CF0050217D213A21C9
:1003E0008F211E08C9000530C9070800F6308100BA
:1003F000022AEC308100022AD8308100022A3D30E6
:100400008100022A0B110800F700F6000F30F605F4
:10041000473077020318122A41307702031C122A50
:100420000930F60776080800D300D400F030D40570
:10043000540E2022D4000F3053052022D300080090
:10044000F6000A307602031C282A373076072A2A5B
:100450003030760708000530D80021308400BC26F3
:100460008000840AD80B2F2AD7000D305702031DB5
:100470007E283030B9263230B9261B280E30E500F0
:100480000130E7008A110A1600208A110A1270153D
:100490000B2708001230E5000230E700D920701564
:1004A0000B2708000E30E5000430E700701502301D
:1004B000EB008A150A1607208A110A12711C632A9A
:1004C000A325DA00282670150B2708000830E50060
:1004D0000530E70083132608D700250ED704D70878
:1004E0000319732A752ACA21762AC9210B27080005
:1004F0000830E5000630E7002608DD00250EDD04A3
:100500002808DE00270EDE042908DF002A0EDF049B
:100510000B2708000A30E5000730E7008A110A16A9
:100520000E208A110A1270150B2708000A30E50008
:100530000830E700332170150B2708000830E5006C
:100540000930E7002608DC00250EDC040B27080034
:100550000830E5000A30E7002608D700250ED7044A
:10056000F212D7080319B52AF2160B270800083033
:10057000E5000B30E7002608D700250ED704D70882
:10058000031DCB2AC32AF2178A110A16E1218A1108
:100590000A12F217D22AF2178A110A16DB218A11DF
:1005A0000A12F2130B2708000830E5000C30E700B0
:1005B0002608D700250ED7047213D708031DE12A99
:1005C00072170B30EB008A150A1607208A110A12DF
:1005D0000B2708000800080083120313F01606100A
:1005E00008000830E5001230E7000B27080008304B
:1005F000E5001330E70083132608E000250EE00431
:1006000083132808E100270EE1048A110A16FF214E
:100610008A110A120B2708000830E5001B30E7009A
:100620008A110A16C6218A110A120430EB00D52558
:1006300008000830E5001E30E7008A110A16C621BE
:100640008A110A120330EB00B22508000830E500D9
:100650002330E7008A110A16CC218A110A121C30B5
:10066000EB00B22508000830E5002430E7008A11CD
:100670000A16CC218A110A121D30EB00D52508007C
:100680000830E5002530E7000B278A110A16FF2104
:100690008A110A1208000830E5002630E7008A11A6
:1006A0000A16FF218A110A120B2708000830E500FC
:1006B0002730E7008A110A16FF218A110A120B2738
:1006C00008000830E5002830E7008A110A16FF21EB
:1006D0008A110A120B27952D0830E5002930E70012
:1006E0008A110A1601218A110A120B270800083004
:1006F000E5002A30E70083132608D900250ED90427
:100700008A110A16CF218A110A120B270800083015
:10071000E5002B30E7002608D700250ED70400306F
:10072000570203199E2B013057020319B22B0230D6
:10073000570203199C2BC52B8F21C52B8F21A72670
:100740008021A726C1218719C52BB92187158711BB
:10075000C121FF218719C52B0B1DAA2B0730DA00F9
:100760002826C52B8F21A7268021B921871587111F
:10077000C1211930EB008A150A1607208A110A12C6
:10078000711CC52BA325DA0028260B2708000A3088
:10079000E5002C30E700F218D52B7219D32B00306E
:1007A000E7000330E32B0230E32BC121871DE12B4F
:1007B0005030D800871DE12BD803031DDA2B003001
:1007C000E32B0130E32BD700831710308400831212
:1007D00003135708800070150B2708008F21A726E8
:1007E00080210830E5002D30E7000B270800083095
:1007F000E5002E30E7008711B9218711B021071ECF
:10080000072C8A150A169A228A110A12FE2B8715BE
:10081000A326A3268711C1210B2708000830E50075
:100820002F30E7001A30EB00932E0830E50030300F
:10083000E7001930EB00932E0830E5003130E70077
:1008400034268A110A16FF218A110A123B26080053
:100850000830E5003230E70050268A110A16FF21E1
:100860008A110A125C2608000830E5003330E700E0
:100870002608D700250ED70400305702031D422C4E
:100880008F21512C01305702031D482C8021512CFF
:1008900002305702031D4E2C7D21512C0630DA0008
:1008A00028260B2708000A30E5003430E7008317BC
:1008B000103084004021831203131E088312031793
:1008C00080008312031370150B2708000A30E5001F
:1008D0003530E7008317103084007D213A218F21C5
:1008E000831203131E08831203178000831203135D
:1008F00070150B2708000A30E5003730E700831732
:10090000103084004421831203131E08831203173E
:1009100080008312031370150B2708000830E500D0
:100920003930E70050268A150A16EB208A110A1280
:10093000F11C9D2C70160730DA005C260800083088
:10094000E5003B30E7002508D700013057020319C6
:10095000AD2C0630DA002826B72C8A110A16FF21A2
:100960008A110A12711DB72C0730DA0028260B27CE
:1009700008000830E5003C30E700F801F901FA0111
:10098000FB01FC01FD01FE01FF018A150A16EB20A7
:100990008A110A12C121871DCA2CD12C0730DA0016
:1009A00028260B2708001030E5003D30E7007015C1
:1009B0000D30EB00932E0830E5003E30E700342682
:1009C0008A110A16AD208A110A123B268A110A12D0
:1009D00008000830E5003F30E70050268A110A166B
:1009E00048208A110A125C2608000830E5004030D1
:1009F000E70034268A110A16AD208A110A123B2616
:100A000008000830E5004130E70050268A110A1638
:100A10007A208A110A125C2608000830E50042306C
:100A2000E70006268A110A16B3218A110A120B273B
:100A300008000830E5004330E70050268A110A1606
:100A400016208A110A125C2608000830E50044309E
:100A5000E70050268A110A16FF218A110A125C2625
:100A600008000830E5004530E70050268A110A16D4
:100A7000AC208A110A125C2608000830E5004630D6
:100A8000E70050268A110A1648208A110A125C26AD
:100A900008000830E5004730E70034268A110A16BE
:100AA000AD208A110A123B268A110A12080008306A
:100AB000E5004830E70034268A110A16FF218A1122
:100AC0000A123B2608000830E5004930E7003426CA
:100AD0008A110A16AD208A110A123B260800083036
:100AE000E5004A30E70034268A110A16AD208A1143
:100AF0000A123B2608000830E5004B30E7002608C4
:100B0000DB00250EDB040B2708000830E5004C3025
:100B1000E7000B27A7265C2708000830E5004D30CA
:100B2000E7000B27A726682708000030DA000A3004
:100B3000E5000030E7008317103084005A08800079
:100B400070150B270800F11DA72D0930B12D711E5E
:100B5000AB2D1030B12D711FAF2D1130B12D0830DC
:100B6000B12D080006268A150A1607208A110A12D6
:100B7000711CBE2D0730DA002826D32D0B279F26A7
:100B80007B30B9269F26E6018A150A16BB218A11F9
:100B90000A12660814225408B9265308B9269F265B
:100BA0007D30B9269F260B27080006268A150A16CF
:100BB00007208A110A12711CE12D0730DA0028265D
:100BC000042E0B27BC267B3C0319EA2D0130DA00EA
:100BD0002826042EE6018A150A16D2218A110A1245
:100BE000BC260422D700D70EBC2604225704660276
:100BF0000319FD2D0430DA007016BC267D3C031964
:100C0000042E0130DA0028260B27080083132C0855
:100C1000F8002B0EF8042A08F900290EF904280818
:100C2000FA00270EFA042608FB00250EFB04340800
:100C3000FC00330EFC043208FD00310EFD043008C8
:100C4000FE002F0EFE042E08FF002D0EFF040800EC
:100C50000A30E5000030E70070158317103084007B
:100C60005A0880000615080006260B279F267B30B1
:100C7000B926E6010800660814225408B92653086C
:100C8000B9267D30B9264E2E0A30E5000030E70047
:100C900070158317103084005A0880000B27080055
:100CA000701206260B27BC267B3C03195A2E0130F6
:100CB000DA007016E6010800BC260422D700D70E21
:100CC000BC260422570466020319692E0430DA0098
:100CD0007016BC267D3C0319702E0130DA007016A8
:100CE00003138312701E7E2E0A30E5000030E700E9
:100CF00070158317103084005A0880000B270800F5
:100D000014225408E607B9265308E607B926080056
:100D1000BC26E6070422D400D40EBC26E607042233
:100D2000D404540808008A150A1607208A110A12EA
:100D3000711C9D2E0730DA0028260B270800F621AB
:100D40000B1DA02E0800FC210B1DA42E0800FF2166
:100D50000B1DA82E0800F300030E8301F5000A08FE
:100D6000F4008A0174088A00750E8300F30E730E76
:100D70000900F01CCD2EF22EF01CBF2EDB2E8312AC
:100D80000313F01ACB2E06148316891BC82EC52E0A
:100D900083120610080806100800F01ADA2E8312D3
:100DA0008C13880006148316091BD42E83128C1F03
:100DB000D72E06100800831203138C1AE32E861216
:100DC0008C1AE32EE02E1A08ED2E1819EB2E981827
:100DD000EB2E0301ED2E181218168616D501D50B31
:100DE000EF2E0800E4000C1EF32E64089900831611
:100DF000981CF82EFC2E8312831208000430650222
:100E0000E200831321308400E6010008E607840A2B
:100E1000E20B052F08008313203084005B30800034
:100E2000840A6508142254088000840A530880004C
:100E3000840A6708142254088000840A530880003A
:100E4000840A701D402F08306502E2000310E20C96
:100E50002530E30083171030F700831777088400EC
:100E60000008142283136308840054088000E30AF6
:100E7000840A53088000E30A8317F70AE20B2D2F38
:100E8000FE2603306502F6002030760784006608EF
:100E9000142254088000840A53088000840A5D30BC
:100EA00080006508E2008313203084000008B92622
:100EB000840AE20B562F080083120313861683164A
:100EC00040309900831218121A081A0818160800E0
:100ED0008312031386168316153099008312181295
:080EE0001A081A081816080090
:100F2000820700003E2A4A2A952D522A662A782AEC
:100F30008A2A962A9E2AA82AB72AD42A952DEA2AEE
:100F4000EB2A952DEC2AF12AF72A952D952D952D32
:100F5000952D952D952D952D0C2B952D952D192B8A
:100F6000952D952D952D952D262B332B402B4B2BE9
:100F7000562B612B6C2B772B872BC72BEE2BF72B4C
:100F80000E2C152C1C2C282C342C532C662C952D17
:100F90007B2C952D8E2C952D9F2CB92CD32CDB2CB6
:100FA000E92CF52C012D0D2D192D252D312D3D2D43
:100FB000492D572D632D6F2D7B2D852D8D2D952D35
:040FC000952D080063
:10120000F21F43298A110A128F218A150A129E247D
:101210008A110A16A2218A150A12871287118A11C9
:101220000A1280218A150A12000000000000000046
:1012300000008A110A128F218A150A129E248A112F
:101240000A1280218A150A12000000000000000026
:1012500000008A110A128F218A150A129824B230CE
:10126000ED00B823C230ED00B8231230ED00B823F2
:101270000A30ED00B82300008A110A1280218A1575
:101280000A128C248C240800F21F52298A110A1693
:10129000A2218A150A12871287118A110A128F2138
:1012A0008A150A1208001E24A630ED00B8236A3001
:1012B000ED00B8231E24A630ED00B8238830ED00E1
:1012C000B82308001E240030ED00B823EF30ED00F5
:1012D000B8231E240030ED00B823F030ED00B82311
:1012E0001E240730ED00B823D030ED00B8230800ED
:1012F0001E24FF30ED00B8230030ED00B8230800B5
:1013000094128A110A16A2218A150A12402400306A
:10131000ED00B8238A110A12B0218A150A1208308A
:10132000D60087150310871A03148711BB0CD60B40
:1013300091298A110A16A2218A150A124024003026
:10134000ED00B8238A110A12B0218A150A1208305A
:10135000D60087150310871A03148711BC0CD60B0F
:10136000A9298A110A16A2218A150A1208008A11CF
:101370000A16F520B9008A150A1273243908ED00FF
:10138000B8233908ED00B8238712871500008711AC
:1013900087128715000087118712871500008711B3
:1013A000871287158A110A12FF218A150A120B1D4E
:1013B000D7298711FF30D500D50BDC29ED01B823E3
:1013C000ED01B823BD0A0F248A110A16F520B900D1
:1013D0008A150A1273243908ED00B8233908ED0084
:1013E000B823871287150000871187128715000020
:1013F00087118712871500008711871287158A11B8
:101400000A12FF218A150A120B1D042A8711323095
:10141000D500D50B092AED01B823ED01B823BD0A8B
:1014200008001E24A630ED00B8236A30ED00B82372
:101430001E24A630ED00B8238830ED00B8231F30FD
:10144000CB008A110A16F520B900F520BA008A15DA
:101450000A1262243908ED00B8233A08ED00B823D7
:10146000CB0B212A8A110A16F520B900F520BA0003
:101470008A150A1273243908ED00B8233A08ED00E2
:10148000B82387128715000087118712871500007F
:1014900087118712871500008711871287159824F6
:1014A000982492248C248C2487113230D500D50BBB
:1014B000572AED01B823ED01B82308001E24A630F9
:1014C000ED00B8236A30ED00B8231E24A630ED00ED
:1014D000B8238830ED00B8234008B9004108BA00AD
:1014E00062243908ED00B8233A08ED00B8231E3015
:1014F000CB00FF30B900BA0062243908ED00B823F0
:101500003A08ED00B823CB0B792AFF30B900BA00B6
:1015100073243908ED00B8233A08ED00B823871288
:101520008715000087118712871500008711871221
:101530008715000087118712871598249824922414
:101540008C248C2487113230D500D50BA52AED01CF
:10155000B823ED01B82308001E24ED01B823ED01E6
:10156000B8231E246430CB008A110A12FF218A1589
:101570000A120B1DB92ACB0BB42A1E24ED01B82385
:10158000ED01B82308000330CB008A110A16F520BC
:10159000B900F520BA008A150A1262243908ED0054
:1015A000B8233A08ED00B823CB0BC52A8A110A16D6
:1015B000F520B900F520BA008A150A1273243908FB
:1015C000ED00B8233A08ED00B82387128715000014
:1015D0008711871287150000871187128715000071
:1015E0008711871287158A110A12FC218A150A129F
:1015F0000B1DF82A87113230D500D50BFD2AED01DD
:10160000B823ED01B82308008A110A16F520B900A5
:10161000F520BA008A150A120730CB006224390877
:10162000ED00B8233A08ED00B823CB0B042B8A1148
:101630000A16F520B900F520BA008A150A1273249B
:101640003908ED00B8233A08ED00B8238712871552
:1016500000008711871287150000871187128715F0
:1016600000008711871287158A110A12FC218A153A
:101670000A120B1D392B87113230D500D50B3E2BAA
:10168000ED01B823ED01B82308001E247C08ED000D
:10169000B8230E30ED00B8231E247808ED00B823DF
:1016A0006E30ED00B823080051244408ED00B82343
:1016B0004408ED00B82308001E24ED01B823ED0115
:1016C000B823BB01BC012F248A110A12B0218A154C
:1016D0000A120830D60087150310871A03148711E1
:1016E000BB0CD60B6B2B0830D600031087150310EC
:1016F000871A03148711BC0CD60B762B8A110A1695
:10170000A2218A150A128712871108001E24A6300A
:10171000ED00B8238230ED00B82308001E24A63067
:10172000ED00B8238430ED00B82308001E24A63055
:10173000ED00B8238830ED00B82308001E24A63041
:10174000ED00B8239430ED00B82308001E24A63025
:10175000ED00B8235030ED00B8231E24F530ED0025
:10176000B8236E30ED00B8235C23BC18A62B08000C
:101770000830F6006D1887166D1C87128715ED0C62
:101780008711F60BBA2BED0C871208001E24A63029
:10179000ED00B8238E30ED00B8231E24A630ED00F6
:1017A000B8239C30ED00B82308001E24A630ED00BD
:1017B000B8238E30ED00B8231E24A630ED00B823E8
:1017C0008C30ED00B82308001E243F08ED00B8233C
:1017D0000E30ED00B8231E24F830ED00B8236E3033
:1017E000ED00B8231E243E08ED00B8230E30ED00B6
:1017F000B8231E24F730ED00B8236E30ED00B82377
:101800001E243D08ED00B8230E30ED00B8231E2441
:10181000F630ED00B8236E30ED00B82308001E242A
:101820003D08ED00B8230E30ED00B8231E24F6303D
:10183000ED00B8236E30ED00B8230800871287153D
:1018400000008711871287150000871187128715FE
:101850000000871187128715000087110800871282
:1018600087150000871187168715000087118712DA
:10187000871500008711871287150000871108005F
:1018800087168715000087118712871500008711BA
:1018900087128715000087118716871500008711AA
:1018A000080087128715000087118712871500002E
:1018B0008711871687150000871187168715000086
:1018C0008711080087168715000087118712871572
:1018D0000000871187168715000087118716871566
:1018E00000008711080087168715000087118716EA
:1018F0008715000087118716871500008711871646
:101900008715000087110800000008000630FF3E20
:101910008424031D872C08008A110A12F6218A15D7
:101920000A12A42C8A110A12F9218A150A12A42C6F
:101930008A110A12FC218A150A12A42C8A110A1291
:0E194000FF218A150A12A42C0B1DA42C0800EE
:1020000083171030840002308000840A0030800082
:10201000840A0430800083120313080083171030F1
:1020200084000B3080008312031308008A150A1203
:1020300000218A110A162030C6007A08BF007908EC
:10204000BE007808BD008A150A12C6238A110A1636
:102050008A150A128E238A110A16D920003A03190A
:1020600042288A150A12E4238A110A168A150A12CE
:1020700011228A110A164030BD070318BE0A03193F
:10208000BF0A2D288A150A1244218A110A1608004F
:102090008A150A1200218A110A162030C6007A0811
:1020A000BF007908BE007808BD008A150A12C62351
:1020B0008A110A168A150A128E238A110A16D92045
:1020C000003A031974288A150A12E4238A110A16A1
:1020D0008A150A1211228A110A164030BD07031808
:1020E000BE0A0319BF0A5F288A150A1244218A1101
:1020F0000A1608000430C6007A08BF007908BE003E
:102100007808BD008A150A1200218A110A168A155C
:102110000A12C6238A110A168A150A128E238A11F8
:102120000A16D920003A0319A6288A150A12E423B0
:102130008A110A168A150A12C3228A110A16083051
:10214000BD070318BE0A0319BF0A91288A150A128F
:1021500044218A110A16080008008A150A12002173
:102160008A110A160130C6007A08BF007908BE003D
:102170007808BD008A150A12E4238A110A16D920AC
:10218000003A0319D3288A150A1280218A110A16E7
:102190003B088A110A1280263C088A110A128026FE
:1021A0008A110A16BF288A150A1244218A110A16B2
:1021B0000800FF08031DE628FE08031DE628FD08A9
:1021C000031DE628FC08031DE62800344608FC022F
:1021D0000318F4280130FD020318F4280130FE0230
:1021E0000318F4280130FF02FF348A110A128826EE
:1021F0008A110A1608008A110A1280268A110A1604
:1022000008008A150A1200218A110A168A150A1274
:1022100062218A110A163C30BF000030BE00053032
:10222000BD008A150A12E4238A110A160130C4007F
:102230008A150A1254238A110A163C30BF00003056
:10224000BE000430BD008A150A12E4238A110A1662
:102250008030C4008A150A1254238A110A168A157E
:102260000A12AC228A110A1640218A150A12782114
:102270008A110A168A150A1244218A110A160800C0
:102280008A150A1200218A110A162030BF00003078
:10229000BE000030BD008A150A12E4238A110A1616
:1022A0008A150A1280218A110A163B08C0003C08D0
:1022B000C1002030BF000030BE002830BD008A15AC
:1022C0000A12E4238A110A168A150A1253218A1166
:1022D0000A168A150A128E238A110A168A150A12FC
:1022E00086238A110A168A150A12AC228A110A1646
:1022F0008A150A1244218A110A168A150A12002127
:102300008A110A168A150A12C6238A110A168A1514
:102310000A128E238A110A162030BF000030BE0038
:102320000030BD008A150A12E4238A110A168A15A4
:102330000A125E228A110A168A150A1244218A118B
:102340000A1608008A110A12A721B9218A110A1651
:1023500008008A110A12B0218A110A1608000234F4
:10236000033402340234A221871287118A110A121F
:102370007D218A110A168A150A1245238A110A1626
:102380008A150A1244218A110A1608000130C50074
:1023900008000230C50008000230C5000800713096
:1023A000C7008A30C800A230C9008A110A12D92198
:1023B0008A110A1608008A150A1200218A110A16C3
:1023C00008008A150A1244218A110A1608008A1187
:1023D0000A12F6218A110A160B1DEC2908008A112F
:1023E0000A12FC218A110A160B1DF42908008A1111
:1023F0000A12FF218A110A160B1DFC290800080089
:103000000313831600309400831294120800831275
:10301000031301306B0603195A2802306B0603199B
:10302000662803306B0603196D2804306B060319FC
:103030007F2805306B060319912806306B060319AB
:103040009D2807306B060319A92808306B06031961
:10305000B52809306B060319C1280A306B0603191D
:10306000D3280B306B060319E5280C306B060319C7
:10307000EB280D306B06031929290E306B06031956
:10308000632918306B060319702919306B06031970
:103090007D291A306B0603197F291B306B06031933
:1030A00081291C306B06031982291D306B06031918
:1030B00094290800A621711865281D228317103055
:1030C00084006C088000831203130800A621711885
:1030D0006C280330E800E7210800A62171187E283B
:1030E0008A110A16B121E8008A150A16F1218A11FF
:1030F0000A16B221E8008A150A1607220800A6213E
:10310000711890288A110A16B121E8008A150A164A
:10311000F1218A110A16B221E8008A150A1607223F
:103120000800A62171189C288A150A16E800F121CA
:103130008A150A16E80007220800A6217118A82897
:103140008A150A16E800F1218A150A16E8000722F6
:103150000800A6217118B4288A150A16E800F12182
:103160008A150A16E80007220800A6217118C0284F
:103170008A150A16E800F1218A150A16E8000722C6
:103180000800A6217118D2288A110A16AF21E8007A
:103190008A150A16F1218A110A16B021E8008A154B
:1031A0000A1607220800A6217118E4288A110A16B7
:1031B000AF21E8008A150A16F1218A110A16B021FA
:1031C000E8008A150A1607220800A621ED01721BE5
:1031D000ED0A45220800F110831203137C08ED006C
:1031E0004522F119F1147D08ED004522F119F11481
:1031F0007E08ED004522F119F1147808ED00452212
:10320000F119F1147908ED004522F119F1147A0849
:10321000ED004522F119F11416298A110A128826A7
:103220008A150A16ED004522F119F114FE08031D56
:103230001F29FD08031D1F29FC0803192829013037
:10324000FC0203180D29FD0203180D29FE020D29A9
:103250000800A621711862298A110A16B021E80017
:103260008A150A168317103084008001840A8001B1
:10327000840A8001840A8001E721831710308400CA
:10328000840A840A840A0008EA00103084000008D6
:10329000840A840A840A8000103084006A0880004E
:1032A000831710308400840A840A0008EA00103072
:1032B0008400840A0008840A800010308400840A94
:1032C0006A0880000800A62171186F297808ED00AF
:1032D00045227908ED0045227A08ED0045220800D4
:1032E000A62171187C297808ED0045227C08ED00A4
:1032F00045227D08ED0045220800A6210800A621F0
:1033000008000800A6217118D2288A110A16FF2188
:10331000E8008A150A16F1218A110A16FF21E80031
:103320008A150A1607220800A6217118E4288A11B6
:103330000A16FF21E8008A150A16F1218A110A16D9
:10334000FF21E8008A150A160722080071106B0891
:10335000ED004522711B7114FF30EC001D22711A23
:1033600071146C086D02031D7114EC08031DBA2959
:1033700071141D2208008A110A16D9208A150A160E
:10338000003A0319D1294508E8001D22711AD129F4
:103390006C088A110A1280268A150A16E80BC529BC
:1033A000BB2908008A110A16D9208A150A16003A84
:1033B0000319E6294508E8008A110A1288268A15A9
:1033C0000A16ED004522E80BDC29D22908008317F4
:1033D000103084001D226C088000840AE80BEA2962
:1033E00008007808ED004522E8030319062A790849
:1033F000ED004522E8030319062A7A08ED0045226C
:10340000E8030319062A7B08ED00452208007C0822
:10341000ED004522E80303191C2A7D08ED00452232
:10342000E80303191C2A7E08ED004522E80303196E
:103430001C2A7F08ED004522080071126D22F11947
:103440003D2A8A110A12B0218A150A1693012530E5
:10345000940094168C110A30E9008A110A12FF2197
:103460008A150A160B19372A8C1D322A3A2AE90BBB
:103470002D2A3D2A1308EC003E2A711687128A1164
:103480000A12A7218A150A1608006D22F1195E2A70
:1034900071132530940094168C116D0893000A3036
:1034A000E9008A110A12FF218A150A160B195B2AF4
:1034B0008C1D562A5F2AE90B512A5E2A71178A1140
:1034C0000A12F9218A150A160B1D642A87128A111D
:1034D0000A12A7218A150A160800F1118A110A1288
:1034E000C12187128A110A12A7218A150A1664308F
:1034F000E9008A110A12FF218A150A160B19832A7C
:10350000871D7E2A862AE90B792A982A8A110A12AF
:10351000F6218A150A160B1D8B2A87168A110A12A4
:10352000FF218A150A160B19982A8719932A992AB6
:10353000F11508008A110A12C121B0218A150A1654
:10354000EC01071EA12A871DA32A0830E900871D68
:10355000A72A8719A92A0310071A0314EC0DE90BEF
:10356000A72A871DB12A8719B32ADA228A110A12DB
:10357000B9218A150A168715000000000000000016
:1035800087118A110A12C121B0218A150A16080072
:103590008A110A12FF218A150A16E02A8A110A12D4
:1035A000FC218A150A16E02A8A110A12F9218A15C5
:1035B0000A16E02A8A110A12F6218A150A16E02A4A
:0635C0000B1DE02A0800CB
:0435C6000034003499
:00000001FF
