:020000040000FA
:04000800662D080059
:100020008A150A1600208A110A123126F012F212DD
:10003000F213C001C1018611701183120313F8017C
:10004000F901FA01FB01FC01FD01FE01FF01203075
:1000500084007925A000243020020319FD283C30BB
:100060002002031D2928840AC9010230BD00792518
:10007000C907D6208000840ABD0B37282208C80093
:10008000210EC80406304802BD007925C907D620D4
:100090008000840ABD0B45280230BD007925D6209A
:1000A0008000840ABD0B4E287925BC003E303C02FE
:1000B000031D812884030008BC008403000EBC04D7
:1000C00049083C02031D8A28831324308400000859
:1000D000CA008403000ECA04CA0803197E284E30E1
:1000E0004A0203187E280611861590304A07073009
:1000F0000318013E8A004A0890271B280030BF00E1
:1001000099280130BF0099280230BF009928033098
:10011000BF0099280430BF0099280530BF009928F6
:100120000630BF0099280730BF0099280830BF006B
:1001300099280A30C8000030CA00831710308400A4
:100140003F08800006157015C8251B2841346C3403
:100150006C34203459346F34753472342034423462
:10016000613473346534203441347234653420345E
:10017000423465346C346F346E3467342034543414
:080180006F3420345534733450
:10019000F6308100D428EC308100D428D83081009A
:1001A000D4283D308100D4280B110800F700F60058
:1001B0000F30F605473077020318E4284130770204
:1001C000031CE4280930F60776080800B800B900D7
:1001D000F030B905390EF220B9000F303805F220A1
:1001E000B8000800F6000A307602031CFA283730FF
:1001F0007607FC283030760708000530BD00213036
:10020000840079258000840ABD0B0129BC000D30D3
:100210003C02031D7E2830307625323076251B289F
:100220000E30C8000130CA008A110A1614208A1143
:100230000A127015C82508001230C8000230CA0022
:1002400042267015C82508000E30C8000430CA00C8
:1002500070150230D5008A150A1607208A110A1275
:10026000711C35295E24BF00E3247015C8250800E1
:100270000830C8000530CA0083132608BC00250ECC
:10028000BC04BC0803194529472958274829512788
:10029000C82508000830C8000630CA002608C20079
:1002A000250EC2042808C300270EC3042908C40071
:1002B0002A0EC404C82508000A30C8000730CA0046
:1002C0008A110A1620208A110A127015C825080002
:1002D0000A30C8000830CA00A9267015C8250800D1
:1002E0000830C8000930CA002608C100250EC10424
:1002F000C82508000830C8000A30CA002608BC001B
:10030000250EBC04F212BC0803198729F216C82571
:1003100008000830C8000B30CA002608BC00250EB3
:10032000BC04BC08031995299C298A110A16FE20D1
:100330008A110A12F213A2298A110A16FE208A11C2
:100340000A12F217C82508000830C8000C30CA008D
:100350002608BC00250EBC047213BC08031DB1297D
:1003600072170B30D5008A150A1607208A110A1257
:10037000C82508000800080083120313F0160610B1
:1003800008000830C8001230CA00C825080008302C
:10039000C8001B30CA008A110A16E9208A110A1205
:1003A0000430D500902408000830C8001E30CA0070
:1003B0008A110A16E9208A110A120330D5006D2429
:1003C00008000830C8002330CA008A110A16EF203E
:1003D0008A110A121C30D5006D2408000830C800AC
:1003E0002430CA008A110A16EF208A110A121D3021
:1003F000D500902408000830C8002530CA00C82560
:100400008A110A16FE208A110A1208000830C80054
:100410002630CA008A110A16D5208A110A12C82568
:1004200008000830C8002730CA008A110A16D620F2
:100430008A110A12C82508000830C8002830CA00EE
:100440008A110A16FE208A110A12C825502C08307B
:10045000C8002930CA008A110A16CD208A110A1252
:10046000C82508000830C8002A30CA0083132608AF
:10047000BE00250EBE048A110A16F2208A110A1245
:10048000C82508000830C8002B30CA002608BC0068
:10049000250EBC0400303C020319592A01303C02ED
:1004A00003196D2A02303C020319572A802A1727A4
:1004B000802A172762250427622549278719802A61
:1004C0004127871587114927D1208719802A0B1DBD
:1004D000652A0730BF00E324802A172762250427F6
:1004E00041278715871149271930D5008A150A1623
:1004F00007208A110A12711C802A5E24BF00E3249F
:10050000C82508000A30C8002C30CA00F218902A0A
:1005100072198E2A0030CA0003309E2A02309E2AA9
:100520004927871D9C2A5030BD00871D9C2ABD038A
:10053000031D952A00309E2A01309E2ABC00831795
:1005400010308400831203133C0880007015C82506
:1005500008001727622504270830C8002D30CA007C
:10056000C82508000830C8002E30CA00871141276E
:1005700087113827071EC22A8A150A1698228A115F
:100580000A12B92A87155E255E2587114927C825D5
:1005900008000830C8002F30CA001A30D5004E2D90
:1005A0000830C8003030CA001930D5004E2D083050
:1005B000C8003130CA00EF248A110A16FE208A11C1
:1005C0000A12F62408000830C8003230CA000B2591
:1005D0008A110A16FE208A110A121725080008300F
:1005E000C8003330CA002608BC00250EBC04003009
:1005F0003C02031DFD2A17270C2B01303C02031D72
:10060000032B04270C2B02303C02031D092BF1267F
:100610000C2B0630BF00E324C82508000A30C800B0
:100620003430CA00831710308400B42683120313B9
:100630001E08831203178000831203137015C82548
:1006400008000A30C8003530CA0083171030840013
:10065000F126B0261727831203131E0883120317EF
:100660008000831203137015C82508000A30C800E3
:100670003730CA00831710308400B8268312031362
:100680001E08831203178000831203137015C825F8
:1006900008000830C8003930CA000B258A150A1630
:1006A000EB208A110A12F11C582B70160730BF007C
:1006B000172508000830C8003B30CA002508BC00D8
:1006C00001303C020319682B0630BF00E324722B73
:1006D0008A110A16E8208A110A12711D722B07303E
:1006E000BF00E324C82508000830C8003C30CA0019
:1006F000F801F901FA01FB01FC01FD01FE01FF0116
:100700008A150A16EB208A110A124927871D852BA4
:100710008C2B0730BF00E324C82508001030C80028
:100720003D30CA0070150D30D5004E2D0830C80080
:100730003E30CA00EF248A110A16FE208A110A12DE
:10074000F6248A110A1208000830C8003F30CA0097
:100750000B258A110A16FE208A110A121725080095
:100760000830C8004030CA00EF248A110A168620DB
:100770008A110A12F62408000830C8004130CA0065
:100780000B258A110A163D208A110A121725080026
:100790000830C8004230CA00C1248A110A16E82075
:1007A0008A110A12C82508000830C8004330CA0060
:1007B0000B258A110A1626208A110A12172508000D
:1007C0000830C8004430CA000B258A110A163D20A3
:1007D0008A110A12172508000830C8004530CA00DF
:1007E0000B258A110A163D208A110A1217250800C6
:1007F0000830C8004630CA000B258A110A163D2071
:100800008A110A12172508000830C8004730CA00AC
:10081000EF248A110A1660208A110A12F6248A111E
:100820000A1208000830C8004830CA00EF248A11B4
:100830000A1686208A110A12F62408000830C80019
:100840004930CA00EF248A110A1686208A110A123A
:10085000F62408000830C8004A30CA00EF248A1184
:100860000A1686208A110A12F62408000830C800E9
:100870004B30CA002608C000250EC004C825080059
:100880000830C8004C30CA00C82562251926080067
:100890000830C8004D30CA00C8256225252608004A
:1008A0000030BF000A30C8000030CA008317103083
:1008B00084003F0880007015C8250800F11D622CD7
:1008C00009306C2C711E662C10306C2C711F6A2C38
:1008D00011306C2C08306C2C0800C1248A150A16C3
:1008E00007208A110A12711C792C0730BF00E324FB
:1008F0008E2CC8255A257B3076255A25C9018A15A4
:100900000A16BB218A110A124908E6203908762501
:10091000380876255A257D3076255A25C8250800C1
:10092000C1248A150A1607208A110A12711C9C2CF0
:100930000730BF00E324BF2CC82579257B3C031971
:10094000A52C0130BF00E324BF2CC9018A150A166B
:10095000D2218A110A127925D620BC00BC0E792535
:10096000D6203C0449020319B82C0430BF0070168D
:1009700079257D3C0319BF2C0130BF00E324C82535
:10098000080083132C08F8002B0EF8042A08F9003D
:10099000290EF9042808FA00270EFA042608FB009D
:1009A000250EFB043408FC00330EFC043208FD0065
:1009B000310EFD043008FE002F0EFE042E08FF004D
:1009C0002D0EFF0408000A30C8000030CA00701560
:1009D0008317103084003F08800006150800C124EA
:1009E000C8255A257B307625C90108004908E6202C
:1009F00039087625380876257D307625092D0A3088
:100A0000C8000030CA0070158317103084003F08FA
:100A10008000C82508007012C124C82579257B3CB8
:100A20000319152D0130BF007016C9010800792582
:100A3000D620BC00BC0E7925D6203C0449020319FF
:100A4000242D0430BF00701679257D3C03192B2D11
:100A50000130BF00701603138312701E392D0A3047
:100A6000C8000030CA0070158317103084003F089A
:100A70008000C8250800E6203908C907762538080F
:100A8000C907762508007925C907D620B900B90E0F
:100A90007925C907D620B904390808008A150A162D
:100AA00007208A110A12711C582D0730BF00E32459
:100AB000C8250800C8200B1D5B2D0800CE200B1D8B
:100AC0005F2D0800D1200B1D632D0800F300030EDD
:100AD0008301F5000A08F4008A010B18E12274086A
:100AE0008A00750E8300F30E730E0900F01C8A2D28
:100AF000AF2DF01C7C2D982D83120313F01A882D36
:100B000006148316891B852D822D83120610080872
:100B100006100800F01A972D83128C138800061413
:100B20008316091B912D83128C1F942D061008002B
:100B3000831203138C1AA02D86128C1AA02D9D2DC2
:100B40001A08AA2D1819A82D9818A82D0301AA2D46
:100B5000181218168616BA01BA0BAC2D0800C70079
:100B60000C1EB02D470899008316981CB52DB92D81
:100B700083128312080004304802C5008313213019
:100B80008400C9010008C907840AC50BC22D0800EA
:100B90008313203084005B308000840A4808E620FC
:100BA00039088000840A38088000840A4A08E62050
:100BB00039088000840A38088000840A701DFD2DE1
:100BC00008304802C5000310C50C2530C600831745
:100BD0001030F7008317770884000008E62083139D
:100BE0004608840039088000C60A840A3808800054
:100BF000C60A8317F70AC50BEA2DBB250330480246
:100C0000F6002030760784004908E6203908800085
:100C1000840A38088000840A5D3080004808C500D6
:100C200083132030840000087625840AC50B132E18
:100C3000080083120313861683164030990083122E
:100C400018121A081A0818160800831203138616B9
:100C5000831615309900831218121A081A081816EC
:100C600008008316D0308700A00005148514851570
:100C700004309F00831280309F0017278030CD0002
:100C8000C426080086157208CC0023278312031798
:100C9000103084006126840A6D26840A7926840A2D
:100CA0008226840A8F26031383124C08F2007218DE
:100CB000F126F218042772191727F2192327861133
:100CC000080003138312B42633301E02031C9D2E2A
:100CD0009A301E020318A12EA52E03138312B826E4
:100CE0005B081E02031C9D2E5D081E020318A12E28
:100CF000A52E031383121727B026A4081E0203187B
:100D0000A12EA52E031383120427B42633301E020E
:100D1000031C9D2E9A301E020318A12EA52E03132C
:100D20008312F126B02617275B081E02031C9D2E96
:100D30005D081E020318A12EA52E83170130800026
:100D4000080083178030800008008317003080007F
:100D500008008317103084000030831780000800DB
:100D60009F121F129F11BC2E9F121F129F15BC2E87
:100D70009F121F169F15BC2E5F271F145F271F157C
:100D80001F19C02E1F100800031383128610113084
:100D9000CB00D0264D08CB00D02686146327080050
:100DA0000830BB00CB0D031CD72E8617D82E861318
:100DB0000000000000000000061700000000000016
:100DC00000000613BB0BD22E0800861406178617E8
:100DD0000800861406178613080086140617861363
:100DE00008000708D1005115D1145110510887008F
:100DF0007214F2107211F2118A110A12D1208A11A2
:100E00000A120B1D012F08000708D1005115D1103F
:100E10005114510887007210F2147211F2118A11E4
:100E20000A12D1208A110A120B1D142F080007087C
:100E3000D1005111D1145114510887007210F210D1
:100E40007215F21108000708D1005115D114511480
:100E5000510887007210F2107211F21508009412F6
:100E600083162016A012200887008312851608001A
:100E7000941283162016A01620088700831285126C
:100E8000080094128316A01120088700831205150C
:100E9000080094128316A0152008870083120511FC
:100EA0000800051281010B110B1D542F721208004E
:100EB000051681010B110B1D5B2F72160800BA017C
:100EC000BA0B602F0800CE200B1D642F08000030E5
:100ED000CF004F08CD00C426F126B02617275C08A6
:100EE0001E020318782FCF0F692F0030CD00C426C3
:020EF0000800F8
:100F20008207000010291C29502C242938294A291D
:100F30005C29682970297A298929A429502CBA2981
:100F4000BB29502CBC29C129502C502C502C502C82
:100F5000502C502C502C502CC729502C502CD429BC
:100F6000502C502C502C502CE129EE29FB29062A1C
:100F7000112A1C2A272A322A422A822AA92AB22A7C
:100F8000C92AD02AD72AE32AEF2A0E2B212B502C4C
:100F9000362B502C492B502C5A2B742B8E2B962BE6
:100FA000A42BB02BBC2BC82BD42BE02BEC2BF82B79
:100FB000042C122C1E2C2A2C362C402C482C502C65
:040FC000502C0800A9
:101200002C220622C22219221622080008000800F9
:101210008A110A16C120DE00C120DF008A150A12D9
:101220004522EB219022162208008A110A16C120BD
:10123000DE00C120DF008A150A124522EB21902230
:101240001F22A9228A110A12C8208A150A120B1D10
:10125000272908004522EB2190221F22A9228A116A
:101260000A12C8208A150A120B1D342908001A30E8
:101270003E06031940291B303E0603198C2908003D
:101280000330D9000330D8008A110A16C120DE00CD
:10129000C120DF008A150A124522EB21D9037722EB
:1012A0008A110A16A9208A150A12003A0319702910
:1012B000D80B44298A110A16C120DE00C120DF00A4
:1012C0008A150A124522EB21D90390221F22A92256
:1012D0008A110A12C8208A150A120B1D6D298A2943
:1012E000D90803197B29FF30DF00DE004522EB21FE
:1012F0007722D9037029FF30DF00DE004522EB2181
:1013000090221F22A9228A110A12C8208A150A12C5
:101310000B1D8829772208008A110A16C120DE00D9
:10132000C120DF008A150A124522EB2190221F22DC
:10133000A9228A110A12C8208A150A120B1D9E2999
:1013400077220800A4297722E308031DAA29E208CE
:101350000319B0290130E2020318A329E302A329EB
:101360000800B3297722E2080319BA290130E20202
:101370000318B22908005E22C42108005E22C4219D
:1013800008002C2206220800E001E1018A110A1659
:10139000DE208A150A12871587110830BB008715D1
:1013A00087110310871A0314E00CBB0BCF290630FA
:1013B000BB00871587110310871A0314E10CBB0BC0
:1013C000D929E10CE10C871587118A110A16D7205B
:1013D0008A150A1208008712871587110830BB008A
:1013E0008716DE0C031C871287158711BB0BF029AB
:1013F0000630BB008716DF0C031C87128715871188
:10140000BB0BFA2987128715871108005F08EC00CB
:101410005E08EB00FF30DF00DE00EB216C08DF0030
:101420006B08DE0008000130F700222A0230F700C6
:10143000222A0430F700222A0530F700222A06303B
:10144000F700222A8A110A12CE208A150A120B1DD1
:10145000272AF70B222A0800871287150000871118
:1014600087128715000087118712871500008711E2
:1014700087128715000087118712871500008711D2
:101480008712871500008711080087128715000052
:1014900087118716871500008711871287150000AE
:1014A00087118712871500008711871287150000A2
:1014B000871187128715000087110800871287158A
:1014C000000087118712871500008711871687157E
:1014D0000000871187128715000087118712871572
:1014E00000008711871287150000871108008712F6
:1014F000871500008711871687150000871187164A
:101500008715000087118712871500008711871241
:1015100087150000871187128715000087110800C2
:101520008712871500008711871287150000871121
:10153000871287150000871187168715000087110D
:1015400087168715000087118712871500008711FD
:10155000080087128715000087118716871500007D
:1015600087118712871500008711871687150000DD
:1015700087118712871500008711871287150000D1
:1015800087110800871687150000871187128715B5
:1015900000008711871287150000871187168715AD
:1015A00000008711871287150000871187128715A1
:0615B00000008711080095
:102000008A110A122F27412787128711F1268A1178
:102010000A1608008A110A122F27412787128711F2
:1020200017278A110A160800831710308400013020
:102030008000840A01308000840A0030800008009B
:102040008317103084000F3080000800F112002048
:102050007908E3007808E2008A150A12A2218A11A1
:102060000A16A920003A03193B288A150A123721BB
:102070008A110A1631280A200800F11200208A1558
:102080000A12C1218A110A167808E2008A150A127A
:10209000B1218A110A16C120DE00C120DF008A1595
:1020A0000A122A218A110A160130FC0203195E283D
:1020B0008A150A1277228A110A164B280A2008006C
:1020C000F11200207908E3007808E2008A150A126C
:1020D000A2218A110A16A920003A031984288A1518
:1020E0000A12BE218A110A1660088A110A123B25BB
:1020F00061088A110A123B258A110A168A150A12EA
:1021000077228A110A166B280A200800F112002093
:102110008A150A12C1218A110A167808E2008A1566
:102120000A12B1218A110A16A920003A0319A72818
:102130008A150A12BB218A110A166008C720610895
:10214000C7208A150A1277228A110A1694280A20B3
:102150000800FF08031DB528FE08031DB528FD086B
:10216000031DB528FC08031900340130FC020318D4
:10217000C028FD020318C028FE020318C028FF0271
:10218000FF348A110A1243258A110A1608008A119F
:102190000A123B258A110A16080000208A150A1225
:1021A00000218A110A160A200800080008008A1176
:1021B0000A122F2741278A110A1608008A110A12CB
:1021C00038278A110A160800023402340234023415
:1021D00008000130E70008000230E7000800023084
:1021E000E70008003830DB008A30DC00AF30DD006B
:0E21F0008A110A1267278A110A1608000034A5
:103000000313831600309400831294120800831275
:1030100003130130550603195A28023055060319C7
:1030200066280330550603196D2804305506031928
:103030007F280530550603199128063055060319D7
:103040009D28073055060319A9280830550603198D
:10305000B528093055060319C1280A305506031949
:10306000D3280B3055060319E5280C3055060319F3
:10307000EB280D305506031929290E305506031982
:10308000632918305506031970291930550603199C
:103090007D291A30550603197F291B30550603195F
:1030A00081291C305506031982291D305506031944
:1030B00094290800A621711865281D228317103055
:1030C000840056088000831203130800A62171189B
:1030D0006C280330D200E7210800A62171187E2851
:1030E0008A110A16E620D2008A150A16F1218A11E1
:1030F0000A16E720D2008A150A1607220800A62120
:10310000711890288A110A16E620D2008A150A162C
:10311000F1218A110A16E720D2008A150A16072221
:103120000800A62171189C288A150A16D200F121E0
:103130008A150A16D20007220800A6217118A828AD
:103140008A150A16D200F1218A150A16D200072222
:103150000800A6217118B4288A150A16D200F12198
:103160008A150A16D20007220800A6217118C02865
:103170008A150A16D200F1218A150A16D2000722F2
:103180000800A6217118D2288A110A16E420D2005C
:103190008A150A16F1218A110A16E520D2008A152D
:1031A0000A1607220800A6217118E4288A110A16B7
:1031B000E420D2008A150A16F1218A110A16E520A8
:1031C000D2008A150A1607220800A621D701721B11
:1031D000D70A45220800F110831203137C08D70098
:1031E0004522F119F1147D08D7004522F119F11497
:1031F0007E08D7004522F119F1147808D70045223E
:10320000F119F1147908D7004522F119F1147A085F
:10321000D7004522F119F11416298A110A12432503
:103220008A150A16D7004522F119F114FE08031D6C
:103230001F29FD08031D1F29FC0803192829013037
:10324000FC0203180D29FD0203180D29FE020D29A9
:103250000800A621711862298A110A16E520D200F9
:103260008A150A168317103084008001840A8001B1
:10327000840A8001840A8001E721831710308400CA
:10328000840A840A840A0008D400103084000008EC
:10329000840A840A840A8000103084005408800064
:1032A000831710308400840A840A0008D400103088
:1032B0008400840A0008840A800010308400840A94
:1032C000540880000800A62171186F297808D700DB
:1032D00045227908D70045227A08D7004522080000
:1032E000A62171187C297808D70045227C08D700D0
:1032F00045227D08D70045220800A6210800A62106
:1033000008000800A6217118D2288A110A16FE208A
:10331000D2008A150A16F1218A110A16FE20D2005F
:103320008A150A1607220800A6217118E4288A11B6
:103330000A16FE20D2008A150A16F1218A110A16F1
:10334000FE20D2008A150A160722080071105508BF
:10335000D7004522711B7114FF30D6001D22711A4F
:10336000711456085702031D7114D608031DBA299B
:1033700071141D2208008A110A16A9208A150A163E
:10338000003A0319D1296708D2001D22711AD129E8
:1033900056088A110A123B258A150A16D20BC5292E
:1033A000BB2908008A110A16A9208A150A16003AB4
:1033B0000319E6296708D2008A110A1243258A15E3
:1033C0000A16D7004522D20BDC29D2290800831720
:1033D000103084001D2256088000840AD20BEA298E
:1033E00008007808D7004522D2030319062A790875
:1033F000D7004522D2030319062A7A08D7004522AE
:10340000D2030319062A7B08D700452208007C084E
:10341000D7004522D20303191C2A7D08D700452274
:10342000D20303191C2A7E08D7004522D2030319B0
:103430001C2A7F08D7004522080071126D22F1195D
:103440003D2A8A110A1238278A150A169301253057
:10345000940094168C110A30D3008A110A12D120DC
:103460008A150A160B19372A8C1D322A3A2AD30BD1
:103470002D2A3D2A1308D6003E2A711687128A117A
:103480000A122F278A150A1608006D22F1195E2AE2
:1034900071132530940094168C11570893000A304C
:1034A000D3008A110A12D1208A150A160B195B2A39
:1034B0008C1D562A5F2AD30B512A5E2A71178A1156
:1034C0000A12CB208A150A160B1D642A87128A114C
:1034D0000A122F278A150A160800F1118A110A12FA
:1034E000492787122F278A150A16C6220A30D300C9
:1034F0008A110A12D1208A150A160B19822A871DF1
:103500007D2A852AD30B782A962AD82287160A3054
:10351000D3008A110A12D1208A150A160B19932A90
:1035200087198E2A972AD30B892A962AF115080023
:103530008A110A12492738278A150A16D601071E4A
:103540009F2A871DA12A0830D300871DA52A871925
:10355000A72A0310071A0314D60DD30BA52A871D1B
:10356000AF2A8719B12AD8228A110A1241278A154F
:103570000A168715000000000000000087118A115C
:103580000A12492738278A150A1608008A110A12D2
:10359000D1208A150A16DE2A8A110A12CE208A152F
:1035A0000A16DE2A8A110A12CB208A150A16DE2A8A
:1035B0008A110A12C8208A150A16DE2A0B1DDE2A75
:0235C000080001
:0435C200003400349D
:00000001FF
