:020000040000FA
:08000800FB00030EFC000408DC
:0A001000FD000A08FE008A015D2DC4
:0C00240006107011031383167F308C054A
:1000300083128C138A110A12FE258A110A128A155C
:100040000A1200208A110A12AE01BC018A110A129A
:10005000F3268A110A120B178B178C138C110313BA
:10006000831608308C04831206118612861206103D
:100070007011031383167F308C05831286118A1149
:100080000A12162130218A110A12F001F1018A1593
:100090000A1250238A110A1283171030AA00F01591
:1000A000F11471118A110A16D4208A110A1224300F
:1000B0003106031D5D28711561283C303106031D92
:1000C00052288A110A16D4208A110A12711D6C282E
:1000D0000D30310603193D293E303106031D6128DC
:1000E0008A110A164E208A110A128313A9032908BD
:1000F00084000008A600A90329088400000EA604B5
:1001000034082606031DAA288313A430A900290851
:1001100084000008B500A90329088400000EB50476
:10012000B50803199E284E30350603189E28003066
:10013000350707308A003508002736280030AD0023
:10014000B9280130AD00B9280230AD00B92803301C
:10015000AD00B9280430AD00B9280530AD00B9288C
:100160000630AD00B9280730AD00B9280830AD0021
:10017000B9280A30B3000030B5008313A0308400E2
:080180002D0880008B243628B5
:1001A000E420D828E120D828DE20D828DB20D82851
:1001B0000B1DD8280800F6308100E628EC308100BD
:1001C000E628D8308100E6283D3081000B11080078
:1001D000A500A4000F30A405473025020318F62817
:1001E00041302502031CF6280930A4072408080022
:1001F000A100A200F030A205220EA4000A302402C1
:10020000031C052937302407072930302407A200B2
:100210000F302105A4000A302402031C12293730B4
:100220002407142930302407A10008008317103058
:10023000AA006030A0002A088400FF308000AA0ACB
:10024000A00B1B29080083179030AB006030A00082
:100250002B088400FF308000AB0AA00B282908007F
:100260008313A030A9001830A00029088400FF30B3
:100270008000A90AA00B352908003030B2008A118D
:100280000A16E7208A110A123230B2008A110A16C1
:10029000E7208A110A1236280E30B3000130B5006B
:1002A0008A110A16E6258A110A1270148B24080096
:1002B0001230B3000230B5008A110A1214268A11D6
:1002C0000A1270148B2408000E30B3000430B500FD
:1002D0008A150A1200228A110A1270148B2408004F
:1002E0000830B3000530B5008A110A12F3268A11CE
:1002F0000A128A110A12D6208A110A1270108B244F
:1003000008000830B3000630B50070108B240800D8
:100310000A30B3000730B5008A110A16F8258A1191
:100320000A1270148B2408000A30B3000830B5009C
:100330008A110A1251268A110A1270148B2408009D
:100340000830B3000930B5008313A630A90029088E
:1003500084000008AE00A90329088400000EAE0442
:1003600000302E060319B82901302E060319BE29C4
:100370008A110A163E268A110A12BE2970108B2491
:1003800008000830B3000B30B5008313A63084009A
:100390000008A6008403000EA604013026060319F7
:1003A000D7298A110A163E268A110A12DC298A11D7
:1003B0000A16FF258A110A1270108B2408000E30CD
:1003C000B3000E30B5008A110A16E0228A110A1213
:1003D00070148B2408000830B3000F30B50051248E
:1003E00070108B2434258A150A12C9208A110A122A
:1003F0003F25F21C012A0730AD00042570148B2420
:10040000080070108B2408000830B3001430B500C9
:10041000512470108B240F258A150A1234208A115A
:100420000A121825F21C1A2A0730AD000425701490
:100430008B24080070108B2408000A30B300183099
:10044000B5008A110A1686268A110A1270148B24A6
:1004500008001030B3001930B50051248A110A1673
:1004600002238A110A1270148B2408000C30B30086
:100470001A30B50051248A110A16A7228A110A12CD
:1004800070148B2408000830B3001B30B5005124D1
:1004900070108B2434258A150A12F7228A110A1249
:1004A0003F2570108B2408000830B3001E30B500C3
:1004B000512470108B240F258A150A129D228A114F
:1004C0000A12182570108B2408000830B300293058
:1004D000B5008A110A167D268A110A1270108B2423
:1004E00008000830B3002A30B5008313A63084001A
:1004F00000088403000E70108B2408000830B3003D
:100500002B30B5008313A63084000008A6008403B6
:10051000000EA604003026060319992A013026068B
:100520000319D22A023026060319972AF72ADD2654
:10053000F72A8A110A12DD268A110A128A110A1272
:10054000D0208A110A128A110A12D3268A110A129D
:100550008A110A12D0208A110A12941203138316E8
:10056000D01550088700831205118719F72A9412B5
:1005700003138316D01150088700831205158715C1
:100580008711941203138316D01550088700831225
:100590000511E4208719F72A0B1DCA2A0730AD0080
:1005A0000425F72A8A110A12DD268A110A128A11F5
:1005B0000A12D0208A110A128A110A12D3268A112D
:1005C0000A1203138316D0115008870083120515F1
:1005D0008715871103138316D015500887008312DF
:1005E00005111930DB008A150A128A110A127010DF
:1005F0008B2408000A30B3002C30B50001302E06E1
:10060000031D052B0130D6000A2B8A150A121A2069
:100610008A110A128313A0308400560880007014D7
:100620008B2408000830B3002D30B50070108B24E7
:1006300008000830B3002E30B5008A150A12E921EF
:100640008A110A1270108B2408000830B3002F3072
:10065000B5008A150A125B218A110A12F21C362B88
:100660000730AD00042570148B24080070108B2413
:1006700008000830B3003030B5008A150A12BA21DC
:100680008A110A1270108B2408000830B30033302E
:10069000B5008313A630A900290884000008BB0018
:1006A000A90329088400000EBB0400303B06031D8B
:1006B0005F2B8A110A12DD268A110A12822B013061
:1006C0003B06031D822B8A110A12D3268A110A12B5
:1006D00003138316D01550088700831205110313E6
:1006E00083165016D01650088700831285128A117F
:1006F0000A12E1208A110A128719772B0B1D7C2B15
:100700009416822B70108B2408000A30B30034300A
:10071000B5008A110A125B268A110A128313A030CF
:1007200084001E08800070148B2408000A30B30077
:100730003530B5008A110A12C9265726DD268A11DE
:100740000A128313A03084001E08800070148B24CA
:1007500008000A30B3003730B5008A110A125F264C
:100760008A110A128313A03084001E0880007014BE
:100770008B2408001030B3003D30B5008A150A12F2
:100780004A228A110A12F21CC82B0730AD00042538
:1007900070148B2408000830B3003F30B50051249A
:1007A00070108B2434258A110A169D258A110A128D
:1007B0003F2570108B2408000830B3004330B5008B
:1007C000512470108B2434258A110A1697268A1119
:1007D0000A123F2570108B2408000830B300453002
:1007E000B500512470108B2434258A110A169726DF
:1007F0008A110A123F2570108B2408000830B300BC
:100800004730B500512470108B240F258A110A1629
:10081000D0268A110A12182570108B24080008307F
:10082000B3004930B500512470108B240F258A1174
:100830000A16D0268A110A12182570108B24080077
:100840000830B3004A30B500512470108B248A114F
:100850000A16D4268A110A120330DF008A110A16FA
:1008600000208A110A12701F3B2C1230AD000425A3
:1008700070148B24080070108B2408000030AD0029
:100880000A30B3000030B5008313A030A900290856
:1008900084002D08800070148B2408000830502C30
:1008A00008008313AC3084000008F3008403000EBA
:1008B000F304AA3084000008F4008403000EF4045A
:1008C000A83084000008F5008403000EF504A6306B
:1008D00084000008F6008403000EF604B43084009F
:1008E0000008F7008403000EF704B230840000080B
:1008F000F8008403000EF804B03084000008F9000A
:100900008403000EF904AE3084000008FA0084036A
:10091000000EFA04080083171030AA002A08840089
:100920005B308000AA0A33088A110A12F8208A1163
:100930000A122A08840022088000AA0A2A088400D1
:1009400021088000AA0A35088A110A12F8208A11A3
:100950000A122A08840022088000AA0A2A088400B1
:1009600021088000AA0A701CD62C08303302A70088
:100970000310A70C1530AA008313A030A90083131D
:100980002908840000088A110A12F8208A110A1224
:10099000A90A83172A08840022088000AA0A2A08C4
:1009A000840021088000AA0AA70BBF2C0430330260
:1009B000A70083171130AA00B4012A088400000898
:1009C000B407AA0AA70BDD2C03303302A4001030B1
:1009D0002407840034088A110A12F8208A110A12A6
:1009E0002A08840022088000AA0A2A088400210814
:1009F0008000AA0A2A0884005D3080008A110A1645
:100A0000B2208A110A1208000A30B3000030B50083
:100A100070148313A03084002D08800008007B3000
:100A2000B2008A110A16E7208A110A12B4010800DE
:100A300034088A110A12F8208A110A122208B20018
:100A40008A110A16E7208A110A122108B2008A11B7
:100A50000A16E7208A110A127D30B2008A110A169E
:100A6000E7208A110A1208008A110A16D4208A1176
:100A70000A127B303106031D342DB40108008A119F
:100A80000A16D4208A110A12E820A600A60E8A119E
:100A90000A16D4208A110A12E82026043406031903
:100AA000532D0430AD008A110A16D4208A110A127F
:100AB0007D303106031D532D08008C1B622D8C19CF
:100AC0007C2DF52D06107011031383167F308C05D5
:100AD0008312F01D792D6C2D831203130808B100C9
:100AE00083172A08840031088000AA0AF0168C13A4
:100AF000F52D70168C13F52D701906107210A817AD
:100B00007211F2122810A8102811A8111308DC0085
:100B10008C119301A8170B305C06031D912D7211E7
:100B2000A32D2B305C06031D972D7215A32DA81342
:100B30004B305C06031D9E2D7211A32D6B305C069D
:100B4000031DD52D7215031383165016D0125008AD
:100B50008700831285168313C03084006008BA00B2
:100B600000088C118C1DB22D8C119300840ABA0BD5
:100B7000B02DFF308C118C1DBB2D8C1193000030DB
:100B80008C118C1DC12D8C119300031383165016EC
:100B9000D016500887008312851200308C118C1DEE
:100BA000CF2D8C1193007214EA2D2814A81307304E
:100BB0005C06031DDD2DA814EA2D09305C06031D1B
:100BC000E32D2815EA2D0A305C06031DE92DA81532
:100BD000EA2DF2168C1170190614031383165016A1
:100BE000D01650088700831285127E088A007D087F
:100BF00084007C0E8300FB0E7B0E0900831603131A
:100C0000D0308700D00005148514851504309F006E
:100C1000831280309F0004309F0083160912173022
:100C200089008312E726080086153C08B900E726EC
:100C30008313A030A9003726382639263A263B26CA
:100C40000313831200303906031D282EDD26352EAE
:100C500001303906031D2E2ED326352E10303906CD
:100C6000031D342EC926352EE726861108004A2E8C
:100C70004A2E4A2E4A2E4A2E831329088400013018
:100C80008000A90A080083132908840080308000AE
:100C9000A90A080083132908840000308000A90AEB
:100CA00008008313A03084000030800008009F12E9
:100CB0001F129F11632E9F121F129F15632E9F12EA
:100CC0001F169F15632EF5261F14F5261F158A1172
:100CD0000A12E4208A110A121F1D702E0B196C2EA5
:100CE0001F1008000313831286101130B6008226ED
:100CF0003708B600822686148A110A12D2208A1179
:100D00000A1208000830B800B60D031C892E861799
:100D10008A2E861300000000000000000617000065
:100D20000000000000000613B80B842E0800861493
:100D300006178617080086140617861308008614FF
:100D400006178613080000303B06031DA92EDD267A
:100D5000C82E01303B06031DC82ED326031383166D
:100D6000D0155008870083120511031383165016FF
:100D7000D01650088700831285128A110A12E120CA
:100D80008A110A128719BD2E0B1DC22E9416C82E69
:100D900008000708BD003D15BD103D143D08870043
:100DA0001030BC0008000708BD003D15BD103D1403
:100DB0003D0887000130BC0008000708BD003D1158
:100DC000BD143D143D0887000030BC000800070832
:100DD000BD003D15BD143D143D0887001130BC0019
:100DE0000800F32E080005160800A301A30BF62E39
:040DF00008000800EF
:100E0000820700004C2958293E2C64297029812929
:100E100088299429A0293E2CC1293E2C3E2CDF296B
:100E2000EB293E2C3E2C3E2C3E2C042A3E2C3E2C04
:100E30003E2C1D2A292A362A432A3E2C3E2C542A8F
:100E40003E2C3E2C3E2C3E2C3E2C3E2C3E2C3E2C52
:100E50003E2C3E2C652A712A7E2AFA2A122B192B47
:100E6000252B392B3E2C3E2C452B852B962B3E2CAF
:100E7000A92B3E2C3E2C3E2C3E2C3E2CBA2B3E2C3D
:100E8000CB2B3E2C3E2C3E2CDC2B3E2CED2B3E2C3B
:100E9000FE2B3E2C0F2C202C3E2C3E2C3E2C3E2C90
:040EA0003E2CFF34B1
:1010000083165016D012D015500887008312051190
:1010100085128316003094008312941205309400D8
:10102000F63081000B11871910280B1D13288C1125
:101030009416080001303C060319232800303C06B2
:1010400003192F2831280724F218312872192F2864
:10105000A81F2B282D2800303228013032280230DA
:1010600032280330D600080086168612861607241A
:10107000F218C42803138316F7308C0583128313E8
:10108000C030AC000530E0002C08840083308000C4
:10109000AC0A2C08840004308000AC0A2C088400C0
:1010A00000308000AC0A2C08840077088000AC0A6D
:1010B0002C088400780880000724F218C428031341
:1010C0008316F7308C0583128313C030AC000530D3
:1010D000E0002C08840083308000AC0A2C088400D7
:1010E00073088000AC0A2C08840074088000AC0AE5
:1010F0002C08840075088000AC0A2C08840076084F
:1011000080000724F218C42803138316F7308C05D7
:1011100083128313C030AC000630E0002C0884003A
:1011200081308000AC0A2C08840050308000AC0A6A
:101130002C08840001308000AC0A2C0884000030A8
:101140008000AC0A2C08840000308000AC0A2C0817
:101150008400770380000724F218C4281E24F218A4
:10116000C4285F24F218C4281308D400D40A6C23BE
:10117000F218C4287E23C923D403D403D403D40390
:10118000D408031DB728C528080050230724861259
:1011900008000724F21857297708D100D10AD10A8C
:1011A000D10AD10A03138316F7308C0583128313F7
:1011B000C030AC000630E0002C0884008030800095
:1011C000AC0A2C08840051038000AC0A2C0884006F
:1011D00050308000AC0A2C08840001308000AC0A3A
:1011E0002C08840000308000AC0A2C0884000030F9
:1011F00080006B24F21857297708D4000310D40C10
:101200000310D40C5923A223DB23F2185729D40B43
:101210000229EC235023072403138316F7308C058F
:1012200083128313C030AC000530E0002C0884002A
:1012300083308000AC0A2C08840005308000AC0AA2
:101240002C08840000308000AC0A2C088400770849
:101250008000AC0A2C088400780880000724F2186B
:10126000572903138316F7308C0583128313C0307C
:10127000AC000530E0002C08840083308000AC0A0C
:101280002C08840073088000AC0A2C0884007408C1
:101290008000AC0A2C08840075088000AC0A2C0879
:1012A0008400760880000724F21857295829F21480
:1012B0005023072408000724F218B52903138316C6
:1012C000F7308C0583128313C030AC000530E0008A
:1012D0002C08840083308000AC0A2C088400023083
:1012E0008000AC0A2C08840000308000AC0A2C0876
:1012F000840000308000AC0A2C088400003080009C
:101300000724F218B5293A24F218B52903138316D5
:10131000F7308C0583125F24F218B5291308D0002A
:10132000D00A5F24F218B5291308DA005F24F218F6
:10133000B5291308D9005F24F218B5291308D8007D
:101340005F24F218B5291308D70000305706031D93
:10135000B52902305806031DB529AA305906031DC8
:10136000B529AA305A060319B729F21408005023E8
:10137000072408000724F218E22903138316F73024
:101380008C0583128313C030AC000530E0002C08BC
:10139000840083308000AC0A2C0884000130800077
:1013A000AC0A2C08840000308000AC0A2C088400B1
:1013B00000308000AC0A2C08840000308000072434
:1013C000F21CE329F21450230724A81F0000000098
:1013D00008000724F218FD2903138316F7308C0543
:1013E00083128313C030AC000130E0002C0884006D
:1013F0008430800049247219FA29502307240800F8
:101400000724F218452A03138316F7308C0583123C
:101410008313C030AC000530E0002C08840083301A
:101420008000AC0A2C08840003308000AC0A2C0831
:10143000840000308000AC0A2C088400003080005A
:10144000AC0A2C088400003080000724F218452ADA
:101450003A24F218452A03138316F7308C058312B9
:101460008313A230A9005F24F218452A1308043020
:10147000D00083135F24F218452A2908840013083A
:101480008000A903D00B392A472AF2140800502300
:10149000072408000724F218922A03138316F73052
:1014A0008C0583128313C030AC000630E0002C089A
:1014B000840081308000AC0A2C0884004430800015
:1014C000AC0A2C08840001308000AC0A2C0884008F
:1014D00000308000AC0A2C08840000308000AC0A88
:1014E0002C088400033080000724F218922A1E245E
:1014F000F218922A8313A430A9005F24F218922ACA
:101500002908840013088000A9030430D0005F2458
:10151000F218922A2908840013088000A903D00B2E
:10152000872A932A08005023072408008A110A12E8
:10153000DD26D3268A150A1208000724F218F32A9A
:10154000F8080319A42AA92A7708E300D400D403D1
:10155000AD2A0030E300FF30D40003138316F730C8
:101560008C0583128313C030AC000630E0002C08D9
:10157000840081308000AC0A2C088400730880004D
:10158000AC0A2C08840074088000AC0A2C08840083
:1015900075088000AC0A2C08840076088000AC0A2C
:1015A0002C088400540880000724F218F32A1E2413
:1015B000F218F32A5F24F218F32A1308D400D40A8D
:1015C0006C23F218F32A7E23C923D403D403D40353
:1015D000D403D408031DE02AA1249324003A03195C
:1015E000F42AB124A02A0800502307240800072465
:1015F000F2184C2BF8080319FE2A032B7708E30096
:10160000D400D403072B0030E300FC30D4000313D4
:101610008316F7308C0583128313C030AC0006307C
:10162000E0002C08840080308000AC0A2C08840084
:101630007708D100D10AD10A510A8000AC0A2C08DF
:10164000840073088000AC0A2C08840074088000B1
:10165000AC0A2C08840075088000AC0A2C088400B1
:10166000760880006B24F2184C2B7708D400E30036
:101670005923A223DB23F2184C2BD403D403D40325
:10168000D403D408031D382BEC23A1249324003A5F
:1016900003194D2BB124FA2A08005023072408000F
:1016A0008313C030AC0084000130E000853080003E
:1016B00008008313C030AC000830D0008A110A162D
:1016C000D4208A150A122C0884003108B40780003F
:1016D000AC0AD00B5E2B080083179030AB000430AF
:1016E000D0008C118C1D722B8C112B0884001308D8
:1016F0008000AB0AD00B712B080008008317103054
:10170000AA0083179030AB000430D30083172B0856
:10171000840000088A110A12F8208A150A12220889
:10172000B4072108B40783172A0884002208800020
:10173000AA0A2A08840021088000AA0AAB0AD30B4F
:10174000862B08008313C030AC0083179030AB00A9
:101750000430D30083132C08840000088A110A1275
:10176000E8208A150A12D100D10EAC0A2C08840098
:1017700000088A110A12E8208A150A12D104AC0A5C
:1017800083172B08840051088000AB0AD30BAA2BC7
:10179000080083171030AA000830D0002A088400FF
:1017A0000008B2008A110A16E7208A150A12AA0A4E
:1017B000D00BCE2B080083179030AB000430D00044
:1017C0002B08840000088C118C1DE42B8C119300D5
:1017D000AB0AD00BE02B0800FF308C118C1DEE2BD8
:1017E0008C11930000308C118C1DF42B8C11930004
:1017F000031383165016D0165008870083128512E3
:1018000000308C118C1D022C8C119300080072107A
:10181000F2102030D5000313831608308C04831295
:101820008A110A12E4208A150A1272181D2C0B1D47
:10183000152CD50B102C1C2CF2140800A811F2103A
:101840008C111030D5000313831608308C048312DA
:101850008A110A12E4208A150A12A819342C0B1DC9
:101860002D2CD50B282CF21403138316F7308C057E
:1018700083120800FF30D5008A110A12E4208A156D
:101880000A122819482C0B1D412CD50B3C2CF214A4
:101890000800A810F2101030D5000313831608308A
:1018A0008C0483128A110A12E4208A150A12A818DD
:1018B0005E2C0B1D572CD50B522CF21408008C11EA
:1018C000F2103D3081000B118C19692C0B1D642C1A
:1018D000F2148C11080072108C118C1D6D2C8C115F
:1018E0001308DC008C11003093004B305C06031DA4
:1018F0006C2C031383165016D012500887008312E5
:1019000085168313C030AC006008D3002C08840017
:1019100000088C118C1D8A2C8C119300AC0AD30BFF
:10192000862C72140800FA08031DA02CF908031D68
:10193000A02CF808031DA02CF708031DA02C0034D0
:10194000FF34E3080319A82C6308F7020318B02C2E
:101950000130F8020318B02CF9020318B02CFA0277
:101960000800E3080319B82C6308F307031CC02C14
:101970000130F407031CC02CF507031CC02CF6072C
:0219800008005D
:1020000083171030AA0083179030AB00B4018317F8
:102010002A0884007B308000AA0A5F08AF00AF0A5C
:1020200083172B08840000088A110A12F8208A11ED
:102030000A162208B4072108B40783172A08840067
:1020400022088000AA0A2A08840021088000AA0A1F
:10205000AB0AAF0B102834088A110A12F8208A1133
:102060000A1683172A08840022088000AA0A2A0870
:10207000840021088000AA0A2A0884007D3080009C
:1020800083171030AA002A0884000008B200E72055
:10209000AA0A7D30B206031D43280800B401831745
:1020A0001030AA008313A030A90083172A088400E7
:1020B0000008B00083132908840030088000AA0AB1
:1020C000A90A0230AF0083172A0884000008B00074
:1020D000B40730088A110A12E8208A110A16B000E3
:1020E00083132908840030088000AA0AA90AAF0BCC
:1020F00063288313A23084000008B3008403000E19
:10210000B30406303302AF0083172A0884000008A6
:10211000B000B40730088A110A12E8208A110A16A2
:10212000B00083132908840030088000AA0AA90A95
:10213000AF0B84280230AF0083172A088400000800
:10214000B00030088A110A12E8208A110A16B0007D
:1021500083132908840030088000AA0AA90AAF0B5B
:102160009C2808003308AF00AF03AF030310AF0C87
:1021700083171030AA0084000008B200E720AA0AE2
:102180002A0884000008B200E720AA0A2A0884006E
:102190000008B200E720AA0AAF0BC0282A08840072
:1021A0000008B200E7200800F012F01503138316B0
:1021B00080308C048312061470158A110A12E420F0
:1021C0008A110A16F01AE6280B1DE2280800701280
:1021D000F0110313831680308C04831206147015DB
:1021E00032088800701EF228080008000530ED0053
:1021F0006F240E30ED006F247608EB007508EA00BE
:102200007408E9007308E800C4247A08EB00790830
:10221000EA007808E9007708E800C424080083177A
:102220009030AB002B0884000008E800AB0A2B08B4
:1022300084000008E900AB0A2B0884000008EA00CB
:10224000AB0A2B0884000008EB00C424080000300F
:10225000EB000030EA000030E9000030E800C42460
:10226000DE30EB00AD30EA000030E9000030E8007D
:10227000C424080042304B0711300318013E8A0085
:102280004B08422982073C340434BF348834343448
:102290008434203400343C34053400341F34343466
:1022A000A53400344034AC34853400340034343444
:1022B000053408340034AC348534003410343434FC
:1022C000053480340034AC34853400342034AC34EC
:1022D0008534003430343C340434A0340034343495
:1022E0008434083400343C340734DE34AD343C34B8
:1022F0000634FF3420343C340534FF3420348C342D
:10230000C434003400348C34C3340034003410340A
:10231000673400340B34003400340034003410349B
:102320006034FF34FB3400340034003400348C3427
:10233000A2340034003424346334FF34FF34AC342A
:1023400082340034003424348434003404341434AB
:102350006034FF34FB340034003400340034103473
:102360000034FF34F33400340034003400343C349F
:102370000234A0340034343442340934003400349C
:1023800040340034083400340034003400340E305B
:10239000ED006F240030EB000030EA000030E9006F
:1023A0008030E800C4247608EB007508EA00740861
:1023B000E9007308E800C4240830C900831790308E
:1023C000AB001030C8000830C70083171030AA00D7
:1023D0008A110A16D4208A110A1631088008B40717
:1023E000840AC70BE82983171030AA000430C700FD
:1023F00083172A08840000088A110A12E8208A112B
:102400000A16B100B10EAA0A2A08840000088A112F
:102410000A12E8208A110A16B104AA0A83172B08A7
:10242000840031088000AB0AC70BF829C80BE329E8
:1024300083179030AB001030C80083172B0884003E
:102440000008E800AB0A2B0884000008E900AB0A8A
:102450002B0884000008EA00AB0A2B08840000085F
:10246000EB00AB0AC424C80B1D2AC90BDE29F924D2
:102470005B25682508000830E3000E30ED006F246E
:102480000030EB000130EA007808E9007708E80046
:10249000C4247608EB007508EA007408E9007308A4
:1024A000E800C424F9245B256825F526003A0319C1
:1024B000A32A83179030AB000830CA000E30ED001D
:1024C0006F240030EB000030EA000030E9000030FB
:1024D000E800C42483172B08840064088000AB0A3A
:1024E0002B08840065088000AB0A2B08840066086E
:1024F0008000AB0A2B08840067088000AB0ACA0B77
:102500005E2A752583171030AA000830C6000430F3
:10251000C70083172A0884000008B2008A110A162F
:10252000E7208A110A16AA0A2A0884000008B200C5
:102530008A110A16E7208A110A16AA0AC70B892AE5
:10254000C60B872A552A08000800080008000E302C
:10255000ED006F240030EB000630EA000030E900A7
:102560000030E800C4247608EB007508EA0074081F
:10257000E9007308E800C4247A08EB007908EA004F
:102580007808E9007708E8000310E80DE90DEA0D86
:10259000EB0D0310E80DE90DEA0DEB0DC424F92451
:1025A0005B258313A030A9002908840065088000FA
:1025B000A90A2908840064088000A90A682508007F
:1025C0000E30ED006F240030EB000730EA000030E1
:1025D000E9000030E800C424F9245B258313A0300F
:1025E000A9002908840066088000A90A2908840037
:1025F00065088000A90A2908840064088000A90AE7
:10260000682508000E30ED006F240030EB00083024
:10261000EA000030E9000030E800C4247608EB004E
:102620007508EA007408E9007308E800C4247A0811
:10263000EB007908EA007808E9007708E800031061
:10264000E80DE90DEA0DEB0D0310E80DE90DEA0DBB
:10265000EB0DC424F9245B25682583179030AB006B
:10266000F9240930ED006F240030EB000030EA005F
:102670000030E9000030E80092248313A030840089
:1026800067088000840A66088000840A6508800064
:10269000840A640880006825080008000800701794
:1026A0000030AD00080070170730AD0008000C3096
:1026B000C6000030CB003A21C100CB0A3A21C0004D
:1026C000CB0A3A21BF00CB0A3A21BE00CB0A312502
:1026D000C60B5B2B1530C6003030CB003C30C10040
:1026E0000630C0003A21BF00CB0A3A21BE00CB0A17
:1026F00031253430C100C630C0003A21BF00CB0ABA
:102700003A21BE00CB0A3125AC30C1008630C00072
:102710000030BF000030BE0031252430C1008430BD
:10272000C0000030BF000430BE003125C60B6E2B48
:102730003C30C1001930C000A030BF000030BE00E6
:1027400031253730C1003930C0000830BF000030BB
:10275000BE0031250330C1002030C0000030BF0072
:102760000830BE0031250030C1000030C00000300C
:10277000BF000030BE00312508000430ED006F249A
:102780000730ED006F24D130E80008250530ED005A
:102790006F240C30ED006F240430ED006F240730FF
:1027A000ED006F24D030E8000825FE30E800082551
:1027B00008009412031383165016D0125008870095
:1027C000831285168712D00C031887168715871178
:1027D0008712D00C03188716871587118715941256
:1027E000031383165016D0165008870083128512E3
:1027F000871187155011871A50158711080004306A
:10280000ED006F240730ED006F24FC30E800082550
:102810000030C4008A110A12E4208A110A16073017
:10282000ED006F240030E8000825E41D1E2C64191B
:102830001E2C0130EF00E41FFF2B242C0B1D0F2C4E
:10284000C40B0A2C0030EF000800A8121F30EC0067
:102850000630EE0064240430ED006F240730ED00F4
:102860006F240A30C5008A110A12E4208A110A1660
:102870000030E8000825E41D432C6419432C013086
:10288000EF00A8164A2C0B1D382CC50B332C00303A
:10289000EF00A8120800080008000800080008005F
:1028A00008000800080008000430ED006F24013023
:1028B000ED006F24EB01EA01E901E8019224080030
:1028C00008000800080008006E08C4005010D0106E
:1028D000EC0C0318D014D923C40B662C0800D014B8
:1028E0005010D923D0145010D923D0105010D92310
:1028F000D0105010D9230430C4005010ED0C031830
:102900005014D010D923C40B7D2C5010ED0C03189B
:102910005014D014D923D0145010D923D0105010F3
:10292000D9230800D0145010D923D0105010D92327
:10293000D0105010D923031050190314E70CE60CE3
:10294000E50CE40C2030C400EB0CEA0CE90CE80CBC
:10295000501003185014D010C4030319D014C40A23
:10296000D92344030319BB2C031050190314E70C9B
:10297000E60CE50CE40CC40BA42CD0145010D923A5
:10298000D0105010D9230800D0145010D923D010E3
:102990005010D923D0105010D923D0105010D92363
:1029A000031050190314E70CE60CE50CE40C20307E
:1029B000C400EB0CEA0CE90CE80C5010031850149E
:1029C000D010C4030319D014C40AD9234403031933
:1029D000F02C031050190314E70CE60CE50CE40C82
:1029E000C40BD92CD0145010D923D0105010D92397
:1029F00008000A30ED006F240030EB000430EA00DC
:102A0000C030E9000030E8009224661DFC2C08006C
:102A1000D0145010D923D0105010D923D0105010FA
:102A2000D923031050190314E40C0830C400E80C37
:102A3000501003185014D010C4030319D014C40A42
:102A4000D92344030319282D031050190314E40C4F
:102A5000C40B172DD0145010D923D0105010D923E7
:102A600008000530ED006F240A30ED006F240030BF
:102A7000EB000430EA00C030E9000030E8009224A6
:102A8000661D372D0930ED006F244108EB0040082A
:102A9000EA003F08E9003E08E80092240A30ED0011
:102AA0006F240030EB000030EA00C030E900003055
:102AB000E800922408000930ED006F240030EB009C
:102AC0000030EA000030E9000030E80092240800FD
:102AD0000A30ED006F240030EB000030EA00C03017
:102AE000E9000030E8009224080083171030AA00A3
:102AF00083179030AB000C30CA000430C600831737
:102B00002B08840000088A110A12F8208A110A167C
:102B10002208B4072108B40783172A088400220872
:102B20008000AA0A2A08840021088000AA0AAB0AA9
:102B3000C60B7F2DCA0B7D2D08000130E300A812C3
:102B40002813281EFF252524BD235723F620F5260C
:102B5000003A0319AF2DB125A8260F21A72D272153
:102B6000080083171030AA008A110A16D4208A118F
:102B70000A16B4078A110A16D4208A110A16B40755
:102B80008A110A16D4208A110A16B4078A110A1665
:102B9000D4208A110A16B4078A110A16D4208A1181
:102BA0000A16B4078A110A16D4208A110A16B40725
:102BB0008A110A16D4208A110A16B4078A110A1635
:102BC000D4208A110A16B407080008008313A03025
:102BD000A9002908840000308000A90A290884007F
:102BE00000308000A90A29088400443080000800D1
:102BF0008313A030A90084001430800008008A11DB
:102C00000A12DD268A110A168A110A12D3268A119F
:102C10000A1600008A110A12DD268A110A168A1184
:102C20000A12D0208A110A168712941203138316EF
:102C3000D011500887008312051503138316501610
:102C4000D012500887008312851687124D30E80095
:102C50006D264330E8006D264830E8006D26503080
:102C6000E8006D268A110A12D3268A110A168A11E3
:102C70000A12D0208A110A16281608001F30EC000C
:102C80000730EE0064248A110A12DD268A110A1622
:102C90000000000000000000000000000000000034
:102CA0008715000000000000000000000000000088
:102CB000000087110000000000000000000000007C
:102CC000000000002812AA30E1008A110A12D02068
:102CD0008A110A16E10B652E08000830E100E80DA4
:102CE0000318732E752E8716762E8712871500000F
:102CF0008711E10B6F2E87120800281EFF2525245F
:102D0000FF233E26842EA52208000800281EFF254A
:102D100025248313A03084006F08800000306F06E4
:102D20000319A81601306F060319A8120800803095
:102D3000E300281EFF25F526003A0319A72EC72118
:102D40000230F4070318F50A0319F60A9B2E08004F
:102D500083171030AA0083179030AB000430E200D4
:102D600083172A0884000008B0008A110A12E8209C
:102D70008A110A16B000B00EAA0A2A0884000008B8
:102D8000AA0A8A110A12E8208A110A16B0048317C7
:102D90002B08840030088000AB0AE20BB02E08003C
:102DA000281EFF253B220800701383179030AB00CC
:102DB000FF252524A81EF22E542483172B088400F7
:102DC00067088000AB0A2B08840066088000AB0A05
:102DD0002B08840065088000AB0A2B088400640877
:102DE0008000F32E70173E260800FA08031D032FFB
:102DF000F908031D032FF808031D032FF708031D0F
:102E0000032F003008006308F70203180F2F01306A
:102E1000F80203180F2FF90203180F2FFA02FF30E0
:042E2000080008009E
:043000000034003464
:00000001FF
