:020000040000FA
:0400000015EF00F008
:020008001000E6
:08001800100052656164696E7D
:10002000675461626C654C4344007C0ED36E9B8CBC
:10003000926A936A946A956A72EC00F072EC00F02E
:10004000330E4BEC00F0320E4BEC00F0280E4BEC74
:1000500000F00C0E4BEC00F0060E4BEC00F0010E25
:100060004BEC00F0000EF86E000EF76E1A0EF66EF6
:100070000800F5505AEC00F00B00F550FBE1AA0E19
:100080008A6E274E47EF00F072EC00F0FAD78A1E16
:10009000F8D749EF00F08C94206EF00B8C6E8C86B4
:1000A0002038F00B8C968C6E8C8600008C9672EC4F
:1000B00000F012008C94216E2150F00B040F836E1F
:1000C0008C862138F00B8C96040F836E8C86000092
:1000D0008C966CEC00F01200230E256E252E6EEF30
:1000E00000F01200C20E256E0A0E266E252E7AEF43
:0A00F00000F0262E76EF00F012005B
:020000040030CA
:03000100081F1EB7
:020005008181F7
:060008000FC00FE00F40E5
:00000001FF
